:020000040800F2
:1000000040070020A1010008A326000819240008C9
:10001000A126000827070008193400080000000086
:100020000000000000000000000000008D28000813
:100030001B08000800000000A52600088F28000803
:10004000BB010008BB010008BB010008BB010008A0
:10005000BB010008BB010008BB010008BB01000890
:10006000BB010008BB010008BB010008BB01000880
:10007000BB010008BB010008BB010008BB01000870
:1000800029070008BB010008BB010008BB010008EC
:10009000BB010008BB010008BB010008BB01000850
:1000A000BB010008E12E0008BB010008BB010008ED
:1000B000BB010008BB010008BB010008BB01000830
:1000C000BB010008BB010008BB010008BB01000820
:1000D000BB0100080D340008BB010008BB0100088B
:1000E000BB010008BB010008BB010008BB01000800
:1000F000BB010008BB010008BB010008BB010008F0
:10010000BB010008BB010008BB010008A9260008CC
:10011000BB010008BB010008BB010008BB010008CF
:10012000BB010008BB01000835070008BB0100083F
:10013000BB010008BB010008BB010008BB010008AF
:10014000BB010008BB010008BB010008BB0100089F
:10015000BB010008BB01000841070008BB01000803
:10016000BB010008BB010008BB010008BB0100087F
:10017000BB010008BB010008BB0100080000000033
:10018000BB010008BB010008DFF810D000F04AFAFC
:10019000004800471D3E0008AFF3008040070020E4
:1001A0000648804706480047FEE7FEE7FEE7FEE711
:1001B000FEE7FEE7FEE7FEE7FEE7FEE72929000887
:1001C000890100082DE9F05F0546002092469B4614
:1001D00088460646814640241BE02846414647465D
:1001E000224600F057F853465A46C01A914110D3A0
:1001F00011461846224600F03EF82D1A67EB01081A
:100200004F4622460120002100F035F817EB000987
:100210004E41201EA4F10104DFDC484631462A4647
:100220004346BDE8F09FD2B201E000F8012B491E21
:10023000FBD270470022F6E710B513460A46044683
:100240001946FFF7F0FF204610BD30B50B460146BA
:1002500000202022012409E021FA02F59D4205D365
:1002600003FA02F5491B04FA02F52844151EA2F10F
:100270000102F1DC30BD202A04DB203A00FA02F151
:10028000002070479140C2F1200320FA03F3194384
:1002900090407047202A04DB203A21FA02F0002126
:1002A000704721FA02F3D040C2F120029140084386
:1002B000194670472DE9FE4F804681EA0300C00FC2
:1002C0000C46009021F0004123F00045B8EB0200FD
:1002D000A94105D24046214690461C460B4602469F
:1002E00023F00040104347D0270DC7F30A00C3F3A3
:1002F0000A510290401A019040286BDAC3F31300B0
:1003000040F4801B0098924620B10023D2EB030AF0
:1003100063EB0B0B01985946C0F140025046FFF7C2
:10032000AAFF06460D4650465946019A00F08CF940
:1003300010EB08006141002487EA115284EAE77358
:100340001A4340D0009A62B3019A012A4FEA075239
:1003500015DC001B61EB02014FF0004202EA07527C
:10036000CDE90042001C41F5801132462B4600F0D9
:100370008CF903B0BDE8F08F40462146F9E7001B39
:1003800061EB0201001C41F5801300185B4120184D
:10039000A2F5001747EB030140EAD570B6196D418D
:1003A00011E06D084FEA360645EAC0754FEA07527C
:1003B000001B61EB0201001C41F5801149084FEA66
:1003C00030000019514132462B4603B0BDE8F04FD2
:1003D00000F04CB90098012240000023D0EB02024B
:1003E00063EBE073009821464FEAE074B8EB00003D
:1003F00061EB0401E9E783F000435BE781F0004132
:1004000058E72DE9FE4F81EA030404F0004421F08F
:10041000004100944FF0000B23F0004350EA010428
:100420005ED052EA03045BD0C3F30A54C1F30A5509
:100430002C44A4F2F3340194A0FB0254C1F3130141
:1004400041F48011C3F3130343F4801301FB02440E
:1004500000FB034E840A970A44EA815447EA835713
:10046000A4FB076802958D0A05FB07854FEA932CCC
:1004700004FB0C542705029D4FEA065847EA16373D
:10048000B5EB08056EEB070C870E920E47EA811755
:1004900042EA8312A7FB0201B6EB0B0164EB0004F6
:1004A0002B0D43EA0C335E1844EB1C50DA465146E0
:1004B000E7FB0201C5F313044FEA0B3343EA14537D
:1004C0004FEA0432019C43EA0603A4F10C040294AF
:1004D000009CCDE900B400F0D8F803B0BDE8F08F7F
:1004E00000200146F9E72DE9F04D81EA030404F00C
:1004F000004B21F0004514464FF0000A23F0004164
:1005000050EA050220D054EA01021DD0C5F30A5773
:100510000246C5F31303C1F31300C1F30A5640F4B6
:10052000801543F48013A7EB0608101BD64608F28B
:10053000FD3873EB050002D308F1010801E09218C1
:100540005B41B8F1000F03DA00200146BDE8F08DF1
:1005500000204FF48011064684460EE0171B73EB13
:10056000050705D3121B63EB050306434CEA010C98
:1005700049084FEA300092185B4150EA0107EDD17B
:1005800052EA030012D082EA040083EA050108431C
:1005900005D0101BAB4106D20122002306E0002249
:1005A0004FF0004302E06FF0010253101AEB060017
:1005B0004CEB085110EB0A0041EB0B01BDE8F04D8C
:1005C00000F054B8C1F30A52C1F3130140F2FF33F3
:1005D00041F480119A4202DA00200146704740F24D
:1005E00033439A42A2F2334202DC5242FFF752BE38
:1005F000FFF741BE30B5041E71F1000404DB4FF07B
:100600000044404264EB0101141E73F1000405DB59
:100610001C464FF00043524263EB0403994208BF6B
:10062000904230BD064C074D06E0E06840F0010303
:1006300094E8070098471034AC42F6D3FFF7A8FDC2
:1006400070A2000890A20008202A06DBCB17203AEF
:1006500041FA02F043EAE07306E041FA02F3D040C7
:10066000C2F12002914008431946704710B5141E8C
:1006700073F1000408DA401C41F1000192185B415B
:100680001A4301D120F0010010BD2DE9F04D924632
:100690009B4611B1B1FA81F202E0B0FA80F2203249
:1006A0009046FFF7E8FD04460F4640EA0A0041EA9B
:1006B0000B0153465A46084313D0114653EA010032
:1006C00019D0C8F140025046FFF7E4FD05460E463A
:1006D000504659464246FFF7CEFD084305D001205B
:1006E00004E020463946BDE8F08D0020054346EA87
:1006F000E0762C4337430A986305E40AA0EB080030
:100700000022FD0A44EA47540A3002D5002001467F
:10071000E9E7010510196941DDE90845001969415A
:10072000BDE8F04DA2E7FEE7014800F0D3B80000B5
:10073000C4000020014800F0CDB800007C02002079
:10074000014800F0C7B80000DC0200200168CAB20E
:10075000103A1823B2FBF3F2064B9B5CC3656FF3B0
:100760000901032A02D9091D816500E08165806DB8
:1007700070470000DC3E000810B5014600208A6A80
:100780008B694FF0C074002B0ED0B3F5005F1AD008
:1007900062B3012A2AD0022A28D0032A03D1C96AC7
:1007A000C90100D5012010BD1AB1012A06D0022AC4
:1007B000F9D1C96AC901F6D5012010BDC96AA142A3
:1007C000FBD1012010BD52B1012A0AD0022A06D065
:1007D000032AF7D1C96AA142F4D1012010BD01203A
:1007E00010BDC96AC901FBD5012010BD012010BD93
:1007F00030B50468256825F48025256004686360A9
:100800008368402B04D0036899600068C26030BDE3
:1008100003689A600068C16030BD704772B6FEE739
:100820002DE9F0410446A76D00F0CEFA054694F894
:1008300035000026022806D08020606584F83460E8
:100840000120BDE8F0812068016821F016010160F7
:100850002068416921F080014161206C08B9A06CD9
:1008600020B12068016821F008010160206801685A
:1008700021F0010101600BE000F0A6FA401B052801
:1008800006D9202034342062032060702670D8E717
:1008900020680068C007EFD134343F2094F8281056
:1008A0008840B8600120607026700020C9E790F889
:1008B0003510022903D080214165012070470521B0
:1008C00080F835100068016821F001010160002006
:1008D000704700002DE9F84304464FF00009CDF8B9
:1008E00000906F484FF416510068B0FBF1F7A56D0A
:1008F0002E6894F85C00082202FA00F1314210D010
:100900002068016849070CD5016821F004010160E5
:1009100094F85C0002FA00F1A960606D40F00100FB
:10092000606594F85C104FF0010808FA01F030425D
:1009300008D021684969090604D5A860606D40F0B7
:100940000200606594F85C1004208840304208D0B2
:1009500021680968890704D5A860606D40F004002B
:10096000606594F85C1010208840304220D02168E7
:10097000096809071CD5A8602068016849030CD5DF
:100980000068000304D4216C91B1204688470FE031
:10099000A16C69B1204688470AE00168C90503D403
:1009A000016821F008010160216C09B120468847E7
:1009B00094F85C102020884030424CD021680968AF
:1009C000C90648D5A86094F8350005280BD02068E2
:1009D0000168490330D50068000328D4616C51B325
:1009E0002046884737E02068016821F01601016041
:1009F0002068416921F080014161206C08B9A06C38
:100A000020B12068016821F00801016094F85C10B1
:100A10003F208840A86084F8358084F83490216DA8
:100A200000293BD001B02046BDE8F0430847E16B08
:100A300009B1204688470EE00168C90507D401685E
:100A400021F01001016084F8358084F83490E16B66
:100A500009B120468847606D00281FD0606DC0072F
:100A600014D0052084F835002068016821F00101C8
:100A700001600098401C0090B84203D820680068CC
:100A8000C007F6D184F8358084F83490E16C0029F1
:100A900004D001B02046BDE8F0430847BDE8F88324
:100AA0000C0000202DE9F041044600F08DF90546C8
:100AB0005CB1022084F83500002684F83460206898
:100AC000016821F0010101600DE00120BDE8F08125
:100AD00000F07AF9401B052805D920206065032025
:100AE00084F83500F2E720680068C007F0D121687B
:100AF0000A6820480240D4E901031843D4E90335C9
:100B00002B43184363691843A3691843E3691843E7
:100B1000236A18431043626A042A03D1D4E90B23E1
:100B20001A43104308602068406920F00700656A96
:100B300029460543012704290DD1A06A0543E06A2F
:100B400048B12046FFF718FE28B14020606584F8C0
:100B500035700120BAE7206845612046FFF7F6FDB1
:100B600094F85C203F2191408160666584F835707F
:100B70000020ABE73F8010F02DE9F041044600254E
:100B8000A66D94F8340001280DD0012084F83400BB
:100B900094F835700020012F07D084F83400022526
:100BA0002846BDE8F0810220FBE7022784F8357073
:100BB00060652046FFF71CFE94F85C103F208840DB
:100BC000B0602068016841F016010160206C20B11E
:100BD0002068016841F0080101602068016841F067
:100BE00001010160DCE700002DE9F84F0022DFF889
:100BF0009C914FF0010803274FF00F0C09F1040AF4
:100C0000A9F1040B08FA02F50B682B40AB426ED138
:100C10000C7904F00304012C01D0022C15D1866854
:100C2000540007FA04FE26EA0E06D1F80CE00EFA8C
:100C300004FE4EEA060EC0F808E04468AC430D79A5
:100C4000C5F300159540254345600C79E443A4079E
:100C500008D0C568540007FA04F6B5438E68A6406C
:100C60002E43C6600C7904F00304022C11D1D40881
:100C700000EB8406356A5407E40E0CFA04FE25EAFC
:100C80000E05D1F810E00EFA04FE4EEA050EC6F885
:100C900020E00568540007FA04F6B5430E7906F023
:100CA0000306A6402E4306604C6814F4403F67D00C
:100CB000374C256845F480452560246804F4804459
:100CC0000094344C22F003052E19D6F808589407E6
:100CD0004FEA147E0CFA0EF4A5432F4CA04201D12A
:100CE000002424E02D4CA04202D101241FE047E063
:100CF0002B4CA04201D1022419E02A4CA04201D180
:100D0000032414E0284CA04201D104240FE0274C16
:100D1000A04201D105240AE0254CA04201D10624BD
:100D200005E0244CA04201D1072400E0082404FA85
:100D30000EF42C43C6F80848D9F800409C434D688F
:100D4000ED0200D51C43C9F80040DAF800409C438E
:100D50004D68AD0200D51C43CAF80040DBF80040E6
:100D60009C434D68AD0300D51C43CBF80040074DB4
:100D7000083D2C689C434E68F60300D51C432C604C
:100D8000521C102AFFF43EAFBDE8F88F083C01402A
:100D9000443802400030014000000240000402409C
:100DA00000080240000C0240001002400014024003
:100DB00000180240001C0240002A01D081617047E7
:100DC0000904816170470000014880687047000095
:100DD0000000002070B50446002C04D094F83D00BB
:100DE000002510B106E0012070BD84F83C5020467B
:100DF00000F0BCF8242084F83D002068016821F050
:100E0000010101602068016841F40041016020682F
:100E1000016821F40041016000F03AFA4F4B61682B
:100E2000994203D84E49884203D304E04D49884291
:100E300001D2012070BD4C49B0FBF1F12268566827
:100E400026F03F060E43566062689A4201D8491C5C
:100E500007E04FF4967251434FF47A72B1FBF2F10E
:100E6000491C2268166A26F03F0631431162616808
:100E7000994210D84900401EB0FBF1F2521CC2F357
:100E80000B02042A01D2042022E0B0FBF1F0401C46
:100E9000C0F30B001CE0A268F2B301EBC10303EB4B
:100EA0000116431EB3FBF6F35B1C43F480431B05A2
:100EB00049D092B301EBC10202EB0111401EB0FB1D
:100EC000F1F0401CC0F30B0040F4804040F40040BF
:100ED0002168CA694CF6FF739A431043C861D4E98C
:100EE000071001432068026822F0C002114301602C
:100EF000D4E9030101432068826848F2FF339A4332
:100F000011438160D4E9051001432068C26822F0D2
:100F1000FF021143C16001E00EE016E020680168A5
:100F200041F0010101602564202084F83D00256323
:100F300084F83E50002070BD01EB4106431EB3FB18
:100F4000F6F35B1CB3E70120C2E701EB4101401E51
:100F5000B0FBF1F0401CC0F30B00B7E7A086010026
:100F600080841E0000093D0040420F00F0B587B0AC
:100F70000446142102A8FFF75DF91D492068884244
:100F800033D100271B48016841F00401016001686A
:100F900001F004010191016841F001010160006864
:100FA00000F0010001904FF40070029012260396A9
:100FB0000497032405940425069502A90E48FFF71B
:100FC00013FEA8010290039604970594069502A9C2
:100FD0000A48FFF709FE07481030016841F4000194
:100FE0000160006800F40000019007B0F0BD00004F
:100FF000005C00403038024000080240000002401F
:101000000248816802781144816070470000002026
:1010100010B50B48016841F400710160016841F4AA
:1010200080610160016841F480710160032000F07B
:1010300071F80F2000F006F800F026F8002010BD2F
:10104000003C024070B504460D4D4FF47A7128788B
:10105000B1FBF0F00B490968B1FBF0F000F0CAFDFC
:1010600008B1012070BD102C07D200222146501E6D
:1010700000F030F86C60002070BD012070BD0000F1
:10108000000000200C00002008B50A48016841F467
:1010900080410160006800F4804000900548001F16
:1010A000016841F080510160006800F080500090BC
:1010B00008BD000044380240002809DB00F01F0290
:1010C000012191404009800000F1E020C0F80011AA
:1010D00070470000F0B40D460D4B1B68C3F30223AC
:1010E000C3F10704042C00D90424191D072901D2D7
:1010F000002300E0DB1E012606FA04F1491E294008
:1011000099409E40761E16403143F0BC02F0C2B9B1
:101110000CED00E000F00701054A10684FF6FF03F0
:10112000184040EA0120034908431060704700005E
:101130000CED00E00000FA052DE9F04704460D46ED
:10114000002C13D0DFF82891D9F80000EFB200F09E
:101150000700A8420CD289F80070D9F8000000F00E
:101160000700A84204D00120BDE8F0870120FBE77A
:101170002068404E810712D5400703D5306840F4FF
:10118000E05030602078000703D5306840F46040BC
:1011900030603068A16820F0F000084330602078AB
:1011A000C00731D0334960680839012808D00228C7
:1011B0000BD0032809D0096889070BD40120D3E795
:1011C0000968890306D40120CEE70968890101D4A2
:1011D0000120C9E7316821F0030101433160FFF7C5
:1011E000F3FD804641F2883A07E0FFF7EDFDA0EB02
:1011F0000800504501D90320B6E73068616800F067
:101200000C00B0EB810FF0D1D9F8000000F007001E
:10121000A84209D989F80070D9F8000000F0070049
:10122000A84201D001209FE72078400705D530680B
:10123000E16820F4E050084330602078000706D5CC
:101240003068216920F4604040EAC100306000F05D
:101250003FF83168084AC1F30311515CC84007499F
:10126000086007480068FFF7EDFE00207CE70000FB
:10127000003C024008380240E43E00080C00002018
:101280000400002001480068704700000C000020A6
:1012900000B5FFF7F7FF04490968044AC1F382214A
:1012A000515CC84000BD000008380240F43E000810
:1012B00000B5FFF7E7FF04490968044AC1F342316A
:1012C000515CC84000BD000008380240F43E0008F0
:1012D00010B51748006810F00C01164816D04310DE
:1012E000042912D0082911D1114C241F216801F0C2
:1012F0003F02216849020AD52068C0F38810A0FB8C
:1013000003010023FEF75EFF09E0184610BD2168C7
:101310000023C1F38811A1FB0001FEF753FF2168F0
:10132000C1F30141491C4900B0FBF1F010BD0000C0
:10133000083802400024F4002DE9F84F0446002C40
:1013400013D02078DFF8A083C007A8F1040556D099
:1013500008F104000168C1F3810101290CD0006883
:10136000C0F38100022803D00DE00120BDE8F88F12
:10137000D8F80000400206D5286880033FD5606891
:1013800070BB0120F2E76068B0F5803F10D0B0F587
:10139000A02F12D0286820F480302860286820F41C
:1013A000802028606068E0B1FFF70EFD064614E07B
:1013B000286840F480302860F4E7286840F48020F2
:1013C0002860286840F480302860EBE7FFF7FCFCD9
:1013D000801B642801D90320C8E728688003F5D55D
:1013E0000DE0FFF7F1FC064606E0FFF7EDFC801B81
:1013F000642801D90320B9E728688003F5D4207850
:10140000BA4F80074FF0000948D5B748001D016862
:1014100011F00C0F08D00068C0F38100022813D12E
:10142000D8F8000040020FD42868800704D5E0688F
:10143000012801D0012099E72868216920F0F800EF
:1014400040EAC100286029E0E068B8B101203860B6
:10145000FFF7BAFC064606E0FFF7B6FC801B022841
:1014600001D9032082E728688007F5D5286821691B
:1014700020F0F80040EAC10028600FE0C7F80090B3
:10148000FFF7A2FC064606E0FFF79EFC801B022841
:1014900001D903206AE728688007F5D4207800077F
:1014A00029D5DFF844A2924861690AF1700A89B12E
:1014B00001210160FFF788FC064606E0FFF784FC87
:1014C000801B022801D9032050E7DAF800008007CA
:1014D000F4D510E0C0F80090FFF776FC064606E071
:1014E000FFF772FC801B022801D903203EE7DAF8DF
:1014F00000008007F4D42078400778D54FF0000A28
:1015000079483C300068C0000BD477483C30016813
:1015100041F080510160006800F0805000904FF071
:10152000010ADFF8D0B1DBF80000C00514D4DBF805
:10153000000040F48070CBF80000FFF745FC064641
:1015400006E0FFF741FC801B022801D903200DE7CC
:10155000DBF80000C005F4D5634EA0686C360128A6
:101560000FD0052812D0306820F0010030603068BC
:1015700020F004003060A068F8B1FFF725FC834636
:1015800017E0306840F001003060F4E7306840F068
:1015900004003060306840F001003060EBE7FFF796
:1015A00013FCA0EB0B0141F28830814201D90320EA
:1015B000DCE630688007F2D510E0FFF705FC8346D3
:1015C00009E0FFF701FCA0EB0B0141F288308142FA
:1015D00001D90320CAE630688007F2D4BAF1010FBE
:1015E00005D141483C30016821F080510160A0697B
:1015F000C0B33D49091D09684FF0FF36C1F38101B1
:10160000022946D0022805D0C7F86090FFF7DCFB1E
:1016100004463AE0C7F86090FFF7D6FB814607E042
:10162000FFF7D2FBA0EB0900022801D903209DE6B9
:1016300028688001F4D4D4E907010843616AA26AEA
:10164000890106EB520241EA0241084394F82C104A
:1016500040EA0160C8F8000001203866FFF7B4FBDB
:10166000044607E03DE0FFF7AFFB001B022801D96D
:1016700003207BE628688001F5D532E0FFF7A4FB64
:10168000001B022801D9032070E628688001F5D4E8
:1016900027E0012823D0D8F80000E26900F4800197
:1016A00091421AD1226A00F03F01914215D147F6CA
:1016B000C071626A0140B1EB821F0ED1A26A00F4D0
:1016C000403106EB5202B1EB024F06D194F82C10D8
:1016D00000F07060B0EB016F03D0012046E60120FE
:1016E00044E6002042E60000043802400000474281
:1016F000800E4742007000407047000038B5044635
:10170000206842688168C9434B060AD5CB0708D1D7
:10171000D3435B0605D4216C01B02046BDE83040C0
:1017200008478B0708D4D3431B0605D4616C01B06E
:101730002046BDE8304008478B0603D54B0601D54F
:10174000CB0551D4D3439B064ED44B060AD494F810
:101750005130032B49D0636D43F004036365C368C4
:10176000836800938B0609D4636D43F001036365BE
:1017700083680093036823F040030360C80506D420
:10178000606D40F008006065206880680090606DC2
:10179000002829D02068416821F0E0014160012043
:1017A00084F85100900701D4D00722D02068416806
:1017B00021F003014160114DE06C40B10565E06C22
:1017C000FFF775F818B1606D40F040006065A06CDF
:1017D000002809D00565A06CFFF769F8002803D040
:1017E000606D40F04000606538BDC1688068009061
:1017F00038BD2046FFF780FF38BD0000B526000841
:1018000070B50446002C09D0606A002540B12561FE
:101810006561A56294F8510040B10CE0012070BDF3
:101820006068B0F5827FF4D0E561F2E784F850504B
:10183000204600F045F8022084F851002068016835
:1018400021F040010160A088218900F4827001F438
:1018500004410843A18901F400610843217C01F09F
:1018600002010843217D01F001010843218B01F4AD
:1018700000710843217F01F03801084394F82010DB
:1018800001F080010843218D01F4005108432168D3
:101890000860A069042101EA104094F8241001F0C6
:1018A00010010843216848602068C16921F4006183
:1018B000C1616565012084F85100002070BD000001
:1018C00070B586B00646142101A8FEF7B3FC234983
:1018D000306888423FD100252148016841F4004129
:1018E0000160006800F4004000901D481038016855
:1018F00041F004010160006800F0040000904FF422
:10190000A05001900220029003950320049006202D
:10191000059001A91348FFF767F9144C124820609D
:1019200065604020A060E560000120616561A561FF
:10193000E561256265622046FFF7B4F808B1FEF75D
:101940006DFFB464A663002211463320FFF7C2FB8B
:101950003320FFF7B1FB06B070BD0000003C004033
:10196000403802400008024088600240C400002065
:101970002DE9F84F04468A4617461D46FFF724FA1C
:10198000064694F85100012802D00220BDE8F88FE5
:10199000BAF1000F23D0380021D094F8500001286C
:1019A0001FD04FF0010984F85090032084F85100B3
:1019B0004FF00008C4F85480C4F830A0A786E7862A
:1019C000C4F83880A4F83C80A4F83E80C4F8448071
:1019D000C4F84080A068B0F5004F04D00DE00120AD
:1019E000D4E70220D2E72068016821F040010160BD
:1019F0002068016841F4804101602068016849065F
:101A000003D4016841F040010160E068B0F5006F67
:101A100004D0606888B3012F30D050E0606808B10E
:101A2000012F20D1206B21680088C860206B801CAA
:101A30002063E08E401EE08615E0206881688907FB
:101A400009D5216B0988C160206B801C2063E08E62
:101A5000401EE08607E0FFF7B7F9801BA84201D3DC
:101A6000681C04D11DB1E08E0028E6D12AE084F87C
:101A7000519084F85080032088E7FFE7206B2168AD
:101A800000780873206B401C2063E08E401EE086C7
:101A900015E020688168890709D5216B09780173F1
:101AA000206B401C2063E08E401EE08607E0FFF7BD
:101AB0008BF9801BA84201D3681C0ED16DB1E08E5A
:101AC0000028E6D132462946204600F043FE08B100
:101AD00020206065A06830B109E084F8519084F856
:101AE0005080032052E72068C1688068009084F825
:101AF000519084F85080606D08B1012046E70020C5
:101B000044E7000070B5044694F85100012801D064
:101B1000022070BDC9B1C2B194F85000012816D09E
:101B2000012084F85000032084F8510000256565E9
:101B30002163A286E286A56365642564A587E5879F
:101B4000A068B0F5004F04D00DE0012070BD022068
:101B500070BD2068016821F04001016020680168C3
:101B600041F480410160A16C17480864A16C1748DA
:101B7000C863A16C1648C864A06C0565E38E226832
:101B8000216B0C32A06CFEF7F7FF38B1606D40F0AE
:101B90001000606584F85050012070BD2068016815
:101BA000490603D4016841F04001016084F85050B7
:101BB0002068416841F0200141602068416841F09F
:101BC00002014160002070BDE7260008F1260008F0
:101BD000C5260008704770474FF0E021042804D064
:101BE000086920F0040008617047086940F00400AB
:101BF0000861704710B5401EB0F1807F01D301200D
:101C000010BD4FF0E02460610F21601701F042FC2D
:101C10000020A06107202061002010BD70477047A0
:101C200070B590F83C20012A31D0012680F83C6044
:101C3000022280F83D2002685468936824F0700501
:101C40000C682C435460134C0268A24214D0B2F1C9
:101C5000804F11D0104CA2420ED0104CA2420BD09B
:101C60000F4CA24208D00F4CA24205D00E4CA2420B
:101C700002D00E4CA24204D123F0800349681943DC
:101C800091603C30467000210170002070BD022040
:101C900070BD00000000014000040040000800404A
:101CA000000C0040000401400040014000180040CA
:101CB00010B50446002C03D094F83D0010B107E0A5
:101CC000012010BD002084F83C00204600F016F8EA
:101CD000022084F83D00211D206801F007F9012051
:101CE0003D3460726070A070E07020716071A0710E
:101CF000E07120722070002010BD000008B500685F
:101D00000B49884212D10B48016841F00101016082
:101D1000006800F001000090002211461920FFF732
:101D2000D9F9BDE808401920FFF7C6B908BD000081
:101D3000000001404438024070B50446002594F884
:101D40003C00012817D0012684F83C60022084F86A
:101D50003D002068826822F0770222F47F42826090
:101D60000868502838D00DDC202853D005DC90B30B
:101D7000102811D14EE0022070BD30284AD04028F2
:101D80000AD13DE0602831D070280CD0B0F5805FDA
:101D900003D0B0F5005F12D001253C3466700020FE
:101DA0002070284670BDCB68D1E90121206801F080
:101DB0000BF92068816841F077018160EDE7CB681D
:101DC000D1E90121206801F0FFF82068816841F421
:101DD00080418160E1E71DE0CA684968206801F040
:101DE00005F95021206801F0F9F8D6E7CA6849687A
:101DF000206801F00CF96021206801F0EFF8CCE7D1
:101E0000CA684968206801F0F1F84021206801F0B3
:101E1000E5F8C2E722680146104601F0DFF8BCE7AA
:101E200070472DE9F04104462068C56806694FF007
:101E30000007B10714D5A90712D5F91E01610120C9
:101E4000207720688069800703D02046FFF7E8FFED
:101E500005E0204600F081F8204600F07FF8277763
:101E6000700717D5680715D521686FF00400086161
:101E7000022020772068806910F4407F03D020463C
:101E8000FFF7CEFF05E0204600F067F8204600F09F
:101E900065F82777300716D5280714D521686FF025
:101EA00008000861042020772068C069800703D0FB
:101EB0002046FFF7B5FF05E0204600F04EF820462B
:101EC00000F04CF82777F00617D5E80615D52168FD
:101ED0006FF010000861082020772068C06910F4B6
:101EE000407F03D02046FFF79BFF05E0204600F02F
:101EF00034F8204600F032F82777F00708D0E807DA
:101F000006D021686FF001000861204600F027F834
:101F1000300608D5280606D521686FF080000861D4
:101F20002046FFF77BFE700608D5680606D52168B7
:101F30006FF040000861204600F012F8B0060AD5A4
:101F4000A80608D521686FF0200008612046BDE88A
:101F5000F041FFF764BEBDE8F081704770477047FD
:101F60007047704770470000F8B504462268106853
:101F7000D168536900F00F06002E08D1850606D5FA
:101F80008D0604D52046BDE8F84001F0E7B80025ED
:101F9000002E66D003F0010601F49077374360D03D
:101FA000C20705D0CA0503D5626C42F00102626423
:101FB000420705D5DA0703D0626C42F00202626480
:101FC000820705D5DA0703D0626C42F0040262642E
:101FD000020707D501F02002324303D0626C42F0C1
:101FE00008026264626C002A31D0800604D588063B
:101FF00002D5204601F0B2F820684069C0F3801095
:10200000616C090700D438B3204601F065F82068F8
:10201000406940061CD52068143050E8001F21F0AC
:10202000400140E80012002AF5D1E06B60B1594947
:102030000165E06BFEF73BFC002808D0E06B016D0A
:1020400001B0BDE8F04008472046FFF78BFFF8BD20
:102050002046FFF787FFF8BD2046FFF783FF656442
:10206000F8BD236B012B7DD1C3067BD5CB067FD575
:1020700010685068009050694FF0200340064FF000
:10208000020644D5E16B0868406880B20028E7D0BA
:10209000A28D8242E4D9E085C869B0F5807F2DD059
:1020A00020680C3050E8001F21F4807140E80012D5
:1020B000002AF5D12068143050E8001F21F00101FA
:1020C00040E80012002AF5D12068143050E8001FC3
:1020D00021F0400140E80012002AF5D184F8423096
:1020E000256320680C3050E8001F21F0100140E803
:1020F0000012002AF5D1E06BFEF792FB6663A08D1B
:10210000E18D401A81B22046FFF72BFFF8BDA08D6C
:10211000E18D401A81B2E08D0028F7D00029F5D07A
:1021200020680C3050E8002F22F4907240E800271D
:10213000002FF5D12068143050E8002F22F0010262
:1021400040E80027002FF5D184F84230256320684D
:102150000C3050E8002F22F0100240E80023002B42
:10216000F5D100E004E066632046FFF7FAFEF8BD13
:10217000020606D50A0604D52046BDE8F84001F05F
:10218000DBB84006F3D54806F1D52046BDE8F84057
:1021900000F0C9BF3330000870B50446002C04D0ED
:1021A00094F84100002510B106E0012070BD84F8CC
:1021B0004050204600F024F8242084F84100206894
:1021C000C16821F40051C160204601F02BF820685D
:1021D000016921F4904101612068416921F02A01DF
:1021E00041612068C16841F40051C16065642020EC
:1021F00084F8410084F842006563002070BD00004F
:102200002DE9F04186B00546142101A8FEF712F829
:1022100030492868884259D100262F48016841F08A
:1022200010010160006800F0100000902A48143886
:10223000016841F001010160006800F001000090B8
:102240004FF4C06001900220029003960320049096
:102250000720059001A92148FEF7C6FC214C204823
:1022600020604FF00068C4F80480A660E66007159F
:1022700027616661A661E661266266622046FEF716
:1022800011FC08B1FEF7CAFAEC63A5631448154CBB
:10229000783060342060C4F804804020A060E6609C
:1022A00027616661A661E661266266622046FEF7E6
:1022B000F9FB08B1FEF7B2FAAC63A5630022114640
:1022C0002520FEF707FF2520FEF7F6FE06B0BDE845
:1022D000F08100000010014044380240000002403C
:1022E000406402407C02002070472DE9F843044618
:1022F0000E4615461F4694F84100202802D00220C1
:10230000BDE8F8837EB175B100206064212084F8B7
:102310004100FEF759FD8146A584E584A068B0F52B
:10232000805F02D003E00120EAE7206920B1354652
:1023300000264FF0200815E00025FAE74B46002262
:1023400080212046009701F026F818B184F84180DA
:102350000320D5E7ADB1216815F8010B4860E08C8A
:10236000401EE084E08C0028E8D14B46002240214A
:102370002046009701F00FF850B184F84180032007
:10238000BEE736F8020B2168C0F308004860E6E7B4
:1023900084F841800020B3E737B5044694F8410043
:1023A000202801D002203EBD019959B352B32162C9
:1023B000A284E28400206064212384F84130A56B6C
:1023C000114BEB63A56B114B2B64A56B104BEB64AE
:1023D000A36B186520681346001DA56B02462846AE
:1023E000FEF7CAFB21686FF04000086020681430D7
:1023F00050E8001F41F0800140E80012002AF5D1AA
:1024000000203EBD01203EBD8D300008CF300008C9
:102410004330000870477047FEE7000008B51548D4
:10242000016841F480010160016801F480010091BC
:10243000016841F400110160006800F40010009090
:10244000002211461020FEF745FE1020FEF734FE54
:10245000002211463A20FEF73DFE3A20FEF72CFE00
:10246000002211464620FEF735FEBDE80840462012
:10247000FEF722BE303802402DE9F04786B0142125
:1024800001A8FDF7D7FE00253548016841F080011D
:102490000160016801F080010091016841F00401D0
:1024A0000160016801F004010091016841F001013F
:1024B0000160016801F001010091016841F008012B
:1024C0000160016801F008010091016841F002011A
:1024D0000160006800F002000090224F4FF40044B9
:1024E000002221463846FEF767FCDFF87C80261183
:1024F000002231464046FEF75FFCDFF87090012273
:1025000011464846FEF758FCDFF864A0002220215F
:102510005046FEF751FC0194012402940394049563
:1025200001A93846FEF760FB0196029403940495D6
:1025300001A94046FEF758FB0194029403940495C8
:1025400001A94846FEF750FB202001900294039415
:10255000049501A95046FEF747FB06B0BDE8F08799
:10256000303802400000024000080240000C0240E7
:102570000004024010B50D480B4901600C49416050
:1025800000218160C1604FF480420261416181613C
:10259000C1610162FEF71EFC002803D0BDE81040B7
:1025A000FEF73CB910BD0000005C004018000020A0
:1025B000A086010010B511480F4901604FF48271E7
:1025C00041604FF4004181600021C16001614161BF
:1025D0004FF4007282611022C26101624162816225
:1025E0000A21C162FFF70CF9002803D0BDE81040B2
:1025F000FEF714B910BD0000003C00406C00002044
:1026000010B586B0002402940394049405940094B9
:102610000194144812490160A7214160846040F28E
:10262000E731C160046144618461FFF741FB08B197
:10263000FEF7F4F84FF48050029002A90948FFF722
:102640007BFB08B1FEF7EAF800940194694605485F
:10265000FFF7E6FA002801D0FEF7E0F806B010BD5B
:10266000000001402401002010B50C480A49016017
:102670004FF4E131416000218160C16001610C22B1
:1026800042618161C161FFF787FD002803D0BDE889
:102690001040FEF7C3B810BD001001403402002006
:1026A000FEE7FEE7704700000148FFF727B800008B
:1026B0006C00002010B5806B0021C187C186FFF738
:1026C0001BF810BD10B5806B01684A6822F0030248
:1026D0004A60416D41F010014165012180F85110BF
:1026E000FFF70AF810BD10B5806BFFF774FA10BD44
:1026F00038B50546AC6BFEF767FB024628680068F4
:10270000C00523D42068416821F020014160206881
:10271000416821F0020141606421204600F01AF86E
:1027200018B1606D40F020006065A068002118B904
:102730002068C26880680090E186012084F851001A
:10274000606D18B12046FEF7D7FF38BD2046FFF771
:1027500041FA38BD7CB504460E4615463346012283
:1027600002212046009500F033F828B1606D40F05A
:102770002000606503207CBD134814490068B0FB4D
:10278000F1F04FF47A71484301906068B0F5827FB0
:102790000DD13346002280212046009500F018F824
:1027A00078B1606D40F02000606503207CBD019829
:1027B00038B10198401E019020688068C04300062F
:1027C000F5D500207CBD00000C00002000366E0115
:1027D0002DE9F84304460F4691461E46089DFEF734
:1027E000F3FA401B351AFEF7EFFA804626480068D8
:1027F000C0F3CB30684300903AE0701C38D0FEF74D
:10280000E3FAA0EB0800A84203D215B1009858B330
:102810002BE02068416821F0E00141606068B0F57C
:10282000827F0BD1A068B0F5004F02D0B0F5806F69
:1028300004D12068016821F040010160A06AB0F570
:10284000005F09D12068016821F40051016020680F
:10285000016841F400510160012050346070002093
:1028600020700320BDE8F88300250098401E0090EA
:102870002068806837EA000004D000204845BCD1B9
:102880000020EFE70120F9E70C0000207047FEF779
:10289000B7BB000030B593B0302107A8FDF7CAFCE4
:1028A000142102A8FDF7C6FC00251D48016841F06F
:1028B00080510160006800F0805001901948016863
:1028C00041F480410160006800F4804001900120E3
:1028D00007900004089002240D9480010E900420BB
:1028E0000F90A82110911194129007A8FEF724FDD3
:1028F00008B1FDF793FF0F200290039404954FF465
:10290000A05005904FF480500690052102A8FEF7D4
:1029100013FC002801D0FDF781FF13B030BD00008B
:1029200040380240007000400248016841F47001E4
:102930000160704788ED00E010B52A2000F046F9EC
:10294000002000F02BF9002000F028F9002000F012
:1029500025F9EF2000F022F92B2000F037F90020B4
:1029600000F01CF9002000F019F9002000F016F921
:10297000EF2000F013F9BDE810402C2000F026B93C
:10298000F8B50446FFF7D8FF002000900122D102DD
:102990000B48FEF711FA200A8DF800008DF801406F
:1029A00000244FF6FF764FF4614533460222694614
:1029B0000448FEF7DDFF641CAC42F6D3F8BD00000E
:1029C000000802406C00002010B5642001F0E2F91C
:1029D000142001F0DFF90A2001F0DCF9112000F0E9
:1029E000F5F80A2001F0D6F93A2000F0EFF80520BA
:1029F00000F0D4F8B22000F0E9F80C2000F0CEF896
:102A00000C2000F0CBF8002000F0C8F8332000F0D4
:102A1000C5F8332000F0C2F8B72000F0D7F8352011
:102A200000F0BCF8BB2000F0D1F8322000F0B6F87E
:102A3000C22000F0CBF8012000F0B0F8C32000F075
:102A4000C5F8152000F0AAF8C42000F0BFF8202037
:102A500000F0A4F8C62000F0B9F80F2000F09EF8AE
:102A6000D02000F0B3F8A42000F098F8A12000F0E6
:102A700095F8E02000F0AAF8D02000F08FF80820A8
:102A800000F08CF80E2000F089F8092000F086F89C
:102A9000092000F083F8052000F080F8312000F0D4
:102AA0007DF8332000F07AF8482000F077F81720FE
:102AB00000F074F8142000F071F8152000F06EF8A2
:102AC000312000F06BF8342000F068F8E12000F0CD
:102AD0007DF8D02000F062F8082000F05FF80E20AA
:102AE00000F05CF8092000F059F8092000F056F8D1
:102AF000152000F053F8312000F050F8332000F09A
:102B00004DF8482000F04AF8172000F047F814204C
:102B100000F044F8152000F041F8312000F03EF8B4
:102B2000342000F03BF8362000F050F8702000F020
:102B300035F8212000F04AF8292000F047F8BDE8D8
:102B400010404FF47840FFF71BBF2DE9F0410646D7
:102B50000C4615461F462A2000F038F8002000F0E9
:102B60001DF8F0B200F01AF8002000F017F8E8B2F3
:102B700000F014F82B2000F029F8002000F00EF8E7
:102B8000E0B200F00BF8002000F008F8F8B200F016
:102B900005F8BDE8F0412C2000F018B801B501227D
:102BA000D1020748FEF708F900224FF4004105481A
:102BB000FEF702F9012269460348FEF7A3FF08BDAC
:102BC00000080240000002406C00002001B5002215
:102BD0004FF400610748FEF7EFF800224FF4004180
:102BE0000548FEF7E9F8012269460448FEF78AFF26
:102BF00008BD000000080240000002406C000020F8
:102C000038B504460020009000224FF400410948E6
:102C1000FEF7D2F80122D1020748FEF7CDF8200ACC
:102C20008DF800008DF80140022269460348FEF746
:102C300069FF38BD00000240000802406C0000201F
:102C40002DE9F0418AB00646109D0F4690461C467D
:102C500012AA02A8119900F00BFC434602AA3946B9
:102C60003046CDE9004500F0E7F80AB0BDE8F08154
:102C70002DE9F05F1E46DDE90A73A2F120046A4ADD
:102C800001F1010C4FF0FF3B012504EB440A0BEB73
:102C9000CC0802EB8A09002B18D0012B39D0022B6B
:102CA0005CD0032B78D01FFA88F3421DFFF74DFF4D
:102CB0004FF00008002405FA08FA39F8140010EA69
:102CC0000A0F6AD03046FFF79BFF9FE01FFA88F398
:102CD000421DFFF73AFF4FF00008002405FA08FAFA
:102CE00039F8140010EA0A0F03D03046FFF788FFC6
:102CF00002E03846FFF784FF641CA4B2062CEFD331
:102D000008F101081FFA88F8B8F1080FE5D3BDE80B
:102D1000F09F0BEB0C1293B2C21DFFF716FF4FF0A2
:102D20000008424800EB4419002439F8180005FA5D
:102D300004F1084203D03046FFF762FF02E0384654
:102D4000FFF75EFF641CA4B2082CEED308F1010863
:102D50001FFA88F8B8F1100FE6D3D8E70CEB4C0255
:102D60000BEBC20293B200F10B02FFF7EEFE4FF045
:102D700000082F4800EB4A1900245FEAC87001D010
:102D8000042C12D239F8180005FA04F1084205D0D3
:102D90003046FFF735FF04E00FE034E03846FFF738
:102DA0002FFF641CA4B2082CE7D308F101081FFA16
:102DB00088F8B8F1300FDFD3A9E70BEB4C1293B2D0
:102DC00000F10F02FFF7C1FE4FF00008194800EBB9
:102DD000C419002439F8180005FA04F1084203D098
:102DE0003046FFF70DFF02E03846FFF709FF641C8D
:102DF000A4B2082CEED308F101081FFA88F8B8F144
:102E0000400FE6D383E73846FFF7FAFE641CA4B20E
:102E1000062CFFF452AF08F101081FFA88F8B8F148
:102E2000080FFFF447AF72E7FC3E0008704300084C
:102E3000504F0008F07200082DE9FC470546DDE917
:102E40000A600F4614469846002807D0012817D07C
:102E5000022826D0032811D181463DE04FF0000919
:102E600009E0CDE90069641C434639462846FFF76E
:102E7000FFFEAD1DEDB22278002AF2D1BDE8FC873D
:102E80004FF0010909E0CDE90069641C4346394669
:102E90002846FFF7EDFE0835EDB22278002AF2D180
:102EA000ECE74FF0020909E0CDE90069641C4346F4
:102EB00039462846FFF7DCFE0C35EDB22278002AB1
:102EC000F2D1DBE7CDE90069641C43463946284668
:102ED000FFF7CEFE1035EDB22278002AF2D1CDE711
:102EE0000148FEF79EBF0000240100202DE9F041BB
:102EF00002682A4D2A4E2B4FDFF8ACC02B4B4FF007
:102F00008048A84209D0404507D0B04205D0B84219
:102F100003D0604501D0984203D122F070044A6882
:102F20002243A8421BD0404519D0B04217D0B84226
:102F300015D0604513D0984211D01D4CA0420ED040
:102F40001C4CA0420BD01C4CA04208D01B4CA042F1
:102F500005D01B4CA04202D01A4CA04203D122F44F
:102F60004074CA6822434C6922F080022243026006
:102F70008A68C2620A688262A84201D0984201D17E
:102F800009690163012141610169C90703D0016930
:102F900021F001010161BDE8F08100000000014065
:102FA0000004004000080040000C00400004014004
:102FB000004001400044014000480140001800402A
:102FC000001C00400020004010B5846824F47F44B9
:102FD00042EA03220A432243826010BD826822F043
:102FE00070020A4342F007018160704710B5036A1E
:102FF000046A24F001040462846924F0F00444EAC1
:10300000021423F00A020A438461026210BD10B563
:10301000036A046A24F010040462846924F470448E
:1030200044EA023223F0A00343EA01118261016203
:1030300010BD10B5806B0021C185C184FEF792FFE1
:1030400010BD70B5846B20684069C0F3C01094F85F
:1030500041100025212904D118B1E584204600F053
:103060006FF820684069C0F3801094F8421022295C
:1030700004D118B1E585204600F02EF8606C40F0D0
:10308000100060642046FEF76DFF70BD10B501466C
:10309000886B09680968C90516D40021C1840168D4
:1030A000143151E8002F22F0800241E80023002B68
:1030B000F5D101680C3151E8002F42F0400241E89F
:1030C0000023002BF5D110BDFFF7A4F910BD10B5FA
:1030D000806BFFF7A0F910BD01680C3151E8002F9B
:1030E00022F4907241E80023002BF5D101681431DD
:1030F00051E8002F22F0010241E80023002BF5D116
:10310000016B012909D101680C3151E8002F22F02F
:10311000100241E80023002BF5D1202180F8421055
:1031200000210163704710B50168CA6822F04002AF
:10313000CA60202180F84110FFF76CF9002010BD13
:1031400001680C3151E8002F22F0C00241E8002351
:10315000002BF5D1202180F84110704708B590F878
:103160004210222901D0022008BD82684FF480530A
:103170009A4201D1016921B1816A9A421DD052B1AE
:103180000BE0816A02685268C2F308020A80816A11
:10319000891C816209E002697AB10268526802F012
:1031A0007F020A70816A491C8162C18D491E09042F
:1031B000090CC18505D0002008BD026852680A705C
:1031C000F0E70168CA6822F02002CA600168CA6894
:1031D00022F48072CA6001684A6922F001024A61E1
:1031E000202180F8421000214163026B012A03D0A4
:1031F000FFF77AF8002008BD016301680C3151E83F
:10320000002F22F0100241E80023002BF5D10168C5
:103210000A68D20602D50A6849680091818DFEF7D6
:10322000A0FEE7E72DE9F041044620680169E26865
:1032300021F4405111430161A1682069E269014311
:103240006069104301432068C26849F20C639A43E5
:103250000A43C26020684169A26921F440711143A8
:10326000416133492068884202D03249884202D104
:10327000FEF71EF801E0FEF70BF8E16900231927BD
:1032800064253226B1F5004F28D061688B0F8A0083
:10329000A0FB0701FCF796FF0146B0FBF5F07A4270
:1032A000504301EB800006EB0010B0FBF5F000F09E
:1032B000F002B1FBF5F002EB0012B1FBF5F07B423E
:1032C000584301EB800006EB0010B0FBF5F02168DD
:1032D00000F00F0010448860BDE8F08161684A1872
:1032E000A0FB07015B41FCF76DFF0146B0FBF5F069
:1032F0000201B1FBF5F06FF01803584301EB8000B9
:1033000006EBC000B0FBF5F000F0F80002EB400265
:10331000B1FBF5F0584301EB800006EBC000B0FBB9
:10332000F5F0216800F0070010448860D4E7000041
:10333000001001400014014090F84110212901D0F3
:10334000022070478168B1F5805F01D1016961B1E8
:10335000016A4A1C0262026809785160C18C491EE8
:103360000904090CC1840AD013E0016A02680988C3
:10337000C1F308015160016A891C0162EEE701682E
:10338000CA6822F08002CA600068C16841F040014A
:10339000C160002070472DE9F84304460D461746EA
:1033A0009846089E25E0701C23D0FDF70DFDA0EB8C
:1033B0000800B0421BD8D6B12068C168490718D5AB
:1033C000802D16D0402D14D00168C943090710D4B0
:1033D000002521680968406800902046FFF77CFEC0
:1033E0000820606484F840500120BDE8F883032081
:1033F000FBE72068006835EA000004D00020B842EE
:10340000D1D00020F1E70120F9E700000148FEF7E4
:10341000ABBD000034020020FEE700000FB4054BF6
:1034200010B503A9044A029800F016F910BC5DF823
:1034300014FB0000053E0008140000207CB50C00C1
:103440001D461646014601D0601E00E00020CDE971
:103450000010064B6A462946304600F0FDF8002C65
:1034600002D0009A002111707CBD00005F3D000871
:1034700037B514460846064B6A46214600F0ECF87C
:1034800004466946002000F075FC20463EBD000061
:10349000753D00080907090E002804DB00F1E02053
:1034A00080F80014704700F00F0000F1E02080F871
:1034B000141D704702E008C8121F08C1002AFAD183
:1034C00070477047002001E001C1121F002AFBD1A4
:1034D000704700002DE9FF5F82B00021DDE9043074
:1034E000020DDDF840B0034318D044F61050A2F2AC
:1034F000FF3242431514119801281FD0A5EB0B0091
:10350000401C5FEA000A4FF000064E4FDFF838918A
:10351000B046504615D5CAF1000413E011980124B5
:103520004AA3012801D16FEA0B010298119AC0E960
:103530000031C0E9024206B0BDE8F09FCBF10000C7
:10354000DFE704460021404A491842EB0450CDE928
:10355000001012E0E00707D032463B46404649469D
:10356000FCF74FFF8046894632463B4610461946D7
:10357000FCF747FF06460F466410002CEAD1DDE950
:103580000401DDE90023BAF1000F06DAFCF739FF88
:1035900042464B46FCF735FF05E0FCF7A4FF4246E8
:1035A0004B46FCF7A0FF04460E460022284BFDF7D1
:1035B00021F803D84FF0FF30014607E00022254BE9
:1035C00020463146FCF776FEFCF7FCFF102409E0AC
:1035D000002C0ADB0A220023FCF7F4FD039B3032A7
:1035E0001A55641E50EA0102F2D1641C039AC4F118
:1035F00011031444119A012A03D0012208430DD16A
:103600000AE0084304D000204FF0110B119072E73C
:10361000A3EB0B056D1E0DE05B4504DD4FF00002D2
:1036200005F1010504E003DA4FF00002A5F1010500
:10363000002AECD002981199C0E90231C0E9004596
:1036400079E70000000014400000F03F3000000067
:103650000000F0430000E03F2DE9FF4F95B09A468F
:10366000884606460025EEE1252877D10024274626
:10367000F94A0121039400E0044316F8013F203B7E
:1036800001FA03F01042F7D130782A2811D06FF0F8
:103690002F033078A0F13002092A16D8039A44F09B
:1036A000020402EB820203EB42021044761C0390F8
:1036B000EFE758F8042B0392002A03DA504244F44F
:1036C0000054039044F00204761C30782E2816D162
:1036D00016F8010F44F004042A280DD06FF02F02D1
:1036E0003078A0F13003092B09D807EB870302EBF0
:1036F0004303C718761CF3E758F8047B761C307830
:103700006C280FD006DC4C2817D068280DD06A280A
:1037100014D104E0742810D07A280FD10DE044F4BD
:1037200000140AE044F4801401E044F44014727878
:10373000824202D104F58014761C761C307866280B
:103740000BD013DC582877D009DC002875D0452829
:10375000F6D04628F4D047281AD193E118E0632820
:1037600035D0642879D0652812D18BE1702873D0C8
:1037700008DC6728F1D069286FD06E280DD06F283B
:1037800006D1ACE073282CD0752874D0782853D09B
:103790005246179990476D1C54E1C4F30250022819
:1037A00009D003280DD0D8F8001004280DD00D60E2
:1037B00008F1040846E1D8F80010EA17C1E9005200
:1037C000F6E7D8F800100D80F2E70D70F0E718F872
:1037D000041B8DF8001000208DF80100EB4601203D
:1037E00003E058F804BB4FF0FF3061074FF00001D1
:1037F00002D40DE009F101018946B9420FDA814591
:10380000F8DB1BF809100029F4D108E009F10101E7
:1038100089468142FADB1BF809100029F6D103988A
:103820005346A0EB090721463846179A00F080FA64
:10383000284400EB090507E044E008E10DE01BF82F
:10384000010B524617999047B9F10109F7D2534637
:1038500021463846179AF2E039E00A21C4F30252B1
:103860004FF0000B0091022A06D058F8040BC11744
:10387000032A09D00AE023E008F1070020F007023C
:10388000F2E80201904605E000B2C117042A01D116
:1038900040B2C117002906DA0A460021404261EB16
:1038A00002012D2202E0220504D52B228DF80420EE
:1038B000012203E0E20701D02022F7E7914657E01A
:1038C0000A2100E010214FF0000B00910BE01021C5
:1038D0004FF0000B44F004040827009103E0082097
:1038E0004FF0000B0090C4F30252022A05D058F8A2
:1038F000040B0021032A08D008E008F1070020F09B
:103900000702F2E80201904603E080B2042A00D1E7
:10391000C0B24FF0000922072AD53278702A07D0AA
:10392000DDF800C08CF0100C5CEA0B0C05D00EE04A
:1039300040228DF80420012208E050EA010306D05D
:1039400030238DF804308DF8052002229146009B2B
:1039500083F0080353EA0B030AD150EA010201D1B4
:10396000620705D530228DF804204FF001097F1E33
:103970003278582A04D039A20C920CAA02920BE099
:103980003BA2F9E75B46009AFCF71CFC0C9B9B5C96
:10399000029A521E0292137050EA0102F2D102986A
:1039A00004A9081A00F1200B600702D524F4803422
:1039B00000E001275F4502DDA7EB0B0000E00020DF
:1039C00000EB0B01009003984944401A0390E00378
:1039D00006D453462146179A039800F0A9F90544E6
:1039E000002706E001A85246C05D179990476D1C5C
:1039F0007F1C4F45F6DBE0030CD553462146179A52
:103A0000039800F095F9054404E0302052461799D8
:103A100090476D1C0099481E00900029F5DC08E0D5
:103A20000298029952460078491C029117999047D2
:103A30006D1CBBF10001ABF1010BF1DC5BE100F0AF
:103A400065F90544761C307800287FF40DAE19B076
:103A50002846BDE8F08F00000928010030313233DC
:103A600034353637383961626364656600000000BA
:103A700030313233343536373839414243444546A4
:103A800000000000600700D4062708F1070020F0BE
:103A90000700F0E80223804603F0004C5FEA0C00C8
:103AA00001D097A009E0200501D596A005E0E00728
:103AB00001D095A001E0AFF24C001390307823F0D4
:103AC000004365280CD006DC452809D046281DD0C7
:103AD00047287FD13BE0662818D067287AD136E0A6
:103AE0000021112F01DB112000E0781CCDE900013D
:103AF00004A90CA8FFF7EEFCDDE90D010C9A4FF0CC
:103B0000000B07F10109109200914EE04FF00040C8
:103B10000097CDE9011004A90CA8FFF7DBFCDDE953
:103B20000D020C9B0F994FF0000B914610930092E1
:103B300011B9791C00EB0109B7EB090003D4C0F1FE
:103B4000FF3B07F10109A9EB0700019042E0012FBB
:103B500000DA01270021112F01DD112000E0384695
:103B6000CDE9000104A90CA8FFF7B4FCDDE90D01C3
:103B70000C9A00914FF0000BB946109221070FD418
:103B8000009A4A4503DA914601E0A9F10109B9F129
:103B9000010F05DD109AA9F10101515C3029F4D023
:103BA000B84202DA10F1040F03DA0121CDE9011065
:103BB00010E0002803DC8344A9EB000102E0411C73
:103BC000494500DD8946A0EB0B00401C01904FF0F9
:103BD00000400290200705D40198484502DB4FF0D1
:103BE000FF30019000208DF84B0002980DF14B073B
:103BF000B0F1004F25D002200C902B200D900298A0
:103C000000280CDA404202902D200D9007E00A2196
:103C10000298FCF71AFB3031029007F8011D0C994D
:103C2000481E0C900029F2DC02980028EFD1791E82
:103C30000D980870307800F0200040F0450007F83B
:103C4000020D11A8C01BC01D02901398007800B18E
:103C5000012000EB0901019801EBE0710298014499
:103C60000398401A401E0390E00306D453462146B1
:103C7000179A039800F05CF805441398007818B17F
:103C80005246179990476D1CE00323D553462146B1
:103C9000179A039800F04CF805441BE0BBF1000FA5
:103CA00007DB0098584504DD1098179910F80B00B1
:103CB00001E0179930205246904701980BF1010B13
:103CC000401E05F10105019004D12E20524617999E
:103CD00090476D1CB9F10001A9F10109DEDC05E096
:103CE00017F8010B5246179990476D1C0299481E10
:103CF00002900029F4DC53462146179A03989EE669
:103D00002D0000002B000000200000002DE9F041F4
:103D1000044600251E461746880404D405E03946AB
:103D20002020B0476D1C641EF9D52846BDE8F081FF
:103D30002DE9F041044600251E469046C80301D5F2
:103D4000302700E02027880404D505E041463846A6
:103D5000B0476D1C641EF9D52846BDE8F0814A685D
:103D6000002A06D00A68531C0B6010704868401E79
:103D7000486070470A68531C0B6010707047000061
:103D800010B504460420FDF727FF0148046010BD6C
:103D90001000002070B51E21B0FBF1F4B0FBF1F271
:103DA00001FB120547F2305603E0304600F00EF8F2
:103DB000641E002CF9D1002D06D04FF47A706843B0
:103DC000BDE8704000F002B870BD000070B5002181
:103DD0004FF0E0256C690A4A12685043AB69AA6942
:103DE0009A42FCD003D2A3EB0203194403E0A4EBF4
:103DF00002063344194413468142F0D370BD0000DB
:103E00001000002013B54FF6FF73012269460248E7
:103E1000FEF76BFA00981CBD340200201CB5FDF7BC
:103E2000F7F8FEF737FDA820FFF7AAFFFEF724FBFF
:103E3000FEF7F4FAFEF718FCFEF7E2FBFEF7BAFB1A
:103E4000FEF798FB012220210E48FCF7B5FFFEF794
:103E5000BBFD03244FF6FF754FF47A760AA1CDE936
:103E600000410A2100232A460846FEF7E9FE3046B3
:103E7000FFF790FF07A0FFF7D1FA08A10A4800F06A
:103E800015F8EBE7000402406173646A6173686AC5
:103E900066680000313233340A000000646D61202E
:103EA000313233340A000000340200200FB438B538
:103EB000044606ABC8210848059AFFF7BFFA00215F
:103EC0000091C82800D9C82082B203492046FEF7D5
:103ED00063FA38BC5DF814FB6C0100200006101674
:103EE000000610160000000000000000010203049C
:103EF000060708090000000001020304000000009A
:103F000000000000000000000000000000002F0082
:103F10000000000000000000070000000700000093
:103F2000000014007F0014007F0014000000240033
:103F30002A007F002A00120000002300130008005E
:103F40006400620000003600490055002200500065
:103F5000000000000000070000000000000000005A
:103F60001C0022004100000000000000410022006F
:103F70001C0000000000140008003E0008001400AF
:103F80000000080008003E000800080000000000D3
:103F90000000A00060000000000008000800080009
:103FA0000800080000000000600060000000000041
:103FB00000002000100008000400020000003E0085
:103FC0005100490045003E000000000042007F0013
:103FD000400000000000420061005100490046001E
:103FE00000002100410045004B0031000000180096
:103FF000140012007F00100000002700450045005B
:104000004500390000003C004A00490049003000EA
:1040100000000100710009000500030000003600E7
:1040200049004900490036000000060049004900E7
:1040300029001E00000000003600360000000000CD
:1040400000000000560036000000000000000800DC
:1040500014002200410000000000140014001400AD
:1040600014001400000000004100220014000800A9
:1040700000000200010051000900060000003E009F
:104080004900550059002E0000007C00120011006C
:1040900012007C0000007F00490049004900360002
:1040A00000003E00410041004100220000007F006E
:1040B0004100410022001C0000007F00490049002F
:1040C0004900410000007F000900090009000100CB
:1040D00000003E004100490049007A0000007F00D6
:1040E0000800080008007F000000000041007F0079
:1040F0004100000000002000400041003F0001009E
:1041000000007F00080014002200410000007F0032
:10411000400040004000400000007F0002000C0012
:1041200002007F0000007F000400080010007F00F4
:1041300000003E004100410041003E0000007F00C1
:10414000090009000900060000003E00410051007E
:1041500021005E0000007F000900190029004600D0
:1041600000004600490049004900310000000100FC
:1041700001007F000100010000003F0040004000FE
:1041800040003F0000001F002000400020001F00F2
:1041900000003F004000380040003F000000630086
:1041A00014000800140063000000070008007000FD
:1041B000080007000000610051004900450043006D
:1041C000000000007F0041004100000000000200EC
:1041D0000400080010002000000000004100410021
:1041E0007F00000000000400020001000200040043
:1041F000000040004000400040004000000000007F
:1042000001000200040000000000200054005400DF
:104210005400780000007F0048004400440038004B
:104220000000380044004400440020000000380032
:104230004400440048007F0000003800540054004F
:1042400054001800000008007E0009000100020070
:1042500000001800A400A400A4007C0000007F005F
:1042600008000400040078000000000044007D0005
:104270004000000000004000800084007D0000003D
:1042800000007F0010002800440000000000000033
:1042900041007F004000000000007C000400180086
:1042A0000400780000007C0008000400040078008E
:1042B0000000380044004400440038000000FC00C6
:1042C000240024002400180000001800240024000A
:1042D0001800FC0000007C00080004000400080036
:1042E0000000480054005400540020000000040066
:1042F0003F0044004000200000003C00400040001F
:1043000020007C0000001C002000400020001C0059
:1043100000003C004000300040003C000000440031
:10432000280010002800440000001C00A000A0008D
:10433000A0007C0000004400640054004C004400D5
:104340000000000008007F004100000000000000A5
:1043500000007F00000000000000000041007F001E
:104360000800000000000800040008001000080019
:10437000000000000000000000000000000000003D
:10438000000000000000000000000000000000002D
:10439000000000001800180018001800180008009D
:1043A00008000800080000001800180000000000C5
:1043B0000000000000003C00240024000000000079
:1043C00000000000000000000000000000000000ED
:1043D000000000000000440024002400FF0024002E
:1043E00024002400FF002200120012000000000040
:1043F0000000000008003C002E006A000E000C00C7
:10440000380068006A006A002E001C0008000000E6
:104410000000000000002600250015001D00160009
:104420006800580054005400520062000000000070
:104430000000000000001C003400340014000C00D8
:104440000E004A0053006300F6001C00000000004C
:104450000000000000000800080008000000000044
:10446000000000000000000000000000000000004C
:10447000000000004000200030001000100010007C
:10448000100010001000100020002000400000006C
:1044900000000000020004000400080008000800FA
:1044A00008000800080008000400060003000000DF
:1044B000000000000000180018007E0018003C00FA
:1044C0005A00180018000000000000000000000062
:1044D00000000000000000000000080008000800C4
:1044E000FF000800080008000000000000000000B5
:1044F00000000000000000000000000000000000BC
:10450000000000000000000006000600020000009D
:10451000000000000000000000000000000000009B
:104520007F0000000000000000000000000000000C
:10453000000000000000000000000000000000007B
:10454000000000000000000006000600000000005F
:1045500000000000000040002000200010001000BB
:104560000800080004000400020001000000000030
:104570000000000000003C00260042004200420013
:1045800042004200420062003400180000000000B7
:10459000000000000000100018001E001A001800A3
:1045A000180018001800180018001800000000007B
:1045B0000000000000003C00660042006000200097
:1045C00030001000080004007E007E0000000000A3
:1045D0000000000000003C00660042006000300067
:1045E000300060004000420026001800000000007B
:1045F00000000000000020003000380028002400E7
:1046000026002200FF002000200020000000000003
:104610000000000000007C00060002000A003E00CE
:10462000620040004000630036001C0000000000F3
:104630000000000000001000180008000C003E0000
:104640004600C200C200420066003C0000000000BC
:104650000000000000007E004000600020003000EC
:1046600010001800080008000C000C0000000000FA
:104670000000000000003C006200420062003E00BA
:104680003E0042004300420066003C000000000083
:104690000000000000003C00620043004300630093
:1046A00036003C001000180008000C00000000005C
:1046B00000000000000000000000000000001800E2
:1046C00000000000000000001800180000000000BA
:1046D00000000000000000000000000000001800C2
:1046E0000000000000000000180018000800000092
:1046F000000000000000400020001000080006003C
:10470000020004000800100020004000000000002B
:104710000000000000000000000000007F0000001A
:10472000000000007F00000000000000000000000A
:10473000000000000000020004000800100020003B
:1047400040002000100008000600020000000000E9
:104750000000000000003C006600620060003000C5
:104760001000080000000000080008000000000021
:104770000000000000003C00420079006900650074
:10478000550055005500290002003C0000000000C3
:104790000000000000001800180018003C00240071
:1047A00024003E00660042004200C30000000000FA
:1047B0000000000000003E006200420042003E0097
:1047C0003E004200420042007E001E000000000049
:1047D0000000000000003C006600420042000200B1
:1047E00002004200420046006C0038000000000059
:1047F0000000000000001E00320062004200420083
:1048000042004200420062003E000E000000000034
:104810000000000000007E000200020002007E0096
:104820007E000200020002007E007E000000000008
:104830000000000000007E000200020002000200F2
:104840003E00020002000200020002000000000020
:104850000000000000003C00660042004200020030
:1048600072007200420046006C0058000000000018
:1048700000000000000042004200420042007E00B2
:104880007E00420042004200420042000000000060
:1048900000000000000018001800180018001800A0
:1048A0001800180018001800180018000000000078
:1048B00000000000000040004000400040004000B8
:1048C00040004000420062003E001C00000000006A
:1048D0000000000000006200220012001A000E001A
:1048E0001E001200320022006200C2000000000020
:1048F00000000000000002000200020002000200AE
:1049000002000200020002007E007E0000000000A3
:104910000000000000006600660066006600760089
:104920005E005A005A005A005A004A000000000077
:104930000000000000004200460046004E004A0011
:104940005A00520072006200620062000000000023
:104950000000000000003C006600420042004300EE
:1049600043004300420062002600180000000000DF
:104970000000000000003E006200420042004200D1
:104980007E000E0002000200020002000000000093
:104990000000000000003C006600420042004300AE
:1049A000430043005200720026007800000000001F
:1049B0000000000000003E00620042004200620071
:1049C0003E0012003200220062004200000000009F
:1049D0000000000000003C006600620006000C00C1
:1049E000380060004200420066003C000000000009
:1049F0000000000000007E001800180018001800D9
:104A00001800180018001800180018000000000016
:104A1000000000000000420042004200420042004C
:104A2000420042004200420066003C0000000000DC
:104A30000000000000004300420062006600260003
:104A4000240034001C0018001800180000000000AA
:104A5000000000000000D9005B005B005A005A0013
:104A60005600560066006600260026000000000082
:104A70000000000000006200260024001C00180056
:104A800018001C00340026006200430000000000F3
:104A900000000000000043006200260034001C00FB
:104AA0001800180018001800180018000000000076
:104AB0000000000000007E006000200030001000B8
:104AC00008000C00040006007E007E0000000000CC
:104AD000000078000800080008000800080008002E
:104AE000080008000800080008000800780000001E
:104AF00000000000000002000400040004000800A0
:104B000008001000100010002000200040004000AD
:104B100000001E0010001000100010001000100017
:104B20001000100010001000100010001E00000007
:104B300000001800340042000000000000000000E7
:104B40000000000000000000000000000000000065
:104B50000000000000000000000000000000000055
:104B60000000000000000000000000000000FF0046
:104B700000000C0018001000000000000000000001
:104B80000000000000000000000000000000000025
:104B900000000000000000000000000000003C00D9
:104BA000620070006E00620072005C000000000095
:104BB00000000000000002000200020002003E00AF
:104BC000620042004200620066001A00000000001D
:104BD00000000000000000000000000000003C0099
:104BE000620002000200420066001C00000000009B
:104BF00000000000000040004000400040007E0037
:104C0000620042004200620066005C00000000009A
:104C100000000000000000000000000000003C0058
:104C200062007E00020042006600380000000000C2
:104C300000000000000078000800080008007E0066
:104C40000800080008000800080008000000000034
:104C500000000000000000000000000000007C00D8
:104C6000220022003C0002003E00620042003E00A2
:104C700000000000000002000200020002007A00B2
:104C80004600420042004200420042000000000094
:104C900000000000000018001800000000001800CC
:104CA0001800180018001800180018000000000074
:104CB0000000000000003000300000000000300064
:104CC00030003000300030003000300032001E0074
:104CD000000000000000020002000200020032009A
:104CE0001A001E00160022006200420000000000B0
:104CF000000000000000180018001800180018003C
:104D00001800180018001800180018000000000013
:104D10000000000000000000000000000000EF00A4
:104D2000DB00DB00DB00DB00DB00DB000000000061
:104D300000000000000000000000000000007A00F9
:104D400046004200420042004200420000000000D3
:104D500000000000000000000000000000003C0017
:104D6000620042004200420066001800000000009D
:104D700000000000000000000000000000003E00F5
:104D8000620042004200620066001A000200020057
:104D900000000000000000000000000000007E0095
:104DA000620042004200620066005C004000400079
:104DB00000000000000000000000000000003400BF
:104DC0000C000400040004000400040000000000C3
:104DD00000000000000000000000000000003C0097
:104DE000660006003800420066003C00000000003B
:104DF00000000000000000000800080008003F005C
:104E000008000800080008004800700000000000CA
:104E10000000000000000000000000000000420050
:104E2000420042004200620076005C000000000088
:104E30000000000000000000000000000000420030
:104E40006600240024001C00180018000000000068
:104E50000000000000000000000000000000DB0077
:104E60005B005A0056006600260024000000000087
:104E7000000000000000000000000000000026000C
:104E80003400180018003C0026004200000000001A
:104E900000000000000000000000000000004200D0
:104EA0006600240024001C001800180008000E00F2
:104EB00000000000000000000000000000007E0074
:104EC000300010000800040006007E000000000012
:104ED0000000600030003000300030003000300052
:104EE00010003000300030003000300020000000A2
:104EF00018001800180018001800180018001800F2
:104F000018001800180018001800180018001800E1
:104F10000000060004000400040004000400040073
:104F20000800040004000400040004000400000061
:104F300004004E00720000000000000000000000AD
:104F40000000000000000000000000000000000061
:104F50000000000000000000000000000000000051
:104F60000000000000000000000000000000000041
:104F70000000000000000000000000000000000031
:104F80000000000000000000000000000000000021
:104F90000000000000000000000000000000000011
:104FA0000000000000000000000000000000000001
:104FB0000000000000000000000000006000000091
:104FC0006000000060000000600000006000000061
:104FD0006000000060000000600000006000000051
:104FE0006000000060000000600000002000000081
:104FF00000000000000000007000000070000000D1
:105000007000000000000000000000000000000030
:105010000000000000000000000000000000000090
:10502000980001009800010098000100980001001C
:1050300098000000000000000000000000000000D8
:105040000000000000000000000000000000000060
:105050000000000000000000000000000000000050
:105060000000000000000000000000000000000040
:105070000000000000000000000000000000000030
:1050800010000300100003001000030018000300CC
:1050900018000100FF000700FF00070008000100E2
:1050A0008800010088000100FF000700FF000700E2
:1050B0008C0000008C0000008C00000084000000C8
:1050C000C40000000000000000000000000000001C
:1050D00000000000000000000000000020000000B0
:1050E000F0000000F8000100AC0003002C000300F9
:1050F0002C0003002C0000003C00000078000000A1
:10510000E0000000E0000100A00003002600030012
:10511000260003002E000300AC000300FC00010089
:10512000F00000002000000020000000000000004F
:10513000000000000000000000000000000000006F
:105140000C0002001E00010012000100120001000C
:105150009200000092000000520000005E0000007B
:105160002C000300A0000700900004009000040041
:10517000D0000400880004008800040084000700B8
:105180000400030000000000000000000000000018
:10519000000000000000000000000000000000000F
:1051A00070000000F80000008C0000008C0001007E
:1051B0008C000000CC0000007800000038000000E7
:1051C0003C0000003E00060066000600E60002000B
:1051D000C6000300860003008E000700FC000600E6
:1051E000700000000000000000000000000000004F
:1051F00000000000000000000000000000000000AF
:1052000030000000300000003000000030000000DE
:10521000300000000000000000000000000000005E
:10522000000000000000000000000000000000007E
:10523000000000000000000000000000000000006E
:10524000000000000000000000000000000000005E
:105250000000000000000000000000000000060048
:10526000000003008000010080000000C00000007A
:10527000C00000004000000040000000600000008E
:1052800060000000600000004000000040000000DE
:1052900040000000C000000080000000800001000D
:1052A00000000300000006000000000000000000F5
:1052B00000000000000000000200000006000000E6
:1052C0000C000000080000001800000010000000A2
:1052D000300000002000000020000000200000003E
:1052E000200000002000000020000000200000003E
:1052F000300000001000000018000000080000004E
:105300000C00000006000000020000000000000089
:10531000000000000000000000000000000000008D
:1053200060000000600000006200040066000600EB
:10533000FE000700F8000100F0000000FC00030080
:105340006E000700620004006000000060000000C2
:10535000000000000000000000000000000000004D
:10536000000000000000000000000000000000003D
:10537000000000000000000000000000000000002D
:1053800000000000000000000000000060000000BD
:10539000600000006000000060000000600000008D
:1053A000FF000700600000006000000060000000D7
:1053B000600000006000000000000000000000002D
:1053C00000000000000000000000000000000000DD
:1053D00000000000000000000000000000000000CD
:1053E00000000000000000000000000000000000BD
:1053F00000000000000000000000000000000000AD
:10540000000000000000000000000000000000009C
:1054100000000000000000000C0000000C00000074
:105420000C00000008000000040000000000000064
:10543000000000000000000000000000000000006C
:10544000000000000000000000000000000000005C
:10545000000000000000000000000000000000004C
:10546000FF00070000000000000000000000000036
:10547000000000000000000000000000000000002C
:10548000000000000000000000000000000000001C
:10549000000000000000000000000000000000000C
:1054A00000000000000000000000000000000000FC
:1054B00000000000000000000000000000000000EC
:1054C00000000000000000000000000000000000DC
:1054D00000000000000000000C0000000C000000B4
:1054E0000C000000000000000000000000000000B0
:1054F00000000000000000000000000000000400A8
:105500000000040000000200000002000000010092
:105510008000010080000000C0000000400000008A
:10552000200000002000000010000000100000001B
:10553000080000000C00000004000000060000004D
:105540000200000000000000000000000000000059
:10555000000000000000000000000000000000004B
:1055600070000000F80001009C0003000C00030024
:1055700006000300060006000600060006000600FE
:1055800006000600060006000600060006000600EB
:10559000060003000C0003009C000300F80001005B
:1055A000600000000000000000000000000000009B
:1055B00000000000000000000000000000000000EB
:1055C0004000000060000000700000007800000053
:1055D0006C0000006400000060000000600000003B
:1055E000600000006000000060000000600000003B
:1055F000600000006000000060000000600000002B
:10560000000000000000000000000000000000009A
:10561000000000000000000000000000000000008A
:10562000F0000000FC0001008C00030006000300F5
:1056300006000300000003000000030080000100DA
:1056400080000100C0000000600000007000000049
:10565000380000001C0000000C000000FE000700E5
:10566000000000000000000000000000000000003A
:10567000000000000000000000000000000000002A
:10568000F0000000F80001000C0003000600030019
:10569000060003000000030000000300E00001001A
:1056A000E00001008000030000000300000006008D
:1056B00006000600060003008C000300F80001004D
:1056C000700000000000000000000000000000006A
:1056D00000000000000000000000000000000000CA
:1056E0000000010080000100C0000100C0000100B6
:1056F000E0000100B0000100B000010098000100CE
:105700008C0001008C00010086000100FF000F00EA
:10571000FF000F00800001008000010080000100F8
:105720000000000000000000000000000000000079
:105730000000000000000000000000000000000069
:1057400000000000FC0003000C0000000C00000042
:105750000C00000004000000FE000100CE00030069
:105760000600030000000300000006000000060021
:10577000030003000600030086000300FC00010094
:1057800070000000000000000000000000000000A9
:105790000000000000000000000000000000000009
:1057A000C0000100C00000006000000060000000B8
:1057B0003000000018000000F8000000FC000300AA
:1057C0000C000700060006000600060006000600A2
:1057D00006000600060006000C000300F8000300A7
:1057E000F0000000000000000000000000000000C9
:1057F00000000000000000000000000000000000A9
:1058000000000000FE00070000000600000003008A
:10581000000003008000010080000100C0000000C3
:10582000C000000060000000600000006000000098
:1058300030000000300000003000000018000000C0
:105840000000000000000000000000000000000058
:105850000000000000000000000000000000000048
:1058600070000000FC0001000C00030006000300B3
:1058700006000300060003008C000300FC0001008A
:10588000FC0001008E000300060006000600060072
:1058900006000600060006000E000300FC000100E2
:1058A000F000000000000000000000000000000008
:1058B00000000000000000000000000000000000E8
:1058C00070000000FC0001008E00030006000300D1
:1058D000060007000300070006000300060003009F
:1058E0008E000300FC000100F0000100C000000079
:1058F000E000000060000000300000003000000008
:10590000180000000000000000000000000000007F
:105910000000000000000000000000000000000087
:105920000000000000000000000000000000000077
:1059300000000000000000006000000060000000A7
:105940000000000000000000000000000000000057
:105950000000000000000000600000006000000087
:1059600060000000000000000000000000000000D7
:105970000000000000000000000000000000000027
:105980000000000000000000000000000000000017
:105990000000000000000000600000006000000047
:1059A00000000000000000000000000000000000F7
:1059B0000000000000000000600000006000000027
:1059C0006000000020000000200000000000000037
:1059D00000000000000000000000000000000000C7
:1059E000000004000000030080000100C00000006F
:1059F0006000000030000000180000000C000000F3
:105A0000060000000C00000018000000300000003C
:105A100060000000C00000008000010000000300E2
:105A20000000040000000000000000000000000072
:105A30000000000000000000000000000000000066
:105A40000000000000000000000000000000000056
:105A500000000000FF000700000000000000000040
:105A60000000000000000000FF000700FF0007002A
:105A70000000000000000000000000000000000026
:105A80000000000000000000000000000000000016
:105A90000000000000000000000000000000000006
:105AA00002000000060000000800000030000000B6
:105AB00060000000C0000000800001000000030042
:105AC000000006000000030080000100C00000008C
:105AD0006000000030000000080000000600000028
