:020000040800F2
:1000000000950024B1020008459D0008ED8E00080F
:10001000F19C0008F10C0008E1BA000800000000A3
:100020000000000000000000000000000DA100081A
:100030001514000800000000479D00084DA10008AD
:10004000CB020008CB020008CB020008CB0200085C
:10005000CB020008CB020008CB020008CB0200084C
:10006000CB020008CB020008CB020008250F0008D5
:10007000310F00083D0F0008490F0008550F000818
:10008000610F00086D0F0008CB0200081917000867
:10009000CB020008CB020008CB020008CB0200080C
:1000A000CB020008CB020008CB020008CB020008FC
:1000B000CB020008CB020008CB020008CB020008EC
:1000C000CB020008CB020008CB020008D99F000831
:1000D000CB020008C1BA0008CB020008CB0200081E
:1000E000CB020008CB02000800000000F9AA0008BB
:1000F000CB020008CB020008CB020008CB020008AC
:10010000CB020008CB020008CB020008CB0200089B
:100110006DB00008CB020008CB020008CB0200083B
:10012000CB020008790F0008CB020008CB020008C0
:10013000CB020008CB020008CB020008CB0200086B
:1001400000000000000000000000000000000000AF
:10015000CB020008CB020008CB020008CB0200084B
:10016000CB020008CB020008CB020008CB0200083B
:10017000CB020008CB020008CB020008CB0200082B
:10018000CB020008CB0200088DB0000899B000082F
:10019000CB020008CB020008CB020008CB0200080B
:1001A000CB020008CB020008CB020008CB020008FB
:1001B000CB020008CB020008CB020008CB020008EB
:1001C000CB020008CB020008CB020008CB020008DB
:1001D000CB020008CB020008CB020008CB020008CB
:1001E000CB020008CB020008CB020008CB020008BB
:1001F000CB020008CB020008CB020008CB020008AB
:10020000CB020008CB020008CB020008CB0200089A
:10021000EDAA0008CB020008CB020008CB020008C0
:10022000CB020008CB020008CB020008000000004F
:10023000CB020008CB02000800000000CB0200083F
:10024000CB020008CB020008CB020008CB0200085A
:10025000CB020008CB020008CB020008CB0200084A
:10026000CB020008CB020008CB020008CB0200083A
:10027000CB020008CB020008CB02000800000000FF
:10028000CB020008CB020008CB02000800000000EF
:1002900000000000CB020008DFF810D000F08EFB59
:1002A0000048004791D50008AFF300800095002476
:1002B0000648804706480047FEE7FEE7FEE7FEE700
:1002C000FEE7FEE7FEE7FEE7FEE7FEE731A20008F5
:1002D000990200082DE9F05F0546002092469B46F2
:1002E00088460646814640241BE02846414647464C
:1002F000224600F09CF953465A46C01A914110D349
:1003000011461846224600F083F92D1A67EB0108C2
:100310004F4622460120002100F07AF917EB000930
:100320004E41201EA4F10104DFDC484631462A4636
:100330004346BDE8F09F40EA01039B0703D009E074
:1003400008C9121F08C0042AFAD203E011F8013BC1
:1003500000F8013B521EF9D27047D2B201E000F81A
:10036000012B491EFBD270470022F6E710B5134659
:100370000A4604461946FFF7F0FF204610BD10B5A7
:10038000002200E0521C835C8C5CA34201D1002B54
:10039000F8D1D8B2E1B2401A10BD2DE9FE4F804627
:1003A00081EA0300C00F0C46009021F0004123F0C9
:1003B0000045B8EB0200A94105D2404621469046CF
:1003C0001C460B46024623F00040104347D0270D41
:1003D000C7F30A00C3F30A510290401A0190402863
:1003E0006BDAC3F3130040F4801B0098924620B1EF
:1003F0000023D2EB030A63EB0B0B01985946C0F1C3
:100400004002504600F004F906460D465046594653
:10041000019A00F01CF910EB08006141002487EA02
:10042000115284EAE7731A4340D0009A62B3019AEA
:10043000012A4FEA075215DC001B61EB02014FF065
:10044000004202EA0752CDE90042001C41F580114A
:1004500032462B4600F053F903B0BDE8F08F40461A
:100460002146F9E7001B61EB0201001C41F58013F6
:1004700000185B412018A2F5001747EB030140EA82
:10048000D570B6196D4111E06D084FEA360645EAA0
:10049000C0754FEA0752001B61EB0201001C41F5D9
:1004A000801149084FEA30000019514132462B466D
:1004B00003B0BDE8F04F00F013B9009801224000EE
:1004C0000023D0EB020263EBE073009821464FEA71
:1004D000E074B8EB000061EB0401E9E783F000434E
:1004E0005BE781F0004158E70EB5C10F80EAE0708C
:1004F0000844CA07002140F233438DE80E000A4643
:100500000B4600F0FCF803B000BD0EB540F23341DD
:1005100002910021CDE900110A460B4600F0EFF8E8
:1005200003B000BDC1F30A5210B5C1F3130140F28C
:10053000FF3341F480119A4201DA002010BD40F2ED
:1005400033439A42A2F2334203DC524200F06FF886
:1005500010BD904010BD00F0004230F000400AD0C5
:10056000C10D01F56071C0F3160042EA0151C208E5
:1005700040071143704700200146704730B5041E04
:1005800071F1000404DB4FF00044404264EB0101D0
:10059000141E73F1000405DB1C464FF00043524269
:1005A00063EB0403994208BF904230BD01F0004361
:1005B00030B421F0004150EA010206D00A0DA2F544
:1005C0006072C1F31301002A02DC30BC00207047C6
:1005D000440F44EAC104C100E01830BC00EBC25033
:1005E00000F047B830B50B46014600202022012418
:1005F00009E021FA02F59D4205D303FA02F5491BF1
:1006000004FA02F52844151EA2F10102F1DC30BD06
:10061000202A04DB203A00FA02F1002070479140C2
:10062000C2F1200320FA03F3194390407047202AB7
:1006300004DB203A21FA02F00021704721FA02F38C
:10064000D040C2F120029140084319467047202A49
:1006500006DBCB17203A41FA02F043EAE07306E0EA
:1006600041FA02F3D040C2F12002914008431946FA
:1006700070470029A8BF7047401C490008BF20F000
:100680000100704710B4B0FA80FC00FA0CF050EA98
:10069000010404BF10BC704749B1CCF1200421FA19
:1006A00004F411FA0CF118BF012121430843A3EB14
:1006B0000C01CB1D4FEA00614FEA102042BF002021
:1006C00010BC704700EBC35010440029A4BF10BCFD
:1006D0007047401C490008BF20F0010010BC704763
:1006E00010B5141E73F1000408DA401C41F100013A
:1006F00092185B411A4301D120F0010010BD2DE991
:10070000F04D92469B4611B1B1FA81F202E0B0FA87
:1007100080F220329046FFF77BFF04460F4640EA06
:100720000A0041EA0B0153465A46084313D01146CA
:1007300053EA010019D0C8F140025046FFF777FF95
:1007400005460E46504659464246FFF761FF0843AC
:1007500005D0012004E020463946BDE8F08D002098
:10076000054346EAE0762C4337430A986305E40ADA
:10077000A0EB08000022FD0A44EA47540A3002D5E3
:1007800000200146E9E7010510196941DDE9084546
:1007900000196941BDE8F04DA2E72DE9FE4F81EA5D
:1007A000030404F0004421F0004100944FF0000BDA
:1007B00023F0004350EA01045ED052EA03045BD008
:1007C000C3F30A54C1F30A552C44A4F2F334019440
:1007D000A0FB0254C1F3130141F48011C3F31303CE
:1007E00043F4801301FB024400FB034E840A970A82
:1007F00044EA815447EA8357A4FB076802958D0AAF
:1008000005FB07854FEA932C04FB0C542705029D3A
:100810004FEA065847EA1637B5EB08056EEB070CAA
:10082000870E920E47EA811742EA8312A7FB020164
:10083000B6EB0B0164EB00042B0D43EA0C335E189E
:1008400044EB1C50DA465146E7FB0201C5F31304A2
:100850004FEA0B3343EA14534FEA0432019C43EA54
:100860000603A4F10C040294009CCDE900B4FFF748
:1008700046FF03B0BDE8F08F00200146F9E72DE9FF
:10088000F04D81EA030404F0004B21F000451446CA
:100890004FF0000A23F0004150EA050220D054EA4C
:1008A00001021DD0C5F30A570246C5F31303C1F375
:1008B0001300C1F30A5640F4801543F48013A7EBEC
:1008C0000608101BD64608F2FD3873EB050002D36C
:1008D00008F1010801E092185B41B8F1000F03DA5A
:1008E00000200146BDE8F08D00204FF4801106463F
:1008F00084460EE0171B73EB050705D3121B63EB51
:10090000050306434CEA010C49084FEA30009218EF
:100910005B4150EA0107EDD152EA030012D082EAAE
:10092000040083EA0501084305D0101BAB4106D241
:100930000122002306E000224FF0004302E06FF0A6
:10094000010253101AEB06004CEB085110EB0A00A1
:1009500041EB0B01BDE8F04DFFF7C2BE70B521F0D1
:10096000004303430CD0C1F30A550024D5EB040522
:1009700064EB0403D617AD1AB34102DB0020014635
:1009800070BD201841EB025170BDC1F30A52C1F392
:10099000130140F2FF3341F480119A4202DA002041
:1009A0000146704740F233439A42A2F2334202DCDE
:1009B0005242FFF73CBEFFF72BBE0000064C074D2E
:1009C00006E0E06840F0010394E80700984710341F
:1009D000AC42F6D3FFF764FC644D0108844D010876
:1009E0002DE9F04D00231A461B1A8A4103DB002033
:1009F0000146BDE8F08DC1F30A52C1F3130141F481
:100A000080154FF0000BD10702D100186D41521E26
:100A10000027044640F2FF11384601EB620A3E46C9
:100A20008046024600204FF48011FFF700FEC219F5
:100A30007141BB1846EB0100B4EB030C75EB000CE5
:100A400004D3E41A65EB000517460E46241908F195
:100A500001006D4180463428E3DDF91946EB0600BC
:100A6000091BA84103D24FF0FF32134601E00022D8
:100A700013461BEB070046EB0A51BDE8F04DFFF7AC
:100A80002FBE000070B5054641492868884202D053
:100A9000404A904205D1D1F8080310F4403F05D1F7
:100AA00018E03D48006810F4403F13D005F082FE86
:100AB00004466868B0F5803F06D0B0F5003F03D02B
:100AC000B0F5403F29D103E0000CB4FBF0F424E082
:100AD000A40822E000214FF4002004F035FD044674
:100AE00068688103890B18D181140C2915D2DFE8BD
:100AF00001F0140606060606060B0D0F1113800CF6
:100B00004000B4FBF0F408E0240906E0640904E0C6
:100B1000A40902E0E40900E0240A03F075FD41F2B3
:100B2000030188420ED81D48844205D9286881688F
:100B300041F48071816070BD2868816821F4807102
:100B4000816070BD60081649884205D828688168B0
:100B500021F44071816070BD1249884207D828682D
:100B6000816821F4407141F48071816070BD0E494B
:100B7000884207D82868816821F4407141F40071E7
:100B8000816070BD2868816841F44071816070BDEA
:100B9000002002400021024008630258002D31016C
:100BA000105E5F0020BCBE0040787D0170B5044639
:100BB00020688168C1F3400508F032FB78B375BB4B
:100BC0002068816801F00D01012909D0606D40F0B5
:100BD00010006065A06D40F00100A065012070BDAF
:100BE0008168124A1140891C8160216803200860D5
:100BF00003F010FD054613E003F00CFD401B022836
:100C00000ED920688068C0070AD0606D40F01000DF
:100C10006065A06D40F00100A065012070BD03E09B
:100C200020688068C007E7D10020F7E7C0FFFF7F9A
:100C300070B50446206808F0F3FA50BB206881685C
:100C4000264A114209D0606D40F010006065A06D29
:100C500040F00100A065012070BD81681F4E7F3EFD
:100C60003140491C816003F0D5FC05461C492068D1
:100C70001C4B884201D0984201D11B4A00E01B4A1C
:100C8000926802F01F02984200D0014681421DD0B6
:100C9000E2B120E008F0C4FA20B920688168314050
:100CA000491C816003F0B6FC401B02280ED9206865
:100CB0000068C043C00709D0606D40F01000606557
:100CC000A06D40F00100A065012070BD20680168A2
:100CD000C943C907DED1002070BD00003F0000807D
:100CE000002002400021024000230240006302581D
:100CF000FEE7000010B5084C04F5806094ED000A92
:100D0000D0ED030AD4F8BC12A0F5D27030EE600A20
:100D1000884784EDB10A10BD340D002470B52DED67
:100D2000028B7B4805460CF059FE794C58349FEDF8
:100D3000798AF0EE483AB0EE483AF0EE482AB0EE42
:100D4000482AF0EE481AB0EE481ADFED738A22689E
:100D500001212846F0EE680AB0EE680A90470125A6
:100D600004F8575C04F10C0006460CF037FE626E86
:100D70000121F0EE483AB0EE483AF0EE482AB0EEE3
:100D8000482AF0EE481AB0EE481AF0EE680AB0EEC3
:100D9000680A30469047657304F5CE7005460CF03E
:100DA0001DFEF0EE483AB0EE483AF0EE482AB0EEBA
:100DB000482AF0EE481AB0EE481AF0EE480ADFED85
:100DC000578AD4F8F42100212846B0EE680A9047EB
:100DD00004F5007005460CF001FED4F858220021FD
:100DE000F0EE483AB0EE483AF0EE482AB0EE482A23
:100DF000F0EE481AB0EE481AF0EE480AB0EE680A73
:100E00002846904704F5197005460CF0E7FDD4F824
:100E1000BC220021F0EE483AB0EE483AF0EE482A03
:100E2000B0EE482AF0EE481AB0EE481AF0EE480A42
:100E3000B0EE680A2846904704F5327005460CF07B
:100E4000CDFDD4F820230021F0EE483AB0EE483A28
:100E5000F0EE482AB0EE482AF0EE481AB0EE481AF2
:100E6000F0EE480AB0EE680A2846904704F1700098
:100E700005460CF0B3FDD4F8C8200021F0EE483A46
:100E8000B0EE483AF0EE482AB0EE482AF0EE481AA2
:100E9000B0EE481AF0EE480AB0EE680A28469047CD
:100EA00004F1D40005460CF099FDD4F82C21002162
:100EB000F0EE483AB0EE483AF0EE482AB0EE482A52
:100EC000F0EE481AB0EE481AF0EE480AB0EE680AA2
:100ED0002846904704F59C7005460CF07FFDD4F839
:100EE00090212846F0EE483AB0EE483AF0EE482A13
:100EF000B0EE482AF0EE481AB0EE481AF0EE480A72
:100F0000BDEC028B00219FED060ABDE87040104742
:100F10009C0D00240000000000401C4600007A44A4
:100F2000003C1C46014801F005BE0000BC0C00243A
:100F3000014801F0FFBD000098040024014801F0C1
:100F4000F9BD0000540B0024014801F0F3BD00007E
:100F5000CC0B0024014801F0EDBD0000440C00243E
:100F6000014801F0E7BD000040060024014801F0FF
:100F7000E1BD0000DC0A0024014801F0DBBD0000F7
:100F8000640A002410B52C4A016891423AD02A4ADA
:100F90001832914236D0284A3032914232D0264A15
:100FA000483291422ED0244A603291422AD0224ABD
:100FB0007832914226D0204A9032914222D01E4A65
:100FC000A83291421ED01D4A91421BD01B4A1832B2
:100FD000914217D0194A3032914213D0174A483201
:100FE00091420FD0154A603291420BD0134A7832A9
:100FF000914207D0114A9032914203D00F4AA83251
:10100000914214D1CAB2103A1823B2FBF3F20C4C3D
:1010100002F00703E35CC365032A04D96FF30901F7
:10102000091D816506E06FF30901816502E021F089
:10103000FF018165806D10BD100002401004024068
:1010400058E6000810B501680123224CCAB2A1423B
:101050001BD0204C1434A14217D01E4C2834A1427E
:1010600013D01C4C3C34A1420FD01A4C5034A14236
:101070000BD0184C6434A14207D0164C7834A142EE
:1010800003D0144C8C34A1420FD1083A1421B2FB86
:10109000F1F1114A02EB810202660F4A8032426688
:1010A00001F01F018B40836610BD103A1824B2FB7B
:1010B000F4F20A4C2144A82900D80832084901EB6F
:1010C0008201016606498031416602F01F018B40B2
:1010D000836610BD0854025800580258F0FBFDBF4B
:1010E000000802400279521E072A31D8194B0168C4
:1010F00099421BD0174B1433994217D0154B283304
:10110000994213D0134B3C3399420FD0114B5033BB
:1011100099420BD00F4B6433994207D00D4B783373
:10112000994203D00B4B8C33994207D10A4901EB0A
:101130008201C16608494031016706E0074901EBB9
:101140008201C16605494031016701219140416733
:101150007047000008540258005902580009024024
:10116000014610B500208B694FF0C0748A6A002BCD
:101170000ED0B3F5005F1AD062B3012A2AD0022A3A
:1011800028D0032A03D1C96AC90100D5012010BDA6
:101190001AB1012A06D0022AF9D1C96AC901F6D5C5
:1011A000012010BDC96AA142FBD1012010BD52B17E
:1011B000012A0AD0022A06D0032AF7D1C96AA1421D
:1011C000F4D1012010BD012010BDC96AC901FBD5B1
:1011D000012010BD012010BD2DE9F04F856D8A4E14
:1011E000894FDFF824C2A836DFF81C82DFF8189296
:1011F0000CF1180CDFF810A208F13008DFF808B283
:1012000009F1480904680AF1600A0BF1780BBC4245
:101210006DD064456BD0444569D04C4567D054458A
:1012200065D05C4563D0DFF8E0E10EF1900E7445C7
:101230005DD0B4425BD0DFF8D4E1744557D0DFF81D
:10124000CCE10EF1180E744551D0DFF8C0E10EF17B
:10125000300E74454BD0DFF8B4E10EF1480E744502
:1012600045D0DFF8A8E10EF1600E74453FD0DFF8FD
:101270009CE10EF1780E744539D0DFF890E10EF163
:10128000900E744533D0DFF884E10EF1A80E74455A
:101290002DD0DFF87CE1744529D0DFF874E10EF140
:1012A000140E744523D0DFF868E10EF1280E744562
:1012B0001DD0DFF85CE10EF13C0E744517D0DFF86D
:1012C00050E10EF1500E744511D0DFF844E10EF1FB
:1012D000640E74450BD0DFF838E10EF1780E7445DA
:1012E00005D0DFF82CE10EF18C0E744509D1D0E960
:1012F00019E4CEF80440C46E1CB1D0E91CE4CEF869
:1013000004400468BC422ED064452CD044452AD009
:101310004C4528D0544526D05C4524D03A4F9037D0
:10132000BC4220D0B4421ED0384EB4421BD0374EFF
:101330001836B44217D0354E3036B44213D0334E3F
:101340004836B4420FD0314E6036B4420BD02F4EE7
:101350007836B44207D02D4E9036B44203D02B4E8F
:10136000A836B4421BD190F85C4004F01F063F241D
:10137000B440AC600468256825F4802525600468C5
:1013800063608368402B05D0036899600068C26081
:10139000BDE8F08F03689A600068C160F8E71C4EF2
:1013A000B4421BD01A4E1436B44217D0184E283609
:1013B000B44213D0164E3C36B4420FD0144E5036C1
:1013C000B4420BD0124E6436B44207D0104E783679
:1013D000B44203D00E4E8C36B442D9D190F85C4062
:1013E00004F01F060124B4406C60046863608368E5
:1013F000402B04D0036899600068C260C8E70368A6
:101400009A600068C160C3E7100002401004024007
:1014100008540258704710B54FF40044204600F0BD
:1014200005F936280AD03621204600F023F9204657
:1014300000F0FCF8362803D0012010BD002010BDBC
:10144000002010BDF8B5064600246D46301980B264
:1014500000F0ECF82855641CE4B2042CF6D3009894
:10146000F8BD2DE9F04102460E46002000249719F0
:1014700008E00502381B401E80B200F0D7F828446F
:10148000641CE4B2B442F4D3BDE8F08138B5542012
:10149000FFF7D8FF524C00909DED000A84ED1D0A25
:1014A0005820FFF7CFFF00909DED000A84ED1E0A43
:1014B0005C20FFF7C7FF00909DED000A84ED360A1F
:1014C0006020FFF7BFFF00909DED000A84ED370A12
:1014D0000020FFF7B7FF00909DED000A84ED9A0A07
:1014E0000820FFF7AFFF00909DED000A84ED9C0AF5
:1014F0006420FFF7A7FF00909DED000A84EDCC0A61
:101500006820FFF79FFF00909DED000A84EDCE0A52
:101510000C20FFF797FF00909DED000A84EDB30AC1
:101520001420FFF78FFF00909DED000A84EDB50AAF
:101530001820FFF787FF00909DED000A84EDE50A73
:101540002020FFF77FFF00909DED000A84EDE70A61
:101550002420FFF777FF00909DED000A84ED810ABB
:101560003020FFF76FFF00909DED000A84ED4F0AD9
:101570003820FFF767FF00909DED000A84ED510AC7
:1015800004213C20FFF76DFF20634020FFF75AFF46
:1015900000909DED000A84EDFD0A4420FFF752FF04
:1015A00000909DED000A84EDFE0A6C20FFF74AFFD3
:1015B000009004F580649DED000A84ED030A70201C
:1015C000FFF740FF00909DED000A84ED040A7420AF
:1015D000FFF738FF00909DED000A84ED050A38BD45
:1015E000340D002473B50546002401AE281980B2DD
:1015F000315D00F03FF8641CE4B2042CF6D37CBDEE
:101600002DE9F04106460D461746002409E0E000AA
:1016100025FA00F0C1B2301980B200F02BF8641C3A
:10162000E4B2BC42F3D3BDE8F08100003EB5002136
:1016300002910191010A8DF80810FF21B0FBF1F22F
:1016400001FB12008DF8090002230948A0214FF484
:101650008054009402AA03F05BF905480123A121FC
:10166000009401AA03F0AEF89DF804003EBD00000E
:10167000DC0100241CB500220192020A8DF804202E
:10168000FF22B0FBF2F302FB13008DF805008DF88A
:1016900006104FF48050009003230448A02101AAB3
:1016A00003F036F906200BF045FE1CBDDC010024DA
:1016B00072B6FEE710B58AB0002402940394049435
:1016C000012005904002069040F209200790114841
:1016D00002A902F0F0F908B1FFF7EAFF02220D4873
:1016E00000231146009402F02AFA08B1FFF7E0FF48
:1016F000084802F046FE08B1FFF7DAFF054800226D
:10170000012102F05FF9002801D0FFF7D1FF0AB0F4
:1017100010BD00003C010024014802F001BB0000A4
:101720003C01002430B5426B036853F8844F4FF6F8
:10173000FC718C4344EA82041C60036853F8844FB4
:10174000058F24F47F0444EA05441C60836B1A442B
:10175000036853F8884F8C4344EA82041C60036892
:1017600053F8884F858F24F4FE0444EA05441C6036
:10177000C36B02EB4302036853F8A04F8C4344EA67
:1017800082041C60036853F8A04FB0F8405024F462
:10179000FE0444EA05441C60D0E9103403FB042233
:1017A000036853F8B04F8C4344EA82041C6003681A
:1017B00053F8B04FB0F8485024F4FE0444EA05440E
:1017C0001C60D0E9123403FB0422036853F8AC4FC9
:1017D0008C4344EA82041C60D0E9143403FB0422E5
:1017E000036853F8F04F8C4344EA82041C6003689A
:1017F00053F8F04FB0F8585024F47C1444EA0544F0
:101800001C60836D02EB4303026852F8C04F8C43A7
:1018100044EA83011160016851F8C02FB0F85C30D0
:1018200022F47C1242EA03420A60016851F8C02F98
:1018300090F8603022F07C5242EA03620A60416B09
:10184000224A02EB8101C166826B01EB82020267D0
:10185000C36B02EBC3024267D0E91034634302EB6F
:1018600083028267D0E91234634302EB8302C267CA
:10187000D0E91434634302EB8302C0F88020836D07
:1018800002EBC302C0F88420C46D836E5C4302EB9C
:101890008402C0F88820046E5C4302EB8402C0F826
:1018A00090200B4B9A4208D99830416841F02001B2
:1018B000416003210170012030BD002200E004C11D
:1018C000D0F890308B42FAD8002030BD00AC0040F8
:1018D000FCD30040F0B5D1E901650C692C430D68DB
:1018E000002E1AD045F080452C4391F82070D1E9A4
:1018F000066535434E6946EA076635438E8945EAF3
:101900000645D0F88460806E584306EB80031C6067
:101910005D60083300200B4E0FE044EA8544E4E7A5
:101920001418155CE77845EA0765A77864783F04E2
:1019300047EA0424254320C3001DCC68345D84425B
:10194000EED8F0BD60E6000801290BD101780D4802
:10195000072907D2DFE801F00604070A0D1013007B
:1019600001214166704702214166704703214166AB
:101970007047042141667047052141667047062182
:1019800041667047340D002430B400242B2931D334
:1019900000222B390FE0835C5A2B0BD183185D7822
:1019A000A52D07D193F82A500D2D03D193F82B3094
:1019B0000A2B04D0521C8A42EDD334B113E01446F2
:1019C0000D4A012182F82810F7E701785A2911D130
:1019D0004178A5290ED190F82A100D290AD190F846
:1019E0002B100A2906D101190348891C30BC282272
:1019F000FEF7A1BC30BC7047340D002417480188A5
:101A000049420AB216490A80B0F930101548818758
:101A1000A0F84C2000EE101A9FED131AB8EEC00A81
:101A200020EE010A80ED100A00EE902AF8EEE00A9E
:101A300060EE810AC0ED140A30EE200AF6EE000ACC
:101A400020EE200A80EDFB0AD0EDFC0A9FED071A7C
:101A500040EE010AC0EDFC0A70470000F4130024B8
:101A600038000024340D00244282983C6F12833ADF
:101A700002460021002003E0401CC0B2491CC9B24C
:101A8000535C002BF8D170472DE9FC4105460A292B
:101A900018D300242F4E304FA1F1090810E02A1965
:101AA0001068009010798DF804002CA16846FEF7AC
:101AB00066FC48B12BA16846FEF761FC38B3641C94
:101AC0004445ECD3BDE8FC812C36307A60F08000D0
:101AD000307228194179027A303901EB4103C3EBA6
:101AE000C111642302EBC1028179C07930393038E9
:101AF00011FB03F100EB800001EB40007168104422
:101B0000401A303830603868401C3860DAE72C36CC
:101B1000307A40F08000307228194179027A3039E9
:101B200001EB4103C3EBC111642302EBC1028179D4
:101B3000C0793039303811FB03F100EB800001EB44
:101B4000400071681044401A303830603868401CDA
:101B50003860B7E7340D00243C000024244C494E83
:101B600045000000244C4F5354000000F8B50446D3
:101B70000E4617460025009594F85000012810D015
:101B8000012084F850002046FFF710F803461800A3
:101B900009D0606D40F01000606584F85050184620
:101BA000F8BD0220F8BD606D20F4885040F00200BE
:101BB0006065206806F4803107F080421143826836
:101BC000114E3240114341F0004181600F492068BD
:101BD0000FE0009A521C0092009A8A4209D3606D6D
:101BE00020F0020040F01000606584F850500120A1
:101BF000F8BD8268D20F002AEBD1606D20F00200A0
:101C000040F001006065C8E7C0FFFE3F00F8C32553
:101C10002DE9F0479AB004460D464FF0000894F8BD
:101C2000500001280DD0012084F85000002716979D
:101C30001797DFF8F09020683B4E484505D1019694
:101C400004E002201AB0BDE8F0870197019840B186
:101C5000019807F0EDFA8246206807F0E9FA40B1F2
:101C60000AE0606D40F02000606584F8507001204B
:101C7000E8E7BAF1000F09D0606D40F02000606520
:101C80004FF0010884F850704046DBE72068484573
:101C900001D0B04201D1254800E0254840F61F722E
:101CA000244B296811B38168D5F804C021F4404160
:101CB00041EA0C0181602168494501D0B14208D157
:101CC000D9F80810C1F30001B368C3F30003194346
:101CD00002E09968C1F300010029D3D1AB682968FB
:101CE00019438368934319438160CBE7816821F4EA
:101CF000404181602168494501D0B14208D1D9F8FD
:101D00000810C1F30001B368C3F30003194302E0F4
:101D10009968C1F300010029B4D1816891438160C1
:101D2000B0E70000002002400021024000230240F2
:101D300000630258006002582DE9FC5F04460D461E
:101D40004FF00009CB46CDF804B0DFF8B8A3EE4E53
:101D5000DFF8B88394F85000012811D0012784F8E7
:101D60005070206807F060FA60B1606D40F02000AC
:101D700060654FF0010984F850B04846BDE8FC9F0B
:101D80000220FBE7286800280DDB2168CA690303ED
:101D900029D090FAA0F0B0FA80F000F01F0007FA06
:101DA00000F00243CA61A98820682A6801F44073E0
:101DB00000EB9310036B01F01F014FF01F0CC2F3F7
:101DC00084620CFA01FC8A4023EA0C031343036388
:101DD000206807F029FA0090206807F01DFA0099A2
:101DE000014303D086E0C0F38460D6E7AA6829687F
:101DF000206807F021FAC6480068B7EB107F07D1CA
:101E000021686869C968C1F382014900884010E00F
:101E10002168C868C00606D46869C968C1F3820130
:101E20004900884005E06869C96801F01001490867
:101E30008840296904292DD023682A6803EB810191
:101E40000B6E02F0F842024303F0004313430B66AB
:101E5000697E20682A69012916D0002100EB8200E2
:101E6000026E22F000420A430266297E20682A6937
:101E700001290CD00021036902F01F0223F4F04372
:101E800091400B43036135E04FF00041E6E74FF42A
:101E90000061F0E72068016E2A7801F0F841B1EBAB
:101EA000826F03D1016E21F0004101662068416E0E
:101EB0002A7801F0F841B1EB826F03D1416E21F035
:101EC000004141662068816E2A7801F0F841B1EB4B
:101ED000826F03D1816E21F0004181662068C16E5E
:101EE0002A7801F0F841B1EB826F03D1C16E21F085
:101EF0000041C166206807F093F900287FF43BAFEA
:101F000021682A7B286851F8C03FC0F3130C23EAEC
:101F10000C0302F0180C7F4A22FA0CF20240134321
:101F20000B607D48E968814274D12868010319D0AB
:101F300090FAA0F1B1FA81F1491C01F01F010929C1
:101F400031D80103002910D090FAA0F1B1FA81F143
:101F500001F1010101F01F0107FA01F708D1C0F3F7
:101F6000846109E0C0F38461E6E7C0F38461EFE7D0
:101F700090FAA0F1B1FA81F101F1010101F01F0124
:101F800047EA816102D1C0F3846003E090FAA0F0D7
:101F9000B0FA80F000F1010000F01F0000EB4000FB
:101FA00041EA005132E04FEA003100290DD090FAA9
:101FB000A0F1B1FA81F101F1010101F01F0107FA6D
:101FC00001F705D1C0F3846106E0C0F38461F2E754
:101FD00090FAA0F1B1FA81F101F1010101F01F01C4
:101FE00047EA816102D1C0F3846003E090FAA0F077
:101FF000B0FA80F000F1010000F01F00A0F10A002B
:1020000000EB400041EA005040F00071AA682068EF
:1020100007F012F92A68002ABFF6ADAE20683F4BE0
:102020003F4F504501D0B04201D1194600E039463A
:10203000896801F0E071504501D0B0420AD1DAF868
:102040000850C5F30005D6F808C0CCF3000C45EAEB
:102050000C0503E0D8F80850C5F3000535B1606DF4
:1020600040F0200060654FF0010984E62D4DAA4242
:102070001FD10D021DD44045F7D1504502D0B042CA
:1020800000D03B4641F40000996821F0E071014323
:102090009960254825490068B0FBF1F0401C4000DC
:1020A000019002E00198401E019001980028F9D1AA
:1020B00061E61F4DAA4210D1CD010ED44045D4D1C6
:1020C000504502D0B04200D03B4641F08070996844
:1020D00021F0E071014399604DE6164DAA42C4D14A
:1020E0004A02C2D44045C0D1504502D0B04200D0CF
:1020F0003B4641F48000996821F0E071014399600A
:1021000039E6000000200240002102400060025831
:102110000010005CFFFF0F000000FF47002302409B
:1021200000630258000084CB30000024400D0300FF
:10213000000052C70000B8CF0068006C7047000074
:10214000F8B50446002500260096002C02D0606DEC
:1021500010B107E00120F8BD204600F007F9A665A0
:1021600084F8506020688168C1F3407119B18168BA
:10217000734A1140816020688168C1F3007199B988
:102180008168704A114041F0805181606E486F490A
:102190000068B0FBF1F0401C009002E00098401E87
:1021A000009000980028F9D120688168C1F300717F
:1021B00041B9616D41F010016165A16D41F001010E
:1021C000A165012507F030F8616DC90600D430B172
:1021D000606D40F01000606501252846F8BD606D17
:1021E00020F4807040F002006065206807F018F865
:1021F00000BB574A2068574B904201D0984207D104
:102200009168C1F300019E68C6F30006314303E004
:1022100051498968C1F3000161B9904201D09842E7
:1022200001D14E4800E04E486168826822F47C1279
:102230000A43826002F0E8F941F20301884202D9C0
:10224000A06810280CD0A168206B227F0843617D14
:10225000490341EA02410843217F01290CD00FE0E4
:10226000617D227F206B490340F0100041EA02416A
:10227000084340F00C00EFE7218C491E40EA414042
:10228000616A29B1A26A01F47871014342EA01004E
:102290002168CA68334B1A400243CA60206806F0BE
:1022A000C3FF0646206806F0B7FF06431DD1217D17
:1022B000E06A40EA81312068C26844F203039A432D
:1022C0000A43C26094F8380001281DD020680169D3
:1022D00021F00101016120680169626B21F0704108
:1022E000114301612046FEF7CDFBE06801281DD0B7
:1022F0002068016B21F00F010163606D20F0020086
:1023000040F00100606568E7A28F0123D4E9101056
:10231000521E0143A06C03EB0242104301432068AC
:102320000269114B1A4011430161D4E72068016B27
:10233000A26921F00F01521E11430163DDE7000085
:10234000C0FFFF5FC0FFFF7F30000024400D03008F
:102350000020024000210240006002580023024099
:102360000063025803C0F0FF1EF800FC10B586B0F1
:102370000446142101A8FDF7F7FF1E4A21681E48F4
:1023800091421DD11C4908390A6842F020020A60B6
:10239000096801F020010091016841F0010101602C
:1023A000006800F00100009040200190032002909E
:1023B00000200390114801A902F006F806B010BDF4
:1023C0000F4A9142FAD1016841F0807101600168C1
:1023D00001F080710091016841F004010160006822
:1023E00000F0040000904FF00060014605F0E4FAB0
:1023F000E4E7000000200240E044025800000258D8
:10240000006002582DE9F04104463A4E3A4F2068E8
:10241000B04201D0B84201D1384900E0384989685A
:1024200001F01F0506F000FF18B102210846BDE8C3
:10243000F08194F8500001280BD0012084F850005E
:102440002046FEF7F5FB0146002321B184F8503009
:10245000ECE70220EBE7606D40F60162904340F448
:10246000807060652068B84201D1324600E00246C3
:10247000824200D01DB9626D22F480126265626DE5
:10248000D20404D5A26D22F00602A26500E0A36585
:102490001C22026084F850302068B84201D13246D4
:1024A00000E00246824215D0A5B1052D12D0092DBB
:1024B00010D0626D42F480126265B84200D130469D
:1024C000C0688001B2D5606D20F4005040F48050A7
:1024D0006065ABE7C268920105D5626D22F40052D7
:1024E00042F4805262658268064B1A40121D826077
:1024F0009CE700000020024000210240002302402F
:1025000000630258C0FFFF7F2DE9F84F044602F038
:1025100081F800905CB194F83500022809D0802041
:102520006065002084F834000120BDE8F88F0120A8
:10253000FBE7D14ED04FD0491836DFF83C83303717
:10254000DFF83493DFF830A308F14808DFF828B348
:1025500009F1600920680AF1780A0BF1900B8842B2
:102560002ED0B0422CD0B8422AD0404528D0484581
:1025700026D0504524D0584522D0BF4AA832904298
:102580001ED0BE4A90421BD0BC4A1832904217D08F
:10259000BA4A3032904213D0B84A483290420FD0F3
:1025A000B64A603290420BD0B44A7832904207D09B
:1025B000B24A9032904203D0B04AA83290420AD137
:1025C000026822F01E0202602068426922F0800246
:1025D0004261256804E0026822F00E02026025686C
:1025E000206888424DD0B0424BD0B84249D04045D7
:1025F00047D0484545D0504543D0584541D09E4AE4
:10260000A83290423DD09D4A90423AD09B4A18321F
:10261000904236D0994A3032904232D0974A48326E
:1026200090422ED0954A603290422AD0934A783216
:10263000904226D0914A9032904222D08F4AA832BE
:1026400090421ED08E4A90421BD08D4A1432904246
:1026500017D08B4A2832904213D0894A3C3290429C
:102660000FD0874A503290420BD0854A6432904254
:1026700007D0834A7832904203D0814A8C3290420C
:1026800004D1206E026822F4807202607A492068C8
:1026900088422ED0B0422CD0B8422AD0404528D013
:1026A000484526D0504524D0584522D07249A831FB
:1026B00088421ED0714988421BD070491831884227
:1026C00017D06E493031884213D06C494831884266
:1026D0000FD06A49603188420BD06849783188420E
:1026E00007D066499031884203D06449A8318842B6
:1026F00004D1016821F00101016013E0016821F0BB
:10270000010101600EE001F085FF0099401A0528E3
:1027100008D920203434206203206070002020700B
:10272000012002E72868C007EDD1534A0121206843
:1027300090422ED0B0422CD0B8422AD0404528D06A
:10274000484526D0504524D0584522D04A4BA8337E
:1027500098421ED0494B98421BD0484B18339842A0
:1027600017D0464B3033984213D0444B48339842ED
:102770000FD0424B603398420BD0404B7833984295
:1027800007D03E4B9033984203D03C4BA83398423D
:1027900008D1A06D94F85C3003F01F053F23AB40D7
:1027A000836007E0A06D94F85C3003F01F0301FA2A
:1027B00003F34360206890424DD0B0424BD0B84202
:1027C00049D0404547D0484545D0504543D058456D
:1027D00041D0294AA83290423DD0284A90423AD06E
:1027E000264A1832904236D0244A3032904232D0B3
:1027F000224A483290422ED0204A603290422AD05B
:102800001E4A7832904226D01C4A9032904222D002
:102810001A4AA83290421ED0194A90421BD0184A38
:102820001432904217D0164A2832904213D0144ADC
:102830003C3290420FD0124A503290420BD0104A94
:102840006432904207D00E4A7832904203D00C4A4C
:102850008C3290420BD1D4E919205060E06E30B137
:10286000026822F480720260D4E91C205060343483
:1028700061700020207058E61000024010040240F1
:10288000085402582DE9F05F002808D090F8351060
:10289000022906D0802141650120BDE8F09F01207A
:1028A000FBE7A14AA04BA04C18329F4D30339E4EFF
:1028B0004834DFF874B26035DFF870C27836DFF87C
:1028C0006C82DFF868920CF1300CDFF860A208F13E
:1028D0006008016809F17809944F0AF1900A594596
:1028E00031D091422FD099422DD0A1422BD0A94274
:1028F00029D0B14227D0DFF830E20EF1900E7145B9
:1029000021D0DFF824E20EF1A80E71451BD0DFF8CC
:102910001CE2AEF1180E714515D0B94213D0DFF8A4
:102920000CE20EF1180E71450DD061450BD0DFF8A9
:10293000FCE10EF1480E714505D0414503D04945F3
:1029400001D0514537D14FF0040E80F835E059459C
:1029500027D0914225D0994223D0A14221D0A9422B
:102960001FD0B1421DD070489030814219D06E48BE
:10297000A830814215D06D481838814211D0B94233
:102980000FD06A48183081420BD0614509D06748A2
:102990004830814205D0414503D0494501D05145D9
:1029A00004D1086820F001000860BAE0086820F04F
:1029B00001000860B5E0D1F800E02EF00E0EC1F87D
:1029C00000E00168DE46594531D091422FD099424E
:1029D0002DD0A1422BD0A94229D0B14227D0DFF877
:1029E00048B10BF1900B594521D0DFF83CB10BF108
:1029F000A80B59451BD0DFF834B1ABF1180B594582
:102A000015D0B94213D0DFF824B10BF1180B59459A
:102A10000DD061450BD0DFF814B10BF1480B5945CF
:102A200005D0414503D0494501D0514506D1D1F8E3
:102A300000B02BF0010BC1F800B005E0D1F800B0F8
:102A40002BF0010BC1F800B001684FF0010B71458C
:102A500046D0914244D0994242D0A14240D0A942AE
:102A60003ED0B1423CD0304A9032914238D02E4ACA
:102A7000A832914234D02D4A183A914230D0B9420E
:102A80002ED02A4A183291422AD0614528D0274AAE
:102A90004832914224D0414522D0494520D0514569
:102AA0001ED0234A91421BD0214A1432914217D0A2
:102AB0001F4A2832914213D01D4A3C3291420FD016
:102AC0001B4A503291420BD0194A6432914207D0CE
:102AD000174A7832914203D0154A8C32914218D16C
:102AE000016E0A6822F480720A60816D90F85C20A1
:102AF00002F01F020BFA02F24A60D0E9192151607C
:102B0000C16E31B10A6822F480720A60D0E91C21DA
:102B1000516080F835B0002180F83410016D01B1AA
:102B200088470020B9E60000100002402804024057
:102B3000085402582DE9FF5F0446002001904FF42D
:102B40001651FD480068B0FBF1F00090A56D2E68AD
:102B50002968FA4FDFF8E4B3DFF8E083DFF8DC93AD
:102B60000BF1180BDFF8D4A308F13008206809F145
:102B700048090AF1600AB8423BD05A46904238D020
:102B8000404536D0484534D0504532D0EB4A7832B3
:102B900090422ED0E94A903290422AD0E74AA83299
:102BA000904226D0E64A904223D0E54A183290421D
:102BB0001FD0E34B303398421BD0E14B483398424F
:102BC00017D0DFF87CC30CF1600C604511D0DFF842
:102BD00070C30CF1780C60450BD0DFF864C30CF1C6
:102BE000900C604505D0DFF858E30EF1A80E704553
:102BF0007ED194F85C10082301F01F0103FA01F262
:102C000032424BD0B84232D0584530D040452ED019
:102C100048452CD050452AD0C8497831884226D022
:102C2000C6499031884222D0C449A83188421ED07A
:102C3000C34988421BD0C2491831884217D0C049C5
:102C40003031884213D0BE49483188420FD0BC4948
:102C5000603188420BD0BA497831884207D0B849F0
:102C60009031884203D0B649A831884203D1016827
:102C700001F0040102E0016801F0080171B101688E
:102C800021F00401016094F85C0000F01F0003FAD9
:102C900000F2AA60606D40F00100606594F85C008D
:102CA000012100F01F008140314240D02068B8422D
:102CB00034D0584532D0404530D048452ED05045CC
:102CC0002CD09E4A7832904228D09C4A9032904232
:102CD00024D09A4AA832904220D0994A90421DD0DE
:102CE000974A1832904219D0954A3032904200E00B
:102CF000D2E113D0924A483290420FD0904A6032CB
:102D000090420BD08E4A7832904207D08C4A903253
:102D1000904203D08A4AA83290427DD1406910F097
:102D2000800F04D0A960606D40F00200606594F8E7
:102D30005C00042100F01F00814031423ED0206839
:102D4000B84232D0584530D040452ED048452CD0DE
:102D500050452AD0794A7832904226D0774A90322C
:102D6000904222D0754AA83290421ED0744A9042B6
:102D70001BD0734A1832904217D0714A30329042B9
:102D800013D06F4A483290420FD06D4A6032904261
:102D90000BD06B4A7832904207D0694A9032904209
:102DA00003D0674AA83290424ED1006810F0020F5B
:102DB00004D0A960606D40F00400606594F85C0088
:102DC000102100F01F008140314260D02068B842DD
:102DD00034D0584532D0404530D048452ED05045AB
:102DE0002CD0564A7832904228D0544A90329042A1
:102DF00024D0524AA832904220D0514A90421DD04D
:102E00004F4A1832904219D04D4A3032904215D074
:102E10004B4A4832904200E014E00FD0484A6032FA
:102E200090420BD0464A7832904207D0444A9032C2
:102E3000904203D0424AA832904207D1006800F085
:102E4000080006E0006872E70068B7E7006800F075
:102E5000040058B1A9602068016849030CD50068D6
:102E6000000304D4216C09B1204688470FE0A16C0F
:102E700069B1204688470AE00168C90503D40168A2
:102E800021F008010160216C09B12046884794F8BF
:102E90005C00202100F01F00814031427BD020687F
:102EA000B84232D0584530D040452ED048452CD07D
:102EB00050452AD0214A7832904226D01F4A90327B
:102EC000904222D01D4AA83290421ED01C4A904205
:102ED0001BD01B4A1832904217D0194A3032904208
:102EE00013D0174A483290420FD0154A60329042B0
:102EF0000BD0134A7832904207D0114A9032904258
:102F000003D00F4AA832904203D1006800F01000AD
:102F100002E0006800F00200E8B3A96094F8350010
:102F2000042812D02068016849033DD500680003D9
:102F300035D4616C79B305E0300000241000024004
:102F400010040240204688473FE02068016821F0D5
:102F5000160101602068416921F080014161206C07
:102F600008B9A06C20B12068016821F00801016057
:102F700094F85C0000F01F013F208840A860012009
:102F800084F83500002084F83400216D002974D0C5
:102F900004B0204600E018E0BDE8F05F0847E16BB0
:102FA00099B12046884710E00168C90509D4016835
:102FB00021F010010160012084F83500002084F820
:102FC0003400E16B09B120468847606D002854D079
:102FD000606DC00758D0042084F835002068B842DE
:102FE00031D058452FD040452DD048452BD05045A5
:102FF00029D0B749884226D0B5491831884222D015
:10300000B349303188421ED0B24988421BD0B14901
:103010001831884217D0AF493031884213D0AD49BA
:10302000483188420FD0AB49603188420BD0A94962
:103030007831884207D0A7499031884203D0A5490A
:10304000A831884204D1016821F00101016003E048
:10305000016821F00101016021680198009A401C7B
:103060000190904202D80868C007F6D10868C007EE
:1030700004D0032084F8350003E087E0012084F8C1
:103080003500002084F83400E16C00297ED004B0C3
:103090002046BDE8F05F08478F4EB0421BD08E4EF1
:1030A0001436B04217D08C4E2836B04213D08A4E18
:1030B0003C36B0420FD0884E5036B0420BD0864ED0
:1030C0006436B04207D0844E7836B04203D0824E88
:1030D0008C36B0425AD106684FF0040E94F85CB0BA
:1030E0000BF01F0B0EFA0BFE1EEA010FCDF80CE0E1
:1030F0005ED05FEA467E5BD503986860300411D5E8
:10310000F00307D4A16C002940D004B02046BDE8EC
:10311000F05F0847216C002938D004B02046BDE894
:10312000F05F0847B0063BD42068B8422DD068490C
:103130006039884229D0404527D0484525D05045A0
:1031400023D06349884220D06149183188421CD07D
:103150005F493031884218D05E49884215D090428C
:1031600013D05C49303188420FD098420DD0594974
:103170006031884209D057497831884205D060458E
:1031800003D05449A831884206D100E07CE00168B0
:1031900021F00801016003E0016821F004010160F1
:1031A000216C002970D004B02046BDE8F05F0847CC
:1031B0004FF0020E0EFA0BFE1EEA010FCDF808E0EA
:1031C00063D05FEA867E60D502986860300411D5CE
:1031D000F00307D4616C002978D004B02046BDE824
:1031E000F05F0847E16B002970D004B02046BDE8CD
:1031F000F05F0847B0063FD42068B8422DD034496C
:103200006039884229D0404527D0484525D05045CF
:1032100023D02F49884220D02D49183188421CD014
:103220002B493031884218D02A49884215D0904223
:1032300013D02849303188420FD098420DD025490B
:103240006031884209D023497831884205D06045F1
:1032500003D02049A831884204D1016821F014012B
:10326000016003E0016821F00A010160012084F897
:103270003500002084F83400E16B002926D004B02A
:103280002046BDE8F05F084720E0082202FA0BF272
:103290000A421BD0310719D5016821F00E010160E7
:1032A00094F85C0000F01F01012000FA01F1696050
:1032B000606584F83500002084F83400E16C002952
:1032C00004D004B02046BDE8F05F0847BDE8FF9F8A
:1032D0008800024010040240085402582DE9F05FB3
:1032E000044601F097F90646002C7DD0F44F0222E7
:1032F000DFF8CC830025DFF8C893DFF8C4A308F11A
:103300003008DFF8BCB309F1480920680AF1600A07
:103310000BF1780BB84232D0E949183188422ED0EF
:1033200040452CD048452AD0504528D0584526D075
:10333000E3499031884222D0E149A83188421ED029
:10334000E04988421BD0DF491831884217D0DD4957
:103350003031884213D0DB49483188420FD0D949F7
:10336000603188420BD0D7497831884207D0D5499F
:103370009031884203D0D349A83188427ED184F865
:10338000352084F83450B84234D0CD4918318842C1
:1033900030D040452ED048452CD050452AD05845F5
:1033A00028D0C7499031884224D0C549A8318842E5
:1033B00020D0C44988421DD0C2491831884219D052
:1033C000C0493031884215D0BE494831884211D0B9
:1033D000BC49603188420DD0BA497831884209D061
:1033E000B8499031884200E009E003D0B549A831DE
:1033F000884207D1016821F00101016013E001203A
:10340000BDE8F09F016821F0010101600BE001F0CF
:1034100001F9801B052806D920206065032084F867
:1034200035000120ECE720680068C007EFD1226872
:103430001168A5480140D4E902031843D4E90436D1
:1034400033431843A3691843E3691843236A1843B5
:103450000843616A042903D1D4E90B1319430843D3
:103460009A4909686FF30F01B1F1005F11D36168E8
:10347000A1F12903052B0AD9163B00E02EE0032B0E
:1034800005D9083B012B02D94F39032901D840F453
:10349000801010602068406920F00701606A40EAEF
:1034A000010604280DD1A06A0643E06A48B120460F
:1034B000FDF756FE28B140206065012084F83500F4
:1034C0009EE7206846612046FDF75CFD94F85C109D
:1034D00001F01F023F219140816066E07C498842F3
:1034E0001BD07B4B1433984217D0794B283398422A
:1034F00013D0774B3C3398420FD0754B50339842E2
:103500000BD0734B6433984207D0714B7833984299
:1035100003D06F4B8C3398427ED1884211D06C49D6
:10352000143188420DD06A492831884209D068494F
:103530003C31884205D066495031884201D0644907
:10354000643184F8352084F83450026861490A40B7
:10355000A16840297ED080297DD00021E36841EA1E
:10356000D301236941EAD301636941EAD301A36925
:1035700041EAD301E36941EAD301236A41EA131125
:103580001143016052492068494208441421B0FBAC
:10359000F1F08000E0652046FDF7F4FC94F85C1043
:1035A00001F01F020121914041602068B84256D0CD
:1035B00043491831884252D0404550D048454ED0FA
:1035C00050454CD058454AD03D499031884246D06C
:1035D0003B49A831884242D03A4988423FD03949D4
:1035E000183188423BD037493031884237D035498D
:1035F0004831884233D03349603188422FD0314935
:10360000783188422BD02F499031884227D02D49DC
:10361000A831884223D000E02DE02D4988421ED0F9
:103620002B49143188421AD029492831884216D0B2
:1036300027493C31884212D02549503188420ED06A
:103640002349643188420AD021497831884206D022
:103650001F4901E00AE00BE08C31884229D1204665
:10366000FDF7F0FCA06880280CD00CE0102175E775
:103670004FF4804172E740206065032084F83500F4
:103680000120BDE66560216E20790860D4E919103B
:1036900048606068401E072808D82046FDF722FDD4
:1036A000E06E0560D4E91C10486002E0E56625671D
:1036B00065676565012084F835000020A0E60000FC
:1036C00010000240100402403F8010FE0010005C19
:1036D000085402580F00FEFF2DE9F84F0446002061
:1036E0000090002C15D094F83400012813D001204C
:1036F00084F8340094F835500020012D0DD04FF49B
:103700000061616584F83400012000900098BDE8F4
:10371000F88F0120FBE70220F9E7022584F83550F5
:103720006065A54DA44EA44F1835DFF88CC2303625
:10373000DFF884824837DFF88092DFF87CA208F156
:103740006008DFF874B209F1780920680AF1900A7C
:103750000BF1A80B60453BD0A84239D0B04237D01E
:10376000B84235D0404533D0484531D050452FD0B0
:1037700058452DD0DFF844C2604529D0DFF83CC25F
:103780000CF1180C604523D0DFF830C20CF1300C7E
:1037900060451DD0DFF824C20CF1480C604517D0FD
:1037A000DFF818C20CF1600C604511D0DFF80CC2D4
:1037B0000CF1780C60450BD0DFF800C20CF1900CD6
:1037C000604505D0DFF8F4C10CF1A80C604506D1C6
:1037D000D0F800C02CF0010CC0F800C005E0D0F813
:1037E00000C02CF0010CC0F800C02046FDF7F4FC2E
:1037F0007149206888422CD0A8422AD0B04228D0F3
:10380000B84226D0404524D0484522D0504520D04B
:1038100058451ED0694A90421BD0684A18329042DF
:1038200017D0664A3032904213D0644A48329042F0
:103830000FD0624A603290420BD0604A7832904298
:1038400007D05E4A9032904203D05C4AA832904240
:103850000DD1026822F01E0242F016020260206CB6
:1038600090B12068026842F0080202600CE0026831
:1038700022F00E0242F00A020260206C20B12068A1
:10388000026842F004020260206888424BD0A842DD
:1038900049D0B04247D0B84245D0404543D04845D2
:1038A00041D050453FD058453DD0444A90423AD04F
:1038B000424A1832904236D0404A3032904232D09A
:1038C0003E4A483290422ED03C4A603290422AD042
:1038D0003A4A7832904226D0384A9032904222D0EA
:1038E000364AA83290421ED0354A90421BD0344A04
:1038F0001432904217D0324A2832904213D0304AC4
:103900003C3290420FD02E4A503290420BD02C4A7B
:103910006432904207D02A4A7832904203D0284A33
:103920008C3290420DD1206E0268D20303D502681A
:1039300042F480720260E06E18B1026842F4807254
:103940000260206888422CD0A8422AD0B04228D0F9
:10395000B84226D0404524D0484522D0504520D0FA
:1039600058451ED0154988421BD014491831884249
:1039700017D012493031884213D01049483188425B
:103980000FD00E49603188420BD00C497831884203
:1039900007D00A499031884203D00849A8318842AB
:1039A00004D1016841F001010160AFE6016841F016
:1039B00001010160AAE6000010000240100402406C
:1039C0000854025810B590F89830012B08D0022BFB
:1039D00006D050F89C1F41F002010160012010BD8B
:1039E00003689C6D0C4204D1DC6D44F00104DC657D
:1039F00005E09C6D31EA04041CD00324DC658B05D2
:103A000004D5036853F8E04F14431C604B0504D5FC
:103A1000036853F8E44F14431C600068426D084B80
:103A20000B401A4342650748026842EA91710160FF
:103A3000002010BDDC6D44F00204DC65DFE700000F
:103A4000FFFFCF3F14A8004070B5044694F89800DB
:103A5000022806D054F89C0F40F008002060012096
:103A600070BD2068D0F8C03013F07C5F0AD0D0F869
:103A7000C4309B020DD554F89C0F40F400702060B8
:103A8000012070BD54F89C0F40F020002060012000
:103A900070BDD0F8C400C0F3044520462B46FDF7A6
:103AA00019FF21680120A840C1F8D000C4F8940093
:103AB000002070BD704710B590F89820012A08D0FA
:103AC000022A06D050F89C1F41F00201016001203B
:103AD00010BDCA680B688BB1072A0B6943EA4273B1
:103AE0002BD00C7A4A6942EA84724968006F00EB75
:103AF000C100036042604FF0000010BD072A10D0E3
:103B00000C7A4FEAC2624B6943EA84730C8A42EA38
:103B1000044243EA02034968C06E00EB810003607F
:103B2000E9E70B8A4FF060548A6942EA0343CA69A5
:103B300044EA022243EA0203EDE78A69D5E730B599
:103B4000039C90F89850012D06D050F89C1F41F02E
:103B500004010160012030BD0068090141EA8201D1
:103B600041EA43012143C0F88010002030BD704776
:103B700070470000F0B5002490F89850022D06D050
:103B800050F89C1F41F0080101600120F0BD402960
:103B90000BD0412936D0056D8D4260D850F89C1F5E
:103BA00041F0200101600120F0BD0568D5F8A0605A
:103BB00016F4FE0F18D0D5F8A46076061BD0D5F801
:103BC000A460F60105D5D5F8A06016F0004F00D529
:103BD0000124D5F8A450C5F305252C44456C466F47
:103BE000654306EB85063FE050F89C1F41F020013D
:103BF00001600120F0BD50F89C1F41F4807101600C
:103C00000120F0BD0568D5F8B06016F4FE0F18D09D
:103C1000D5F8B46076061BD0D5F8B460F60105D5AA
:103C2000D5F8B06016F0004F00D50124D5F8B45097
:103C3000C5F305252C44C56C866F654306EB8506E8
:103C400012E050F89C1F41F0200101600120F0BDFE
:103C500050F89C1F41F4807101600120F0BD456D5A
:103C6000C66F4D4306EB8506356805F08045556007
:103C70002DB3356825F060451560356805F00055B1
:103C80009560356805F000451561B588ADB2D56120
:103C90007568C5F30345D560756805F480155561F1
:103CA000756805F4001595617568C5F306651562BC
:103CB00075680836ED0F55620025174F09E0356825
:103CC000C5F38A451560D8E716F805C003F805C0A6
:103CD0006D1CD2F80CC017F80CC0AC45F4D84029C4
:103CE00009D041290BD0012220290CD200688A403A
:103CF000C0F898200DE00068C0F8A84009E000680E
:103D0000C0F8B84005E0006801F01F018A40C0F823
:103D10009C200020F0BD000060E600087047000015
:103D20002DE9FE4F0446B64F38688007391D0968F3
:103D300000EA817002902068016D01F47041D0F8B2
:103D400054A00AEA010A016D01F00F01D0F854B045
:103D50000BEA010B016D01F0F001426D0A40019286
:103D6000016D01F07151D0F8548008EA0108016D2D
:103D700001F06071426D0A400092416D056D4FF097
:103D80000009CE43F10509D4E943C90506D4B915A4
:103D90000165C7F800902046FFF7C0FF700510D4FA
:103DA000E84340050DD42068D0F8DC20D0F8E410BA
:103DB00011404FF480620265C7F80090204600F081
:103DC000FEFA029858B18F490298084021680865A8
:103DD0000298800F386002992046FFF76BFEBAF117
:103DE000000F0BD0216887480AEA000008654FEAF7
:103DF0009A7038605146204600F0E3FABBF1000F9C
:103E00000BD021687F480BEA000008654FEA9B70E1
:103E100038605946204600F07DFA019858B179493A
:103E200001980840216808650198800F3860019961
:103E3000204600F0A5FA30050BD4E843000508D46D
:103E400021684FF400600865C7F80090204600F034
:103E5000B9FAB00510D4E84380050DD42068D0F835
:103E6000D820D0F8E01011404FF400720265C7F876
:103E70000090204600F0A4FA30030BD4E84300037E
:103E800008D421684FF400200865C7F80090204648
:103E900000F03EFAF0030BD4E843C00308D42168D5
:103EA0004FF480300865C7F80090204600F086FA8D
:103EB00070030BD4E843400308D421684FF48020FA
:103EC0000865C7F80090204600F077FAB0030ED4DA
:103ED000E84380030BD421684FF400300865C7F82D
:103EE0000090D4F89C0040F08000C4F89C0000983A
:103EF00058B1444900980840216808650098800F2F
:103F0000386000992046FFF733FEB8F1000F0DD05E
:103F100021683C4808EA000008654FEA987038605C
:103F2000D4F89C0040EA0800C4F89C003649206898
:103F300088425BD160688168890757D0016A01F0C7
:103F40000F02416A1140026A02F03002476A1740CC
:103F5000026A02F4C072D0F8248008EA0208026AF9
:103F600002F4FC42456A1540026A02F4F022466AF5
:103F70001640D0F82490D0F820A019B10162204654
:103F800000F018FA2FB1606807623946204600F049
:103F900013FA6FEA090040060ED46FEA0A004006E1
:103FA0000AD46068C16B090CC26B02F03F02402367
:103FB0000362204600F0FFF9B8F1000F06D06068F8
:103FC000C0F820804146204600F0F3F935B1606822
:103FD0000562D4F89C002843C4F89C0036B16068A0
:103FE0000662D4F89C003043C4F89C00D4F89C00CE
:103FF000002802D02046FFF7BAFDBDE8FE8F000082
:1040000010A80040FFFFCF3F00A000402DE9F04383
:1040100093B004464C2295496846FCF78CF96CB184
:10402000934F2068B84202D100F5807060604FF471
:10403000407994F89800002620B108E0012013B0E0
:10404000BDE8F08384F89960204600F013F92068F9
:10405000816921F01001816100F0DCFA05464FF022
:1040600003080DE000F0D6FA401B0A2808D954F8DE
:104070009C0F40F00100206004F8048C0120DEE772
:10408000206880690007EDD42068816941F0010152
:10409000816100F0BFFA05460DE000F0BBFA401B5D
:1040A0000A2808D954F89C0F40F00100206004F859
:1040B000048C0120C3E720688069C007EDD0206828
:1040C000816941F002018161207C012839D020689A
:1040D000816941F040018161607C012837D020680E
:1040E000816921F480418161A07C012835D020685C
:1040F000816941F48051816120688169A26821F45D
:104100004071114381612068816921F0A4018161BE
:104110002068016921F010010161E068012822D0C6
:1041200030B302282BD02068816941F08001816181
:104130002068016941F010010161E068032818D08E
:1041400022E02068816921F040018161C4E7206894
:10415000816941F480418161C6E72068816921F469
:1041600080518161C8E72068816941F00401816163
:104170000AE02068816941F02001816104E0206843
:10418000816941F020018161207E401E4106E06985
:10419000401E41EA0020216A491E0843A18A491EA7
:1041A00040EA01402168C861A06848450FD1E16A32
:1041B000A06A491E401E40EA0121206B401E41EAD0
:1041C0000011A08C401E41EA00402168C860206EAA
:1041D00028B1206850F8C01F626E11430160D4E915
:1041E0001701C842694609D0206850F8C82FA36E4D
:1041F00022F0070251F823301A430260206C48B1C4
:10420000206850F8BC2F636C22F0070251F823306D
:104210001A430260A06C50B1206850F8BC2FE36CC8
:1042200022F0700251F8233042EA03120260206D3E
:1042300050B1206850F8BC2F636D22F4E06251F851
:10424000231042EA012101602068B84204D160686D
:10425000816821F00301816044F8946FA660012019
:104260002071943C2046FDF75DFAE8E670E6000810
:1042700000A0004010B5B8B00446142132A8FCF7E5
:1042800073F8C02102A8FCF76FF81E492068884225
:1042900035D100204FF40041CDE9021048031E90B3
:1042A00002A801F047FC08B1FDF702FA16480168C0
:1042B00041F480710160006800F480700190124840
:1042C0000C38016841F001010160006800F0010054
:1042D00001904FF4C050329002203390002034906F
:1042E00035900920369032A9084800F06DF8002278
:1042F0001320114600F00EFD132000F0FDFC38B035
:1043000010BD000000A00040EC440258000002581C
:104310007047000070B5054600F07CF9154C6168E7
:10432000401AB0F5FA7F02D900F074F960604021BC
:10433000104B114A11480833FFF71CFC0E48006867
:104340000246A0F50070013805D0012803D00228EC
:1043500001D003280DD1521ED0B22070064900EBC7
:104360004000E43901EB00102946BDE8704009F037
:104370005BB870BD54000024D81400243C01002414
:10438000704790F89810012906D050F89C1F41F012
:104390000401016001207047022180F89810016833
:1043A0008A6922F001028A610021C0F89C10002075
:1043B0007047704770477047704770477047704745
:1043C00070477047704700002DE9F84F00227B4D81
:1043D00003264FF001080F274FF0B04CE6E008FA33
:1043E00002F31C409A46002C7ED00B7903F00303A5
:1043F000012B01D0022B1BD1D0F80890530006FAF4
:1044000003FB29EA0B09D1F80CB00BFA03FB4BEACA
:10441000090BC0F808B0436823EA0A0391F8049036
:10442000C9F3001909FA02F949EA0309C0F804902E
:104430000B79DB439B070ED0D0F80C90530006FAA3
:1044400003FA29EA0A09D1F808A00AFA03FA4AEAA3
:10445000090AC0F80CA00B7903F00303022B14D156
:10446000D30800EB8303D3F820A04FEA42794FEA48
:10447000D96907FA09FB2AEA0B0AD1F810B00BFA3E
:1044800009FB4BEA0A0BC3F820B0D0F800905300A8
:1044900006FA03FA29EA0A0991F804A00AF0030AC5
:1044A0000AFA03FA4AEA090AC0F800A04B6813F4B2
:1044B000403F7AD0424BD3F8009049F00209C3F84C
:1044C00000901B6803F00203009322F0030909F136
:1044D000B049D9F808B493074FEA137A07FA0AF3F8
:1044E0002BEA030B374B00E05FE0984201D1002339
:1044F0002DE0354B984201D1012328E0334B9842FF
:1045000001D1022323E0324B984201D103231EE064
:10451000304B984201D1042319E02F4B984201D12E
:10452000052314E02D4B984201D106230FE02C4BBC
:10453000984201D107230AE02A4B984201D108236F
:1045400005E0294B984201D1092300E00A2303FA30
:104550000AF343EA0B03C9F80834DCF80030A3433C
:10456000D1F804905FEAC92900D52343CCF8003084
:10457000DCF80430A343D1F804905FEA892900D520
:104580002343CCF804306B68A343D1F804905FEA6E
:10459000893900D523436B602B68A343D1F804907D
:1045A0005FEAC93900D523432B60521C0C6834FAEA
:1045B00002F37FF414AFBDE8F88F000080000058CC
:1045C000F44402580000025800040258000802583F
:1045D000000C02580010025800140258001802582B
:1045E000001C0258002002580024025800690842AA
:1045F00001D00120704700207047002A01D081615E
:10460000704709048161704701480068000C7047D9
:104610000010005C014880687047000024000024FE
:1046200090F84120202A01D00220704790F84020C5
:10463000012A20D0012280F84020242280F8412045
:104640000268136823F0010313600268136823F4FF
:1046500080531360026813680B43136001680A6893
:1046600042F001020A60202180F84110002180F808
:104670004010002070470220704790F84120202A07
:1046800001D00220704790F84020012A1ED001225C
:1046900080F84020242280F841200268136823F02B
:1046A000010313600268136823F4706343EA012175
:1046B000116001680A6842F001020A60202180F856
:1046C0004110002180F84010002070470220704700
:1046D00008B507490A6842F002020A60096801F059
:1046E0000201009103490A6802430A6008BD000004
:1046F000F44402580404005870B50446002C04D059
:1047000094F84100002510B106E0012070BD84F846
:104710004050204600F0B2F9242084F8410020687F
:10472000016821F0010101602168606820F070607B
:1047300008612068816821F400418160E0680128F7
:1047400031D02168A06840F404408860E068022805
:104750002FD02068416821F40061416020684168E1
:10476000174A114341602068C16821F40041C160CB
:10477000D4E904010843A16940EA01202168C86026
:10478000D4E907010843216808602068016841F006
:10479000010101606564202084F84100256384F8EC
:1047A0004250002070BD2168A06840F4004088603D
:1047B000CCE72068416841F400614160CEE7000029
:1047C000008000022DE9F84F04468B4617469846B4
:1047D000DDF828A094F84100202802D00220BDE88E
:1047E000F88F94F8400001280FD0012084F8400091
:1047F000FFF710FF06462046012200961923D10339
:1048000004F020FC18B10120E9E70220E7E72220AC
:1048100084F84100102084F8420000256564676236
:10482000A4F82A806563618DFF2737484FF08078B0
:10483000FF294FF0007908D93A4627854346594663
:104840000090204604F0E6FB43E0618D21854B4655
:104850000090594694F82820204604F0DBFB38E00D
:1048600032465146204604F02BFC08B10120B6E741
:104870002068406A616A0870606A401C6062208D2E
:10488000401E80B22085618D491E6185618D01B316
:10489000F8B90022534680212046009604F0D2FB4E
:1048A00008B101209BE7608DFF2808D93A4627858B
:1048B000434659462046009504F0ACFB09E0608D64
:1048C00020854B460095594694F82820204604F050
:1048D000A1FB608D0028C3D132465146204604F02A
:1048E00043FC08B101207AE720682021C1612068DB
:1048F0004268064B1A40426084F8411084F84250E6
:1049000084F8405000206AE70024008000E800FEA0
:104910002DE9F84F04468B4617469846DDF828A047
:1049200094F84100202802D00220BDE8F88F94F8C6
:10493000400001280FD0012084F84000FFF76AFEF4
:1049400006462046012200961923D10304F07AFB83
:1049500018B10120E9E70220E7E7212084F84100AF
:10496000102084F84200002565643A466762A4F886
:104970002A806563608DFF274FF08078FF284FF015
:10498000007902D92785434602E0608D20854B4699
:10499000208D384998B1107822689062606A401C76
:1049A0006062608D401E6085208D401E2085401C09
:1049B0000091C2B25946204604F02CFB3FE0002291
:1049C00020460091594604F025FB38E03246514616
:1049D000204604F0F4FB08B10120A6E7606A2168D4
:1049E00000788862606A401C6062608D401E60854D
:1049F000208D401E80B22085618D01B3F8B9002260
:104A0000534680212046009604F01CFB08B101208B
:104A10008BE7608DFF2808D93A46278543465946DB
:104A20002046009504F0F6FA09E0608D20854B469B
:104A30000095594694F82820204604F0EBFA608D42
:104A40000028C3D132465146204604F08DFB08B100
:104A500001206AE720682021C16120684268064B76
:104A60001A40426084F8411084F8425084F8405063
:104A700000205AE70020008000E800FE2DE9F04702
:104A8000B8B00446142132A8FBF76EFCC02102A87E
:104A9000FBF76AFC334D12273148002621680835A0
:104AA000304C4FF00108DFF8C0A081424FF00409FC
:104AB0002AD108210020CDE90210239602A801F096
:104AC00039F808B1FCF7F4FD206840F002002060DE
:104AD000206800F002000190C02032903397CDF89A
:104AE000D08003203590CDF8D89032A95046FFF7FA
:104AF0006BFC286840F400102860286800F400105F
:104B0000019038B0BDE8F08718488142F9D10821FA
:104B10000020CDE90210239602A801F00BF808B19D
:104B2000FCF7C6FD206840F002002060206800F01D
:104B3000020001904FF4406032903397CDF8D0805E
:104B40003596CDF8D89032A95046FFF73DFC28683D
:104B500040F480002860286800F480000190D0E7CD
:104B600000540040E044025800040258005800403D
:104B70000248816802781144816070472400002453
:104B800010B5032000F0E6F801F05AFE0F490A685C
:104B9000C2F303230E4AD35C03F01F03D840096815
:104BA00001F00F01515C0B4A01F01F0120FA01F1E5
:104BB000116009490860072000F010F808B10120D1
:104BC00010BD00F07BF8002010BD00001844025812
:104BD000E4E60008340000243000002470B50446E8
:104BE0000F4D2A78002A0CD04FF47A700D49B0FB93
:104BF000F2F00968B1FBF0F002F006FF18B10120F5
:104C000070BD012070BD102C07D200222146501E1D
:104C100000F080F86C60002070BD012070BD0000C5
:104C20002400002430000024134A41781160124906
:104C300008310A6822F001020A600B1F42681A60FC
:104C4000027BC37A120742EA0362837A42EAC342D2
:104C5000437B42EA8342837B42EA4342C37B42EA8C
:104C60000342437A42EA0322037A007842EA43028B
:104C700002430A607047000098ED00E0BFF35F8FC9
:104C80000448016821F4803101600249002070313C
:104C90000860704724ED00E0074940F0010008601B
:104CA00005487038016841F480310160BFF34F8FCF
:104CB000BFF36F8F7047000094ED00E038B50D4CE6
:104CC000206840F002002060206800F002000090A0
:104CD000042000F03FF8206840F400402060206885
:104CE00000F40040009002F06FFEBDE83840022062
:104CF00002F072BEF4440258002809DB012100F0E2
:104D00001F0291404009800000F1E020C0F800112E
:104D100070470000F0B40D460D4B1B68C3F302232F
:104D2000C3F10704042C00D90424191D072901D25A
:104D3000002300E0DB1E012606FA04F1491E29408B
:104D400099409E40761E16403143F0BC06F068BF85
:104D50000CED00E000F00701054A10684FF6FF0374
:104D6000184040EA012003490843106070470000E2
:104D70000CED00E00000FA0570B504460025002C9B
:104D80000ED094F8320005280CD094F83200022896
:104D90000AD0E0694FF4802694F8320030B108E080
:104DA000012070BD012070BD012070BD002084F87D
:104DB0003100204600F060F82068016821F40061AD
:104DC0000160A068402810D1606840F04001D4E93B
:104DD00005021043014320690143E0690143206853
:104DE0000268234B1A4011430160A06821496028E2
:104DF0000BD16068E36940F0600220691843024308
:104E0000206803680B401A430260A06858B9D4E9CF
:104E10000303626818430243E069024320680368A1
:104E20000B401A430260E069B04218D1606841F655
:104E30001F72B0F5807F09D0D4E9081040EA012143
:104E40002068436893430B43436008E0D4E90A10A9
:104E500040EA01212068836893430B43836094F800
:104E6000320010B9012084F83200284670BD0000DD
:104E7000933EF8FF93FEFBFFF0B587B00446142184
:104E800002A8FBF771FA2E4E03252E482B4F2268FD
:104E9000002431680C382B4B491CBA422CD13160AC
:104EA000012907D1196841F010011960196801F052
:104EB00010010191016841F004010160016801F0F5
:104EC00004010191016841F002010160006800F0F5
:104ED00002000190102002900395049402A91A4840
:104EE000FFF772FA012002900395049402A9174873
:104EF000FFF76AFA07B0F0BD104F1037BA42F9D188
:104F00003160012907D1196841F010011960196851
:104F100001F010010191016841F010010160006889
:104F200000F0100001904FF420700290039504945B
:104F300002A90748FFF748FADCE7000000900040AC
:104F400000000024EC4402580008025800040258F3
:104F500000100258002100280AD090F83220052ABB
:104F600008D090F83220012A06D001210846704767
:104F70000121FBE70121F9E70268136843F001030F
:104F80001360042280F83220F0E7000070B5144965
:104F90000A68D243520708D5096801F00701814227
:104FA00001D0012070BD002070BD0A6822F0070208
:104FB00002430A60FFF72EFB0446094D4FF47A7650
:104FC000083D06E0FFF726FB001BB04201D9012097
:104FD00070BD2868C0438004F4D4002070BD000078
:104FE0000C48025810B501F0E5FB05490968054A6F
:104FF000C1F30211515C01F01F01C84010BD000057
:1050000020440258E4E6000810B569490A6802F035
:1050100003020968C1F30511654B1B1D1B6803F0F2
:105020000103634C0C342468C4F3CC0414FB03F375
:1050300000EE103AB8EE400A002971D09FED5D1ADB
:105040009FED5D2A5A4BF7EE000A0833F2B3012AAE
:105050007DD0022A7AD001EE901A1968F8EE611A12
:10506000C2EE212AC1F3080101EE901AF8EE611A8E
:1050700040EE011A31EEA00A22EE800A1968C1F34F
:10508000462101EE101AB8EE411A31EE201AC0EE98
:10509000011ABCEEE11A80ED001A1968C1F306414D
:1050A00001EE101AB8EE411A31EE201AC0EE011AC4
:1050B000BCEEE11A80ED011A1968C1F3066101EE38
:1050C000101AB8EE411A71EE200A00E006E080EEF8
:1050D000201ABCEEC10A80ED020A10BD344A283AFB
:1050E0001468A4061ED51268C2F3C104334AE24014
:1050F00001EE902AF8EE612A01EE901A1968F8EE96
:10510000611A82EEA12AC1F3080101EE901AF8EEAD
:10511000611A40EE011A31EEA00A22EE000AADE754
:1051200041E014E001EE901A1968F8EE611AC2EE3F
:10513000212AC1F3080101EE901AF8EE611A40EE3F
:10514000011A31EEA00A22EE800A97E715E001EE7F
:10515000901ADFED1B2A1968F8EE611A82EEA12A77
:10516000C1F3080101EE901AF8EE611A40EE011A3F
:1051700031EEA00A22EE000A80E701EE901ADFED80
:10518000112A1968F8EE611A82EEA12AC1F308010A
:1051900001EE901AF8EE611A40EE011A31EEA00A03
:1051A00022EE000A6AE7002101604160816010BDC3
:1051B00028440258000000390024744C0090D003A9
:1051C0000024744A0024744B10B569490A6802F03F
:1051D00003020968C1F30531654B1B1D1B68C3F34E
:1051E0000013634C14342468C4F3CC0414FB03F39D
:1051F00000EE103AB8EE400A002971D09FED5D1A1A
:105200005B4BF7EE000A1033F2B39FED5B2A012AE5
:105210007FD0022A7CD001EE901A1968F8EE611A4C
:10522000C2EE212AC1F3080101EE901AF8EE611ACC
:1052300040EE011A31EEA00A22EE800A1968C1F38D
:10524000462101EE101AB8EE411A31EE201AC0EED6
:10525000011ABCEEE11A80ED001A1968C1F306418B
:1052600001EE101AB8EE411A31EE201AC0EE011A02
:10527000BCEEE11A80ED011A1968C1F3066101EE76
:10528000101AB8EE411A00E008E071EE200A80EE34
:10529000201ABCEEC10A80ED020A10BD344A283A39
:1052A0001468A4061ED51268C2F3C104334AE24052
:1052B00001EE902AF8EE612A01EE901A1968F8EED4
:1052C000611A82EEA12AC1F3080101EE901AF8EEEC
:1052D000611A40EE011A31EEA00A22EE000AADE793
:1052E00041E016E001EE901ADFED252A1968F8EE8C
:1052F000611A82EEA12AC1F3080101EE901AF8EEBC
:10530000611A40EE011A31EEA00A22EE000A95E77A
:1053100013E001EE901A1968F8EE611AC2EE212A24
:10532000C1F3080101EE901AF8EE611A40EE011A7D
:1053300031EEA00A22EE800A80E701EE901ADFED3E
:10534000112A1968F8EE611A82EEA12AC1F3080148
:1053500001EE901AF8EE611A40EE011A31EEA00A41
:1053600022EE000A6AE7002101604160816010BD01
:1053700028440258000000390024744A0090D003E9
:105380000024744C0024744B10B569490A6802F07B
:1053900003020968C1F30551654B1B1D1B68C3F36C
:1053A0000023634C1C342468C4F3CC0414FB03F3C3
:1053B00000EE103AB8EE400A002971D09FED5D1A58
:1053C0005B4BF7EE000A1833F2B39FED5B2A012A1C
:1053D0007FD0022A7CD001EE901A1968F8EE611A8B
:1053E000C2EE212AC1F3080101EE901AF8EE611A0B
:1053F00040EE011A31EEA00A22EE800A1968C1F3CC
:10540000462101EE101AB8EE411A31EE201AC0EE14
:10541000011ABCEEE11A80ED001A1968C1F30641C9
:1054200001EE101AB8EE411A31EE201AC0EE011A40
:10543000BCEEE11A80ED011A1968C1F3066101EEB4
:10544000101AB8EE411A00E008E071EE200A80EE72
:10545000201ABCEEC10A80ED020A10BD344A283A77
:105460001468A4061ED51268C2F3C104334AE24090
:1054700001EE902AF8EE612A01EE901A1968F8EE12
:10548000611A82EEA12AC1F3080101EE901AF8EE2A
:10549000611A40EE011A31EEA00A22EE000AADE7D1
:1054A00041E016E001EE901ADFED252A1968F8EECA
:1054B000611A82EEA12AC1F3080101EE901AF8EEFA
:1054C000611A40EE011A31EEA00A22EE000A95E7B9
:1054D00013E001EE901A1968F8EE611AC2EE212A63
:1054E000C1F3080101EE901AF8EE611A40EE011ABC
:1054F00031EEA00A22EE800A80E701EE901ADFED7D
:10550000112A1968F8EE611A82EEA12AC1F3080186
:1055100001EE901AF8EE611A40EE011A31EEA00A7F
:1055200022EE000A6AE7002101604160816010BD3F
:1055300028440258000000390024744A0090D00327
:105540000024744C0024744B2DE9F04F89B0FD4CBD
:10555000FB4A80F48079DFF8E8834FF0805725110B
:10556000DFF8E4A3A310503A59EA0109A8F10406B0
:105570004FF0005C36D080F4007959EA01097FD001
:10558000DFF8BC9380F4806B5BEA010B09F108093A
:105590006FD080F4006B5BEA010B6BD080F4805B12
:1055A0005BEA010B67D080F4005B5BEA010B4FF410
:1055B000803A4FF4003E6ED080F4002B5BEA010B82
:1055C0006AD080F4803B5BEA010B75D080F48046A2
:1055D0000E4372D080F4004008436FD0002009B021
:1055E000BDE8F08FD8F8000000F00700052845D28C
:1055F000DFE800F0030D174221001068800104D598
:1056000006A8FFF701FD0798E9E70020E7E7106823
:10561000000104D503A8FFF7D7FD0398DFE70020BA
:10562000DDE71068800004D56846FFF7ADFE0098FE
:10563000D5E70020D3E7306800F0405011684907F3
:1056400000D530B11168C9050AD5B84208D128463D
:10565000C5E71068C0F3C10024FA00F0BFE70FE00F
:105660001168890303D5604501D11846B7E70020CA
:10567000B5E759E0AAE0FBE05046B0E70020AEE70E
:10568000D8F8000000F4E070802824D005DC58B180
:10569000402807D115E03DE188E1C02842D0B0F5AF
:1056A000807F22D000209AE71068800107D506A8E5
:1056B000FFF7AAFC079892E7B4E1CFE113E20020DC
:1056C0008DE71068000104D503A8FFF77DFD03985E
:1056D00085E7002083E71068800004D56846FFF75F
:1056E00053FE00987BE7002079E7306800F04050D7
:1056F0001168490700D530B11168C90509D5B8420C
:1057000007D128466BE71068C0F3C10024FA00F007
:1057100065E71168890303D5604501D118465EE746
:1057200000205CE750465AE7D9F8000000F460001A
:10573000B0F5800F21D004DC58B1B0F5001F06D1C0
:1057400011E0B0F5C00F3FD0B0F5000F1FD0002022
:1057500045E71068800104D506A8FFF755FC0798B7
:105760003DE700203BE71068000104D503A8FFF7E0
:105770002BFD039833E7002031E71068800004D543
:105780006846FFF701FE009829E7002027E7306808
:1057900000F040501168490700D530B11168C905C3
:1057A00009D5B84207D1284619E71068C0F3C100EF
:1057B00024FA00F013E71168890303D5604501D18D
:1057C00018460CE700200AE7504608E7D9F8000021
:1057D00000F0E060B0F1007F21D004DC58B1B0F1FE
:1057E000807F06D111E0B0F1407F3FD0B0F1806FF3
:1057F0001FD00020F3E61068800104D506A8FFF74B
:1058000003FC0798EBE60020E9E61068000104D5E8
:1058100003A8FFF7D9FC0398E1E60020DFE6106853
:10582000800004D56846FFF7AFFD0098D7E600205A
:10583000D5E6306800F040501168490700D530B116
:105840001168C90509D5B84207D12846C7E61068CE
:10585000C0F3C10024FA00F0C1E61168890303D542
:10586000604501D11846BAE60020B8E65046B6E6D3
:10587000D8F8000000F4E040B0F5005F21D004DC6F
:1058800058B1B0F5805F06D111E0B0F5405F3FD070
:10589000B0F5804F1FD00020A1E61068800104D52C
:1058A00006A8FFF7B1FB079899E6002097E6106875
:1058B000000104D503A8FFF787FC03988FE60020BA
:1058C0008DE61068800004D56846FFF75DFD0098FE
:1058D00085E6002083E6306800F0405011684907F3
:1058E00000D530B11168C90509D5B84207D128469D
:1058F00075E61068C0F3C10024FA00F06FE6116885
:10590000890303D5604501D1184668E6002066E6A4
:10591000504664E6D8F8000000F4E020B0F5403FBF
:105920002BD013DCD0B150451BD0704514D110687A
:10593000800020D56846FFF727FD01984FE600005C
:10594000504402580090D0030080BB00B0F5802F77
:105950001ED0B0F5A02F22D0002040E600F04CFF72
:105960003DE61068000104D503A8FFF72DFC04985C
:1059700035E6002033E6002031E61068400705D503
:105980001068C0F3C10024FA00F028E6002026E6E3
:105990001068C00501D5284621E600201FE61068E2
:1059A000800301D518461AE6002018E6D9F8000051
:1059B00000F4403088B1504519D0704530D130687E
:1059C00000F040501168490700D5D0B11168C905F1
:1059D0001DD5B8421BD1284601E61068000104D548
:1059E00003A8FFF7F1FB0398F9E50020F7E510683D
:1059F000800004D56846FFF7C7FC0298EFE5002059
:105A0000EDE51068C0F3C10024FA00F0E7E5116885
:105A1000890303D5604501D11846E0E50020DEE5A5
:105A20000020DCE5306800F4803048B1504513D1E7
:105A3000106800010ED503A8FFF7C6FB0598CEE558
:105A40001068800104D506A8FFF7DEFA0798C6E5BE
:105A50000020C4E50020C2E50020C0E5D9F8000020
:105A600000F0E040B0F1405F24D00CDC98B1B842C7
:105A700014D060450DD11068800019D56846FFF735
:105A800083FC0198ABE5B0F1804F1ED0B0F1A04F80
:105A900022D00020A3E5FFF7A5FAA0E510680001D9
:105AA00004D503A8FFF790FB049898E5002096E53D
:105AB000002094E51068400705D51068C0F3C100C8
:105AC00024FA00F08BE5002089E51068C00501D5B7
:105AD000284684E5002082E51068800301D5184639
