:020000040800F2
:10000000C84D00209D010008DD76000869640008E5
:10001000C5740008B1090008419D000800000000F7
:1000200000000000000000000000000079790008D6
:10003000FD0D0008000000004D770008ED7A000873
:10004000B7010008B7010008B7010008B7010008B0
:10005000B7010008B7010008B7010008B7010008A0
:10006000B7010008B7010008B7010008B701000890
:10007000F50B0008B7010008050C0008B7010008DF
:10008000150C0008250C0008B7010008B70100088E
:10009000B7010008B7010008B7010008B701000860
:1000A000B701000819890008B7010008B701000866
:1000B000B7010008B7010008B7010008B701000840
:1000C000B7010008B7010008B7010008B701000830
:1000D000B7010008C99C0008F19C0008199D0008A0
:1000E000B7010008B7010008B70100082989000816
:1000F000B701000839890008B7010008350C00086D
:10010000B7010008B7010008B701000851770008DF
:10011000B7010008B7010008B7010008B7010008DF
:10012000B7010008B7010008450C0008B701000836
:10013000B7010008B7010008B7010008B7010008BF
:10014000B7010008B7010008B7010008B7010008AF
:10015000B7010008B7010008550C0008B7010008F6
:10016000B7010008B7010008B7010008B70100088F
:10017000B7010008B7010008B7010008000000003F
:10018000B7010008B7010008DFF80CD000F0A6FBAB
:100190000048004731A30008C84D002006488047AA
:1001A00006480047FEE7FEE7FEE7FEE7FEE7FEE75C
:1001B000FEE7FEE7FEE7FEE7B17B000889010008E5
:1001C0002DE9F05F0546002092469B46884606468C
:1001D000814640241BE0284641464746224600F01F
:1001E00011FA53465A46C01A914110D31146184687
:1001F000224600F0F8F92D1A67EB01084F46224617
:100200000120002100F0EFF917EB00094E41201EFC
:10021000A4F10104DFDC484631462A464346BDE8E6
:10022000F09F40EA01039B0703D009E008C9121FB1
:1002300008C0042AFAD203E011F8013B00F8013BA0
:10024000521EF9D27047D2B201E000F8012B491ECC
:10025000FBD270470022F6E710B513460A46044663
:100260001946FFF7F0FF204610BD10B5002200E050
:10027000521C835C8C5CA34201D1002BF8D1D8B214
:10028000E1B2401A10BD2DE9FE4F804681EA03001D
:10029000C00F0C46009021F0004123F00045B8EB60
:1002A0000200A94105D24046214690461C460B4615
:1002B000024623F00040104347D0270DC7F30A0041
:1002C000C3F30A510290401A019040286BDAC3F33D
:1002D000130040F4801B0098924620B10023D2EB1B
:1002E000030A63EB0B0B01985946C0F140025046DC
:1002F00000F079F906460D4650465946019A00F03D
:1003000091F910EB08006141002487EA115284EA58
:10031000E7731A4340D0009A62B3019A012A4FEA68
:10032000075215DC001B61EB02014FF0004202EAAC
:100330000752CDE90042001C41F5801132462B46A0
:1003400000F0C8F903B0BDE8F08F40462146F9E758
:10035000001B61EB0201001C41F5801300185B419A
:100360002018A2F5001747EB030140EAD570B61933
:100370006D4111E06D084FEA360645EAC0754FEA57
:100380000752001B61EB0201001C41F58011490876
:100390004FEA30000019514132462B4603B0BDE808
:1003A000F04F00F088B90098012240000023D0EB04
:1003B000020263EBE073009821464FEAE074B8EB69
:1003C000000061EB0401E9E783F000435BE781F0A3
:1003D000004158E72DE9FE4F81EA030404F0004490
:1003E00021F0004100944FF0000B23F0004350EA4D
:1003F00001045ED052EA03045BD0C3F30A54C1F394
:100400000A552C44A4F2F3340194A0FB0254C1F326
:10041000130141F48011C3F3130343F4801301FB70
:10042000024400FB034E840A970A44EA815447EAD7
:100430008357A4FB076802958D0A05FB07854FEAE1
:10044000932C04FB0C542705029D4FEA065847EAFB
:100450001637B5EB08056EEB070C870E920E47EAD0
:10046000811742EA8312A7FB0201B6EB0B0164EB92
:1004700000042B0D43EA0C335E1844EB1C50DA46A3
:100480005146E7FB0201C5F313044FEA0B3343EA7D
:1004900014534FEA0432019C43EA0603A4F10C040E
:1004A0000294009CCDE900B400F014F903B0BDE85B
:1004B000F08F00200146F9E730B5041E71F1000409
:1004C00004DB4FF00044404264EB0101141E73F161
:1004D000000405DB1C464FF00043524263EB04036B
:1004E000101A8B4101D2012030BD002030BD0EB565
:1004F000C10F80EAE0700844CA07002140F233438C
:100500008DE80E000A460B4600F0E4F803B000BD8B
:100510000EB540F2334102910021CDE900110A46A7
:100520000B4600F0D7F803B000BDC1F30A5210B576
:10053000C1F3130140F2FF3341F480119A4201DA12
:10054000002010BD40F233439A42A2F2334203DC52
:10055000524200F057F810BD904010BD00F000422C
:1005600030F000400AD0C10D01F56071C0F31600F3
:1005700042EA0151C208400711437047002001467A
:10058000704701F0004330B421F0004150EA01020D
:1005900006D00A0DA2F56072C1F31301002A02DC35
:1005A00030BC00207047440F44EAC104C100E01889
:1005B00030BC00EBC25000F047B830B50B460146E6
:1005C00000202022012409E021FA02F59D4205D3F2
:1005D00003FA02F5491B04FA02F52844151EA2F19C
:1005E0000102F1DC30BD202A04DB203A00FA02F1DE
:1005F000002070479140C2F1200320FA03F3194311
:1006000090407047202A04DB203A21FA02F00021B2
:10061000704721FA02F3D040C2F120029140084312
:1006200019467047202A06DBCB17203A41FA02F020
:1006300043EAE07306E041FA02F3D040C2F120023F
:1006400091400843194670470029A8BF7047401CD5
:10065000490008BF20F00100704710B4B0FA80FCD8
:1006600000FA0CF050EA010404BF10BC704749B115
:10067000CCF1200421FA04F411FA0CF118BF012185
:1006800021430843A3EB0C01CB1D4FEA00614FEA65
:10069000102042BF002010BC704700EBC350104434
:1006A0000029A4BF10BC7047401C490008BF20F0BF
:1006B000010010BC704710B5141E73F1000408DA75
:1006C000401C41F1000192185B411A4301D120F016
:1006D000010010BD2DE9F04D92469B4611B1B1FAD3
:1006E00081F202E0B0FA80F220329046FFF77BFF01
:1006F00004460F4640EA0A0041EA0B0153465A46B7
:10070000084313D0114653EA010019D0C8F1400242
:100710005046FFF777FF05460E465046594642467B
:10072000FFF761FF084305D0012004E02046394669
:10073000BDE8F08D0020054346EAE0762C433743C0
:100740000A986305E40AA0EB08000022FD0A44EAC7
:1007500047540A3002D500200146E9E70105101987
:100760006941DDE9084500196941BDE8F04DA2E79E
:100770002DE9F04D81EA030404F0004B21F000451F
:1007800014464FF0000A23F0004150EA050220D041
:1007900054EA01021DD0C5F30A570246C5F31303FC
:1007A000C1F31300C1F30A5640F4801543F48013DB
:1007B000A7EB0608101BD64608F2FD3873EB0500C0
:1007C00002D308F1010801E092185B41B8F1000F73
:1007D00003DA00200146BDE8F08D00204FF48011BF
:1007E000064684460EE0171B73EB050705D3121B64
:1007F00063EB050306434CEA010C49084FEA30005D
:1008000092185B4150EA0107EDD152EA030012D081
:1008100082EA040083EA0501084305D0101BAB41BE
:1008200006D20122002306E000224FF0004302E03E
:100830006FF0010253101AEB06004CEB085110EB5D
:100840000A0041EB0B01BDE8F04DFFF734BF70B576
:1008500021F0004303430CD0C1F30A550024D5EB2B
:10086000040564EB0403D617AD1AB34102DB002084
:10087000014670BD201841EB025170BDC1F30A5210
:10088000C1F3130140F2FF3341F480119A4202DABE
:1008900000200146704740F233439A42A2F23342AD
:1008A00002DC5242FFF7AEBEFFF79DBE30B5041E1C
:1008B00071F1000404DB4FF00044404264EB01019D
:1008C000141E73F1000405DB1C464FF00043524236
:1008D00063EB0403994208BF904230BD1CB5094840
:1008E0000090094801900546009C06E0E06840F051
:1008F000010394E8070098471034AC42F6D3FFF7A1
:1009000047FC0000B43A0108D43A01082DE9F04D43
:1009100000231A461B1A8A4103DB00200146BDE86A
:10092000F08DC1F30A52C1F3130141F480154FF069
:10093000000BD10702D100186D41521E002704465A
:1009400040F2FF11384601EB620A3E4680460246FD
:1009500000204FF48011FFF755FEC2197141BB18FA
:1009600046EB0100B4EB030C75EB000C04D3E41A66
:1009700065EB000517460E46241908F101006D418C
:1009800080463428E3DDF91946EB0600091BA8412F
:1009900003D24FF0FF32134601E0002213461BEB57
:1009A000070046EB0A51BDE8F04DFFF784BE00009A
:1009B000FFE7FEE780B586B00590059940F6345014
:1009C000C2F200000860059940F68850C2F20000AB
:1009D0004860059940F6BC10C2F200008860059995
:1009E00040F6CC10C2F20000C860059940F668508D
:1009F000C2F200004861059940F66050C2F2000062
:100A000008610598416940F6DC10C2F200000860F8
:100A10000598416940F64020C2F200004860059800
:100A2000416940F6A420C2F200004861059841697E
:100A300040F60830C2F2000088610598416940F62E
:100A40006C30C2F20000C8610598416940F69840D8
:100A5000C2F2000088600598416940F6D030C2F2C9
:100A60000000C8600598416940F63440C2F20000B9
:100A7000086140F60850C2F20000029040694069E7
:100A800009F0C2FF029840694069826D002103911C
:100A90009FED4E0AF0EE042ADFED4D3ACDED043A1B
:100AA000F0EE630AB0EE631AF0EE631AB0EE632A5A
:100AB000B0EE633A904702984069806909F0A4FF5C
:100AC000029803999DED043A40698069826D9FED1B
:100AD000410A8DED010ADFED402ADFED403AF0EEEC
:100AE000430AB0EE431AF0EE431AB0EE432A9047A1
:100AF00002984069C06909F087FF9DED010A0298DC
:100B00000399DDED043A4069C069826DDFED340A76
:100B1000DFED342AB3EE0E3AB0EE631AF0EE631A4C
:100B2000B0EE632A904702984069006909F06CFFB3
:100B30009DED010A02980399DDED043A40690069D0
:100B4000826DF1EE0C2AF0EE630AB0EE631AF0EE5D
:100B5000631AB0EE632AB0EE633A90470298406998
:100B6000C06809F051FF02980399DDED043A40692D
:100B7000C068826D9FED1C0AF0EE630AB0EE631A46
:100B8000F0EE631AB0EE632AF0EE632AB0EE633A39
:100B9000904702984069806809F036FF02980399EF
:100BA0009DED043A40698068826D9FED100AF3EE76
:100BB0000D2ADFED0F3AF0EE430AB0EE431AF0EEE5
:100BC000431AB0EE432A904706B080BD0000C843E8
:100BD0000000000000F07945000034430000C842E6
:100BE00000F0F94400C00F4500007A44003C1C4668
:100BF00033330B4180B540F26C50C2F2000000F07C
:100C000037FE80BD80B540F2CC50C2F2000000F04B
:100C10002FFE80BD80B540F20C50C2F2000000F003
:100C200027FE80BD80B540F2EC30C2F2000000F03B
:100C30001FFE80BD80B540F28C30C2F2000000F093
:100C400017FE80BD80B540F24C40C2F2000000F0BB
:100C50000FFE80BD80B540F2AC40C2F2000000F053
:100C600007FE80BD82B001900198007810384AF6E6
:100C7000AB21CAF6AA21A0FB01100009009000993F
:100C80004DF2A450C0F60000405C0199C865009880
:100C9000042807D3FFE701990868042262F30900DA
:100CA000886506E00199086840F2FF329043886544
:100CB000FFE70198806D02B07047000086B0059094
:100CC00000208DF813000598806A039005988069CC
:100CD00010BBFFE70398029003281BD80299DFE8B6
:100CE00001F0020D0218059890F82F00C00720B1FE
:100CF000FFE701208DF81300FFE70CE00598C06ABC
:100D0000B0F1C07F04D1FFE701208DF81300FFE7A9
:100D100001E000E0FFE745E005988069B0F5005F7D
:100D200025D1FFE70398019003281ED80199DFE839
:100D300001F00206021101208DF8130016E005985B
:100D400090F82F00C00720B1FFE701208DF81300B5
:100D5000FFE70BE00598C06AB0F1C07F04D1FFE760
:100D600001208DF81300FFE700E0FFE719E003988A
:100D70000090032804D3FFE70098032804D00EE076
:100D800001208DF813000BE0059890F82F00C007A4
:100D900020B1FFE701208DF81300FFE700E0FFE737
:100DA000FFE7FFE79DF8130006B0704784B003909B
:100DB00002910192009303980168086820F4802052
:100DC0000860009803990968486003988068402883
:100DD00009D1FFE70198039909688860029803998F
:100DE0000968C86008E0029803990968886001985A
:100DF00003990968C860FFE704B0704770470000B6
:100E000080B582B04FF4004000F092F98DF80600F2
:100E10009DF80600362804D1FFE700208DF8070072
:100E200018E04FF400400090362100F0B7F9009828
:100E300000F07EF98DF806009DF80600362804D1F2
:100E4000FFE700208DF8070004E0FFE701208DF8A0
:100E50000700FFE79DF8070002B080BD80B582B0B3
:100E6000ADF8020000208DF801008DF80100FFE7C9
:100E70009DF80100032813DCFFE7BDF802009DF890
:100E80000110084480B200F053F99DF8012001A937
:100E90008854FFE79DF8010001308DF80100E7E775
:100EA000019802B080BD000080B582B0ADF80600A8
:100EB0008DF80510002000908DF80400FFE79DF8E4
:100EC00004009DF8051088421ADAFFE70098000236
:100ED0000090BDF806009DF8051001449DF804003F
:100EE000C043084480B200F023F90146009808444A
:100EF0000090FFE79DF8040001308DF80400DEE764
:100F0000009802B080BD000080B598B00020FFF7C7
:100F1000A5FF1790179840F60851C2F20001029100
:100F200049694969C86004200190FFF797FF029959
:100F3000169016984969496908610820FFF78EFFE5
:100F40000299159015984969496948610C20FFF785
:100F500085FF02991490149849698969C860102026
:100F6000FFF77CFF0299139013984969896908611A
:100F70001420FFF773FF029912901298496989694A
:100F800048611820FFF76AFF02991190119849698A
:100F9000C969C8601C20FFF761FF02991090109882
:100FA0004969C96908612020FFF758FF02990F902D
:100FB0000F984969C96948612420FFF74FFF0299DA
:100FC0000E900E9849698968C8602820FFF746FF8F
:100FD00002990D900D984969896808612C20FFF7E6
:100FE0003DFF02990C900C98496989684861482036
:100FF000FFF734FF02990B900B984969C968C860E4
:101000004C20FFF72BFF02990A900A984969C9689A
:1010100008615020FFF722FF029909900998496959
:10102000C96848613020FFF719FF029908900898B5
:1010300049690969C8603420FFF710FF02990790D9
:1010400007984969096908613820FFF707FF019986
:10105000029A069006985269126950613C20FFF787
:1010600023FF0299496848604020FFF7F7FE029984
:101070000590059888614420FFF7F0FE02990490DE
:101080000498C8615420FFF7E9FE02990390039881
:10109000486218B080BD000080B582B00191ADF803
:1010A000020000208DF801008DF80100FFE79DF897
:1010B0000100032811DCFFE7BDF802009DF80120C4
:1010C000104401A9895C80B200F068F8FFE79DF840
:1010D000010001308DF80100E9E702B080BD000099
:1010E00080B584B0ADF80E0002918DF80720002085
:1010F0008DF80600FFE79DF806009DF8071088426E
:1011000013DAFFE7BDF80E009DF80620104402999F
:10111000D200D140C9B280B200F040F8FFE79DF89C
:10112000060001308DF80600E5E704B080BD000040
:1011300080B586B0ADF816000020ADF814008DF82B
:1011400013009DF817008DF81400BDF8160040F24A
:101150000211C0F20111A0FB012108448DF8150015
:1011600069464FF480500290086040F22C60C2F251
:1011700000000390A02105AA022301F0A1FB02991F
:1011800003986A461160A1210DF11302012301F0B9
:101190007DF99DF8130006B080BD000080B584B0D5
:1011A000ADF80E008DF80D1000208DF80C00ADF894
:1011B0000A009DF80F008DF80A00BDF80E0040F2FD
:1011C0000211C0F20111A0FB012108448DF80B00AF
:1011D0009DF80D008DF80C0069464FF480500860B2
:1011E00040F22C60C2F20000A0210DF10A0203239C
:1011F00001F066FB062008F0A1FE04B080BD0000EF
:1012000072B6FFE7FEE7000083B0029001910198FB
:10121000012801D0FFE74AE0029800783038014603
:101220000091062843D80099DFE801F0040B141D53
:10123000262F380040F21001C2F2000100200860A1
:1012400035E040F21001C2F20001086840F40040AD
:1012500008602CE040F21001C2F20001086840F47E
:101260008040086023E040F21001C2F200010868EB
:1012700040F4005008601AE040F21001C2F2000190
:10128000086840F48050086011E040F21001C2F29A
:101290000001086840F40060086008E040F21001B6
:1012A000C2F20001086840F480600860FFE703B004
:1012B0007047000080B586B005900491039200202D
:1012C000029003982A2801D8FFE760E000200190EF
:1012D000FFE7019803992B3988422DD2FFE7049844
:1012E0000199405C5A2822D1FFE7049901980844EB
:1012F0004078A5281BD1FFE704990198084490F88D
:101300002A000D2813D1FFE704990198084490F8AA
:101310002B000A280BD1FFE70198029040F60850F5
:10132000C2F200000168012081F8280004E0FFE714
:10133000019801300190CCE70298F0B9FFE70498DA
:101340000299405C5A2817D1FFE704990298084493
:101350004078A52810D1FFE704990298084490F836
:101360002A000D2808D1FFE704990298084490F854
:101370002B000A2801D0FFE709E005980068049ACD
:101380000299114402312822FEF74BFFFFE706B015
:1013900080BD000080B581B0009040F60800C2F228
:1013A00000000168496A494240F21603C2F2000394
:1013B000198040F65001C2F200010A68526A40F2F8
:1013C000140CC2F2000CACF80020BCF80020DDF8D0
:1013D00000E0DEF808E0AEF800201A88DDF800E052
:1013E000DEF80CE0AEF80020009A926892ED010A57
:1013F000BCF900C001EE10CAB8EEC11A9FED214A37
:1014000021EE041A9FED203A21EE031A9FED1F2AC8
:1014100020EE020A30EE010A82ED010A009AD2683B
:1014200092ED010AB3F9003001EE103AB8EEC11A9C
:1014300021EE041A21EE031A20EE020A30EE010A10
:1014400082ED010A009AD2F808C0D3689CED010A27
:1014500093ED011A30EE010AB6EE001A20EE010AF1
:1014600092ED081A9FED0A2A20EE020A30EE010AD8
:1014700082ED080A0268002050620968486201B0E3
:1014800080BD00BFF6285C3F0708E63B295C0F3EA5
:101490006F12833A82B0019000208DF803008DF81E
:1014A0000200FFE701989DF80310405C58B1FFE788
:1014B0009DF8020001308DF802009DF80300013014
:1014C0008DF80300EEE79DF8020002B070470000BF
:1014D00010B586B0059004910498092801D8FFE75B
:1014E0002BE1002003900390FFE70398049909394A
:1014F000884280F02281FFE70599039A881889586D
:10150000019100798DF8080043F64A11C0F60101F7
:1015100001A8FEF7AAFE88BBFFE740F60852C2F218
:101520000002516800200872059B03990B44597909
:1015300093F806E093F807C01B7A303964240EFB59
:1015400004F44FF47A7E11FB0E410CEB8C0C01EB92
:101550004C01194452685368C91A41F2D043C91A60
:10156000116040F6C052C2F20002116801311160F0
:1015700040F6B451C2F200010860DEE043F65C11AF
:10158000C0F6010101A8FEF770FEA0BBFFE740F620
:101590000851C2F200014A68107A40F080001072CF
:1015A000059A03980244507992F806C0D379127ACA
:1015B00030384FF0640E0CFB0EFE4FF47A7C10FBBB
:1015C0000CE003EB830300EB4300104449684A68D6
:1015D000801A41F2D042801A086040F6C051C2F22F
:1015E000000108680130086040F6B451C2F2000101
:1015F00000200860A1E043F65611C0F6010101A8E1
:10160000FEF733FE002843D1FFE740F6B450C2F2A4
:1016100000000168013101600068052810D3FFE770
:1016200040F60850C2F200004168087A40F04000DD
:10163000087240F6B451C2F2000100200860FFE7D2
:1016400005990398014448798B79CA79097A303829
:101650004FF0640C03FB0CFC4FF47A7310FB03C0D7
:1016600002EB820200EB4200084440F60851C2F24D
:10167000000149684A68801A41F2D042801A086025
:1016800040F6C051C2F2000108680130086054E021
:1016900043F65011C0F6010101A8FEF7E6FD00284F
:1016A00043D1FFE740F6B450C2F2000001680131B7
:1016B00001600068052810D3FFE740F60850C2F229
:1016C00000004168087A40F02000087240F6B451EA
:1016D000C2F2000100200860FFE705990398014469
:1016E00048798B79CA79097A30384FF0640C03FB5A
:1016F0000CFC4FF47A7310FB03C002EB820200EB88
:101700004200084440F60851C2F2000149684A68A4
:10171000801A41F2D042801A086040F6C051C2F2ED
:10172000000108680130086007E0FFE7FFE7FFE716
:10173000FFE7039801300390D7E606B010BD000024
:1017400080B584B002900298806D019000F046FD53
:101750000090029890F8350002280DD0FFE702991A
:1017600080204865FFE70299002081F83400FFE7F8
:1017700001208DF80F0055E002980168086820F0FC
:101780001600086002980168486920F080004861EE
:101790000298006C20B9FFE70298806C38B1FFE72F
:1017A00002980168086820F008000860FFE70298C6
:1017B0000168086820F001000860FFE702980068EF
:1017C0000068C007C8B1FFE700F008FD0099401AA3
:1017D000062811D3FFE702992020486502990320CB
:1017E00081F83500FFE70299002081F83400FFE717
:1017F00003208DF80F0015E0E0E70298C16D3F204F
:101800008840019988600299012081F83500FFE73E
:101810000299002081F83400FFE7FFE700208DF8EF
:101820000F00FFE79DF80F0004B080BD82B000906C
:10183000009890F83500022807D0FFE70099802033
:10184000486501208DF807000EE00099052081F819
:10185000350000980168086820F001000860FFE783
:1018600000208DF80700FFE79DF8070002B07047E1
:1018700080B586B005900020039040F20400C2F2CB
:101880000000006848F2B511C1F64E31A0FB01100E
:10189000800A02900598806D01900198006804907C
:1018A00004980599C96DC840000700281AD5FFE7BC
:1018B0000598006800684007002812D5FFE70598E2
:1018C0000168086820F0040008600598C16D0820D0
:1018D0008840019988600599486D40F0010048658D
:1018E000FFE7FFE704980599C96DC840C007A0B19C
:1018F000FFE7059800684069000600280CD5FFE75F
:101900000598C16D01208840019988600599486D4E
:1019100040F002004865FFE7FFE704980599C96DAC
:10192000C8404007002814D5FFE705980068006804
:10193000800700280CD5FFE70598C16D042088407A
:10194000019988600599486D40F004004865FFE7FB
:10195000FFE704980599C96DC840C006002847D51F
:10196000FFE7059800680068000700283FD5FFE7FB
:101970000598C16D1020884001998860059800681D
:101980000068400300281AD5FFE705980068006842
:101990000003002809D4FFE70598006C20B1FFE799
:1019A0000598016C8847FFE708E00598806C20B136
:1019B000FFE70598816C8847FFE7FFE716E0059889
:1019C00000680068C005002807D4FFE70598016893
:1019D000086820F008000860FFE70598006C20B157
:1019E000FFE70598016C8847FFE7FFE7FFE7FFE7A0
:1019F00004980599C96DC8408006002840F18D8083
:101A0000FFE7059800680068C006002840F1848060
:101A1000FFE70598C16D20208840019988600598EE
:101A200090F83500052834D1FFE70598016808686B
:101A300020F01600086005980168486920F08000D1
:101A400048610598006C20B9FFE70598806C38B1B3
:101A5000FFE705980168086820F008000860FFE7C4
:101A60000598C16D3F208840019988600599012043
:101A700081F83500FFE70599002081F83400FFE781
:101A80000598006D20B1FFE70598016D8847FFE7D5
:101A90007BE0059800680068400300281AD5FFE73E
:101AA0000598006800680003002809D4FFE705983E
:101AB000406C20B1FFE70598416C8847FFE708E0DC
:101AC0000598C06B20B1FFE70598C16B8847FFE719
:101AD000FFE720E0059800680068C005002811D4E1
:101AE000FFE705980168086820F010000860059974
:101AF000012081F83500FFE70599002081F83400C6
:101B0000FFE7FFE70598C06B20B1FFE70598C16BC1
:101B10008847FFE7FFE7FFE7FFE70598406DA0B3C1
:101B2000FFE70598406DC00730B3FFE70599052032
:101B300081F8350005980168086820F00100086008
:101B4000FFE70398013003900299884201D9FFE72B
:101B500007E0FFE7059800680068C0070028F0D19B
:101B6000FFE70599012081F83500FFE7059900207E
:101B700081F83400FFE7FFE70598C06C20B1FFE76C
:101B80000598C16C8847FFE7FFE706B080BD0000FD
:101B900080B586B004900020039000F01FFB0290F7
:101BA000049820B9FFE701208DF81700A3E00498FE
:101BB000406A08B1FFE7FFE70499022081F8350089
:101BC000FFE70499002081F83400FFE704980168DA
:101BD000086820F001000860FFE7049800680068CA
:101BE000C00790B1FFE700F0F9FA0299401A062801
:101BF0000AD3FFE70499202048650499032081F85F
:101C000035008DF8170076E0E7E704980068006873
:101C10000390039848F23F01CFF21001084003906F
:101C2000049900914868D1F808C0CB680A6940EA75
:101C30000C00184310434A6910438A691043CA696B
:101C40001043096A01430398084303900498406ACB
:101C5000042808D1FFE70499C86A096B0143039877
:101C600008430390FFE70398049909680860049803
:101C7000006840690390039820F0070003900498DF
:101C8000416A0398084303900498406A04281AD1D3
:101C9000FFE70498816A0398084303900498C06A98
:101CA00080B1FFE70498FFF709F850B1FFE7049906
:101CB000402048650499012081F835008DF817000F
:101CC00019E0FFE7FFE70398049909684861049861
:101CD000FEF7C8FF01900498C16D3F20884001992C
:101CE0008860049900204865049A012182F8351023
:101CF0008DF81700FFE79DF8170006B080BD0000C3
:101D000080B588B0069005910492039300208DF869
:101D10000B000698806D0190FFE7069890F834005C
:101D2000012804D1FFE702208DF81F0045E0069945
:101D3000012081F83400FFE7FFE7069890F83500AE
:101D400001282BD1FFE70699022081F8350006997A
:101D50000020486506980599049A039BFFF726F82A
:101D60000698C16D3F2088400199886006980168F7
:101D7000086840F0160008600698006C38B1FFE76C
:101D800006980168086840F008000860FFE70698B8
:101D90000168086840F00100086009E0FFE7069963
:101DA000002081F83400FFE702208DF80B00FFE7E8
:101DB0009DF80B008DF81F00FFE79DF81F0008B08D
:101DC00080BD00008EB00D900C9100200A9009900B
:101DD00008900B90FFE70B980F2800F2CC81FFE7EB
:101DE0000B99012088400A900C9800680A990840D5
:101DF000099009980A99884240F0B881FFE70C9849
:101E0000406800F00300012807D0FFE70C98406805
:101E100000F0030002282FD1FFE70D98806808909A
:101E20000B984100032000FA01F1089888430890BC
:101E30000C98C0680B99490000FA01F10898084312
:101E4000089008980D9988600D98406808900B9943
:101E5000012000FA01F10898884308900C98406826
:101E6000C0F300100B9900FA01F10898084308909C
:101E700008980D994860FFE70C98406800F003004F
:101E8000032818D0FFE70D98C06808900B98410010
:101E9000032000FA01F10898884308900C988068A4
:101EA0000B99490000FA01F1089808430890089836
:101EB0000D99C860FFE70C98406800F00300022805
:101EC00026D1FFE70D980B996FF0030202EA51014A
:101ED0000844006A08900B9800F0070081000F206A
:101EE00000FA01F10898884308900C9800690B9952
:101EF00001F00701890000FA01F1089808430890F1
:101F000008980D990B9B02EA530211440862FFE7FF
:101F10000D98006808900B984100032000FA01F129
:101F20000898884308900C98406800F003000B99CB
:101F3000490000FA01F108980843089008980D99A3
:101F400008600C9880798007002800F00E81FFE778
:101F5000FFE70020079043F64400C4F20200016846
:101F600041F480410160006800F4804007900798C8
:101F7000FFE70B9820F0030043F60801C4F20101CB
:101F8000405808900B9800F0030081000F2000FAE1
:101F900001F10898884308900D980021C4F20201CD
:101FA000884203D1FFE7002006905EE00D9840F2E2
:101FB0000041C4F20201884203D1FFE701200590ED
:101FC00050E00D9840F60001C4F20201884203D1AE
:101FD000FFE70220049042E00D9840F60041C4F271
:101FE0000201884203D1FFE70320039034E00D98FB
:101FF00041F20001C4F20201884203D1FFE704204C
:10200000029026E00D9841F20041C4F2020188429C
:1020100003D1FFE70520019018E00D9841F600017B
:10202000C4F20201884203D1FFE7062000900AE0D3
:102030000D9941F60042C4F202020820914208BF05
:1020400007200090FFE700980190FFE701980290B9
:10205000FFE702980390FFE703980490FFE70498D6
:102060000590FFE705980690FFE70698C0B20B9928
:1020700001F00301890000FA01F108980843089073
:1020800008980B9921F0030143F60802C4F20102FB
:10209000885043F60840C4F201000068089009998E
:1020A0000898884308900C988079C006002805D5C8
:1020B000FFE70999089808430890FFE7089843F656
:1020C0000841C4F20101086043F60C40C4F201006B
:1020D0000068089009990898884308900C988079BE
:1020E0008006002805D5FFE709990898084308905D
:1020F000FFE7089843F60C41C4F20101086043F67B
:102100000440C4F2010000680890099908988843C7
:1021100008900C9880798007002805D5FFE7099979
:10212000089808430890FFE7089843F60441C4F272
:102130000101086043F60040C4F201000068089005
:1021400009990898884308900C988079C00728B1AD
:10215000FFE70999089808430890FFE7089843F6B5
:102160000041C4F201010860FFE7FFE7FFE70B98B9
:1021700001300B902FE60EB07047000082B0019046
:10218000ADF8021001980069BDF80210084204D0B1
:10219000FFE701208DF8010003E000208DF8010029
:1021A000FFE79DF8010002B07047000082B0019087
:1021B000ADF802108DF801209DF8010028B1FFE76D
:1021C000BDF802000199886105E0BDF80200000435
:1021D00001998861FFE702B07047000040F6BC50EB
:1021E000C2F200000068704780B58EB00C900C9869
:1021F00020B9FFE701208DF8370043E10C9890F8F3
:102200003D0040B9FFE70C99002081F83C000C9894
:1022100000F05CFCFFE70C99242081F83D000C984D
:102220000168086820F0010008600C9801680868DF
:1022300040F4004008600C980168086820F40040F1
:10224000086000F0CDFE0A900C98406848F2A0614A
:10225000C0F2010188420BD8FFE70A9948F2804298
:10226000C0F21E020020914238BF012009900AE00E
:102270000A9940F60012C0F23D020020914238BF98
:1022800001200990FFE70998012804D1FFE7012008
:102290008DF83700F6E00A984DF68361C4F21B31E1
:1022A000A0FB0110800C0B900C980068406820F097
:1022B0003F000B9908430C99096848600C98006826
:1022C000006A20F03F0008900C98406848F2A06136
:1022D000C0F20101884204D8FFE70B980130079053
:1022E0000EE00B984FF49671484344F6D351C1F277
:1022F0006201A0FB0101012000EB91100790FFE7B4
:102300000898079908430C99096808620C980068B6
:10231000C0694CF6FF71884306900C98406848F2FB
:10232000A061C0F2010188421FD8FFE70A98013876
:102330000C9949684900B0FBF1F001306FF31F3090
:10234000032803D8FFE7042005900BE00A98013822
:102350000C9949684900B0FBF1F001306FF31F3070
:102360000590FFE7059804904CE00C98806868B9E8
:10237000FFE70A9801380C99496801EB4101B0FB6D
:10238000F1F001306FF31F3003900DE00A9801382F
:102390000C99496819225143B0FBF1F00130042136
:1023A00061F31F300390FFE70398000518B9FFE7BA
:1023B0000120029023E00C98806868B9FFE70A9832
:1023C00001380C99496801EB4101B0FBF1F0013093
:1023D0006FF31F3001900DE00A9801380C9949689D
:1023E00019225143B0FBF1F00130042161F31F3099
:1023F0000190FFE7019840F400400290FFE7029847
:102400000490FFE70698049908430C990968C8618D
:102410000C980068006820F0C0000C9B1968DA690D
:102420001B6A1A43104308600C980068806848F2E1
:10243000FF3188430C9A1168D36812691A4310431C
:1024400088600C980068C06820F0FF000C9B196839
:102450005A699B691A431043C8600C980168086860
:1024600040F0010008600C99002008640C9A2021BB
:1024700082F83D100C9908630C9981F83E008DF8A4
:102480003700FFE79DF837000EB080BD80B58CB0F7
:10249000DDF838C00A90ADF826100892ADF81E306D
:1024A000FFF79CFE06900A9890F83D00202840F027
:1024B000FE81FFE70A9806996A4611600221C0F280
:1024C00010010122192304F0B9F920B1FFE702201D
:1024D0008DF82F00EFE1FFE70A9890F83C00012803
:1024E00004D1FFE702208DF82F00E4E10A990120D2
:1024F00081F83C00FFE7FFE70A980068006800F0F9
:102500000100012807D0FFE70A980168086840F039
:1025100001000860FFE70A980168086820F400607D
:1025200008600A99222081F83D000A99102081F85C
:102530003E000A990020086408980A994862BDF88C
:102540001E000A9948850A98408D0A9908850A99BB
:102550000020CFF6FF70C8620A98BDF826100E9AC8
:10256000069B03F0B5FF20B1FFE701208DF82F0097
:10257000A1E10A98008DA0B9FFE7FFE700200590D0
:102580000A980068406905900A980068806905907B
:102590000598FFE70A980168086840F40070086031
:1025A00053E00A98008D01281AD1FFE70A980168C4
:1025B000086820F480600860FFE7002004900A9813
:1025C0000068406904900A98006880690490049843
:1025D000FFE70A980168086840F40070086033E07B
:1025E0000A98008D02281AD1FFE70A980168086846
:1025F00020F4806008600A980168086840F4006070
:102600000860FFE7002003900A9800684069039083
:102610000A980068806903900398FFE713E00A981E
:102620000168086840F480600860FFE700200290BD
:102630000A980068406902900A98006880690290D0
:102640000298FFE7FFE7FFE7FFE7FFE70A98008D43
:10265000002800F01A81FFE70A98008D032800F295
:10266000CC80FFE70A98008D01281ED1FFE70A9869
:102670000E99069A04F010FA20B1FFE701208DF8B8
:102680002F0018E10A98006800690A99496A0870E1
:102690000A99486A013048620A99088D013808850C
:1026A0000A99488D01384885A6E00A98008D0228CD
:1026B0003CD1FFE70A980E9B06996A4611600421F7
:1026C000C0F20101002204F0B9F820B1FFE70120B7
:1026D0008DF82F00EFE00A980168086840F4007058
:1026E00008600A98006800690A99496A08700A999E
:1026F000486A013048620A99088D013808850A99AC
:10270000488D013848850A98006800690A99496A25
:1027100008700A99486A013048620A99088D0138A0
:1027200008850A99488D0138488564E00A980E9B0F
:1027300006996A4611600421C0F20101002204F0EA
:102740007DF820B1FFE701208DF82F00B3E00A9853
:102750000168086820F4806008600A9800680069D1
:102760000A99496A08700A99486A013048620A99C8
:10277000088D013808850A99488D013848850A98DE
:102780000E9B06996A4611600421C0F201010022E5
:1027900004F054F820B1FFE701208DF82F008AE003
:1027A0000A980168086840F4007008600A98006898
:1027B00000690A99496A08700A99486A01304862B2
:1027C0000A99088D013808850A99488D013848858D
:1027D0000A98006800690A99496A08700A99486A63
:1027E000013048620A99088D013808850A99488D98
:1027F00001384885FFE7FFE746E00A980E99069AF8
:1028000004F04AF920B1FFE701208DF82F0052E0D3
:102810000A98006800690A99496A08700A99486A22
:10282000013048620A99088D013808850A99488D57
:10283000013848850A980068406900F004010120C9
:10284000B0EB910F1FD1FFE70A98008D032807D145
:10285000FFE70A980168086820F480600860FFE7D5
:102860000A98006800690A99496A08700A99486AD2
:10287000013048620A99088D013808850A99488D07
:1028800001384885FFE7FFE7E0E60A99202081F854
:102890003D000A99002081F83E00FFE70A990020D8
:1028A00081F83C00FFE700208DF82F0003E00220B4
:1028B0008DF82F00FFE79DF82F000CB080BD0000C1
:1028C00080B588B0DDF828C00690ADF816100492E7
:1028D000ADF80E30FFF782FC0290069890F83D00AC
:1028E000202840F0EB80FFE7069802996A461160C5
:1028F0000221C0F210010122192303F09FFF20B131
:10290000FFE702208DF81F00DCE0FFE7069890F853
:102910003C00012804D1FFE702208DF81F00D1E020
:102920000699012081F83C00FFE7FFE70698006860
:10293000006800F00100012807D0FFE70698016851
:10294000086840F001000860FFE706980168086821
:1029500020F4006008600699212081F83D00069966
:10296000102081F83E00069900200864049806991A
:102970004862BDF80E00069948850698408D069974
:10298000088506990020CFF6FF70C8620698BDF84A
:1029900016100A9A029B03F071FE20B1FFE7012096
:1029A0008DF81F008EE0FFE7002001900698006878
:1029B0004069019006980068806901900198FFE7DE
:1029C000FFE70698008D002860D0FFE706980A9977
:1029D000029A04F0CFF880B1FFE70698006C042853
:1029E00007D1FFE706980168086840F400700860A6
:1029F000FFE701208DF81F0064E006980168406A37
:102A0000007808610699486A013048620699488D45
:102A1000013848850699088D0138088506980068B0
:102A2000406900F004010120B0EB910F16D1FFE7DF
:102A30000698008D90B1FFE706980168406A00781B
:102A400008610699486A013048620699488D013844
:102A500048850699088D01380885FFE706980A9988
:102A6000029A03F095FE80B1FFE70698006C0428F7
:102A700007D1FFE706980168086840F40070086015
:102A8000FFE701208DF81F001CE09AE70698016817
:102A9000086840F4007008600699202081F83D0025
:102AA0000699002081F83E00FFE70699002081F892
:102AB0003C00FFE700208DF81F0003E002208DF8A6
:102AC0001F00FFE79DF81F0008B080BD80B58EB0E5
:102AD0000D9000200C900B900A90099008900D9892
:102AE000006845F60041C4F2000188425FD1FFE76B
:102AF000FFE70020079043F63000C4F202000168AF
:102B000041F004010160006800F00400079007989C
:102B1000FFE7FFE70020069043F63000C4F2020012
:102B2000016841F001010160006800F001000690B9
:102B30000698FFE74FF4007008901220009009906B
:102B4000012001900A90032002900B900420039032
:102B50000C9040F60000C4F2020008A90491FFF7AF
:102B600031F9DDF800C0019B029A039804994FF4F3
:102B7000807ECDF820E0CDF824C00A930B920C9013
:102B80000020C4F20200FFF71DF9FFE700200590C6
:102B900043F64000C4F20200016841F40001016004
:102BA000006800F4000005900598FFE7FFE70EB00D
:102BB00080BD000040F20800C2F20000027840F63A
:102BC000BC51C2F200010868104408607047000060
:102BD00080B543F60041C4F20201086840F4007079
:102BE0000860086840F480600860086840F48070FD
:102BF0000860032000F0B4F8072000F005F800F0AA
:102C00003BF8002080BD000080B582B0009040F20B
:102C10000400C2F20000006840F20801C2F20001A4
:102C20000A784FF47A71B1FBF2F1B0FBF1F001F0E8
:102C30001DFA20B1FFE701208DF8070018E0009889
:102C40000F280DD8FFE700994FF0FF30002200F069
:102C50006DF8009840F20C01C2F20001086003E038
:102C600001208DF8070003E000208DF80700FFE742
:102C70009DF8070002B080BD80B584B0FFE700205A
:102C8000039043F64400C4F20200016841F480411D
:102C90000160006800F4804003900398FFE7FFE7BD
:102CA0000020029043F64000C4F20200016841F0A7
:102CB00080510160006800F0805002900298FFE7A8
:102CC000042000F04DF86FF00B000121009100226C
:102CD000019200F02BF80099019A6FF00A0000F0C1
:102CE00025F80099019A6FF0090000F01FF800998B
:102CF000019A6FF0040000F019F80099019A6FF042
:102D0000030000F013F80099019A6FF0010000F041
:102D10000DF804B080BD000080B582B08DF80700CA
:102D20009DF9070007F09AF802B080BD80B586B023
:102D30008DF81700049103920020029007F0A6F886
:102D400002909DF91700019002980499039A04F0EB
:102D5000C7FC0146019807F0A1F806B080BD00004D
:102D600080B582B00190019807F0BAF802B080BD3A
:102D700080B584B002900191029820B9FFE701204C
:102D80008DF80F0021E1019843F60041C4F20201E1
:102D9000096801F00701884212D9FFE7019943F65B
:102DA0000040C4F202000170006800F007000199C1
:102DB000884204D0FFE701208DF80F0005E1FFE70E
:102DC00002980078800700282AD5FFE7029800784B
:102DD0004007002809D5FFE743F60801C4F20201C5
:102DE000086840F4E0500860FFE7029800780007A8
:102DF000002809D5FFE743F60801C4F2020108687C
:102E000040F460400860FFE743F60801C4F20201A5
:102E1000086820F0F000029A926810430860FFE70B
:102E200002980078C00700286ED0FFE7029840683B
:102E3000012811D1FFE743F60000C4F20200006848
:102E400000F400310020B0EB514F04D1FFE7012026
:102E50008DF80F00B9E02CE002984068022805D0F8
:102E6000FFE702984068032811D1FFE743F600000E
:102E7000C4F20200006800F000710020B0EB516F56
:102E800004D1FFE701208DF80F009EE010E043F62B
:102E90000000C4F20200006800F002010020B0EB64
:102EA000510F04D1FFE701208DF80F008DE0FFE7FF
:102EB000FFE743F60801C4F20201086820F00300AE
:102EC000029A526810430860FFF788F90090FFE704
:102ED00043F60800C4F20200006800F00C000299FA
:102EE0004968B0EB810F0ED0FFE7FFF777F9009943
:102EF000401A41F28931884204D3FFE703208DF85C
:102F00000F0062E0E4E7FFE7019843F60041C4F2F6
:102F10000201096801F00701884212D2FFE7019916
:102F200043F60040C4F202000170006800F00700A0
:102F30000199884204D0FFE701208DF80F0044E09A
:102F4000FFE702980078400700280CD5FFE743F61A
:102F50000801C4F20201086820F4E050029AD26825
:102F600010430860FFE702980078000700280DD59D
:102F7000FFE743F60801C4F20201086820F460404C
:102F8000029A126940EAC2000860FFE700F04CF8BC
:102F900043F60801C4F202010968C9B20A094DF2F8
:102FA0008C51C0F60001895CC84040F20401C2F2B5
:102FB0000001086040F20C00C2F200000068FFF758
:102FC00023FE00208DF80F00FFE79DF80F0004B0EE
:102FD00080BD000040F20400C2F2000000687047AB
:102FE00080B5FFF7F7FF43F60801C4F20201096854
:102FF000C1F382224DF29C51C0F60001895CC840A9
:1030000080BD000080B5FFF7E5FF43F60801C4F27C
:103010000201096889B24A0B4DF29C51C0F60001C9
:10302000895CC84080BD000080B586B00020059056
:1030300004900390029043F60800C4F20200006876
:1030400000F00C000146019140B1FFE7019804280F
:103050000AD0FFE7019808280CD04FE042F2004068
:10306000C0F2F40002904FE041F20020C0F27A007A
:10307000029049E043F60400C4F20200016801F046
:103080003F01059100684002002813D5FFE743F691
:103090000400C4F202000068C0F3881041F200216D
:1030A000C0F27A01A0FB0101059A0023FDF788F820
:1030B000049012E043F60400C4F202000068C0F37A
:1030C000881042F20041C0F2F401A0FB0101059A10
:1030D0000023FDF775F80490FFE743F60400C4F2FF
:1030E0000200006800F44031022000EBD130039070
:1030F00004980399B0FBF1F0029005E042F2004021
:10310000C0F2F4000290FFE7029806B080BD000014
:1031100080B586B00490049820B9FFE701208DF8AF
:10312000170050E304980078C007002800F0A5803D
:10313000FFE743F60800C4F20200006800F00C004C
:10314000042813D0FFE743F60800C4F20200006829
:1031500000F00C0008281ED1FFE743F60400C4F27B
:10316000020000684002002815D5FFE743F6000082
:10317000C4F20200006800F400310020B0EB514FAF
:1031800008D0FFE70498406820B9FFE701208DF8D8
:10319000170018E370E0FFE704984068B0F5803F3F
:1031A00009D1FFE743F60001C4F20201086840F4C8
:1031B0008030086020E004984068B0F5A02F0DD161
:1031C000FFE743F60001C4F20201086840F48020E2
:1031D0000860086840F4803008600CE043F60001A5
:1031E000C4F20201086820F480300860086820F406
:1031F00080200860FFE7FFE7FFE704984068E8B138
:10320000FFE7FEF7EBFF0390FFE743F60000C4F291
:103210000200006800F400310020B0EB514F0CD1E7
:10322000FFE7FEF7DBFF0399401A652804D3FFE7A9
:1032300003208DF81700C6E2E7E71CE0FEF7CEFF9B
:103240000390FFE743F60000C4F20200006800F4B8
:1032500000310020B0EB514F0CD0FFE7FEF7BEFF6E
:103260000399401A652804D3FFE703208DF817005F
:10327000A9E2E7E7FFE7FFE7FFE7049800788007A8
:10328000002840F19680FFE743F60800C4F20200F0
:10329000006810F00C0F13D0FFE743F60800C4F2EB
:1032A0000200006800F00C0008282CD1FFE743F66C
:1032B0000400C4F2020000684002002823D4FFE7A3
:1032C00043F60000C4F20200006800F00201002092
:1032D000B0EB510F09D0FFE70498C068012804D073
:1032E000FFE701208DF817006DE243F60001C4F2FC
:1032F0000201086820F0F800049A126940EAC2004E
:103300000860FFE754E00498C06870B3FFE700214D
:10331000C4F2472101200860FEF760FF0390FFE739
:1033200043F60000C4F20200006800F00201002031
:10333000B0EB510F0CD1FFE7FEF750FF0399401A95
:10334000032804D3FFE703208DF817003BE2E7E7EB
:1033500043F60001C4F20201086820F0F800049A64
:10336000126940EAC200086021E00021C4F247214E
:1033700000200860FEF732FF0390FFE743F60000ED
:10338000C4F20200006800F002010020B0EB510F0F
:103390000CD0FFE7FEF722FF0399401A032804D35D
:1033A000FFE703208DF817000DE2E7E7FFE7FFE7EF
:1033B000FFE704980078000700284BD5FFE7049842
:1033C000406918B3FFE740F68061C4F2472101204D
:1033D0000860FEF703FF0390FFE743F67400C4F2B2
:1033E0000200006800F002010020B0EB510F0CD188
:1033F000FFE7FEF7F3FE0399401A032804D3FFE723
:1034000003208DF81700DEE1E7E722E040F6806157
:10341000C4F2472100200860FEF7E0FE0390FFE7BA
:1034200043F67400C4F20200006800F002010020BC
:10343000B0EB510F0CD0FFE7FEF7D0FE0399401A16
:10344000032804D3FFE703208DF81700BBE1E7E76B
:10345000FFE7FFE7049800784007002840F1CE809E
:10346000FFE700208DF8070043F64000C4F2020099
:103470000068C000002815D4FFE7FFE70020009097
:1034800043F64000C4F20200016841F0805101603F
:10349000006800F0805000900098FFE701208DF850
:1034A0000700FFE747F20000C4F200000068C00513
:1034B000002822D4FFE747F20001C4F200010868A7
:1034C00040F480700860FEF789FE0390FFE747F242
:1034D0000000C4F200000068C00500280CD4FFE71B
:1034E000FEF77CFE0399401A032804D3FFE703206C
:1034F0008DF8170067E1EAE7FFE7FFE704988068C7
:10350000012809D1FFE743F67001C4F202010868FF
:1035100040F0010008601FE00498806805280DD184
:10352000FFE743F67001C4F20201086840F00400AE
:103530000860086840F0010008600CE043F6700184
:10354000C4F20201086820F001000860086820F059
:1035500004000860FFE7FFE7FFE704988068F8B120
:10356000FFE7FEF73BFE0390FFE743F67000C4F26F
:103570000200006800F002010020B0EB510F0ED1F4
:10358000FFE7FEF72BFE0399401A41F2893188428A
:1035900004D3FFE703208DF8170014E1E5E71EE0F0
:1035A000FEF71CFE0390FFE743F67000C4F2020032
:1035B000006800F002010020B0EB510F0ED0FFE7D1
:1035C000FEF70CFE0399401A41F28931884204D378
:1035D000FFE703208DF81700F5E0E5E7FFE79DF82A
:1035E0000700012809D1FFE743F64001C4F20201B8
:1035F000086820F080500860FFE7FFE704988069C2
:10360000002800F0DC80FFE743F60800C4F2020067
:10361000006800F00C00082800F08580FFE704989F
:10362000806902285CD1FFE76021C4F247210020B5
:103630000860FEF7D3FD0390FFE743F60000C4F2F5
:103640000200006800F000710020B0EB516F0CD058
:10365000FFE7FEF7C3FD0399401A032804D3FFE7F1
:1036600003208DF81700AEE0E7E70499C869D1F8A8
:1036700020C04B6A8A6A40EA0C0040EA8310D203F9
:103680004FF6FF739A43A2F580321043C96A40EAAD
:10369000016043F60401C4F2020108606021C4F233
:1036A000472101200860FEF799FD0390FFE743F6EC
:1036B0000000C4F20200006800F000710020B0EBCE
:1036C000516F0CD1FFE7FEF789FD0399401A0328DB
:1036D00004D3FFE703208DF8170074E0E7E721E04B
:1036E0006021C4F2472100200860FEF777FD0390B7
:1036F000FFE743F60000C4F20200006800F000712A
:103700000020B0EB516F0CD0FFE7FEF767FD039987
:10371000401A032804D3FFE703208DF8170052E076
:10372000E7E7FFE74AE004988069012804D1FFE752
:1037300001208DF8170046E043F60400C4F20200B1
:103740000068029004988069012831D0FFE7029850
:1037500000F480000499C969884229D1FFE70298E2
:1037600000F03F000499096A884221D1FFE70298DE
:1037700047F6C07108400499496AB0EB811F17D120
:10378000FFE7029800F440300499896AC9034FF6B4
:10379000FF729143A1F58031884209D1FFE7029879
:1037A00000F070600499C96AB0EB016F04D0FFE7C4
:1037B00001208DF8170006E0FFE7FFE7FFE7002094
:1037C0008DF81700FFE79DF8170006B080BD0000D8
:1037D00080B586B00490039100208DF80700FFE7C4
:1037E00004980079012804D1FFE702208DF8170022
:1037F00052E0049901200871FFE7FFE7049840793F
:10380000012838D1FFE7049902204871FEF7E6FC51
:103810000290FFE7049800684068C007F0B9FFE72E
:10382000FEF7DCFC0299401A032816D3FFE7049840
:1038300000684068C00778B9FFE704990120487123
:10384000049902208860FFE7049900200871FFE7CF
:1038500001208DF817001FE0FFE7DBE70498006800
:1038600080680499C8600498C06803990860049946
:103870000120487106E004990420886001208DF839
:103880000700FFE7FFE7049900200871FFE79DF8B4
:1038900007008DF81700FFE79DF8170006B080BD00
:1038A00080B582B00090009800F10C01FFF790FF06
:1038B00020B9FFE70098C068019002E00020019065
:1038C000FFE7019802B080BD80B582B000900098FB
:1038D00020B9FFE701208DF807001CE0009840792F
:1038E00038B9FFE7009900200871009800F018F837
:1038F000FFE700990220487100980168086840F0CD
:103900000400086000990120487100990020886037
:103910008DF80700FFE79DF8070002B080BD0000AA
:1039200082B001900198006840F60001C5F20601DE
:10393000884212D1FFE7FFE70020009043F63400F1
:10394000C4F20200016841F040010160006800F02B
:10395000400000900098FFE7FFE702B070470000CA
:1039600081B0009001B0704780B588B0079007988B
:1039700000684068069007980068806805909DF888
:10398000140000F040010020B0EB911F11D1FFE7BF
:103990000598C00768B1FFE79DF8180000F04001E6
:1039A0000020B0EB911F04D0FFE70798016C884717
:1039B000F0E09DF8140000F002010020B0EB510F80
:1039C0000BD0FFE79DF818100020B0EBD11F04D0FA
:1039D000FFE70798416C8847DCE09DF8140000F091
:1039E00020010020B0EB511F10D1FFE79DF814001B
:1039F00000F040010020B0EB911F07D1FFE79DF8D8
:103A00001500C007002800F0C580FFE79DF81800EA
:103A100000F020010020B0EB511F00F0BB80FFE759
:103A20009DF8140000F040010020B0EB911F28D059
:103A3000FFE7079890F85100032813D0FFE7079994
:103A4000486D40F004004865FFE7002004900798A7
:103A50000068C06804900798006880680490049823
:103A6000FFE70DE0FFE70020039007980068C068BB
:103A7000039007980068806803900398FFE789E047
:103A8000FFE79DF8140000F020010020B0EB511F6B
:103A900015D0FFE70799486D40F001004865FFE742
:103AA00000200290079800688068029007980168DB
:103AB000086820F0400008600298FFE7FFE79DF8E3
:103AC0001500C00778B1FFE70799486D40F008007E
:103AD0004865FFE700200190079800688068019022
:103AE0000198FFE7FFE70798406D002851D0FFE7F6
:103AF00007980168486820F0E000486007990120B5
:103B000081F85100069800F00200022805D0FFE776
:103B10009DF81800C007B8B3FFE707980168486828
:103B200020F0030048600798C06CA0B1FFE7079839
:103B3000C16C47F26170C0F6000008650798C06C60
:103B4000FDF774FE30B1FFE70799486D40F0400083
:103B50004865FFE7FFE70798806CA0B1FFE707988B
:103B6000816C47F26170C0F6000008650798806CB0
:103B7000FDF75CFE30B1FFE70799486D40F040006B
:103B80004865FFE7FFE703E00798FFF7E9FEFFE777
:103B9000FFE7FFE708B080BD80B584B002900298CF
:103BA00020B9FFE701208DF80F0072E00298406A0B
:103BB00060B9FFE702984068B0F5827F01D1FFE766
:103BC00003E002990020C861FFE705E002990020A8
:103BD000086102994861FFE7029900208862029813
:103BE00090F8510040B9FFE70299002081F8500099
:103BF000029800F053F8FFE70299022081F8510083
:103C000002980168086820F040000860029A01925A
:103C100011685068D2F808C0D36800F482700CF4C0
:103C2000044C604403F400631844136903F0020376
:103C30001844536903F001031844936903F40073B3
:103C40001844D36903F038031844136A03F080035F
:103C50001843926A02F40052104308600298016807
:103C60008369426A042000EA134002F01002104403
:103C7000486002980168C86920F40060C861029930
:103C800000204865029A012182F851108DF80F003A
:103C9000FFE79DF80F0004B080BD000080B58CB038
:103CA0000B9000200A9009900890079006900B98BE
:103CB000006843F60041C4F20001884267D1FFE783
:103CC000FFE70020059043F64000C4F202000168BF
:103CD00041F400410160006800F40040059005983F
:103CE000FFE7FFE70020049043F63000C4F2020033
:103CF000016841F004010160006800F004000490D4
:103D00000498FFE74FF4A05006900220079000208F
:103D1000029008900320099006200A9040F60000C7
:103D2000C4F2020006A9FEF74DF8029940F28C3069
:103D3000C2F20000039046F2B802C4F2020202602E
:103D4000416040228260C1604FF480620261416143
:103D50008161C16101624162FDF71AFF18B1FFE79D
:103D6000FDF74EFAFFE7FFE70B9840F28C31C2F205
:103D7000000181640B988863FFE7332001900121E3
:103D80000022FEF7D3FF0198FEF7C6FFFFE70CB055
:103D900080BD000080B588B006900591ADF8122076
:103DA0000393FEF71BFA0290BDF81200ADF806006F
:103DB000069890F85100012804D0FFE702208DF802
:103DC0001F0034E1059820B1FFE7BDF8120020B9CB
:103DD000FFE701208DF81F0029E1FFE7069890F822
:103DE0005000012804D1FFE702208DF81F001EE1DA
:103DF0000699012081F85000FFE7FFE706990320AC
:103E000081F851000699002048650599069A1163CA
:103E1000BDF81210069A9186BDF81210069AD18646
:103E200006998863069988870699C8870699486421
:103E30000699086406988068B0F5004F0DD1FFE739
:103E400006980168086820F040000860069801683C
:103E5000086840F480400860FFE706980068006842
:103E600000F04000402807D0FFE706980168086886
:103E700040F040000860FFE70698C068B0F5006FAA
:103E800051D1FFE70698406828B1FFE7BDF806006A
:103E900001280ED1FFE706980168006B0088C86012
:103EA0000699086B023008630699C88E0138C886E7
:103EB000FFE7FFE70698C08EA0B3FFE7069800680B
:103EC0008068800700280ED5FFE706980168006B20
:103ED0000088C8600699086B023008630699C88E8E
:103EE0000138C8861DE0FEF779F90299401A039956
:103EF000884204D3FFE70398013018B9FFE703981D
:103F000070B9FFE70699012081F85100FFE7069993
:103F1000002081F85000FFE703208DF81F0086E0A5
:103F2000FFE7C7E750E00698406828B1FFE7BDF813
:103F3000060001280ED1FFE706980168006B0078A3
:103F400008730699086B013008630699C88E01381A
:103F5000C886FFE7FFE70698C08EA0B3FFE7069884
:103F600000688068800700280ED5FFE70698016882
:103F7000006B007808730699086B01300863069996
:103F8000C88E0138C8861DE0FEF728F90299401A4C
:103F90000399884204D3FFE70398013018B9FFE77B
:103FA000039870B9FFE70699012081F85100FFE7F7
:103FB0000699002081F85000FFE703208DF81F00CC
:103FC00035E0FFE7C7E7FFE706980399029A03F099
:103FD000D7FB20B1FFE7069920204865FFE7069848
:103FE000806870B9FFE7FFE700200090069800683E
:103FF000C068009006980068806800900098FFE70D
:10400000FFE70699012081F85100FFE7069900209B
:1040100081F85000FFE70698406D20B1FFE70120CE
:104020008DF81F0003E000208DF81F00FFE79DF8CA
:104030001F0008B080BD000081B0009000980428E7
:1040400009D1FFE74EF21001CEF20001086840F0FE
:104050000400086008E04EF21001CEF2000108688A
:1040600020F004000860FFE701B0704780B582B01F
:104070000190019803F010FD02B080BD81B0009066
:1040800001B0704781B0009001B0704784B00290D9
:10409000019100200090FFE7029890F83C00012871
:1040A00004D1FFE702208DF80F0044E002990120BF
:1040B00081F83C00FFE7FFE7009820F0FF0001993E
:1040C000C96808430090009820F4407001998968FD
:1040D00008430090009820F48060019949680843E3
:1040E0000090009820F4006001990968084300904E
:1040F000009820F4805001990969084300900098C5
:1041000020F400500199496908430090009820F478
:1041100080400199C9690843009000980299096894
:104120004864FFE70299002081F83C00FFE7002087
:104130008DF80F00FFE79DF80F0004B070470000F6
:1041400085B003900291FFE7039890F83C000128A6
:1041500004D1FFE702208DF813007EE003990120CF
:1041600081F83C00FFE7FFE70399022081F83D005A
:104170000398006840680190039800688068009088
:10418000019820F07000019002980168019808439E
:10419000019001980399096848600398006800211C
:1041A000C4F2010188423CD0FFE703980068B0F1F7
:1041B000804F36D0FFE70398006840F20041C4F218
:1041C000000188422DD0FFE70398006840F6000107
:1041D000C4F20001884224D0FFE70398006840F64B
:1041E0000041C4F2000188421BD0FFE70398006839
:1041F00040F20041C4F20101884212D0FFE7039867
:10420000006844F20001C4F20101884209D0FFE7CE
:104210000398006841F60001C4F2000188420ED103
:10422000FFE7009820F08000009002984168009815
:10423000084300900098039909688860FFE7039994
:10424000012081F83D00FFE70399002081F83C0040
:10425000FFE700208DF81300FFE79DF8130005B07D
:104260007047000080B582B00090009820B9FFE749
:1042700001208DF807003FE0009890F83D0040B91C
:10428000FFE70099002081F83C00009800F038F822
:10429000FFE70099022081F83D00009951F8040BD6
:1042A00004F052FB0099012081F84600FFE70099D5
:1042B000012081F83E00009981F83F00009981F8C3
:1042C0004000009981F84100FFE7FFE700990120D5
:1042D00081F84200009981F84300009981F8440078
:1042E000009981F84500FFE70099012081F83D0021
:1042F00000208DF80700FFE79DF8070002B080BDA1
:1043000080B588B00790079800680021C4F20101C9
:1043100088421BD1FFE7FFE70020069043F64400E8
:10432000C4F20200016841F001010160006800F080
:10433000010006900698FFE7192002900121002253
:10434000FEF7F4FC0298FEF7E7FC65E007980068CA
:1043500040F60041C4F20001884212D1FFE7FFE7B6
:104360000020059043F64000C4F20200016841F0CD
:1043700008010160006800F0080005900598FFE75B
:1043800049E00798006841F60001C4F20001884244
:104390001BD1FFE7FFE70020049043F64000C4F282
:1043A0000200016841F040010160006800F0400037
:1043B00004900498FFE72B20019000210122FEF7D2
:1043C000B5FC0198FEF7A8FC24E00798006842F2CB
:1043D0000001C4F2000188421BD1FFE7FFE7002083
:1043E000039043F64000C4F20200016841F480717A
:1043F0000160006800F4807003900398FFE72D20AF
:10440000009001210022FEF791FC0098FEF784FC49
:10441000FFE7FFE7FFE7FFE708B080BD83B001904B
:10442000019890F83D00012804D0FFE701208DF8A5
:104430000B006AE00199022081F83D0001980168B3
:10444000C86840F00100C860019800680021C4F20B
:10445000010188423CD0FFE701980068B0F1804F2D
:1044600036D0FFE70198006840F20041C4F2000135
:1044700088422DD0FFE70198006840F60001C4F2A1
:104480000001884224D0FFE70198006840F600410F
:10449000C4F2000188421BD0FFE70198006840F297
:1044A0000041C4F20101884212D0FFE70198006880
:1044B00044F20001C4F20101884209D0FFE70198EB
:1044C000006841F60001C4F20001884212D1FFE702
:1044D00001980068806800F00700009000980628A6
:1044E00007D0FFE701980168086840F00100086004
:1044F000FFE706E001980168086840F001000860E5
:10450000FFE700208DF80B00FFE79DF80B0003B0DC
:104510007047000080B586B00490039100208DF8AC
:104520000B00FFE7049890F83C00012804D1FFE756
:1045300002208DF81700ABE00499012081F83C00BF
:10454000FFE7FFE70499022081F83D000498006826
:1045500080680190019820F077000190019820F484
:104560007F40019001980499096888600398006869
:104570000090002872D0FFE7009810286ED0FFE767
:10458000009820286AD0FFE70098302866D0FFE71F
:104590000098402855D0FFE70098502837D0FFE713
:1045A0000098602840D0FFE7009870280BD0FFE704
:1045B0000098B0F5805F05D0FFE70098B0F5005F88
:1045C00016D052E055E004980068039B5A68996839
:1045D000DB6804F093FB0498006880680190019800
:1045E00040F077000190019804990968886040E0E4
:1045F00004980068039B5A689968DB6804F07EFBA6
:1046000004980168886840F48040886031E004982C
:104610000068039A5168D26804F05CFD0498006851
:10462000502104F085FB24E004980068039A516847
:10463000D26804F077FD04980068602104F078FBEC
:1046400017E004980068039A5168D26804F042FDAC
:1046500004980068402104F06BFB0AE004980068AD
:104660000399096804F064FB03E001208DF80B0056
:10467000FFE70499012081F83D00FFE7049900203D
:1046800081F83C00FFE79DF80B008DF81700FFE76D
:104690009DF8170006B080BD80B586B004900391E8
:1046A000049820B9FFE701208DF8170088E00498EE
:1046B00090F83D0040B9FFE70499002081F83C00E4
:1046C000049800F081F8FFE70499022081F83D008A
:1046D00004980168886844F207029043886004994E
:1046E00051F8040B04F030F90498006880680290D7
:1046F000049800688069019004980068006A00903E
:1047000003980168029808430290019840F203312F
:104710008843019003998868896940EA01210198DA
:1047200008430190019840F60C418843019001989C
:104730004FF2F001884301900399C868C96940EAC3
:10474000012101980843019003990869096A000151
:1047500040EA0131019808430190009820F02200BE
:104760000090009820F088000090039948684969FB
:1047700040EA0111009808430090029804990968E2
:10478000886001980499096888610098049909680B
:1047900008620499012081F84600049981F83E00DE
:1047A000049981F83F00049981F84200049981F846
:1047B0004300049981F83D0000208DF81700FFE7C1
:1047C0009DF8170006B080BD80B58AB00990002022
:1047D000089007900690059004900998006840F2B0
:1047E0000041C4F20001884232D1FFE7FFE7002018
:1047F000039043F64000C4F20200016841F0020158
:104800000160006800F0020003900398FFE7FFE7F3
:104810000020029043F63000C4F20200016841F02B
:1048200004010160006800F0040002900298FFE7B4
:10483000C020049002200590002106910791089065
:1048400040F60000C4F2020004A9FDF7BBFA3CE008
:104850000998006840F60001C4F20001884233D193
:10486000FFE7FFE70020019043F64000C4F202009A
:10487000016841F004010160006800F0040001904B
:104880000198FFE7FFE70020009043F63000C4F2F4
:104890000200016841F008010160006800F00800B2
:1048A00000900098FFE74FF44050049002200590DC
:1048B000002106910791089040F60040C4F20200E2
:1048C00004A9FDF77FFAFFE7FFE70AB080BD00000B
:1048D00080B586B004900391049890F83E008DF85E
:1048E0000B00049890F83F008DF80A00049890F8A7
:1048F00042008DF80900049890F843008DF80800F4
:104900000398B8B9FFE79DF80B00012805D1FFE730
:104910009DF80900012804D0FFE701208DF8170059
:1049200079E00499022081F83E00049981F8420060
:10493000FFE742E00398042817D1FFE79DF80A003B
:10494000012805D1FFE79DF80800012804D0FFE702
:1049500001208DF817005EE00499022081F83F00E5
:10496000049981F84300FFE726E09DF80B00012839
:104970000FD1FFE79DF80A0001280AD1FFE79DF853
:104980000900012805D1FFE79DF80800012804D09F
:10499000FFE701208DF817003DE00499022081F81F
:1049A0003E00049981F83F00049981F8420004997F
:1049B00081F84300FFE7FFE7FFE70398019020B18C
:1049C000FFE70198042807D00DE004980068002153
:1049D000012204F091F814E00498006804210122F7
:1049E00004F08AF80DE0049800680021012200928A
:1049F00004F082F8009A04980068042104F07CF81E
:104A0000FFE704980168086840F001000860002092
:104A10008DF81700FFE79DF8170006B080BD000075
:104A200081B0009001B0704781B0009001B0704734
:104A300080B584B0039003980068C0680290039822
:104A40000068006901909DF804008007002824D5C3
:104A5000FFE79DF80800800700281DD5FFE70398B1
:104A600001686FF00200086103990120087703983C
:104A700000688069800720B1FFE70398FFF7D4FF43
:104A800006E0039800F06AF9039800F0B3FAFFE734
:104A9000039900200877FFE7FFE79DF8040040072F
:104AA000002825D5FFE79DF80800400700281ED5FF
:104AB000FFE7039801686FF0040008610399022082
:104AC000087703980068806910F4407F04D0FFE7FE
:104AD0000398FFF7A9FF06E0039800F03FF9039859
:104AE00000F088FAFFE7039900200877FFE7FFE767
:104AF0009DF804000007002824D5FFE79DF8080072
:104B0000000700281DD5FFE7039801686FF0080033
:104B1000086103990420087703980068C06980073A
:104B200020B1FFE70398FFF77FFF06E0039800F04E
:104B300015F9039800F05EFAFFE703990020087763
:104B4000FFE7FFE79DF80400C006002825D5FFE732
:104B50009DF80800C00600281ED5FFE703980168ED
:104B60006FF0100008610399082008770398006827
:104B7000C06910F4407F04D0FFE70398FFF754FFAB
:104B800006E0039800F0EAF8039800F033FAFFE734
:104B9000039900200877FFE7FFE79DF80400C007AE
:104BA00078B1FFE79DF80800C00748B1FFE7039818
:104BB00001686FF001000861039800F07BFDFFE7DA
:104BC000FFE79DF804000006002810D5FFE79DF8D8
:104BD00008000006002809D5FFE7039801686FF078
:104BE000800008610398FFF749FAFFE7FFE79DF8A7
:104BF00004004006002810D5FFE79DF80800400695
:104C0000002809D5FFE7039801686FF040000861AC
:104C1000039800F081FEFFE7FFE79DF8040080069F
:104C2000002810D5FFE79DF808008006002809D568
:104C3000FFE7039801686FF0200008610398FFF711
:104C400021FAFFE7FFE704B080BD000080B58AB01D
:104C5000099000200890079006900590049009980C
:104C600000680021C4F20101884223D1FFE7FFE779
:104C70000020039043F63000C4F20200016841F0C6
:104C800010010160006800F0100003900398FFE736
:104C90004FF40070049002200590002006900790C9
:104CA0000120089041F20000C4F2020004A9FDF7BF
:104CB00089F851E009980068B0F1804F21D1FFE7F1
:104CC000FFE70020029043F63000C4F202000168C2
:104CD00041F001010160006800F0010002900298BB
:104CE000FFE708200490022005900020069007901E
:104CF000012008900020C4F2020004A9FDF762F828
:104D000029E00998006840F60041C4F20001884299
:104D100020D1FFE7FFE70020019043F63000C4F206
:104D20000200016841F001010160006800F001002B
:104D300001900198FFE701200490022005900021D6
:104D40000691079108900020C4F2020004A9FDF723
:104D500039F8FFE7FFE7FFE70AB080BD81B00090B8
:104D600001B0704780B586B0049003910292002094
:104D70008DF80700FFE7049890F83C00012804D163
:104D8000FFE702208DF8170089E00499012081F8DF
:104D90003C00FFE7FFE7029800900C2800F27080CB
:104DA0000099DFE801F0076D6D6D206D6D6D3A6D56
:104DB0006D6D530004980068039903F0CFFF0498C9
:104DC0000168886940F00800886104980168886972
:104DD00020F00400886103980269049801688869DA
:104DE0001043886150E004980068039904F02CF89F
:104DF00004980168886940F400608861049801683B
:104E0000886920F4806088610398026904980168C9
:104E1000886940EA0220886136E0049800680399B6
:104E200004F08CF804980168C86940F00800C86173
:104E300004980168C86920F00400C86103980269F9
:104E400004980168C8691043C8611DE004980068AF
:104E5000039904F0EDF804980168C86940F4006013
:104E6000C86104980168C86920F48060C86103982B
:104E7000026904980168C86940EA0220C86103E039
:104E800001208DF80700FFE7FFE70499002081F873
:104E90003C00FFE79DF807008DF81700FFE79DF83D
:104EA000170006B080BD000080B582B00090009869
:104EB00020B9FFE701208DF807003FE0009890F847
:104EC0003D0040B9FFE70099002081F83C000098C0
:104ED00000F038F8FFE70099022081F83D000099C2
:104EE00051F8040B03F030FD0099012081F84600D1
:104EF000FFE70099012081F83E00009981F83F000A
:104F0000009981F84000009981F84100FFE7FFE730
:104F10000099012081F84200009981F8430000992E
:104F200081F84400009981F84500FFE700990120CD
:104F300081F83D0000208DF80700FFE79DF807008D
:104F400002B080BD80B584B0039003980068B0F1D2
:104F5000804F4CD1FFE7FFE70020029043F640006E
:104F6000C4F20200016841F001010160006800F034
:104F7000010002900298FFE740F2EC30C2F200001C
:104F8000019046F2A001C4F2020101604FF0C0613D
:104F90004160402181600021C1604FF48062026164
:104FA0004FF4805242614FF4804282614FF480722C
:104FB000C26101624162FCF7EBFD18B1FFE7FCF74B
:104FC0001FF9FFE7FFE7039840F2EC31C2F200015E
:104FD000816203988863FFE7FFE7039840F2EC31B2
:104FE000C2F20001016303988863FFE7FFE704B0A2
:104FF00080BD000081B0009001B0704781B000908A
:1050000001B0704780B58CB00A900991099828B911
:10501000FFE70A9890F83E0007901CE009980428E2
:1050200005D1FFE70A9890F83F00069010E0099834
:10503000082805D1FFE70A9890F84000059004E0A1
:105040000A9890F841000590FFE705980690FFE761
:1050500006980790FFE70798012804D0FFE7012092
:105060008DF82F00AFE0099828B9FFE70A990220D0
:1050700081F83E001EE00998042806D1FFE70A994E
:10508000022081F83F00049012E00998082806D118
:10509000FFE70A99022081F84000039005E00A9991
:1050A000022081F841000390FFE703980490FFE796
:1050B0000498FFE70A98006809990122019203F019
:1050C0001BFD01980A9909680022C4F2010291426D
:1050D00002900CD0FFE70A9800684FF60041CBF62B
:1050E000FE710844B0FA80F040090290FFE7029890
:1050F000C00738B1FFE70A980168486C40F40040E7
:105100004864FFE70A9800680021C4F20101884260
:105110003CD0FFE70A980068B0F1804F36D0FFE737
:105120000A98006840F20041C4F2000188422DD084
:10513000FFE70A98006840F60001C4F200018842C7
:1051400024D0FFE70A98006840F60041C4F200014D
:1051500088421BD0FFE70A98006840F20041C4F281
:105160000101884212D0FFE70A98006844F200016A
:10517000C4F20101884209D0FFE70A98006841F6AD
:105180000001C4F20001884212D1FFE70A980068CA
:10519000806800F0070008900898062807D0FFE70D
:1051A0000A980168086840F001000860FFE706E01F
:1051B0000A980168086840F001000860FFE70020D5
:1051C0008DF82F00FFE79DF82F000CB080BD000088
:1051D00080B592B010900F910E92ADF8363000204D
:1051E0008DF835000F9828B9FFE7109890F83E0029
:1051F0000B901CE00F98042805D1FFE7109890F859
:105200003F000A9010E00F98082805D1FFE710989A
:1052100090F84000099004E0109890F8410009903F
:10522000FFE709980A90FFE70A980B90FFE70B98B1
:10523000022804D1FFE702208DF84700B1E10F9862
:1052400028B9FFE7109890F83E0008901CE00F98EE
:10525000042805D1FFE7109890F83F00079010E070
:105260000F98082805D1FFE7109890F840000690A5
:1052700004E0109890F841000690FFE70698079028
:10528000FFE707980890FFE70898012834D1FFE767
:105290000E9820B1FFE7BDF8360020B9FFE70120E6
:1052A0008DF847007DE10F9828B9FFE7109902209B
:1052B00081F83E001EE00F98042806D1FFE7109900
:1052C000022081F83F00059012E00F98082806D1CF
:1052D000FFE71099022081F84000049005E0109942
:1052E000022081F841000490FFE704980590FFE751
:1052F0000598FFE7FFE703E001208DF8470050E144
:10530000FFE70F9803900C2800F2B6800399DFE8BE
:1053100001F007B3B3B332B3B3B35DB3B3B3880033
:105320001098416A48F63130C0F60000C863109802
:10533000416A48F6ED30C0F6000008641098416AF2
:1053400048F66140C0F60000C86410980268406AE0
:105350000E993432BDF83630FCF7D2FC20B1FFE7AD
:1053600001208DF847001CE110980168C86840F4DE
:105370000070C86084E01098816A48F63130C0F649
:105380000000C8631098816A48F6ED30C0F600004E
:1053900008641098816A48F66140C0F60000C8644D
:1053A00010980268806A0E993832BDF83630FCF7E2
:1053B000A7FC20B1FFE701208DF84700F1E010982D
:1053C0000168C86840F48060C86059E01098C16AFC
:1053D00048F63130C0F60000C8631098C16A48F63C
:1053E000ED30C0F6000008641098C16A48F66140CC
:1053F000C0F60000C86410980268C06A0E993C327A
:10540000BDF83630FCF77CFC20B1FFE701208DF8B9
:105410004700C6E010980168C86840F40060C860A2
:105420002EE01098016B48F63130C0F60000C863DA
:105430001098016B48F6ED30C0F600000864109833
:10544000016B48F66140C0F60000C864109802681D
:10545000006B0E994032BDF83630FCF751FC20B19C
:10546000FFE701208DF847009BE010980168C868AD
:1054700040F48050C86003E001208DF83500FFE75C
:105480009DF83500002840F08780FFE710980068FD
:105490000F990122019203F02FFB019810990968DE
:1054A0000022C4F20102914202900CD0FFE7109852
:1054B00000684FF60041CBF6FE710844B0FA80F068
:1054C00040090290FFE70298C00738B1FFE7109843
:1054D0000168486C40F400404864FFE71098006899
:1054E0000021C4F2010188423CD0FFE71098006817
:1054F000B0F1804F36D0FFE71098006840F20041CD
:10550000C4F2000188422DD0FFE71098006840F6F1
:105510000001C4F20001884224D0FFE7109800681F
:1055200040F60041C4F2000188421BD0FFE710980A
:10553000006840F20041C4F20101884212D0FFE746
:105540001098006844F20001C4F20101884209D0B9
:10555000FFE71098006841F60001C4F2000188429C
:1055600012D1FFE710980068806800F007000C90E7
:105570000C98062807D0FFE710980168086840F0EB
:1055800001000860FFE706E010980168086840F035
:1055900001000860FFE7FFE79DF835008DF8470040
:1055A000FFE79DF8470012B080BD000080B586B0CF
:1055B00005900491059800680499002203F09CFA74
:1055C0000598016801200022C4F201029142039073
:1055D0000CD0FFE7059800684FF60041CBF6FE714E
:1055E0000844B0FA80F040090390FFE70398C00731
:1055F000D8B1FFE7FFE705980068006A41F2111192
:10560000084210D1FFE705980068006A40F2444163
:10561000084207D1FFE705980168486C20F4004074
:105620004864FFE7FFE7FFE7FFE7FFE7059800684B
:10563000006A41F21111084210D1FFE70598006895
:10564000006A40F24441084207D1FFE7059801682B
:10565000086820F001000860FFE7FFE7FFE7049813
:1056600028B9FFE70599012081F83E001EE0049863
:10567000042806D1FFE70599012081F83F00029038
:1056800012E00498082806D1FFE70599012081F867
:105690004000019005E00599012081F8410001904A
:1056A000FFE701980290FFE70298FFE7002006B0AD
:1056B00080BD000080B5A0B01F901F9840F23071EF
:1056C000C2F2000188425FD1FFE740F60850C2F203
:1056D00000001E90FBF75EFE1E9803F04DFD02F0E9
:1056E0004DF940F6A450C2F20000006802280FD322
:1056F000FFE740F60850C2F2000002F0BBF903F0E9
:1057000017FE40F6A451C2F2000100200860FFE736
:1057100040F69C50C2F2000000680A280FD3FFE751
:1057200003F018FE40F60850C2F2000002F08CF9B7
:1057300040F69C51C2F2000100200860FFE740F6ED
:10574000A050C2F200000068142807D3FFE740F61B
:10575000A051C2F2000100200860FFE740F6A4510A
:10576000C2F2000108680130086040F69C51C2F2A4
:10577000000108680130086040F6A051C2F2000143
:10578000086801300860FFE71F9840F27871C2F2A4
:105790000001884240F0BD80FFE740F6AC50C2F205
:1057A00000000068022809D3FFE704F083FC40F6FC
:1057B000AC51C2F2000100200860FFE740F6B05093
:1057C000C2F200000068322807D3FFE740F6B0516C
:1057D000C2F2000100200860FFE740F6A850C2F2C4
:1057E00000000068642813D3FFE740F6C051C2F2FE
:1057F0000001086840F60852C2F200025268D06008
:105800000020086040F6A851C2F200010860FFE7DE
:1058100040F6AC51C2F2000108680130086040F661
:10582000B051C2F2000108680130086040F6A8518A
:10583000C2F2000108680130086040F60850C2F268
:1058400000000168129108680B9048688A680D9200
:10585000C9680F91FAF782FE02460B980C920A462D
:105860000C9942EC101B8DED1C0BFAF777FE0246EB
:105870000D980E920A460E9942EC101B8DED1A0BF4
:10588000FAF76CFE02460F9810920A46109942EC05
:10589000101B8DED180BFAF761FE0246129811925B
:1058A0000A46119942EC101B8DED160B0069FAF7B0
:1058B00055FE0246129813920A46139942EC101BA9
:1058C0008DED140B4069FAF749FE9DED144B9DEDEB
:1058D000163B9DED182B9DED1A1B9DED1C0B41EC0D
:1058E000150B684680ED085B80ED064B80ED043BB0
:1058F00080ED022B80ED001B53EC102B40F6E000F6
:10590000C2F2000043F63711C0F6010106F0B4F907
:10591000FFE720B080BD000081B0009001B070476B
:1059200080B586B004900391ADF80A20049890F8F1
:10593000420020284DD1FFE7039820B1FFE7BDF8D2
:105940000A0020B9FFE701208DF8170045E004990F
:105950000120086304990020486304980399BDF866
:105960000A2004F0DFF88DF809009DF8090058BB03
:10597000FFE70498006B012821D1FFE7FFE7002033
:1059800001900498006800680190049800684068DD
:1059900001900198FFE7FFE7FFE70498006850E8EF
:1059A000030F40F010000090FFE700990498026890
:1059B00042E803100028F0D1FFE7FFE703E00120F1
:1059C0008DF80900FFE7FFE79DF809008DF8170043
:1059D00003E002208DF81700FFE79DF8170006B0DE
:1059E00080BD000080B586B00590ADF81210059816
:1059F000006841F20001C4F20101884219D1FFE7B9
:105A000040F24C40C2F2000000684068C0F18000E3
:105A10008DF811009DF8111040F21800C2F200003C
:105A20000290FBF7F1FB02989DF81110FAF712FCB7
:105A300049E00598006844F20041C4F20001884240
:105A400019D1FFE740F20C50C2F200000068406834
:105A5000C0F180008DF810009DF8101040F2980001
:105A6000C2F200000190FBF733FD01989DF8101081
:105A7000FAF7F0FB26E00598006844F60001C4F24E
:105A8000000188421DD1FFE740F26C50C2F20000D5
:105A900000684068C0F180008DF80F009DF80F206D
:105AA00040F60850C2F2000040F21811C2F20001A4
:105AB0000091FBF7FFFB00989DF80F10FAF7CAFB67
:105AC000FFE7FFE7FFE706B080BD000081B0009070
:105AD00001B0704780B592B01190119800680068CD
