:020000040800F2
:1000000040480020A1010008ED330008532D0008EE
:1000100001330008C70700082D4400080000000055
:10002000000000000000000000000000453500084E
:100030000309000800000000EF3300082D36000817
:10004000BB010008BB010008BB010008BB010008A0
:10005000BB010008BB010008BB010008BB01000890
:10006000BB010008BB010008BB010008BB01000880
:10007000F9070008BB01000805080008BB010008DB
:1000800011080008BB010008BB010008BB01000803
:10009000BB010008BB010008BB010008BB01000850
:1000A000BB010008893C0008BB010008BB01000837
:1000B000BB010008BB010008BB010008BB01000830
:1000C000BB010008BB010008BB010008BB01000820
:1000D000BB01000801440008BB0100080D440008F2
:1000E00005090008BB010008BB010008953C000899
:1000F000BB010008A13C0008BB010008BB010008CF
:10010000BB010008BB010008BB010008F133000877
:10011000BB010008BB010008BB010008BB010008CF
:10012000BB010008BB0100081D080008BB01000856
:10013000BB010008BB010008BB010008BB010008AF
:10014000BB010008BB010008BB010008BB0100089F
:10015000BB010008BB01000829080008BB0100081A
:10016000BB010008BB010008BB010008BB0100087F
:10017000BB010008BB010008BB0100080000000033
:10018000BB010008BB010008DFF810D000F070FAD6
:1001900000480047AD4D0008AFF300804048002004
:1001A0000648804706480047FEE7FEE7FEE7FEE711
:1001B000FEE7FEE7FEE7FEE7FEE7FEE7C5360008DE
:1001C000890100082DE9F05F0546002092469B4614
:1001D00088460646814640241BE02846414647465D
:1001E000224600F094F853465A46C01A914110D363
:1001F00011461846224600F07BF82D1A67EB0108DD
:100200004F4622460120002100F072F817EB00094A
:100210004E41201EA4F10104DFDC484631462A4647
:100220004346BDE8F09F40EA01039B0703D009E085
:1002300008C9121F08C0042AFAD203E011F8013BD2
:1002400000F8013B521EF9D27047D2B201E000F82B
:10025000012B491EFBD270470022F6E710B513466A
:100260000A4604461946FFF7F0FF204610BD00F08D
:10027000004230F000400AD0C10D01F56071C0F3BA
:10028000160042EA0151C20840071143704700209E
:100290000146704730B5041E71F1000404DB4FF0D5
:1002A0000044404264EB0101141E73F1000405DBBD
:1002B0001C464FF00043524263EB0403994208BFCF
:1002C000904230BD30B50B4601460020202201246B
:1002D00009E021FA02F59D4205D303FA02F5491B14
:1002E00004FA02F52844151EA2F10102F1DC30BD2A
:1002F000202A04DB203A00FA02F1002070479140E6
:10030000C2F1200320FA03F3194390407047202ADA
:1003100004DB203A21FA02F00021704721FA02F3AF
:10032000D040C2F1200291400843194670472DE9A0
:10033000FE4F804681EA0300C00F0C46009021F07A
:10034000004123F00045B8EB0200A94105D2404628
:10035000214690461C460B46024623F000401043BF
:1003600047D0270DC7F30A00C3F30A510290401A81
:10037000019040286BDAC3F3130040F4801B00980F
:10038000924620B10023D2EB030A63EB0B0B0198DA
:100390005946C0F140025046FFF7AAFF06460D46F7
:1003A00050465946019A00F075F910EB080061417A
:1003B000002487EA115284EAE7731A4340D0009A76
:1003C00062B3019A012A4FEA075215DC001B61EB68
:1003D00002014FF0004202EA0752CDE90042001C40
:1003E00041F5801132462B4600F075F903B0BDE8A7
:1003F000F08F40462146F9E7001B61EB0201001C2B
:1004000041F5801300185B412018A2F5001747EB57
:10041000030140EAD570B6196D4111E06D084FEA4D
:10042000360645EAC0754FEA0752001B61EB020130
:10043000001C41F5801149084FEA30000019514174
:1004400032462B4603B0BDE8F04F00F035B90098B6
:10045000012240000023D0EB020263EBE07300981E
:1004600021464FEAE074B8EB000061EB0401E9E7D4
:1004700083F000435BE781F0004158E72DE9FE4F30
:1004800081EA030404F0004421F0004100944FF09D
:10049000000B23F0004350EA01045ED052EA03044B
:1004A0005BD0C3F30A54C1F30A552C44A4F2F334CD
:1004B0000194A0FB0254C1F3130141F48011C3F372
:1004C000130343F4801301FB024400FB034E840A30
:1004D000970A44EA815447EA8357A4FB07680295C8
:1004E0008D0A05FB07854FEA932C04FB0C54270566
:1004F000029D4FEA065847EA1637B5EB08056EEB42
:10050000070C870E920E47EA811742EA8312A7FB77
:100510000201B6EB0B0164EB00042B0D43EA0C3334
:100520005E1844EB1C50DA465146E7FB0201C5F366
:1005300013044FEA0B3343EA14534FEA0432019C8D
:1005400043EA0603A4F10C040294009CCDE900B434
:1005500000F0C1F803B0BDE8F08F00200146F9E7D4
:100560002DE9F04D81EA030404F0004B21F0004531
:1005700014464FF0000A23F0004150EA050220D053
:1005800054EA01021DD0C5F30A570246C5F313030E
:10059000C1F31300C1F30A5640F4801543F48013ED
:1005A000A7EB0608101BD64608F2FD3873EB0500D2
:1005B00002D308F1010801E092185B41B8F1000F85
:1005C00003DA00200146BDE8F08D00204FF48011D1
:1005D000064684460EE0171B73EB050705D3121B76
:1005E00063EB050306434CEA010C49084FEA30006F
:1005F00092185B4150EA0107EDD152EA030012D094
:1006000082EA040083EA0501084305D0101BAB41D0
:1006100006D20122002306E000224FF0004302E050
:100620006FF0010253101AEB06004CEB085110EB6F
:100630000A0041EB0B01BDE8F04D00F03DB8C1F3FD
:100640000A52C1F3130140F2FF3341F480119A4280
:1006500002DA00200146704740F233439A42A2F288
:10066000334202DC5242FFF752BEFFF741BE0000A8
:10067000064C074D06E0E06840F0010394E80700EF
:1006800098471034AC42F6D3FFF782FDF4B400086B
:1006900014B50008202A06DBCB17203A41FA02F0F5
:1006A00043EAE07306E041FA02F3D040C2F12002CF
:1006B000914008431946704710B5141E73F10004A9
:1006C00008DA401C41F1000192185B411A4301D144
:1006D00020F0010010BD2DE9F04D92469B4611B16E
:1006E000B1FA81F202E0B0FA80F220329046FFF7D0
:1006F000FFFD04460F4640EA0A0041EA0B0153465B
:100700005A46084313D0114653EA010019D0C8F1E4
:1007100040025046FFF7FBFD05460E46504659463F
:100720004246FFF7E5FD084305D0012004E02046DE
:100730003946BDE8F08D0020054346EAE0762C43BB
:1007400037430A986305E40AA0EB08000022FD0A7B
:1007500044EA47540A3002D500200146E9E7010582
:1007600010196941DDE9084500196941BDE8F04DFE
:10077000A2E770B5002500235C1E06884268418808
:1007800022F816100188491C89B20180067AB1420C
:1007900001D10021018000220CE0416831F91210E2
:1007A000994201DD0B4602E0A14200DA0C460D44FD
:1007B000521CD2B29642F0D8E81A001BB61E90FB2B
:1007C000F6F000B270BDFEE70A49016018394160D9
:1007D0000C3181602831C160A1F5E2720A60C26803
:1007E000A1F5B0715160C26864319160C068643134
:1007F000C1607047DC010020014800F06FB90000C3
:1008000080070020014800F069B90000E0070020DF
:10081000014800F063B9000058030020014800F0CF
:100820005DB90000C0060020014800F057B9000083
:10083000200700200168CAB2103A1823B2FBF3F275
:10084000064B9B5CC3656FF30901032A02D9091D9E
:10085000816500E08165806D704700005E51000891
:1008600010B5014600208A6A8B694FF0C074002BD6
:100870000ED0B3F5005F1AD062B3012A2AD0022A43
:1008800028D0032A03D1C96AC90100D5012010BDAF
:100890001AB1012A06D0022AF9D1C96AC901F6D5CE
:1008A000012010BDC96AA142FBD1012010BD52B187
:1008B000012A0AD0022A06D0032AF7D1C96AA14226
:1008C000F4D1012010BD012010BDC96AC901FBD5BA
:1008D000012010BD012010BD30B50468256825F445
:1008E00080252560046863608368402B04D003681A
:1008F00099600068C26030BD03689A600068C1609A
:1009000030BD704770B54FF480552946134800F04C
:1009100063FBA0B9124B134A1878A8B100241C70CD
:10092000D06880684470D068C0684470D2689FED19
:100930000E0A906880ED0D0AD06880ED0D0A2846F9
:10094000BDE8704000F054BAD0680124806844705B
:10095000D068C06844701C70F1E7000000040240D9
:100960001C000020080200200000000072B6FEE714
:1009700030B4002400228B5C5A2B09D18B185D788F
:10098000A52D05D1DD7E0D2D02D11B7F0A2B09D0AF
:10099000521C802AEFDB21440068891C30BC1A22DB
:1009A000FFF741BC1446F6E72DE9F0410446194F24
:1009B0003868406A4642DFF86080D8F80000406A34
:1009C000164948800846FFF7D4FE0546144846807D
:1009D000FFF7CFFE61680D80A168088000EE105A15
:1009E000DFED100A6168B8EEC00A20EE200A81ED42
:1009F000010A00EE100AA068B8EEC00A20EE200A34
:100A000080ED010A396800204862D8F80010486279
:100A1000BDE8F08100040020480400200000002010
:100A20000C0000200708E63B2DE9F0410446A76DC5
:100A300000F0E0FA054694F835000026022806D0BA
:100A40008020606584F834600120BDE8F081206872
:100A5000016821F0160101602068416921F08001E0
:100A60004161206C08B9A06C20B12068016821F0B8
:100A7000080101602068016821F0010101600BE0BC
:100A800000F0B8FA401B052806D920203434206233
:100A9000032060702670D8E720680068C007EFD197
:100AA00034343F2094F828108840B86001206070EA
:100AB00026700020C9E790F83510022903D0802164
:100AC000416501207047052180F8351000680168F4
:100AD00021F0010101600020704700002DE9F8437A
:100AE00004464FF00009CDF800906F484FF41651BE
:100AF0000068B0FBF1F7A56D2E6894F85C00082241
:100B000002FA00F1314210D02068016849070CD583
:100B1000016821F00401016094F85C0002FA00F120
:100B2000A960606D40F00100606594F85C104FF0C2
:100B3000010808FA01F0304208D021684969090625
:100B400004D5A860606D40F00200606594F85C1008
:100B500004208840304208D021680968890704D5FC
:100B6000A860606D40F00400606594F85C1010208F
:100B70008840304220D02168096809071CD5A86048
:100B80002068016849030CD50068000304D4216C77
:100B900091B1204688470FE0A16C69B12046884793
:100BA0000AE00168C90503D4016821F00801016069
:100BB000216C09B12046884794F85C1020208840B9
:100BC00030424CD021680968C90648D5A86094F81D
:100BD000350005280BD020680168490330D500682E
:100BE000000328D4616C51B32046884737E0206861
:100BF000016821F0160101602068416921F080013F
:100C00004161206C08B9A06C20B12068016821F016
:100C10000801016094F85C103F208840A86084F8C7
:100C2000358084F83490216D00293BD001B02046F6
:100C3000BDE8F0430847E16B09B1204688470EE064
:100C40000168C90507D4016821F01001016084F82A
:100C5000358084F83490E16B09B120468847606D97
:100C600000281FD0606DC00714D0052084F835001F
:100C70002068016821F0010101600098401C00908B
:100C8000B84203D820680068C007F6D184F83580E0
:100C900084F83490E16C002904D001B02046BDE80E
:100CA000F0430847BDE8F8832C0000202DE9F0410F
:100CB000044600F09FF905465CB1022084F8350037
:100CC000002684F834602068016821F00101016089
:100CD0000DE00120BDE8F08100F08CF9401B0528F3
:100CE00005D920206065032084F83500F2E72068EC
:100CF0000068C007F0D121680A6820480240D4E9A2
:100D000001031843D4E903352B431843636918439F
:100D1000A3691843E3691843236A18431043626ABE
:100D2000042A03D1D4E90B231A4310430860206836
:100D3000406920F00700656A294605430127042918
:100D40000DD1A06A0543E06A48B12046FFF788FD4F
:100D500028B14020606584F835700120BAE720682A
:100D600045612046FFF766FD94F85C203F219140E5
:100D70008160666584F835700020ABE73F8010F035
:100D80002DE9F04104460025A66D94F834000128B1
:100D90000DD0012084F8340094F835700020012F24
:100DA00007D084F8340002252846BDE8F0810220EF
:100DB000FBE7022784F8357060652046FFF78CFD5D
:100DC00094F85C103F208840B0602068016841F0D2
:100DD00016010160206C20B12068016841F0080113
:100DE00001602068016841F001010160DCE77047A3
:100DF00010B504490A68024202D00860FFF7F7FF05
:100E000010BD0000143C01402DE9F84F0022DFF82E
:100E10009C914FF0010803274FF00F0C09F1040AD1
:100E2000A9F1040B08FA02F50B682B40AB426ED116
:100E30000C7904F00304012C01D0022C15D1866832
:100E4000540007FA04FE26EA0E06D1F80CE00EFA6A
:100E500004FE4EEA060EC0F808E04468AC430D7983
:100E6000C5F300159540254345600C79E443A4077C
:100E700008D0C568540007FA04F6B5438E68A6404A
:100E80002E43C6600C7904F00304022C11D1D4085F
:100E900000EB8406356A5407E40E0CFA04FE25EADA
:100EA0000E05D1F810E00EFA04FE4EEA050EC6F863
:100EB00020E00568540007FA04F6B5430E7906F001
:100EC0000306A6402E4306604C6814F4403F67D0EA
:100ED000374C256845F480452560246804F4804437
:100EE0000094344C22F003052E19D6F808589407C4
:100EF0004FEA147E0CFA0EF4A5432F4CA04201D108
:100F0000002424E02D4CA04202D101241FE047E040
:100F10002B4CA04201D1022419E02A4CA04201D15D
:100F2000032414E0284CA04201D104240FE0274CF4
:100F3000A04201D105240AE0254CA04201D106249B
:100F400005E0244CA04201D1072400E0082404FA63
:100F50000EF42C43C6F80848D9F800409C434D686D
:100F6000ED0200D51C43C9F80040DAF800409C436C
:100F70004D68AD0200D51C43CAF80040DBF80040C4
:100F80009C434D68AD0300D51C43CBF80040074D92
:100F9000083D2C689C434E68F60300D51C432C602A
:100FA000521C102AFFF43EAFBDE8F88F083C014008
:100FB000443802400030014000000240000402407A
:100FC00000080240000C02400010024000140240E1
:100FD00000180240001C02400069084201D00120B4
:100FE000704700207047002A01D0816170470904D2
:100FF0008161704701488068704700002000002030
:1010000070B50446002C04D094F83D00002510B1C2
:1010100006E0012070BD84F83C50204600F0BCF88A
:10102000242084F83D002068016821F0010101605E
:101030002068016841F4004101602068016821F4E2
:101040000041016000F05EFA4F4B6168994203D89D
:101050004E49884203D304E04D49884201D2012021
:1010600070BD4C49B0FBF1F12268566826F03F068E
:101070000E43566062689A4201D8491C07E04FF45B
:10108000967251434FF47A72B1FBF2F1491C226817
:10109000166A26F03F06314311626168994210D802
:1010A0004900401EB0FBF1F2521CC2F30B02042AAD
:1010B00001D2042022E0B0FBF1F0401CC0F30B0091
:1010C0001CE0A268F2B301EBC10303EB0116431E5F
:1010D000B3FBF6F35B1C43F480431B0549D092B38A
:1010E00001EBC10202EB0111401EB0FBF1F0401C0C
:1010F000C0F30B0040F4804040F400402168CA690E
:101100004CF6FF739A431043C861D4E907100143BA
:101110002068026822F0C00211430160D4E9030193
:1011200001432068826848F2FF339A43114381608B
:10113000D4E9051001432068C26822F0FF02114380
:10114000C16001E00EE016E02068016841F0010195
:1011500001602564202084F83D00256384F83E501A
:10116000002070BD01EB4106431EB3FBF6F35B1C90
:10117000B3E70120C2E701EB4101401EB0FBF1F0F3
:10118000401CC0F30B00B7E7A086010080841E005E
:1011900000093D0040420F00F0B587B0044614211D
:1011A00002A8FFF759F81D492068884233D100276B
:1011B0001B48016841F004010160016801F004016D
:1011C0000191016841F001010160006800F0010037
:1011D00001904FF4007002901226039604970324A6
:1011E00005940425069502A90E48FFF70DFEA801F7
:1011F0000290039604970594069502A90A48FFF702
:1012000003FE07481030016841F4000101600068E6
:1012100000F40000019007B0F0BD0000005C004049
:101220003038024000080240000002400248816855
:1012300002781144816070472000002010B50B48EF
:10124000016841F400710160016841F4806101604E
:10125000016841F480710160032000F095F80720D7
:1012600000F006F800F026F8002010BD003C024017
:1012700070B504460D4D4FF47A712878B1FBF0F04B
:101280000B490968B1FBF0F000F083FD08B10120C3
:1012900070BD102C07D200222146501E00F054F8D9
:1012A0006C60002070BD012070BD00002000002097
:1012B0002C00002008B51C48016841F48041016001
:1012C000006800F4804000901748001F016841F05A
:1012D00080510160006800F080500090042000F010
:1012E00053F8002201216FF00B0000F02DF80022CE
:1012F00001216FF00A0000F027F8002201216FF0B1
:10130000090000F021F801210022881F00F01CF8DC
:1013100001210022481F00F017F800220121BDE83A
:101320000840C81E00F010B844380240002809DB0D
:1013300000F01F02012191404009800000F1E020EF
:10134000C0F8001170470000F0B40D460D4B1B684B
:10135000C3F30223C3F10704042C00D90424191D8C
:10136000072901D2002300E0DB1E012606FA04F162
:10137000491E294099409E40761E16403143F0BCDC
:1013800003F068B80CED00E000F00701054A1068B2
:101390004FF6FF03184040EA01200349084310605C
:1013A000704700000CED00E00000FA052DE9F04761
:1013B00004460D46002C13D0DFF82891D9F8000020
:1013C000EFB200F00700A8420CD289F80070D9F8FB
:1013D000000000F00700A84204D00120BDE8F0871B
:1013E0000120FBE72068404E810712D5400703D556
:1013F000306840F4E05030602078000703D5306852
:1014000040F4604030603068A16820F0F00008438C
:1014100030602078C00731D033496068083901282E
:1014200008D002280BD0032809D0096889070BD4FB
:101430000120D3E70968890306D40120CEE70968B3
:10144000890101D40120C9E7316821F0030101437A
:101450003160FFF7CFFD804641F2883A07E0FFF7A1
:10146000C9FDA0EB0800504501D90320B6E730685C
:10147000616800F00C00B0EB810FF0D1D9F80000EA
:1014800000F00700A84209D989F80070D9F80000D7
:1014900000F00700A84201D001209FE72078400714
:1014A00005D53068E16820F4E050084330602078CA
:1014B000000706D53068216920F4604040EAC10089
:1014C000306000F03FF83168084AC1F30311515C05
:1014D000C8400749086007480068FFF7C9FE0020B8
:1014E0007CE70000003C02400838024066510008DA
:1014F0002C000020240000200148006870470000F4
:101500002C00002000B5FFF7F7FF04490968044AE2
:10151000C1F38221515CC84000BD00000838024080
:101520007651000800B5FFF7E7FF04490968044A4F
:10153000C1F34231515CC84000BD00000838024090
:101540007651000810B51748006810F00C011648D5
:1015500016D04310042912D0082911D1114C241F90
:10156000216801F03F02216849020AD52068C0F3D2
:101570008810A0FB03010023FEF724FE09E01846B3
:1015800010BD21680023C1F38811A1FB0001FEF703
:1015900019FE2168C1F30141491C4900B0FBF1F07B
:1015A00010BD0000083802400024F4002DE9F84F77
:1015B0000446002C13D02078DFF8A083C007A8F1E0
:1015C000040556D008F104000168C1F38101012926
:1015D0000CD00068C0F38100022803D00DE0012088
:1015E000BDE8F88FD8F80000400206D528688003CF
:1015F0003FD5606870BB0120F2E76068B0F5803FBE
:1016000010D0B0F5A02F12D0286820F480302860C8
:10161000286820F4802028606068E0B1FFF7EAFCC9
:10162000064614E0286840F480302860F4E7286813
:1016300040F480202860286840F480302860EBE780
:10164000FFF7D8FC801B642801D90320C8E728686D
:101650008003F5D50DE0FFF7CDFC064606E0FFF769
:10166000C9FC801B642801D90320B9E728688003DE
:10167000F5D42078BA4F80074FF0000948D5B74815
:10168000001D016811F00C0F08D00068C0F3810044
:10169000022813D1D8F8000040020FD42868800730
:1016A00004D5E068012801D0012099E72868216964
:1016B00020F0F80040EAC100286029E0E068B8B1F5
:1016C00001203860FFF796FC064606E0FFF792FC23
:1016D000801B022801D9032082E728688007F5D5FE
:1016E0002868216920F0F80040EAC10028600FE076
:1016F000C7F80090FFF77EFC064606E0FFF77AFC8D
:10170000801B022801D903206AE728688007F5D4E6
:101710002078000729D5DFF844A2924861690AF1D0
:10172000700A89B101210160FFF764FC064606E0FA
:10173000FFF760FC801B022801D9032050E7DAF88C
:1017400000008007F4D510E0C0F80090FFF752FCCD
:10175000064606E0FFF74EFC801B022801D9032055
:101760003EE7DAF800008007F4D42078400778D507
:101770004FF0000A79483C300068C0000BD477482D
:101780003C30016841F080510160006800F08050F9
:1017900000904FF0010ADFF8D0B1DBF80000C0057F
:1017A00014D4DBF8000040F48070CBF80000FFF7A1
:1017B00021FC064606E0FFF71DFC801B022801D92C
:1017C00003200DE7DBF80000C005F4D5634EA068E8
:1017D0006C3601280FD0052812D0306820F00100A7
:1017E0003060306820F004003060A068F8B1FFF786
:1017F00001FC834617E0306840F001003060F4E7F8
:10180000306840F004003060306840F00100306023
:10181000EBE7FFF7EFFBA0EB0B0141F288308142D1
:1018200001D90320DCE630688007F2D510E0FFF72D
:10183000E1FB834609E0FFF7DDFBA0EB0B0141F282
:101840008830814201D90320CAE630688007F2D48B
:10185000BAF1010F05D141483C30016821F08051B7
:101860000160A069C0B33D49091D09684FF0FF360A
:10187000C1F38101022946D0022805D0C7F8609043
:10188000FFF7B8FB04463AE0C7F86090FFF7B2FBF9
:10189000814607E0FFF7AEFBA0EB0900022801D963
:1018A00003209DE628688001F4D4D4E907010843A9
:1018B000616AA26A890106EB520241EA02410843C9
:1018C00094F82C1040EA0160C8F800000120386646
:1018D000FFF790FB044607E03DE0FFF78BFB001BA2
:1018E000022801D903207BE628688001F5D532E083
:1018F000FFF780FB001B022801D9032070E628684F
:101900008001F5D427E0012823D0D8F80000E2694F
:1019100000F4800191421AD1226A00F03F01914205
:1019200015D147F6C071626A0140B1EB821F0ED13A
:10193000A26A00F4403106EB5202B1EB024F06D12D
:1019400094F82C1000F07060B0EB016F03D0012010
:1019500046E6012044E6002042E60000043802404A
:1019600000004742800E4742007000407047000070
:1019700038B50446206842688168C9434B060AD5D9
:10198000CB0708D1D3435B0605D4216C01B02046B8
:10199000BDE8304008478B0708D4D3431B0605D465
:1019A000616C01B02046BDE8304008478B0603D586
:1019B0004B0601D5CB0551D4D3439B064ED44B06E1
:1019C0000AD494F85130032B49D0636D43F00403DB
:1019D0006365C368836800938B0609D4636D43F025
:1019E0000103636583680093036823F04003036089
:1019F000C80506D4606D40F0080060652068806806
:101A00000090606D002829D02068416821F0E00135
:101A10004160012084F85100900701D4D00722D002
:101A20002068416821F003014160114DE06C40B134
:101A30000565E06CFFF73FF818B1606D40F04000BD
:101A40006065A06C002809D00565A06CFFF733F82D
:101A5000002803D0606D40F04000606538BDC1686B
:101A60008068009038BD2046FFF780FF38BD000039
:101A7000FD33000870B50446002C09D0606A0025CB
:101A800040B125616561A56294F8510040B10CE058
:101A9000012070BD6068B0F5827FF4D0E561F2E7A7
:101AA00084F85050204600F045F8022084F8510098
:101AB0002068016821F040010160A088218900F4BC
:101AC000827001F404410843A18901F400610843D4
:101AD000217C01F002010843217D01F0010108434E
:101AE000218B01F400710843217F01F03801084384
:101AF00094F8201001F080010843218D01F4005179
:101B0000084321680860A069042101EA104094F8A4
:101B1000241001F010010843216848602068C16961
:101B200021F40061C1616565012084F85100002045
:101B300070BD000070B586B00646142101A8FEF7FE
:101B40008BFB2349306888423FD10025214801683A
:101B500041F400410160006800F4004000901D481D
:101B60001038016841F004010160006800F00400D1
:101B700000904FF4A05001900220029003950320A2
:101B800004900620059001A91348FFF73DF9144C75
:101B90001248206065604020A060E560000120617F
:101BA0006561A561E561256265622046FFF77EF803
:101BB00008B1FEF7DBFEB464A663002201213320E6
:101BC000FFF7C2FB3320FFF7B1FB06B070BD00008A
:101BD000003C00404038024000080240886002405B
:101BE000580300202DE9F84F04468A4617461D4643
:101BF000FFF700FA064694F85100012802D00220AF
:101C0000BDE8F88FBAF1000F23D0380021D094F846
:101C1000500001281FD04FF0010984F85090032094
:101C200084F851004FF00008C4F85480C4F830A084
:101C3000A786E786C4F83880A4F83C80A4F83E80E4
:101C4000C4F84480C4F84080A068B0F5004F04D0C8
:101C50000DE00120D4E70220D2E72068016821F0DE
:101C6000400101602068016841F480410160206802
:101C70000168490603D4016841F040010160E06851
:101C8000B0F5006F04D0606888B3012F30D050E009
:101C9000606808B1012F20D1206B21680088C860DE
:101CA000206B801C2063E08E401EE08615E02068DB
:101CB0008168890709D5216B0988C160206B801C68
:101CC0002063E08E401EE08607E0FFF793F9801B5B
:101CD000A84201D3681C04D11DB1E08E0028E6D1D2
:101CE0002AE084F8519084F85080032088E7FFE7C9
:101CF000206B216800780873206B401C2063E08E05
:101D0000401EE08615E020688168890709D5216BAF
:101D100009780173206B401C2063E08E401EE08632
:101D200007E0FFF767F9801BA84201D3681C0ED1BA
:101D30006DB1E08E0028E6D132462946204601F0FA
:101D400065FB08B120206065A06830B109E084F827
:101D5000519084F85080032052E72068C168806861
:101D6000009084F8519084F85080606D08B1012093
:101D700046E7002044E74FF0E021042804D008693A
:101D800020F0040008617047086940F00400086111
:101D9000704710B5401EB0F1807F01D3012010BD07
:101DA0004FF0E02460610F21601702F053FB002028
:101DB000A06107202061002010BD7047704710B55A
:101DC00090F83C20012A22D0012280F83C20CA68E9
:101DD00000238C6822F4407222434C6822F4806213
:101DE00022430C6822F4006222430C6922F48052E0
:101DF00022434C6922F400522243C96922F48042F2
:101E00000A4301684A6480F83C30002010BD02207B
:101E100010BD000070B590F83C20012A31D0012699
:101E200080F83C60022280F83D2002685468936884
:101E300024F070050C682C435460134C0268A242D5
:101E400014D0B2F1804F11D0104CA2420ED0104CE1
:101E5000A2420BD00F4CA24208D00F4CA24205D098
:101E60000E4CA24202D00E4CA24204D123F08003B9
:101E70004968194391603C30467000210170002090
:101E800070BD022070BD0000000001400004004051
:101E900000080040000C00400004014000400140E8
:101EA0000018004010B50446002C03D094F83D0003
:101EB00010B107E0012010BD002084F83C0020464E
:101EC00000F016F8022084F83D00211D206801F082
:101ED000EDFE01203D3460726070A070E0702071F2
:101EE0006071A071E07120722070002010BD0000B0
:101EF00008B500682649884212D12648016841F099
:101F000001010160006800F0010000900022012141
:101F10001920FFF719FABDE808401920FFF706BAA3
:101F20001C491D4A091F904208D1086840F008006A
:101F30000860086800F00800009008BD174A904249
:101F400011D1086840F040000860086800F04000C7
:101F50000090012200212B20FFF7F6F9BDE8084090
:101F60002B20FFF7E3B90E4A9042E6D1086840F40F
:101F700080700860086800F48070009000220121E1
:101F80002D20FFF7E1F9BDE808402D20FFF7CEB97D
:101F90000000014044380240000C0040001800409E
:101FA0000020004090F83D10012901D00120704729
:101FB000022180F83D100168CA6842F00102CA603F
:101FC00000681449884214D0B0F1804F11D01249F2
:101FD00088420ED0114988420BD01149884208D05E
:101FE0001049884205D01049884202D00F498842E2
:101FF00009D1816801F00701062908D0016841F084
:102000000101016003E0016841F00101016000206D
:10201000704700000000014000040040000800403C
:10202000000C004000040140004001400018004046
:1020300070B50446002594F83C00012817D001260D
:1020400084F83C60022084F83D002068826822F019
:10205000770222F47F4282600868502838D00DDC75
:10206000202853D005DC90B3102811D14EE0022077
:1020700070BD30284AD040280AD13DE0602831D0D8
:1020800070280CD0B0F5805F03D0B0F5005F12D09F
:1020900001253C34667000202070284670BDCB6856
:1020A000D1E90121206801F07CFE2068816841F0BF
:1020B00077018160EDE7CB68D1E90121206801F06B
:1020C00070FE2068816841F480418160E1E71DE095
:1020D000CA684968206801F047FF5021206801F074
:1020E0006AFED6E7CA684968206801F04EFF6021A1
:1020F000206801F060FECCE7CA684968206801F0FA
:1021000033FF4021206801F056FEC2E722680146F5
:10211000104601F050FEBCE72DE9F04104460D46A3
:10212000002C03D094F83D0018B108E00120BDE870
:10213000F081002084F83C00204600F047F802209F
:1021400084F83D002068816844F207029143816071
:10215000211D206801F0AAFD273454F8270C81685E
:102160008269066A2B680B4340F203318A43AF69E8
:10217000A96842EA0722114340F60C4291434FF20C
:10218000F0029143EF69EA6841EA07210A432969AD
:102190002F6A090141EA0731114326F0220222F099
:1021A00088066A686D6946EA05152A43836054F813
:1021B000270C816154F8270C02620120E077E0755A
:1021C0002076E0762077A0750020B0E730B587B0A4
:1021D0000446142102A8FEF73FF82349214D206848
:1021E0000024214A10390223A8421BD1106840F074
:1021F00002001060106800F002000190086840F0D2
:1022000004000860086800F004000190C0200290FB
:10221000039304940594069302A91448FEF7F4FD71
:1022200007B030BD124DA842FAD1106840F004004A
:102230001060106800F004000190086840F0080089
:102240000860086800F0080001904FF440500290C8
:10225000039304940594069302A90648FEF7D4FD5F
:10226000DEE7000000040040403802400008024061
:1022700000080040000C024070B5044614F83E0F00
:102280006278237965793E3C0226002904D004292E
:102290000DD001281CD115E0012801D1012B01D05E
:1022A000012070BD84F83E6084F8426018E0012A85
:1022B00001D1012D01D0012070BD84F83F6084F868
:1022C00043600DE0012A03D1012B01D1012D01D082
:1022D000012070BD04F83E6F6670267166713E3C49
:1022E00091B1042916D001220021206801F04CFD93
:1022F00001220421206801F047FD2068016841F0B7
:1023000001010160002070BD01220021206801F060
:102310003BFDF2E701220421206801F035FDECE7E6
:1023200070472DE9F04104462068C56806694FF002
:102330000007B10714D5A90712D5F91E01610120C4
:10234000207720688069800703D02046FFF7E8FFE8
:1023500005E0204600F0C4F8204600F054F9277745
:10236000700717D5680715D521686FF0040008615C
:10237000022020772068806910F4407F03D0204637
:10238000FFF7CEFF05E0204600F0AAF8204600F057
:102390003AF92777300716D5280714D521686FF04A
:1023A00008000861042020772068C069800703D0F6
:1023B0002046FFF7B5FF05E0204600F091F82046E3
:1023C00000F021F92777F00617D5E80615D5216822
:1023D0006FF010000861082020772068C06910F4B1
:1023E000407F03D02046FFF79BFF05E0204600F02A
:1023F00077F8204600F007F92777F00708D0E807BC
:1024000006D021686FF001000861204600F06AF9EB
:10241000300608D5280606D521686FF080000861CF
:102420002046FFF7CAFC700608D5680606D5216865
:102430006FF040000861204600F0D0F9B0060AD5E0
:10244000A80608D521686FF0200008612046BDE885
:10245000F041FFF7B3BCBDE8F081000030B587B0B4
:102460000446142102A8FDF7F7FE184D206800224B
:10247000174902230124A84213D1086840F0100034
:102480000860086800F0100001904815029003935E
:1024900004920592069402A90E48FEF7B5FC07B017
:1024A00030BD0D4DA842FAD1086840F00100086027
:1024B000086800F0010001900294039304920592D1
:1024C000069302A90548FEF79FFCE8E700000140DB
:1024D0003038024000100240000C00400000024072
:1024E000704770B504460D46002694F83C0001285C
:1024F0000FD0012084F83C006AB1042A1FD0082ABA
:1025000032D00C2A44D00126002084F83C0030460A
:1025100070BD022070BD2946206801F055FC20687E
:10252000816941F0080181612068816921F004011D
:102530008161206881692A6911438161E4E7294644
:10254000206801F075FC2068816941F400618161B7
:102550002068816921F480618161206881692A692C
:1025600041EA02218161CFE72946206801F09AFC07
:102570002068C16941F00801C1612068C16921F08A
:102580000401C1612068C1692A691143C161BBE7C7
:102590002946206801F0BEFC2068C16941F4006151
:1025A000C1612068C16921F48061C1612068C1698D
:1025B0002A6941EA0221C161A6E710B50446002C50
:1025C00003D094F83D0010B107E0012010BD0020B9
:1025D00084F83C00204600F015F8022084F83D0005
:1025E000211D206801F062FB01203D3460726070A3
:1025F000A070E07020716071A071E0712072207095
:10260000002010BD7047704710B50446002909D05E
:1026100004290AD008290BD094F8410001280AD0D7
:10262000012010BD94F83E00F8E794F83F00F5E76C
:1026300094F84000F2E70220A9B3042937D0082912
:1026400038D084F841000122206801F09DFB1E492A
:1026500020681E4A884201D0904203D1436C43F463
:10266000004343642068884213D0B0F1804F10D0FB
:10267000174988420DD0174988420AD01649884226
:1026800007D0904205D01549884202D014498842AB
:1026900013D1816801F00701062912D0016841F0C9
:1026A000010101600DE0FFE784F83E00CBE784F80C
:1026B0003F00C8E784F84000C5E7016841F0010128
:1026C0000160002010BD0000000001400004014036
:1026D0000004004000080040000C004000400140A1
:1026E000001800407FB505462F4885421BD12F4872
:1026F000FEF75AF92D4800F027FF2D4C2088401C8A
:1027000081B221806088401C60800026022903D1AC
:102710002680264800F060FF60880A2803D1668082
:10272000224800F045FF2048483085423AD11F4CEE
:10273000E0688068406BFDF79AFDCDE902011DA0BD
:102740000225CDE900504FF6FF76002233463021B6
:10275000104601F049F9E068DFED190AC06890ED14
:102760000D0A20EE200A10EE100AFDF780FDCDE9DB
:10277000020114A0CDE90050002233464821104642
:1027800001F032F9E0680068406BFDF770FDCDE9BB
:1027900002010FA0CDE9005000223346602110460F
:1027A00001F022F97FBD0000D804002008020020BB
:1027B00018000020414F55543A20256620000000A3
:1027C0000000C84241534F55543A2025662000006E
:1027D0004F55543A2025662000000000704738B558
:1027E000044694F84200202801D0022038BD51B19F
:1027F0004AB10120206300206063204601F086FD7D
:10280000014611B105E0012038BD206B012802D03E
:102810000121084638BD20680268406800902068A1
:102820000C3050E8002F42F0100240E80023002B4B
:10283000F5D1EEE710B500680649884209D106498E
:102840000648FEF795F8BDE8104080210248FDF7E4
:1028500003BD10BD004800402C02002008020020EB
:1028600070470000F8B5044622681068D1685369C3
:1028700000F00F06002E08D1850606D58D0604D57A
:102880002046BDE8F84001F053BC0025002E66D07C
:1028900003F0010601F49077374360D0C20705D0FA
:1028A000CA0503D5626C42F001026264420705D595
:1028B000DA0703D0626C42F002026264820705D537
:1028C000DA0703D0626C42F004026264020707D5A3
:1028D00001F02002324303D0626C42F008026264CD
:1028E000626C002A31D0800604D5880602D52046C5
:1028F00001F01EFC20684069C0F38010616C09077C
:1029000000D438B3204601F0D1FB2068406940066E
:102910001CD52068143050E8001F21F0400140E829
:102920000012002AF5D1E06B60B159490165E06BF6
:10293000FEF7C1F8002808D0E06B016D01B0BDE8DA
:10294000F04008472046FFF78BFFF8BD2046FFF711
:1029500087FFF8BD2046FFF783FF6564F8BD236B52
:10296000012B7DD1C3067BD5CB067FD5106850687F
:10297000009050694FF0200340064FF0020644D506
:10298000E16B0868406880B20028E7D0A28D8242DF
:10299000E4D9E085C869B0F5807F2DD020680C307F
:1029A00050E8001F21F4807140E80012002AF5D1A0
:1029B0002068143050E8001F21F0010140E80012A7
:1029C000002AF5D12068143050E8001F21F04001A2
:1029D00040E80012002AF5D184F8423025632068CF
:1029E0000C3050E8001F21F0100140E80012002ACE
:1029F000F5D1E06BFEF718F86663A08DE18D401A03
:102A000081B22046FFF716FFF8BDA08DE18D401A78
:102A100081B2E08D0028F7D00029F5D020680C3075
:102A200050E8002F22F4907240E80027002FF5D1E3
:102A30002068143050E8002F22F0010240E80027FF
:102A4000002FF5D184F84230256320680C3050E81F
:102A5000002F22F0100240E80023002BF5D100E007
:102A600004E066632046FFF7E5FEF8BD020606D5E2
:102A70000A0604D52046BDE8F84001F091BC4006A6
:102A8000F3D54806F1D52046BDE8F84001F035BB46
:102A9000AF3F000870B50446002C04D094F8410004
:102AA000002510B106E0012070BD84F8405020469A
:102AB00000F024F8242084F841002068C16821F443
:102AC0000051C160204601F097FB2068016921F4A4
:102AD000904101612068416921F02A01416120682B
:102AE000C16841F40051C1606564202084F8410050
:102AF00084F842006563002070BD00002DE9F04FAE
:102B000087B00446142102A8FDF7A6FB8648854A33
:102B10002168002507154FF002084FF003094FF018
:102B2000070A4FF0400B4FF00066914270D17E498A
:102B300014310A6842F010020A60096801F01001BD
:102B40000191016841F001010160006800F001009D
:102B500001904FF4C0600290CDF80C800495CDF840
:102B60001490CDF818A002A97048FEF74DF9DFF8CF
:102B7000C4816F48C8F80000C8F80460C8F808505D
:102B8000C8F80C50C8F81070C8F81450C8F818509D
:102B9000C8F81C50C8F82050C8F824504046FEF72A
:102BA00085F808B1FDF7E2FEC4F83C80C8F838406B
:102BB000DFF880815E4808F160087830C8F80000CE
:102BC000C8F80460C8F808B0C8F80C50C8F810700D
:102BD000C8F81450C8F81850C8F81C50C8F820504D
:102BE000C8F824504046FEF761F808B1FDF7BEFE74
:102BF000C4F83880C8F83840002201212520FEF7AB
:102C0000A3FB2520FEF792FB07B0BDE8F08FFFE79E
:102C1000494A9142F8D1444910310A6842F480226D
:102C20000A60096801F480210191016841F0020104
:102C30000160016801F002010191016841F00801A1
:102C40000160006800F0080001904FF400600290FD
:102C5000CDF80C800495CDF81490CDF818A002A9F9
:102C60003648FEF7D1F84FF480700290CDF80C8012
:102C70000495CDF81490CDF818A002A93048FEF7BD
:102C8000C3F8DFF8B0802F4808F1C008C8F800008A
:102C9000C8F80460C8F80850C8F80C50C8F810709C
:102CA000C8F81450C8F81850C8F81C504FF44039F0
:102CB000C8F82090C8F824504046FDF7F7FF08B147
:102CC000FDF754FEC4F83C80C8F838401D48DFF8D2
:102CD00078803030C8F80000C8F80460C8F808B040
:102CE000C8F80C50C8F81070C8F81450C8F818503C
:102CF000C8F81C50C8F82090C8F824504046FDF78A
:102D0000D5FF08B1FDF732FEC4F83880C8F8384066
:102D1000002211462720FEF717FB2720FEF706FBAF
:102D200072E700000010014030380240000002400D
:102D300040640240C00600200048004000040240F9
:102D4000000C024028600240E007002070477047F6
:102D50007047FEE708B51D48016841F48001016035
:102D6000016801F480010091016841F400110160E3
:102D7000006800F400100090002211460C20FEF7BD
:102D8000E3FA0C20FEF7D2FA002201210E20FEF712
:102D9000DBFA0E20FEF7CAFA002201211020FEF70E
:102DA000D3FA1020FEF7C2FA002201213A20FEF7E2
:102DB000CBFA3A20FEF7BAFA002201214620FEF7AC
:102DC000C3FABDE808404620FEF7B0BA30380240EA
:102DD0002DE9F04F87B0142102A8FDF73DFA002538
:102DE0005548016841F080010160016801F08001EF
:102DF0000191016841F001010160016801F00101E8
:102E00000191016841F010010160016801F01001B9
:102E10000191016841F002010160016801F00201C5
:102E20000191016841F008010160016801F00801A9
:102E30000191016841F004010160006800F00400A4
:102E40000190DFF8F880002248F206014046FEF7C4
:102E5000CAF8DFF8EC904FF4C076002231464846BD
:102E6000FEF7C1F8DFF8DCA04FF400670022394616
:102E70005046FEF7B8F8DFF8D0B0012211465846A8
:102E8000FEF7B1F801224FF490713048FEF7ABF82D
:102E900006200290012403940495059502A940465A
:102EA000FDF7B2FF029603940495059502A94846E2
:102EB000FDF7AAFF200302904FF40410039004943E
:102EC00002A92248FDF7A0FFE003029003940494B6
:102ED000059502A94046FDF797FF029703940494D5
:102EE000059502A95046FDF78FFF029403940494C0
:102EF000059502A95846FDF787FF2020029003940C
:102F00000494059502A91148FDF77EFF2002029066
:102F1000112003900495059502A90C48FDF774FF54
:102F2000002201212820FEF70FFA2820FEF7FEF9E3
:102F300007B0BDE8F08F00003038024000000240CA
:102F40000010024000080240000C02400004024051
:102F500010B50D480B4901600C49416000218160AA
:102F6000C1604FF48042026141618161C1610162CF
:102F7000FEF746F8002803D0BDE81040FDF7F6BC88
:102F800010BD0000005C0040AC020020A0860100E3
:102F900010B511480F4901604FF4827141604FF440
:102FA000004181600021C160016141614FF4007204
:102FB00082611022C2610162416281620A21C162A2
:102FC000FEF758FD002803D0BDE81040FDF7CEBC49
:102FD00010BD0000003C0040000300201FB5002091
:102FE00000900190029003900F490E4A0A6053220C
:102FF0004A60886040F2E732CA600861886108462A
:10300000FEF750FF08B1FDF7B1FC4FF4805000907F
:1030100069460548FFF70CF8002801D0FDF7A6FC2B
:103020001FBD000000180040D804002010B50B4858
:1030300009490160532141600021816041F28732DA
:10304000C26001618161FEF72DFF002803D0BDE859
:103050001040FDF78BBC10BD002000402005002073
:1030600010B596B0002412941394149415941094EF
:1030700011941C2109A8FDF7EFF8202101A8FDF704
:10308000EBF82848264901605321416084606321A0
:10309000C160046144618461FEF704FF08B1FDF77B
:1030A00065FC4FF48050129012A91E48FEF7C0FF35
:1030B00008B1FDF75BFC1B48FFF77FFA08B1FDF78D
:1030C00055FC1094119410A91648FEF7A3FE08B100
:1030D000FDF74CFC602009900A940B940C940D941D
:1030E0000E940F94002209A90E48FFF7FAF908B1CF
:1030F000FDF73CFC019402940394049405944FF46E
:1031000000500690089401A90648FEF758FE08B141
:10311000FDF72CFC0348FFF7A1F916B010BD000025
:1031200000000140B803002010B58CB0242103A892
:10313000FDF792F8002401940294144812490160AA
:10314000446084604FF6FF71C160046184610120B6
:1031500003900494059006940794089409900A94A7
:103160000B9403A90948FEF7D7FF08B1FDF7FEFB52
:103170000194029401A90548FEF74CFE002801D0F5
:10318000FDF7F4FB0CB010BD00040040000400206B
:1031900010B58CB0242103A8FDF75EF8002401943B
:1031A0000294144812490160446084604FF6FF7134
:1031B000C160046184610120039004940590069429
:1031C0000794089409900A940B9403A90948FEF700
:1031D000A3FF08B1FDF7CAFB0194029401A90548B9
:1031E000FEF718FE002801D0FDF7C0FB0CB010BDA3
:1031F000000800404804002010B58EB000240A9456
:103200000B940C940D94089409941C2101A8FDF7CB
:1032100023F81E481C4901605321416084606321EA
:10322000C16004618461FEF73DFE08B1FDF79EFBBD
:103230004FF480500A900AA91448FEF7F9FE08B12D
:10324000FDF794FB1148FFF7B8F908B1FDF78EFBC5
:103250000894099408A90D48FEF7DCFD08B1FDF7B4
:1032600085FB60200190029403940594002201A93B
:103270000648FFF736F908B1FDF778FB0348FFF77A
:10328000EDF80EB010BD0000000C004090040020CE
:1032900010B50C480A4901604FF4E131416000214A
:1032A0008160C16001610C2242618161C161FFF7EF
:1032B000F1FB002803D0BDE81040FDF757BB10BD5F
:1032C000001001403006002010B50C480A4901608A
:1032D0004FF4E121416000218160C16001610C2255
:1032E00042618161C161FFF7D5FB002803D0BDE8D1
:1032F0001040FDF73BBB10BD0048004078060020A1
:10330000FEE700002DE9F04104460E466542012E1D
:103310001DD1DFF88080204F002C0CDB012204211E
:103320004046FDF760FE002202214046FDF75BFEAD
:10333000386844630BE0002204214046FDF753FE49
:10334000012202214046FDF74EFE38684563F6B97A
:10335000124F134E4FF48078002C0CDB0122802199
:103360003846FDF740FE002241463846FDF73BFE59
:10337000306844630BE0002280213846FDF733FEBD
:10338000012241463846FDF72EFE30684563002095
:10339000BDE8F081000002409004002000100240CF
:1033A000B803002010B5002805D0012809D0022854
:1033B0000DD0012010BD00210A48FFF725F900209B
:1033C00010BD00210848FFF71FF9002010BD0021A3
:1033D0000448FFF719F900210348FFF715F9002009
:1033E00010BD0000B803002090040020FEE77047E5
:1033F0000148FEF7BDBA00000003002010B5806B45
:103400000021C187C186FEF7B1FA10BD7CB5044624
:103410000E4615463346012202212046009500F053
:1034200033F828B1606D40F02000606503207CBD5A
:10343000134814490068B0FBF1F04FF47A71484327
:1034400001906068B0F5827F0DD133460022802163
:103450002046009500F018F878B1606D40F020002B
:10346000606503207CBD019838B10198401E019031
:1034700020688068C0430006F5D500207CBD0000B0
:103480002C00002000366E012DE9F84304460F465B
:1034900091461E46089DFDF7ADFD401B351AFDF710
:1034A000A9FD804626480068C0F3CB3068430090F1
:1034B0003AE0701C38D0FDF79DFDA0EB0800A84253
:1034C00003D215B1009858B32BE02068416821F071
:1034D000E00141606068B0F5827F0BD1A068B0F573
:1034E000004F02D0B0F5806F04D12068016821F050
:1034F00040010160A06AB0F5005F09D12068016851
:1035000021F4005101602068016841F4005101601C
:10351000012050346070002020700320BDE8F88343
:1035200000250098401E00902068806837EA00005F
:1035300004D000204845BCD10020EFE70120F9E786
:103540002C0000207047000010B504466068017A26
:10355000012911D190ED010AE0680068016E13485D
:103560008847E0680021006890ED0D0ABDEEC00AB2
:1035700010EE100AFFF7C6FEA068017A012914D1E7
:1035800090ED010AE0684068016E084864308847A1
:10359000E0680121406890ED0D0ABDE81040BDEEE5
:1035A000C00A10EE100AFFF7ADBE10BD34000020B7
:1035B00010B50446206890ED000AE0688068016E4E
:1035C00004488847E0688168C06891ED0D0A80ED85
:1035D000010A10BDFC00002010B50446DFED110A01
:1035E0002068B0F90C0000EE100AE068B8EEC00ADE
:1035F000C068016E20EE200A0B488847E068C16869
:10360000006891ED0D0AB1EE400A80ED010AE06814
:10361000C168406891ED0D0AB1EE400A80ED010AE3
:1036200010BD00000C007A3D60010020FDF7FEBDDA
:1036300030B593B0302107A8FCF70EFE142102A884
:10364000FCF70AFE00251D48016841F08051016029
:10365000006800F0805001901948016841F48041F1
:103660000160006800F48040019001200790000490
:10367000089002240D9480010E9004200F90A82140
:1036800010911194129007A8FDF790FF08B1FDF773
:103690006DF90F200290039404954FF4A05005900B
:1036A0004FF480500690052102A8FDF77FFE002808
:1036B00001D0FDF75BF913B030BD00004038024087
:1036C000007000400248016841F4700101607047D9
:1036D00088ED00E010B52A2000F048F9002000F045
:1036E0002BF9002000F028F9002000F025F9EF2048
:1036F00000F022F92B2000F039F9002000F01CF92D
:10370000002000F019F9002000F016F9EF2000F079
:1037100013F9BDE810402C2000F028B9F8B5044694
:10372000FFF7D8FF002000900122D1020B48FDF7DF
:103730005AFC200A8DF800008DF8014000244FF655
:10374000FF764FF461453346022269460448FEF78E
:1037500049FA641CAC42F6D3F8BD000000080240F0
:103760000003002010B5642001F0E8FA142001F0F5
:10377000E5FA0A2001F0E2FA112000F0F7F80A2039
:1037800001F0DCFA3A2000F0F1F8052000F0D4F85E
:10379000B22000F0EBF80C2000F0CEF80C2000F086
:1037A000CBF8002000F0C8F8332000F0C5F8332033
:1037B00000F0C2F8B72000F0D9F8352000F0BCF8CE
:1037C000BB2000F0D3F8322000F0B6F8C22000F0A1
:1037D000CDF8012000F0B0F8C32000F0C7F81520A4
:1037E00000F0AAF8C42000F0C1F8202000F0A4F8EE
:1037F000C62000F0BBF80F2000F09EF8D02000F0AB
:10380000B5F8A42000F098F8A12000F095F8E02089
:1038100000F0ACF8D02000F08FF8082000F08CF811
:103820000E2000F089F8092000F086F8092000F049
:1038300083F8052000F080F8312000F07DF8332077
:1038400000F07AF8482000F077F8172000F074F8BC
:10385000142000F071F8152000F06EF8312000F00F
:103860006BF8342000F068F8E12000F07FF8D020F9
:1038700000F062F8082000F05FF80E2000F05CF81D
:10388000092000F059F8092000F056F8152000F042
:1038900053F8312000F050F8332000F04DF8482064
:1038A00000F04AF8172000F047F8142000F044F820
:1038B000152000F041F8312000F03EF8342000F0EF
:1038C0003BF8362000F052F8702000F035F8212047
:1038D00000F04CF8292000F049F8BDE810404FF600
:1038E000FF70FFF71BBF2DE9F04106460C46154659
:1038F0001F462A2000F03AF8002000F01DF8F0B230
:1039000000F01AF8002000F017F8E8B200F014F800
:103910002B2000F02BF8002000F00EF8E0B200F0B1
:103920000BF8002000F008F8F8B200F005F8BDE848
:10393000F0412C2000F01AB801B50122D10208484C
:10394000FDF751FB00224FF400410648FDF74BFB09
:103950004FF6FF73012269460348FEF743F908BD9D
:1039600000080240000002400003002001B50022D0
:103970004FF400610848FDF736FB00224FF4004188
:103980000648FDF730FB4FF6FF73012269460448F5
:10399000FEF728F908BD00000008024000000240C0
:1039A0000003002038B504460020009000224FF4A8
:1039B00000410A48FDF717FB0122D1020848FDF734
:1039C00012FB200A8DF800008DF801404FF6FF73BE
:1039D000022269460348FEF705F938BD000002409F
:1039E00000080240000300202DE9F0418AB006469D
:1039F000109D0F4690461C4612AA02A8119900F08D
:103A000017FD434602AA39463046CDE9004500F08D
:103A1000E7F80AB0BDE8F0812DE9F05F1E46DDE968
:103A20000A73A2F120046A4A01F1010C4FF0FF3B36
:103A3000012504EB440A0BEBCC0802EB8A09002BAE
:103A400018D0012B39D0022B5CD0032B78D01FFA71
:103A500088F3421DFFF747FF4FF00008002405FAE6
:103A600008FA39F8140010EA0A0F6AD03046FFF756
:103A700099FF9FE01FFA88F3421DFFF734FF4FF0D4
:103A80000008002405FA08FA39F8140010EA0A0FB1
:103A900003D03046FFF786FF02E03846FFF782FF8B
:103AA000641CA4B2062CEFD308F101081FFA88F8B1
:103AB000B8F1080FE5D3BDE8F09F0BEB0C1293B201
:103AC000C21DFFF710FF4FF00008424800EB4419F9
:103AD000002439F8180005FA04F1084203D03046F2
:103AE000FFF760FF02E03846FFF75CFF641CA4B2FA
:103AF000082CEED308F101081FFA88F8B8F1100F6E
:103B0000E6D3D8E70CEB4C020BEBC20293B200F108
:103B10000B02FFF7E8FE4FF000082F4800EB4A19B0
:103B200000245FEAC87001D0042C12D239F81800C2
:103B300005FA04F1084205D03046FFF733FF04E0F0
:103B40000FE034E03846FFF72DFF641CA4B2082CC8
:103B5000E7D308F101081FFA88F8B8F1300FDFD376
:103B6000A9E70BEB4C1293B200F10F02FFF7BBFE7B
:103B70004FF00008194800EBC419002439F8180068
:103B800005FA04F1084203D03046FFF70BFF02E0CC
:103B90003846FFF707FF641CA4B2082CEED308F1E7
:103BA00001081FFA88F8B8F1400FE6D383E73846DA
:103BB000FFF7F8FE641CA4B2062CFFF452AF08F124
:103BC00001081FFA88F8B8F1080FFFF447AF72E751
:103BD0007E510008F2550008D26100087285000885
:103BE0002DE9FC470546DDE90A600F461446984674
:103BF000002807D0012817D0022826D0032811D189
:103C000081463DE04FF0000909E0CDE90069641C00
:103C1000434639462846FFF7FFFEAD1DEDB2227838
:103C2000002AF2D1BDE8FC874FF0010909E0CDE997
:103C30000069641C434639462846FFF7EDFE083507
:103C4000EDB22278002AF2D1ECE74FF0020909E048
:103C5000CDE90069641C434639462846FFF7DCFE7F
:103C60000C35EDB22278002AF2D1DBE7CDE900690C
:103C7000641C434639462846FFF7CEFE1035EDB2A8
:103C80002278002AF2D1CDE70148FEF74ABB0000B6
:103C9000B80300200148FEF744BB0000D804002010
:103CA0000148FEF73EBB0000200500202DE9F04151
:103CB00002682A4D2A4E2B4FDFF8ACC02B4B4FF039
:103CC0008048A84209D0404507D0B04205D0B8424C
:103CD00003D0604501D0984203D122F070044A68B5
:103CE0002243A8421BD0404519D0B04217D0B84259
:103CF00015D0604513D0984211D01D4CA0420ED073
:103D00001C4CA0420BD01C4CA04208D01B4CA04223
:103D100005D01B4CA04202D01A4CA04203D122F481
:103D20004074CA6822434C6922F080022243026038
:103D30008A68C2620A688262A84201D0984201D1B0
:103D400009690163012141610169C90703D0016962
:103D500021F001010161BDE8F08100000000014097
:103D60000004004000080040000C00400004014036
:103D7000004001400044014000480140001800405C
:103D8000001C00400020004010B501F01F0101237D
:103D90008B40046A9C430462036A8A4013430362B3
:103DA00010BD10B5846824F47F4442EA03220A431C
:103DB0002243826010BD826822F070020A4342F002
:103DC0000701816070470000F0B5056A026A22F0C1
:103DD000010202624368826922F0700222F003024B
:103DE0000C68144325F002058A682A430E4E0F4FD3
:103DF000B04201D0B84205D122F00805CA682A4372
:103E000022F00402B04201D0B84207D123F48073FB
:103E100023F400734D691D438B692B434360846118
:103E2000496841630262F0BD0000014000040140A6
:103E3000F0B5026A036A23F01003036243688469E1
:103E400024F4E04424F440740D6844EA052422F08C
:103E500020028D6842EA0512104D114EA84201D091
:103E6000B04206D122F08002CF6842EA071222F067
:103E70004002A84201D0B04209D123F4806323F468
:103E800000634D6943EA85038D6943EA8503436016
:103E90008461496881630262F0BD00000000014056
:103EA00000040140F0B5026A036A23F480730362E0
:103EB0004368C46924F0700424F003050C682C43A3
:103EC00022F400728D6842EA0522104D104EA8427D
:103ED00001D0B04206D122F40062CF6842EA072244
:103EE00022F48062A84201D0B04209D123F4805369
:103EF00023F400534D6943EA05138D6943EA051322
:103F00004360C4614968C1630262F0BD00000140C2
:103F10000004014030B5036A026A22F48052026252
:103F20004268C46924F4E04424F440740D6844EA0F
:103F3000052423F400538D6843EA0533084DA84255
:103F400002D0084DA84204D122F480424D6942EAD1
:103F500085124260C46149680164036230BD00009B
:103F6000000001400004014010B5036A046A24F017
:103F700001040462846924F0F00444EA021423F08A
:103F80000A020A438461026210BD10B5036A046A22
:103F900024F010040462846924F4704444EA023278
:103FA00023F0A00343EA01118261016210BD10B544
:103FB000806B0021C185C184FEF752FC10BD70B535
:103FC000846B20684069C0F3C01094F8411000254C
:103FD000212904D118B1E584204600F09BF820681F
:103FE0004069C0F3801094F84210222904D118B11E
:103FF000E585204600F05AF8606C40F010006064DF
:104000002046FEF72DFC70BD10B50146886B09688F
:1040100009684FF00003C9052ED4C38501680C312F
:1040200051E8002F22F4807241E80024002CF5D1E1
:104030000168143151E8002F22F0010241E8002408
:10404000002CF5D10168143151E8002F22F0400214
:1040500041E80024002CF5D1202180F84210016BAA
:10406000012909D101680C3151E8002F22F010021A
:1040700041E80024002CF5D14363016B012902D0F3
:10408000FEF764FE10BD818DFEF7D4FB10BD10B5A8
:10409000806B01214163016B012902D0FEF757FEBD
:1040A00010BD818D4908FEF7C5FB10BD01680C31BC
:1040B00051E8002F22F4907241E80023002BF5D143
:1040C0000168143151E8002F22F0010241E8002379
:1040D000002BF5D1016B012909D101680C3151E8A0
:1040E000002F22F0100241E80023002BF5D12021FF
:1040F00080F8421000210163704710B50168CA685A
:1041000022F04002CA60202180F84110FEF720FE14
:10411000002010BD01680C3151E8002F22F0C002D0
:1041200041E80023002BF5D1202180F84110704791
:1041300008B590F84210222901D0022008BD8268FB
:104140004FF480539A4201D1016921B1816A9A42A8
:104150001DD052B10BE0816A02685268C2F30802B6
:104160000A80816A891C816209E002697AB1026869
:10417000526802F07F020A70816A491C8162C18D17
:10418000491E0904090CC18505D0002008BD02683C
:1041900052680A70F0E70168CA6822F02002CA601B
:1041A0000168CA6822F48072CA6001684A6922F014
:1041B00001024A61202180F8421000214163026B14
:1041C000012A03D0FEF7C2FD002008BD016301688B
:1041D0000C3151E8002F22F0100241E80023002B9F
:1041E000F5D101680A68D20602D50A6849680091CB
:1041F000818DFEF71FFBE7E72DE9F04104462068BB
:104200000169E26821F4405111430161A16820690C
:10421000E26901436069104301432068C26849F2C2
:104220000C639A430A43C26020684169A26921F481
:1042300040711143416133492068884202D03249BC
:10424000884202D1FDF76EF901E0FDF75BF9E16903
:104250000023192764253226B1F5004F28D0616864
:104260008B0F8A00A0FB0701FBF7ACFF0146B0FBF8
:10427000F5F07A42504301EB800006EB0010B0FBF2
:10428000F5F000F0F002B1FBF5F002EB0012B1FB2B
:10429000F5F07B42584301EB800006EB0010B0FBC9
:1042A000F5F0216800F00F0010448860BDE8F0814F
:1042B00061684A18A0FB07015B41FBF783FF0146D9
:1042C000B0FBF5F00201B1FBF5F06FF018035843B5
:1042D00001EB800006EBC000B0FBF5F000F0F80049
:1042E00002EB4002B1FBF5F0584301EB800006EB16
:1042F000C000B0FBF5F0216800F0070010448860B2
:10430000D4E70000001001400014014037B582B02E
:1043100004461346039AA262A3850020606422210A
:1043200084F84210E56B1B49E963E56B1A4929647F
:10433000E56B1A49E964E16B08652168E06B091DCA
:10434000FCF71EFD2068016840680190206948B1B3
:1043500020680C3050E8001F41F4807140E80012E2
:10436000002AF5D12068143050E8001F41F0010107
:1043700040E80012002AF5D12068143050E8001FF0
:1043800041F0400140E80012002AF5D105B00020BC
:1043900030BD0000094000088F400008BF3F000802
:1043A00090F84110212901D0022070478168B1F5B1
:1043B000805F01D1016961B1016A4A1C0262026831
:1043C00009785160C18C491E0904090CC1840AD0C6
:1043D00013E0016A02680988C1F308015160016AAB
:1043E000891C0162EEE70168CA6822F08002CA6097
:1043F0000068C16841F04001C160002070470000C2
:104400000148FEF72FBA00003006002010B505481D
:10441000FEF728FABDE81040802203490148FEF764
:10442000DEB90000780600202C020020FEE7000024
:1044300037B514460846064B6A46214600F0ECF8AC
:1044400004466946002000F06AFC20463EBD00009C
:104450001F4D00080907090E002804DB00F1E020C9
:1044600080F80014704700F00F0000F1E02080F8A1
:10447000141D704702E008C8121F08C1002AFAD1B3
:1044800070477047002001E001C1121F002AFBD1D4
:10449000704700002DE9FF5F82B00021DDE90430A4
:1044A000020DDDF840B0034318D044F61050A2F2DC
:1044B000FF3242431514119801281FD0A5EB0B00C1
:1044C000401C5FEA000A4FF000064E4FDFF83891BB
:1044D000B046504615D5CAF1000413E011980124E6
:1044E0004AA3012801D16FEA0B010298119AC0E991
:1044F0000031C0E9024206B0BDE8F09FCBF10000F8
:10450000DFE704460021404A491842EB0450CDE958
:10451000001012E0E00707D032463B4640464946CD
:10452000FBF7ACFF8046894632463B4610461946AB
:10453000FBF7A4FF06460F466410002CEAD1DDE924
:104540000401DDE90023BAF1000F06DAFBF796FF5C
:1045500042464B46FBF792FF05E0FCF701F8424666
:104560004B46FBF7FDFF04460E460022284BFBF7A7
:1045700091FE03D84FF0FF30014607E00022254BA3
:1045800020463146FBF7D3FEFCF759F8102409E02A
:10459000002C0ADB0A220023FBF714FE039B3032B7
:1045A0001A55641E50EA0102F2D1641C039AC4F148
:1045B00011031444119A012A03D0012208430DD19A
:1045C0000AE0084304D000204FF0110B119072E76D
:1045D000A3EB0B056D1E0DE05B4504DD4FF0000203
:1045E00005F1010504E003DA4FF00002A5F1010531
:1045F000002AECD002981199C0E90231C0E90045C7
:1046000079E70000000014400000F03F3000000097
:104610000000F0430000E03F2DE9FF4F95B09A46BF
:10462000884606460025EEE1252877D10024274656
:10463000F94A0121039400E0044316F8013F203BAE
:1046400001FA03F01042F7D130782A2811D06FF028
:104650002F033078A0F13002092A16D8039A44F0CB
:10466000020402EB820203EB42021044761C039028
:10467000EFE758F8042B0392002A03DA504244F47F
:104680000054039044F00204761C30782E2816D192
:1046900016F8010F44F004042A280DD06FF02F0201
:1046A0003078A0F13003092B09D807EB870302EB20
:1046B0004303C718761CF3E758F8047B761C307860
:1046C0006C280FD006DC4C2817D068280DD06A283B
:1046D00014D104E0742810D07A280FD10DE044F4EE
:1046E00000140AE044F4801401E044F440147278A9
:1046F000824202D104F58014761C761C307866283C
:104700000BD013DC582877D009DC002875D0452859
:10471000F6D04628F4D047281AD193E118E0632850
:1047200035D0642879D0652812D18BE1702873D0F8
:1047300008DC6728F1D069286FD06E280DD06F286B
:1047400006D1ACE073282CD0752874D0782853D0CB
:104750005246179990476D1C54E1C4F30250022849
:1047600009D003280DD0D8F8001004280DD00D6012
:1047700008F1040846E1D8F80010EA17C1E9005230
:10478000F6E7D8F800100D80F2E70D70F0E718F8A2
:10479000041B8DF8001000208DF80100EB4601206D
:1047A00003E058F804BB4FF0FF3061074FF0000101
:1047B00002D40DE009F101018946B9420FDA8145C1
:1047C000F8DB1BF809100029F4D108E009F1010118
:1047D00089468142FADB1BF809100029F6D10398BB
:1047E0005346A0EB090721463846179A00F080FA95
:1047F000284400EB090507E044E008E10DE01BF860
:10480000010B524617999047B9F10109F7D2534667
:1048100021463846179AF2E039E00A21C4F30252E1
:104820004FF0000B0091022A06D058F8040BC11774
:10483000032A09D00AE023E008F1070020F007026C
:10484000F2E80201904605E000B2C117042A01D146
:1048500040B2C117002906DA0A460021404261EB46
:1048600002012D2202E0220504D52B228DF804201E
:10487000012203E0E20701D02022F7E7914657E04A
:104880000A2100E010214FF0000B00910BE01021F5
:104890004FF0000B44F004040827009103E00820C7
:1048A0004FF0000B0090C4F30252022A05D058F8D2
:1048B000040B0021032A08D008E008F1070020F0CB
:1048C0000702F2E80201904603E080B2042A00D118
:1048D000C0B24FF0000922072AD53278702A07D0DB
:1048E000DDF800C08CF0100C5CEA0B0C05D00EE07B
:1048F00040228DF80420012208E050EA010306D08E
:1049000030238DF804308DF8052002229146009B5B
:1049100083F0080353EA0B030AD150EA010201D1E4
:10492000620705D530228DF804204FF001097F1E63
:104930003278582A04D039A20C920CAA02920BE0C9
:104940003BA2F9E75B46009AFBF73CFC0C9B9B5CA7
:10495000029A521E0292137050EA0102F2D102989A
:1049600004A9081A00F1200B600702D524F4803452
:1049700000E001275F4502DDA7EB0B0000E000200F
:1049800000EB0B01009003984944401A0390E003A8
:1049900006D453462146179A039800F0A9F9054416
:1049A000002706E001A85246C05D179990476D1C8C
:1049B0007F1C4F45F6DBE0030CD553462146179A82
:1049C000039800F095F9054404E030205246179909
:1049D00090476D1C0099481E00900029F5DC08E006
:1049E0000298029952460078491C02911799904703
:1049F0006D1CBBF10001ABF1010BF1DC5BE100F0E0
:104A000065F90544761C307800287FF40DAE19B0A6
:104A10002846BDE8F08F000009280100303132330C
:104A200034353637383961626364656600000000EA
:104A300030313233343536373839414243444546D4
:104A400000000000600700D4062708F1070020F0EE
:104A50000700F0E80223804603F0004C5FEA0C00F8
:104A600001D097A009E0200501D596A005E0E00758
:104A700001D095A001E0AFF24C001390307823F004
:104A8000004365280CD006DC452809D046281DD0F7
:104A900047287FD13BE0662818D067287AD136E0D6
:104AA0000021112F01DB112000E0781CCDE900016D
:104AB00004A90CA8FFF7EEFCDDE90D010C9A4FF0FC
:104AC000000B07F10109109200914EE04FF00040F9
:104AD0000097CDE9011004A90CA8FFF7DBFCDDE984
:104AE0000D020C9B0F994FF0000B91461093009212
:104AF00011B9791C00EB0109B7EB090003D4C0F12F
:104B0000FF3B07F10109A9EB0700019042E0012FEB
:104B100000DA01270021112F01DD112000E03846C5
:104B2000CDE9000104A90CA8FFF7B4FCDDE90D01F3
:104B30000C9A00914FF0000BB946109221070FD448
:104B4000009A4A4503DA914601E0A9F10109B9F159
:104B5000010F05DD109AA9F10101515C3029F4D053
:104B6000B84202DA10F1040F03DA0121CDE9011095
:104B700010E0002803DC8344A9EB000102E0411CA3
:104B8000494500DD8946A0EB0B00401C01904FF029
:104B900000400290200705D40198484502DB4FF001
:104BA000FF30019000208DF84B0002980DF14B076B
:104BB000B0F1004F25D002200C902B200D900298D0
:104BC00000280CDA404202902D200D9007E00A21C7
:104BD0000298FBF777FB3031029007F8011D0C9922
:104BE000481E0C900029F2DC02980028EFD1791EB3
:104BF0000D980870307800F0200040F0450007F86C
:104C0000020D11A8C01BC01D02901398007800B1BE
:104C1000012000EB0901019801EBE07102980144C9
:104C20000398401A401E0390E00306D453462146E1
:104C3000179A039800F05CF805441398007818B1AF
:104C40005246179990476D1CE00323D553462146E1
:104C5000179A039800F04CF805441BE0BBF1000FD5
:104C600007DB0098584504DD1098179910F80B00E1
:104C700001E0179930205246904701980BF1010B43
:104C8000401E05F10105019004D12E2052461799CE
:104C900090476D1CB9F10001A9F10109DEDC05E0C6
:104CA00017F8010B5246179990476D1C0299481E40
:104CB00002900029F4DC53462146179A03989EE699
:104CC0002D0000002B000000200000002DE9F04125
:104CD000044600251E461746880404D405E03946DC
:104CE0002020B0476D1C641EF9D52846BDE8F08130
:104CF0002DE9F041044600251E469046C80301D523
:104D0000302700E02027880404D505E041463846D6
:104D1000B0476D1C641EF9D52846BDE8F0810A68CD
:104D2000531C0B601070704710B504460420FDF74B
:104D300022F80148046010BD3000002070B51E212B
:104D4000B0FBF1F4B0FBF1F201FB120547F2305673
:104D500003E0304600F00EF8641E002CF9D1002D5F
:104D600006D04FF47A706843BDE8704000F002B896
:104D700070BD000070B500214FF0E0256C690A4A53
:104D800012685043AB69AA699A42FCD003D2A3EBE4
:104D90000203194403E0A4EB02063344194413460A
:104DA0008142F0D370BD0000300000202DED028B59
:104DB000FCF744FAFEF73CFCFEF70AF8FDF7CAFFE1
:104DC000FEF766FAFEF74CF9FEF7E2F8FEF7C0F8D8
:104DD000FEF7DEF9FEF710FAFEF7A6F9FEF7FEF889
:104DE000FEF724F9FEF770FAA820FFF79DFFFEF703
:104DF000B9FC4748FBF7E8FC454CE068006800F068
:104E000079F9E06800689FED438AB1EE0C2AF0EE74
:104E1000482ADFED418A3223856DF0EE681AB0EE44
:104E2000481AF7EE000AB0EE480A1A460121A847D0
:104E3000E068012500684570E068406800F05AF9B4
:104E4000E0683223F0EE482A4068B1EE0C2AF0EE1A
:104E5000681A866DB0EE481AF7EE000AB0EE480AFE
:104E60001A460121B047E06840684570E0688068F4
:104E700000F040F9E0684FF47A7700228068F0EEA5
:104E8000482AB0EE482A866DDFED241AB0EE481AA3
:104E9000F2EE040AB0EE480A3B461146B047E0681D
:104EA000C06800F027F9E0680022DFED1D2AC06825
:104EB000B0EE482ADFED1B1A866DB0EE481AF2EE0E
:104EC000040AB0EE480A3B461146B0473C2116485A
:104ED000FDF7D2F93C211548FDF7CEF91248FDF750
:104EE00061F81248FDF75EF81148FDF75BF81148CC
:104EF000FDF758F8802210491048FDF770FC6068F3
:104F00000572A06805720220FEF74CFAFEE7000069
:104F100008020020000000000000D2430000A04270
:104F20006F12033A6F12833A0004002048040020F5
:104F3000D8040020200500202C0200207806002044
:104F400010B504462DED048B60789FED699A00281A
:104F50007DD084ED060A94ED080A84ED090A94EDEB
:104F6000070A84ED080A94ED0D0A84ED0E0A94ED0B
:104F7000010AD4ED060A30EE600A84ED070AD4ED8A
:104F8000110A10EE900AFBF772F9D4ED070A41EC12
:104F9000180B10EE900AFBF76AF90A46014601EE7B
:104FA000101A22F0004211EE101A42EC111B53ECC1
:104FB000182B51EC110BFBF76DF97DD2207818B14D
:104FC000207801284BD08BE094ED030AD4ED070A3A
:104FD00020EE200A84ED0A0A94ED0B0AD4ED040AAF
:104FE00094ED071A00EE810A84ED0B0A94ED070A8E
:104FF000D4ED080A30EE600AD4ED050A20EE200A4E
:1050000084ED0C0A94ED0B0AD4ED100AB4EEE00A1C
:10501000F1EE10FA03DD94ED100A84ED0B0AD4EDE5
:10502000100A94ED0B0AF1EE600AB4EEE00AF1EE1C
:1050300010FA05D294ED100AB1EE400A84ED0B0A85
:1050400094ED0A0AD4ED0B0A30EE200A00E04CE0A1
:10505000D4ED0C0A30EE200A84ED0D0A40E094ED08
:10506000070AD4ED080A30EE600AD4ED030A20EEF8
:10507000200A84ED0A0A94ED040AD4ED070A20EE12
:10508000200A84ED0B0A94ED070AD4ED080AB0EE6D
:10509000001A00EEC10AD4ED090A30EE200AD4ED60
:1050A000050A20EE200A84ED0C0A94ED0A0AD4EDDC
:1050B0000B0A30EE200A00E00AE0D4ED0C0A30EED4
:1050C000200AD4ED0D0A30EE200A84ED0D0A07E027
:1050D00084ED0D9A84ED0A9A84ED0B9A84ED0C9A76
:1050E00094ED0D0ABDEC048B10BDB0EE490AF9E752
:1050F00000000000034981650349C1650349016659
:10510000704700001151000851510008414F00083C
:105110000170C0ED120A80ED110A00EE103AB8EEEF
:10512000400A80ED100A00EE102AB8EE400A80ED29
:105130000F0A80ED011AC0ED031A80ED042AC0EDBC
:10514000052A9FED020A80ED0D0A7047000000005D
:1051500080ED030AC0ED040A80ED051A70470006D1
:1051600010160006101600000000000000000102EA
:105170000304060708090000000001020304000000
:10518000000000000000000000000000000000001F
:105190002F000000000000000000070000000700D2
:1051A0000000000014007F0014007F0014000000C5
:1051B00024002A007F002A001200000023001300B0
:1051C000080064006200000036004900550022001B
:1051D0005000000000000000070000000000000078
:1051E00000001C00220041000000000000004100FF
:1051F00022001C0000000000140008003E0008000F
:1052000014000000080008003E000800080000002C
:1052100000000000A000600000000000080008007E
:1052200008000800080000000000600060000000A6
:105230000000000020001000080004000200000030
:105240003E005100490045003E00000000004200C1
:105250007F00400000000000420061005100490052
:10526000460000002100410045004B0031000000D5
:105270001800140012007F001000000027004500F5
:1052800045004500390000003C004A004900490043
:10529000300000000100710009000500030000005B
:1052A0003600490049004900360000000600490068
:1052B000490029001E0000000000360036000000F2
:1052C0000000000000005600360000000000000052
:1052D0000800140022004100000000001400140027
:1052E000140014001400000000004100220014000B
:1052F0000800000002000100510009000600000043
:105300003E004900550059002E0000007C001200AC
:10531000110012007C0000007F0049004900490094
:10532000360000003E004100410041002200000024
:105330007F004100410022001C0000007F00490066
:1053400049004900410000007F00090009000900F0
:10535000010000003E004100490049007A000000C1
:105360007F000800080008007F00000000004100E6
:105370007F004100000000002000400041003F008D
:10538000010000007F00080014002200410000001E
:105390007F00400040004000400000007F0002000D
:1053A0000C0002007F0000007F00040008001000D5
:1053B0007F0000003E004100410041003E0000002F
:1053C0007F00090009000900060000003E004100BE
:1053D000510021005E0000007F0009001900290033
:1053E0004600000046004900490049003100000025
:1053F000010001007F000100010000003F004000AB
:10540000400040003F0000001F002000400020003E
:105410001F0000003F004000380040003F00000037
:105420006300140008001400630000000700080077
:1054300070000800070000006100510049004500AD
:105440004300000000007F00410041000000000018
:1054500002000400080010002000000000004100CD
:1054600041007F0000000000040002000100020073
:1054700004000000400040004000400040000000E8
:1054800000000100020004000000000020005400A1
:1054900054005400780000007F004800440044009D
:1054A00038000000380044004400440020000000A0
:1054B00038004400440048007F00000038005400D9
:1054C000540054001800000008007E00090001008C
:1054D000020000001800A400A400A4007C0000004A
:1054E0007F00080004000400780000000000440071
:1054F0007D004000000000004000800084007D002E
:10550000000000007F0010002800440000000000A0
:10551000000041007F004000000000007C0004000B
:1055200018000400780000007C000800040004005B
:1055300078000000380044004400440038000000B7
:10554000FC0024002400240018000000180024009F
:1055500024001800FC0000007C0008000400040087
:1055600008000000480054005400540020000000CF
:1055700004003F0044004000200000003C004000C8
:10558000400020007C0000001C00200040002000A3
:105590001C0000003C004000300040003C000000C7
:1055A0004400280010002800440000001C00A00057
:1055B000A000A0007C0000004400640054004C00E7
:1055C00044000000000008007F00410000000000CF
:1055D000000000007F00000000000000000041000B
:1055E0007F00080000000000080004000800100010
:1055F00008000000000000000000000000000000A3
:10560000000000000000000000000000000000009A
:105610000000000000001800180018001800180012
:10562000080008000800080000001800180000002A
:1056300000000000000000003C00240024000000E6
:10564000000000000000000000000000000000005A
:105650000000000000000000440024002400FF00BF
:10566000240024002400FF00220012001200000089
:1056700000000000000008003C002E006A000E0040
:105680000C00380068006A006A002E001C00080048
:1056900000000000000000002600250015001D008D
:1056A00016006800580054005400520062000000C8
:1056B00000000000000000001C0034003400140052
:1056C0000C000E004A0053006300F6001C000000AE
:1056D00000000000000000000800080008000000B2
:1056E00000000000000000000000000000000000BA
:1056F00000000000000040002000300010001000FA
:1057000010001000100010001000200020004000C9
:10571000000000000000020004000400080008006F
:105720000800080008000800080004000600030044
:105730000000000000000000180018007E001800A3
:105740003C005A0018001800000000000000000093
:105750000000000000000000000000000800080039
:105760000800FF000800080008000000000000001A
:105770000000000000000000000000000000000029
:10578000000000000000000000000600060002000B
:105790000000000000000000000000000000000009
:1057A00000007F000000000000000000000000007A
:1057B00000000000000000000000000000000000E9
:1057C00000000000000000000000060006000000CD
:1057D0000000000000000000400020002000100039
:1057E000100008000800040004000200010000008E
:1057F00000000000000000003C00260042004200C3
:1058000042004200420042006200340018000000E2
:105810000000000000000000100018001E001A0028
:1058200018001800180018001800180018000000D0
:1058300000000000000000003C0066004200600024
:10584000200030001000080004007E007E000000F0
:1058500000000000000000003C0066004200600004
:1058600030003000600040004200260018000000B8
:105870000000000000000000200030003800280078
:10588000240026002200FF0020002000200000004D
:1058900000000000000000007C00060002000A007A
:1058A0003E00620040004000630036001C00000023
:1058B00000000000000000001000180008000C00AC
:1058C0003E004600C200C200420066003C000000EC
:1058D00000000000000000007E004000600020008A
:1058E000300010001800080008000C000C00000038
:1058F00000000000000000003C0062004200620066
:105900003E003E0042004300420066003C000000B2
:1059100000000000000000003C0062004300430063
:10592000630036003C001000180008000C00000066
:105930000000000000000000000000000000000067
:10594000180000000000000000001800180000000F
:105950000000000000000000000000000000000047
:1059600018000000000000000000180018000800E7
:1059700000000000000000004000200010000800AF
:105980000600020004000800100020004000000093
:1059900000000000000000000000000000007F0088
:1059A0000000000000007F00000000000000000078
:1059B00000000000000000000200040008001000C9
:1059C0002000400020001000080006000200000037
:1059D00000000000000000003C0066006200600063
:1059E000300010000800000000000800080000005F
:1059F00000000000000000003C0042007900690047
:105A00006500550055005500290002003C000000CB
:105A100000000000000000001800180018003C0002
:105A2000240024003E00660042004200C300000043
:105A300000000000000000003E0062004200420042
:105A40003E003E004200420042007E001E00000078
:105A500000000000000000003C0066004200420020
:105A6000020002004200420046006C0038000000C4
:105A700000000000000000001E0032006200420032
:105A8000420042004200420062003E000E00000060
:105A900000000000000000007E0002000200020082
:105AA0007E007E000200020002007E007E000000F8
:105AB00000000000000000007E0002000200020062
:105AC00002003E000200020002000200020000008C
:105AD00000000000000000003C00660042004200A0
