:020000040800F2
:10000000A84D00209D0100086D5A00088D51000880
:100010002D5900087D090008ED7B00080000000054
:100020000000000000000000000000006D5B000800
:10003000D10B000800000000715A0008295C00087C
:10004000B7010008B7010008B7010008B7010008B0
:10005000B7010008B7010008B7010008B7010008A0
:10006000B7010008B7010008B7010008B701000890
:100070007D0B0008B7010008890B0008B7010008D4
:10008000950B0008A10B0008B7010008B701000894
:10009000B7010008B7010008B7010008B701000860
:1000A000B7010008C5740008B7010008B7010008CF
:1000B000B7010008B7010008B7010008B701000840
:1000C000B7010008B7010008B7010008B701000830
:1000D000B7010008817B0008A57B0008C97B0008E8
:1000E000B7010008B7010008B7010008D174000883
:1000F000B7010008DD740008B7010008AD0B000867
:10010000B7010008B7010008B7010008755A0008D8
:10011000B7010008B7010008B7010008B7010008DF
:10012000B7010008B7010008B90B0008B7010008C3
:10013000B7010008B7010008B7010008B7010008BF
:10014000B7010008B7010008B7010008B7010008AF
:10015000B7010008B7010008C50B0008B701000887
:10016000B7010008B7010008B7010008B70100088F
:10017000B7010008B7010008B7010008000000003F
:10018000B7010008B7010008DFF80CD000F08CFBC5
:1001900000480047C97E0008A84D00200648804757
:1001A00006480047FEE7FEE7FEE7FEE7FEE7FEE75C
:1001B000FEE7FEE7FEE7FEE7D95C000889010008DC
:1001C0002DE9F05F0546002092469B46884606468C
:1001D000814640241BE0284641464746224600F01F
:1001E000F6F953465A46C01A914110D311461846A3
:1001F000224600F0DDF92D1A67EB01084F46224632
:100200000120002100F0D4F917EB00094E41201E17
:10021000A4F10104DFDC484631462A464346BDE8E6
:10022000F09F40EA01039B0703D009E008C9121FB1
:1002300008C0042AFAD203E011F8013B00F8013BA0
:10024000521EF9D27047D2B201E000F8012B491ECC
:10025000FBD270470022F6E710B513460A46044663
:100260001946FFF7F0FF204610BD10B5002200E050
:10027000521C835C8C5CA34201D1002BF8D1D8B214
:10028000E1B2401A10BD2DE9FE4F804681EA03001D
:10029000C00F0C46009021F0004123F00045B8EB60
:1002A0000200A94105D24046214690461C460B4615
:1002B000024623F00040104347D0270DC7F30A0041
:1002C000C3F30A510290401A019040286BDAC3F33D
:1002D000130040F4801B0098924620B10023D2EB1B
:1002E000030A63EB0B0B01985946C0F140025046DC
:1002F00000F05EF906460D4650465946019A00F058
:1003000076F910EB08006141002487EA115284EA73
:10031000E7731A4340D0009A62B3019A012A4FEA68
:10032000075215DC001B61EB02014FF0004202EAAC
:100330000752CDE90042001C41F5801132462B46A0
:1003400000F0ADF903B0BDE8F08F40462146F9E773
:10035000001B61EB0201001C41F5801300185B419A
:100360002018A2F5001747EB030140EAD570B61933
:100370006D4111E06D084FEA360645EAC0754FEA57
:100380000752001B61EB0201001C41F58011490876
:100390004FEA30000019514132462B4603B0BDE808
:1003A000F04F00F06DB90098012240000023D0EB1F
:1003B000020263EBE073009821464FEAE074B8EB69
:1003C000000061EB0401E9E783F000435BE781F0A3
:1003D000004158E72DE9FE4F81EA030404F0004490
:1003E00021F0004100944FF0000B23F0004350EA4D
:1003F00001045ED052EA03045BD0C3F30A54C1F394
:100400000A552C44A4F2F3340194A0FB0254C1F326
:10041000130141F48011C3F3130343F4801301FB70
:10042000024400FB034E840A970A44EA815447EAD7
:100430008357A4FB076802958D0A05FB07854FEAE1
:10044000932C04FB0C542705029D4FEA065847EAFB
:100450001637B5EB08056EEB070C870E920E47EAD0
:10046000811742EA8312A7FB0201B6EB0B0164EB92
:1004700000042B0D43EA0C335E1844EB1C50DA46A3
:100480005146E7FB0201C5F313044FEA0B3343EA7D
:1004900014534FEA0432019C43EA0603A4F10C040E
:1004A0000294009CCDE900B400F0F9F803B0BDE877
:1004B000F08F00200146F9E70EB5C10F80EAE07029
:1004C0000844CA07002140F233438DE80E000A4673
:1004D0000B4600F0E4F803B000BD0EB540F2334126
:1004E00002910021CDE900110A460B4600F0D7F831
:1004F00003B000BDC1F30A5210B5C1F3130140F2BD
:10050000FF3341F480119A4201DA002010BD40F21D
:1005100033439A42A2F2334203DC524200F057F8CE
:1005200010BD904010BD00F0004230F000400AD0F5
:10053000C10D01F56071C0F3160042EA0151C20815
:1005400040071143704700200146704701F0004307
:1005500030B421F0004150EA010206D00A0DA2F5A4
:100560006072C1F31301002A02DC30BC0020704726
:10057000440F44EAC104C100E01830BC00EBC25093
:1005800000F047B830B50B46014600202022012478
:1005900009E021FA02F59D4205D303FA02F5491B51
:1005A00004FA02F52844151EA2F10102F1DC30BD67
:1005B000202A04DB203A00FA02F100207047914023
:1005C000C2F1200320FA03F3194390407047202A18
:1005D00004DB203A21FA02F00021704721FA02F3ED
:1005E000D040C2F120029140084319467047202AAA
:1005F00006DBCB17203A41FA02F043EAE07306E04B
:1006000041FA02F3D040C2F120029140084319465A
:1006100070470029A8BF7047401C490008BF20F060
:100620000100704710B4B0FA80FC00FA0CF050EAF8
:10063000010404BF10BC704749B1CCF1200421FA79
:1006400004F411FA0CF118BF012121430843A3EB74
:100650000C01CB1D4FEA00614FEA102042BF002081
:1006600010BC704700EBC35010440029A4BF10BC5D
:100670007047401C490008BF20F0010010BC7047C3
:1006800010B5141E73F1000408DA401C41F100019A
:1006900092185B411A4301D120F0010010BD2DE9F1
:1006A000F04D92469B4611B1B1FA81F202E0B0FAE8
:1006B00080F220329046FFF77BFF04460F4640EA67
:1006C0000A0041EA0B0153465A46084313D011462B
:1006D00053EA010019D0C8F140025046FFF777FFF6
:1006E00005460E46504659464246FFF761FF08430D
:1006F00005D0012004E020463946BDE8F08D0020F9
:10070000054346EAE0762C4337430A986305E40A3A
:10071000A0EB08000022FD0A44EA47540A3002D543
:1007200000200146E9E7010510196941DDE90845A6
:1007300000196941BDE8F04DA2E72DE9F04D81EACD
:10074000030404F0004B21F0004514464FF0000A6A
:1007500023F0004150EA050220D054EA01021DD0E6
:10076000C5F30A570246C5F31303C1F31300C1F3DF
:100770000A5640F4801543F48013A7EB0608101BBB
:10078000D64608F2FD3873EB050002D308F10108E4
:1007900001E092185B41B8F1000F03DA0020014636
:1007A000BDE8F08D00204FF48011064684460EE02F
:1007B000171B73EB050705D3121B63EB05030643F9
:1007C0004CEA010C49084FEA300092185B4150EAAC
:1007D0000107EDD152EA030012D082EA040083EA55
:1007E0000501084305D0101BAB4106D201220023AE
:1007F00006E000224FF0004302E06FF001025310C8
:100800001AEB06004CEB085110EB0A0041EB0B0110
:10081000BDE8F04DFFF734BF70B521F0004303434E
:100820000CD0C1F30A550024D5EB040564EB040396
:10083000D617AD1AB34102DB0020014670BD201867
:1008400041EB025170BDC1F30A52C1F3130140F2F2
:10085000FF3341F480119A4202DA002001467047CA
:1008600040F233439A42A2F2334202DC5242FFF793
:10087000AEBEFFF79DBE000030B5041E71F100044E
:1008800004DB4FF00044404264EB0101141E73F19D
:10089000000405DB1C464FF00043524263EB0403A7
:1008A000994208BF904230BD1CB5094800900948E4
:1008B00001900546009C06E0E06840F0010394E8E2
:1008C000070098471034AC42F6D3FFF761FC0000F4
:1008D0006C0D01088C0D01082DE9F04D00231A461E
:1008E0001B1A8A4103DB00200146BDE8F08DC1F3ED
:1008F0000A52C1F3130141F480154FF0000BD107E8
:1009000002D100186D41521E0027044640F2FF112B
:10091000384601EB620A3E468046024600204FF40C
:100920008011FFF754FEC2197141BB1846EB01005C
:10093000B4EB030C75EB000C04D3E41A65EB000573
:1009400017460E46241908F101006D4180463428EF
:10095000E3DDF91946EB0600091BA84103D24FF06D
:10096000FF32134601E0002213461BEB070046EB63
:100970000A51BDE8F04DFFF783BE0000FEE700001E
:1009800070B52DED048B40F6245C40F6785E40F6A1
:10099000B81340F6C81440F6585140F65052C2F20F
:1009A000000CC2F2000EC2F20003C2F20004C2F256
:1009B0000001C2F20002C0E900CEC0E90234C0E981
:1009C000042140F6D81040F69444C2F2000040F6EC
:1009D0003C22C2F2000440F6CC3540F63046C2F26A
:1009E0000002C2F20005C2F2000681E8750040F67E
:1009F000FC4440F6A023C2F20004C2F20003606986
:100A00004B6140F6043C40F6683E4069C2F2000C7F
:100A1000C2F2000EC1F818C0C1F81CE007F03AFDA0
:100A200060699FED4D8A40699FED4A0A826DF0EE44
:100A3000042A0021F0EE480AB0EE481AF0EE481AF7
:100A4000B0EE482AB0EE483AF0EE483A9047606976
:100A5000806907F01FFD60699FED409A8069DFEDB6
:100A6000402A826DDFED3F3A0021B0EE490AF0EEF8
:100A7000480AB0EE481AF0EE481AB0EE482AB0EE36
:100A8000483A90476069C06907F004FD6069DFED8E
:100A9000360AC069DFED352A826DB3EE0E3A0021C9
:100AA000B0EE490AB0EE481AF0EE481AB0EE482A05
:100AB000F0EE483A90476069006907F0EBFC606926
:100AC000F1EE0C2A00690021826DB0EE490AF0EEC9
:100AD000480AB0EE481AF0EE481AB0EE482AB0EED6
:100AE000483AF0EE483A90476069C06807F0D2FC97
:100AF00060699FED1F0AC0680021826DF0EE480A10
:100B0000B0EE481AF0EE481AB0EE482AF0EE482A45
:100B1000B0EE483AF0EE483A90476069806807F0D6
:100B2000B9FC60699FED130A8068DFED133A826DAE
:100B3000F3EE0D2A0021F0EE480AB0EE481AF0EE6E
:100B4000481AB0EE482AB0EE483ABDEC048BBDE836
:100B5000704010470000C8430000000000F07945D5
:100B6000000034430000C84200F0F94400C00F45C3
:100B700000007A44003C1C4633330B4140F268507D
:100B8000C2F2000000F092BE40F2C850C2F2000073
:100B900000F08CBE40F20850C2F2000000F086BEA9
:100BA00040F2E830C2F2000000F080BE40F288302F
:100BB000C2F2000000F07ABE40F24840C2F20000EB
:100BC00000F074BE40F2A840C2F2000000F06EBE19
:100BD00070470000F0B585B040F22865C2F200050C
:100BE000002448F280074FF4805603AA2846A0212B
:100BF0000223ADF80C408DF80B40ADF80C70009658
:100C000001F072FC0DF10B022846A1210123009690
:100C100001F094F99DF80B0036282FD040F228659A
:100C20003620C2F200058DF810000DF10E022846A4
:100C3000A0210323ADF80E70009601F055FC0620AC
:100C400007F04CF80DF112022846A0210223ADF85E
:100C500012408DF81140ADF81270009601F044FC7E
:100C60000DF111022846A1210123009601F066F939
:100C70009DF81100B0F1360418BF0124204605B0DC
:100C8000F0BD00002DE9F04F83B040F2286400254C
:100C900048F281094FF48056C2F200040DF10A0BAC
:100CA0000DF1090A0DF10408002700BF380AADF85C
:100CB0000A508DF80A00B8B200FB09F007EBD050DB
:100CC0008DF80B002046A0215A4602238DF80950CA
:100CD000009601F009FC2046A1215246012300960E
:100CE00001F02CF99DF8090008F807000137042FDE
:100CF000DCD140F6FC40C2F2000040690199406935
:100D000040F22864002548F2810A4FF48056C2F26E
:100D100000040DF10A090DF1090B0027C16000BFA5
:100D2000381D81B201FB0AF1020A00EBD150ADF887
:100D30000A508DF80A208DF80B002046A0214A4663
:100D400002238DF80950009601F0CEFB2046A12128
:100D50005A460123009601F0F1F89DF8090008F8C1
:100D600007000137042FDBD140F6FC40C2F200003F
:100D700040690199406940F22864002548F2810ADF
:100D80004FF48056C2F200040DF10A090DF1090B6F
:100D90000027016107F1080081B201FB0AF1020A94
:100DA00000EBD150ADF80A508DF80A208DF80B00F9
:100DB0002046A0214A4602238DF80950009601F0F2
:100DC00093FB2046A1215A460123009601F0B6F874
:100DD0009DF8090008F807000137042FDAD140F622
:100DE000FC40C2F2000040690199406940F2286469
:100DF000002548F2810A4FF48056C2F200040DF13A
:100E00000A090DF1090B0027416100BF07F10C0031
:100E100081B201FB0AF1020A00EBD150ADF80A5091
:100E20008DF80A208DF80B002046A0214A460223A7
:100E30008DF80950009601F057FB2046A1215A4633
:100E40000123009601F07AF89DF8090008F80700E0
:100E50000137042FDAD140F6FC40C2F200004069AD
:100E60000199806940F22864002548F2810A4FF414
:100E70008056C2F200040DF10A090DF1090B00279A
:100E8000C16000BF07F1100081B201FB0AF1020A44
:100E900000EBD150ADF80A508DF80A208DF80B0008
:100EA0002046A0214A4602238DF80950009601F001
:100EB0001BFB2046A1215A460123009601F03EF873
:100EC0009DF8090008F807000137042FDAD140F631
:100ED000FC40C2F2000040690199806940F2286438
:100EE000002548F2810A4FF48056C2F200040DF149
:100EF0000A090DF1090B0027016100BF07F1140079
:100F000081B201FB0AF1020A00EBD150ADF80A50A0
:100F10008DF80A208DF80B002046A0214A460223B6
:100F20008DF80950009601F0DFFA2046A1215A46BB
:100F30000123009601F002F89DF8090008F8070067
:100F40000137042FDAD140F6FC40C2F200004069BC
:100F50000199806940F22864002548F2810A4FF423
:100F60008056C2F200040DF10A090DF1090B0027A9
:100F7000416100BF07F1180081B201FB0AF1020ACA
:100F800000EBD150ADF80A508DF80A208DF80B0017
:100F90002046A0214A4602238DF80950009601F010
:100FA000A3FA2046A1215A460123009600F0C6FF6D
:100FB0009DF8090008F807000137042FDAD140F640
:100FC000FC40C2F2000040690199C06940F2286407
:100FD000002548F2810A4FF48056C2F200040DF158
:100FE0000A090DF1090B0027C16000BF07F11C00C1
:100FF00081B201FB0AF1020A00EBD150ADF80A50B0
:101000008DF80A208DF80B002046A0214A460223C5
:101010008DF80950009601F067FA2046A1215A4642
:101020000123009600F08AFF9DF8090008F80700E8
:101030000137042FDAD140F6FC40C2F200004069CB
:101040000199C06940F22864002548F2810A4FF4F2
:101050008056C2F200040DF10A090DF1090B0027B8
:10106000016100BF07F1200081B201FB0AF1020A11
:1010700000EBD150ADF80A508DF80A208DF80B0026
:101080002046A0214A4602238DF80950009601F01F
:101090002BFA2046A1215A460123009600F04EFF6C
:1010A0009DF8090008F807000137042FDAD140F64F
:1010B000FC40C2F2000040690199C06940F2286416
:1010C000002548F2810A4FF48056C2F200040DF167
:1010D0000A090DF1090B0027416100BF07F1240047
:1010E00081B201FB0AF1020A00EBD150ADF80A50BF
:1010F0008DF80A208DF80B002046A0214A460223D5
:101100008DF80950009601F0EFF92046A1215A46CA
:101110000123009600F012FF9DF8090008F807006F
:101120000137042FDAD140F6FC40C2F200004069DA
:101130000199806840F22864002548F2810A4FF442
:101140008056C2F200040DF10A090DF1090B0027C7
:10115000C16000BF07F1280081B201FB0AF1020A59
:1011600000EBD150ADF80A508DF80A208DF80B0035
:101170002046A0214A4602238DF80950009601F02E
:10118000B3F92046A1215A460123009600F0D6FE6D
:101190009DF8090008F807000137042FDAD140F65E
:1011A000FC40C2F2000040690199806840F2286466
:1011B000002548F2810A4FF48056C2F200040DF176
:1011C0000A090DF1090B0027016100BF07F12C008E
:1011D00081B201FB0AF1020A00EBD150ADF80A50CE
:1011E0008DF80A208DF80B002046A0214A460223E4
:1011F0008DF80950009601F077F92046A1215A4652
:101200000123009600F09AFE9DF8090008F80700F7
:101210000137042FDAD140F6FC40C2F200004069E9
:101220000199806840F22864002548F2810A4FF451
:101230008056C2F200040DF10A090DF1090B0027D6
:10124000416100BF07F1480081B201FB0AF1020AC7
:1012500000EBD150ADF80A508DF80A208DF80B0044
:101260002046A0214A4602238DF80950009601F03D
:101270003BF92046A1215A460123009600F05EFE6C
:101280009DF8090008F807000137042FDAD140F66D
:10129000FC40C2F2000040690199C06840F2286435
:1012A000002548F2810A4FF48056C2F200040DF185
:1012B0000A090DF1090B0027C16000BF07F14C00BE
:1012C00081B201FB0AF1020A00EBD150ADF80A50DD
:1012D0008DF80A208DF80B002046A0214A460223F3
:1012E0008DF80950009601F0FFF82046A1215A46DA
:1012F0000123009600F022FE9DF8090008F807007F
:101300000137042FDAD140F6FC40C2F200004069F8
:101310000199C06840F22864002548F2810A4FF420
:101320008056C2F200040DF10A090DF1090B0027E5
:10133000016100BF07F1500081B201FB0AF1020A0E
:1013400000EBD150ADF80A508DF80A208DF80B0053
:101350002046A0214A4602238DF80950009601F04C
:10136000C3F82046A1215A460123009600F0E6FD6D
:101370009DF8090008F807000137042FDAD140F67C
:10138000FC40C2F2000040690199C06840F2286444
:10139000002548F2810A4FF48056C2F200040DF194
:1013A0000A090DF1090B0027416100BF07F1300068
:1013B00081B201FB0AF1020A00EBD150ADF80A50EC
:1013C0008DF80A208DF80B002046A0214A46022302
:1013D0008DF80950009601F087F82046A1215A4661
:1013E0000123009600F0AAFD9DF8090008F8070007
:1013F0000137042FDAD140F6FC40C2F20000406908
:101400000199006940F22864002548F2810A4FF4EE
:101410008056C2F200040DF10A090DF1090B0027F4
:10142000C16000BF07F1340081B201FB0AF1020A7A
:1014300000EBD150ADF80A508DF80A208DF80B0062
:101440002046A0214A4602238DF80950009601F05B
:101450004BF82046A1215A460123009600F06EFD6C
:101460009DF8090008F807000137042FDAD140F68B
:10147000FC40C2F2000040690199006940F2286412
:10148000002548F2810A4FF48056C2F200040DF1A3
:101490000A090DF1090B0027016100BF07F13800AF
:1014A00081B201FB0AF1020A00EBD150ADF80A50FB
:1014B0008DF80A208DF80B002046A0214A46022311
:1014C0008DF80950009601F00FF82046A1215A46E8
:1014D0000123009600F032FD9DF8090008F807008E
:1014E0000137042FDAD140F6FC40C2F20000406917
:1014F0000199006940F2286500274FF48056C2F236
:1015000000050DF1040B0DF10A0A00244FF000084C
:10151000416100BFC8F13F00020A81B2ADF804701A
:101520008DF8042048F28102514300EBD1508DF830
:1015300005002846A0215A4602231FFA88F98DF893
:101540000A70009600F0D0FF2846A12152460123E0
:10155000009600F0F3FC9DF80A00B9F1030F40EA91
:10156000042408F10108D5D340F6FC40C2F2000083
:10157000406840F228654460002648F2810A4FF432
:101580008054C2F200050DF10A090DF10908002787
:1015900007F1400081B201FB0AF1020A00EBD150D1
:1015A000ADF80A608DF80A208DF80B002846A021BE
:1015B0004A4602238DF80960009400F095FF284602
:1015C000A12142460123009400F0B8FC9DF80900D7
:1015D0000BF807000137042FDAD1019840F6FC41DF
:1015E00040F22865C2F20001002648F2810A4FF459
:1015F0008054C2F200050DF10A090DF10908002717
:10160000886100BF07F1440081B201FB0AF1020AC0
:1016100000EBD150ADF80A608DF80A208DF80B0070
:101620002846A0214A4602238DF80960009400F064
:101630005BFF2846A12142460123009400F07EFC76
:101640009DF809000BF807000137042FDAD1019843
:1016500040F6FC41C2F20001C86103B0BDE8F08F62
:101660002DE9F04F83B040F2286504464FF0FF307B
:101670000DF104084FF0000948F2810A4FF4805B35
:10168000C2F2000502AE0191471C39198AB24044EA
:10169000407802FB0AF20B0A01EBD251ADF8089038
:1016A0008DF808308DF809108DF80A002846A02121
:1016B00032460323CDF800B000F016FF062006F0F6
:1016C0000DFB032F3846DFD103B0BDE8F08F0000DB
:1016D000002A08BF70472DE9F04F83B040F2286818
:1016E00014460D46064648F2810A4FF4805BC2F26A
:1016F000000802AF4FF0000909EB060081B24FEA83
:10170000C902002301FB0AF125FA02F2ADF8083004
:10171000030A00EBD1508DF808308DF809008DF8E0
:101720000A204046A0213A460323CDF800B000F03D
:10173000DBFE062006F0D2FA09F10109A145DBD152
:1017400003B0BDE8F04F704772B600BFFEE700007F
:1017500070B540F60401C2F20001D1F800C09FED5F
:10176000262ADCF824209FED253A534240F64C020D
:10177000C2F2000212689FED224A516AD0E9024586
:101780000EB201EE106A94ED010AB8EEC11A21EE14
:10179000021A21EE031A20EE040A0FFA83FE30EE3D
:1017A000010A84ED010A01EE10EA95ED010AB8EE96
:1017B000C11A21EE021A21EE031A20EE040A30EEBD
:1017C000010A85ED010A94ED011A90ED082A30EE28
:1017D000010AB6EE001A20EE010A9FED0A1A2180D6
:1017E00020EE010A30EE020A80ED080A00202B806C
:1017F000CCF82400506270BDF6285C3F0708E63B39
:10180000295C0F3E6F12833A70B5866D044600F076
:10181000D7FA94F83510022925D105462068216CA5
:10182000026822F016020260426922F080024261E0
:1018300009B9A16C19B1016821F0080101600168C2
:1018400021F00101016000BF20680068C0070ED0D0
:1018500000F0B6FA401B0628F6D32020606503206E
:1018600084F835000CE080206065012008E0E06D20
:101870003F2101FA00F0B060012084F8350000201B
:10188000002184F8341070BD90F83510022909D178
:10189000052180F835100068016821F00101016020
:1018A000002070478021416501207047F0B581B06C
:1018B0000021009140F20401C2F200010B68D0E95E
:1018C000166148F2B51537680822C1F64E358A40D0
:1018D0003A42A3FB05350CD003681C68640708D5A1
:1018E0001C6824F004041C60B260426D42F00102E6
:1018F000426501228A403A4208D003685B691B06B0
:1019000004D5B260426D42F00202426504228A4070
:101910003A4208D003681B689B0704D5B260426D49
:1019200042F00402426510228A403A4216D0016811
:101930000B681B0712D5B2600B680A685B0306D4FC
:10194000D20506D40A6822F008020A6001E01103F9
:101950003FD4016C11B1044688472046C26D202156
:1019600001FA02F33B4241D001680F68FF063DD502
:10197000B36090F835700B68052F1AD123F0160369
:101980000B604B6923F080034B61036C0BB9836CD4
:101990001BB10B6823F008030B603F219140B1603D
:1019A000012180F83510016D002280F83420D9BB68
:1019B0003EE00A685B0310D4D20512D40A6822F014
:1019C00010020A60012180F83510002180F83410DF
:1019D00007E0816C0029BED1C0E7110301D4416C3E
:1019E00000E0C16B11B1044688472046416DF9B152
:1019F000416DC90716D0052180F835100168AA0A83
:101A00000B6823F001030B60009B013393420093AA
:101A100002D80B68DB07F7D1012180F835100021CF
:101A200080F83410C16C19B101B0BDE8F04008472E
:101A300001B0F0BD2DE9F041044600F0C1F9C4B198
:101A40000546022084F835000020216884F834001F
:101A5000086820F00100086020680168C9070BD001
:101A600000F0AEF9401B0528F6D9032120220320FF
:101A70007AE00120BDE8F081016848F23F02CFF230
:101A80001002D4E9013501EA020ED4E9032143EA48
:101A90000E032B43D4E9056C1A43D4E907781143AC
:101AA000314341EA0702616A42EA0802042942EA34
:101AB0000C0303D1D4E90B273A4313430360426973
:101AC000042922F0070241EA02012DD1D4E90A5388
:101AD00041EA050143B3BCF5005F08D0BCF1000F3B
:101AE00012D1022D16D0012D07D09DB119E0032D82
:101AF00017D8DFE805F00B0F0B02A3F1C072B2FAA2
:101B000082F252094AB90FE0032D02D2012222B912
:101B10000AE006D1C3F3006232B101214022012064
:101B200022E00022002AF8D100F0F8024AF6AB23A6
:101B3000103ACAF6AA23A2FB033740F624534161A8
:101B40003909C0F60103595C40F2FF3398435F2A1C
:101B50004FF03F0288BF0430C4E9160102FA01F1D8
:101B60008160002201210020626584F83510BDE803
:101B7000F081000090F834C0BCF1010F04BF0220D6
:101B8000704770B54FF0010C80F834C0D0F858E0C1
:101B900090F835C0BCF1010F37D14FF0020C80F83E
:101BA00035C04FF0000CC0F854C0D0F800C08468B5
:101BB000056CC06DDCF80060402C26F48026CCF863
:101BC0000060CCF804300B4604BF13460A463F21A0
:101BD00001FA00F0CCF80830CCF80C20CEF8080060
:101BE000DCF8000040F01600CCF800002DB1DCF865
:101BF000000040F00800CCF80000DCF8000040F0E5
:101C00000100CCF80000002070BD002180F83410E5
:101C1000022070BD2DE9F04F83B000F1200200F1E9
:101C20003E4741F60045009207F1FF77C4F20205F6
:101C300008224FEAB726A84208BF0722072E38BF5E
:101C40004FEAB72200274FF0000A4FF00008019238
:101C50000AE000BF08F101080AF1020AB8F1100F0A
:101C600007F1040700F09D800D68012202FA08FCCC
:101C700015EA0C09EED04D68032205F0030BABF119
:101C80000106012E02FA0AFE10D88668CC6826EA00
:101C90000E0604FA0AF4344384604468C5F3001560
:101CA00024EA0C0605FA08F52E434660BBF1030F43
:101CB0001BD0C6688D6826EA0E0605FA0AF52E4383
:101CC000BBF1020FC66010D16FF00302009D02EA63
:101CD000580655F806C007F01C040F220B69A240F5
:101CE0002CEA0202A3401A43AA5102684B6822EA76
:101CF0000E0203F0030606FA0AF6324313F4403FDD
:101D00000260A7D0002243F644030292C4F2020309
:101D10001A6843F6004442F480421A601A68C4F21A
:101D2000010402F480420292029A28F003024FF664
:101D3000084C2244CFF6FF7C52F80C3007F00C061A
:101D40000F25B540AB43019D05FA06F6334342F833
:101D50000C30A2684B6842EA090643F60C4CDD02DF
:101D600058BF22EA0906A660C4F2010CDCF8002084
:101D70009D0242EA090658BF22EA0906CCF8006033
:101D800062689D0342EA090658BF22EA09066660B6
:101D90002268DB0342EA090658BF22EA09062660E8
:101DA00058E703B0BDE8F08F0069084018BF012074
:101DB00070470000002A08BF0904816170470000D5
:101DC00040F6A050C2F2000000687047002804BF2F
:101DD00001207047F0B581B0044690F83D0028B965
:101DE000002084F83C00204600F026FD242084F8E2
:101DF0003D002068016821F001010160016841F4A3
:101E000000410160016821F40041016000F006FF1B
:101E1000636848F2A16CC0F2010C40F60011C0F2F8
:101E20003D0163453CBF48F28041C0F21E0188423B
:101E300002D2012001B0F0BD4DF68361C4F21B3126
:101E4000A0FB01122168970CD1F804E04FF49676BC
:101E50002EF03F0545EA92454D60774348F6381627
:101E60000D6AC0F24106A7FB067625F03F076345E1
:101E700038BF960C721C3A430A62CA6948F2A066DF
:101E80004CF6FF77C0F20106B34222EA070C0AD8EB
:101E900001385A00B0FBF2F001306FF31F30042814
:101EA00098BF042020E0A2681927002A08BF032752
:101EB00001385F43B0FBF7F701373F0509D052B156
:101EC00019225A43B0FBF2F00422013062F31F30B2
:101ED00008E0012008E003EB4302B0FBF2F0013020
:101EE0006FF31F3040F4004040EA0C00C8610868FE
:101EF000D4E9072320F0C000104318430860886825
:101F000048F2FF3204F10C0790438CCF1843104382
:101F1000A6698860C86820F0FF0038433043C86075
:101F2000086840F00100086000202021206484F847
:101F30003D10206384F83E0001B0F0BD2DE9F04F64
:101F400081B09946924688460446FFF739FF94F8D7
:101F50003D10202909D105462068806910F0020053
:101F600007D194F83C00012828D1022001B0BDE837
:101F7000F08F012686EA500707E000BF20688069DD
:101F800010F0020086EA5007EBD0FFF719FF401B64
:101F90001A28F3D3206880698007EFD5002020211C
:101FA000206384F83D1084F83E00216C41F020014C
:101FB0002164F90784F83C00D3D1D6E701212068D9
:101FC00084F83C100168C90703D1016841F00101A0
:101FD0000160016821F400610160222184F83D1054
:101FE000102184F83E1000212164C4F824A0A4F834
:101FF0002A90618D21850021CFF6FF71E162E16AAF
:10200000026811F5803F42F48062026018BF012926
:1020100024D1016841F4807101604069DDF828A095
:1020200010F0010036D180F001070AF101060AE044
:1020300020684169C90717D02068406910F0010085
:1020400080F0010726D1002EF6D0FFF7B9FEBAF1D5
:10205000000FEDD0401B5045EED9E9E70829D8D054
:10206000216B1129D5D0D8E700212022216384F8E3
:102070003D2084F83E10226C42F020022264FA07D0
:1020800084F83C1006D00068C00544BF4FF40070CF
:10209000206425E22069B0F5804F03D148F00100AB
:1020A000C1B284E0062000EAD819206809F1F001E5
:1020B0000161416909071BD44169490500F1978015
:1020C0000AF1010767B1FFF77BFEBAF1000F02D0FA
:1020D000401B504504D920684069000740F1F38156
:1020E00020684169090703D441694905EAD57EE0C2
:1020F00020685FFA88F10161416989071AD4416952
:10210000490574D40AF1010767B1FFF759FEBAF126
:10211000000F02D0401B504504D920684069800759
:1021200040F1D18120684169890703D4416949059B
:10213000EAD55CE000200090206841690091816947
:1021400000910099016841F480710160406910F0CC
:1021500001002AD180F001070AF101060AE0206897
:102160004169C90711D02068406910F0010080F072
:1021700001071AD1002EF6D0FFF722FEBAF1000FA8
:10218000EDD0401B5045EED9E9E700212022216324
:1021900084F83D2084F83E10226C42F02002226434
:1021A000FA0784F83C107FF46EAF49F0F101206823
:1021B0000161416989072CD44169490517D40AF1A5
:1021C000010700BF67B1FFF7FBFDBAF1000F02D0B6
:1021D000401B504504D920684069800740F1738155
:1021E00020684169890714D441694905EAD5016825
:1021F00041F4007101606FF4806141610020202191
:10220000206384F83D1084F83E00216C41F0040105
:1022100063E1208D022817D0012804D0E8B90020FE
:102220000090206806E02068016821F48061016068
:102230000021009141690091816900910099016834
:1022400041F40071016014E02068016821F48061AC
:102250000160016841F4006103E02068016841F415
:1022600080610160002100914169009180690090C6
:102270000098218D002900F00F814FF001080AF12C
:10228000010B4FF0000920262068032950F8142F75
:1022900023D8012957D0022973D112F0040040F04D
:1022A000DA8088EA90070CE020684069400740F136
:1022B000C4802068406910F0040088EA900740F06C
:1022C000CA80BBF1000FF4D0FFF77AFDBAF1000F1E
:1022D000EAD0401B5045ECD9E6E7510626D52068E8
:1022E000616A00690870606A228D0130013A60629B
:1022F00022852168638D013B63854B695B0740F153
:10230000C78092B2032A03D10A6822F480620A606D
:1023100009690170B3E000BF20684069400640F1E0
:10232000D280206850F8141F4906D8D40168C90625
:1023300000F1BD80FFF744FDBAF1000FECD0401B67
:102340005045EED9E8E751060ED52068616A00696C
:10235000087094E020684069400640F1B48020682D
:1023600050F8141F4906F0D40168C90600F19F8097
:10237000FFF726FDBAF1000FECD0401B5045EED917
:10238000E8E712F0040028D188EA90070AE0206804
:102390004069400712D52068406910F0040088EABF
:1023A00090071AD1BBF1000FF5D0FFF709FDBAF184
:1023B000000FECD0401B5045EDD9E8E7C4F8309051
:1023C00084F83D6084F83E90206C40F0200020644A
:1023D000F80784F83C9040F083802068616A0268C6
:1023E00022F48062026000690870606A216801302E
:1023F0006062208D01382085608D013860854869D4
:1024000010F0040027D188EA90070AE020684069AC
:10241000400712D52068406910F0040088EA900750
:1024200019D1BBF1000FF5D0FFF7CAFCBAF1000FCC
:10243000ECD0401B5045EDD9E8E7C4F8309084F863
:102440003D6084F83E90206C40F020002064F80746
:1024500084F83C9044D12068616A026842F40072BA
:10246000026000690870606A2268411C6162218D07
:1024700001392185618D0139618511694170606A79
:10248000218D01306062481E2085608D0138608595
:10249000218D00297FF4F8AE202084F83D00002033
:1024A00084F83E0084F83C0001B0BDE8F08F6FF086
:1024B0001001016000202021206384F83D1084F881
:1024C0003E00216C09E000202021206384F83D10AB
:1024D00084F83E00216C41F02001216484F83C0026
:1024E000012001B0BDE8F08F2DE9F04782B0994698
:1024F000924688460446FFF763FC94F83D10202975
:1025000009D105462068806910F0020008D194F8CE
:102510003C00012828D10226304602B0BDE8F087F1
:10252000012686EA500706E02068806910F0020064
:1025300086EA5007EBD0FFF743FC401B1A28F3D381
:10254000206880698007EFD500202021206384F86F
:102550003D1084F83E00216C41F020012164F90710
:1025600084F83C00D3D1D6E70121206884F83C10E0
:102570000168C90703D1016841F0010101600168E8
:1025800021F400610160212184F83D10102184F8BC
:102590003E1000212164C4F824A0A4F82A90618D83
:1025A00021850021CFF6FF71E162E16A11F5803FDC
:1025B00018BF012924D1016841F48071016040698C
:1025C000DDF8289010F0010037D180F0010609F104
:1025D00001070AE020684169C90717D020684069EF
:1025E00010F0010080F0010627D1002FF6D0FFF790
:1025F000E7FBB9F1000FEDD0401B4845EED9E9E704
:102600000829D8D0216B1229D5D0D8E70021202263
:10261000216384F83D2084F83E10226C42F02002B1
:102620002264F20784F83C1007D000680126C00538
:1026300044BF4FF4007020646EE72069B0F5804F0E
:1026400001D1FE2125E0062000EAD8112068F031F2
:102650000161416909071BD4416949053BD409F16E
:10266000010600BF66B1FFF7ABFBB9F1000F02D066
:10267000401B484504D920684069000740F1D180DB
:1026800020684169090703D441694905EAD522E078
:10269000FF21206801EA080101614169890730D4FE
:1026A0004169490517D409F1010600BF66B1FFF77A
:1026B00087FBB9F1000F02D0401B484504D92068C0
:1026C0004069800740F1AD8020684169890718D4CE
:1026D00041694905EAD5016841F4007101606FF470
:1026E0008061416100202021206384F83D1084F83E
:1026F0003E00216C41F00401216484F83C00012675
:102700000AE70026019620684169019180690190DD
:102710000198208D002859D009F1010704E000BF7D
:1027200020684069000663D5206850F8141F090628
:102730000DD40168490556D4002FF5D0FFF740FBB2
:10274000B9F1000FECD0401B4845EDD9E8E7D4F8CB
:1027500024E02268704610F8013B13616062608DCE
:1027600001386085B4F828C01046ACF10103238518
:1027700050F8141F49070DD519040BD09EF801100D
:1027800011610EF102016162618D01396185ACF167
:1027900002012185016806E020684069400727D5CD
:1027A000206850F8141F49070DD4016849051AD450
:1027B000002FF5D0FFF704FBB9F1000FECD0401B60
:1027C0004845EDD9E8E7208D0028ADD120680168A3
:1027D00041F400710160202084F83D0084F83E60DF
:1027E00084F83C6098E66FF480610160042000E0AA
:1027F000202000212022216384F83D2084F83E100F
:10280000226C1043206484F83C10206C042806D10C
:1028100020680126016841F4007101607CE6012610
:102820007AE600202021206384F83D1084F83E00E1
:10283000216C41F020015FE72DE9F04F87B045F6AC
:1028400000460068C4F200060025B0420695CDE9B6
:1028500004550395029502D007B0BDE8F08F43F60A
:1028600030070195C4F20207386802AC40F004005A
:10287000386038684FF0120800F0040001900198A9
:10288000019538684FF0010940F001003860386860
:102890004FF0030A00F00100019001984FF400701E
:1028A00002904FF0040B06F5D6302146CDF80C808F
:1028B000CDF81090CDF814A0CDF818B0FFF7AAF914
:1028C0004FF4807002A981E8010F06F5D23021464D
:1028D000FFF7A0F90195386940F4000038613869C4
:1028E00000F400000190019807B0BDE8F08F0000EF
:1028F00040F2080040F6A051C2F20000C2F200010E
:1029000000780A68104408607047000080B543F6FC
:102910000040C4F20200016841F4007101600168E6
:1029200041F480610160016841F48071016003201D
:1029300000F0B4F8072000F005F800F02BF80020B4
:1029400080BD0000B0B540F20802C2F2000240F2C1
:1029500004011278C2F200014FF47A730968B3FBE4
:10296000F2F20446B1FBF2F1084600F019FE0F2C1A
:102970004FF001050CD858B94FF0FF302146002226
:10298000002500F05FF840F20C00C2F20000046085
:102990002846B0BD80B582B0002043F640010190CA
:1029A000C4F202014A6842F480424A604A6802F472
:1029B00080420192019A0090086840F080500860BF
:1029C000086800F0805000900098042000F066F83D
:1029D0006FF00B000121002200F034F86FF00A00C4
:1029E0000121002200F02EF86FF0090001210022E1
:1029F00000F028F86FF004000121002200F022F816
:102A00006FF003000121002200F01CF86FF00100BC
:102A10000121002202B0BDE8804000F013B80000A0
:102A2000002848BF704700F01F01012202FA01F19F
:102A30001C2202EAD0004EF20012CEF200028150B7
:102A40007047000010B54EF60C5CCEF2000CDCF8BE
:102A50000030C3F3022E8EF00704042C28BF042498
:102A6000BEF103034FF0FF3E0EFA04F438BF00231B
:102A7000A14399400EFA03F39A43114300F16042D7
:102A800000F00F03090102F56442043B634400288F
:102A900048BF03F10C02117010BD00004EF60C513E
:102AA000CEF200010A684FF6FF031A4060F30A22D3
:102AB00042F0806040F0FD7008607047002804BF5D
:102AC000012070472DE9F04143F60808C4F20208DE
:102AD0000446D8F8F8030D4600F00700884207D2F4
:102AE00088F8F853D8F8F80300F00700A84276D128
:102AF0002068810717D5410705D5D8F8001041F4A3
:102B0000E051C8F80010010705D5D8F8001041F4CD
:102B10006041C8F80010D8F80010A26821F0F00158
:102B20001143C8F80010C0073FD1D8F8F80300F0EF
:102B30000700A84207D988F8F853D8F8F80300F03E
:102B40000700A8424BD12068410707D5D8F80010EC
:102B5000E26821F4E0511143C8F80010000708D5DD
:102B6000D8F80000216920F4604040EAC100C8F8AC
:102B7000000000F07BF8D8F800104AF69812C1F374
:102B80000311C0F60002515C40F2040220FA01F188
:102B900040F20C00C2F200000068C2F200021160B4
:102BA000FFF7D0FE0020BDE8F0816068811E022999
:102BB00007D258F8081C89015CBF0120BDE8F081EC
:102BC00010E0012807D158F8081C89035CBF0120D8
:102BD000BDE8F08106E058F8081C890702D40120FE
:102BE000BDE8F081D8F8001021F003010843C8F8CF
:102BF0000000FFF7E5F8064641F28837D8F80000F4
:102C0000616800F00C00B0EB810F8ED0FFF7D8F8B0
:102C1000801BB842F2D90320BDE8F08140F20400E5
:102C200043F60801C2F20000C4F20201006809681C
:102C30004AF6A812C1F38221C0F60002515CC840D6
:102C40007047000040F2040043F60801C2F20000A1
:102C5000C4F20201006809684AF6A812C1F34231C1
:102C6000C0F60002515CC8407047000010B543F642
:102C70000404C4F20204606800F00C0142F2004057
:102C80000829C0F2F40007D0042918BF10BD41F292
:102C90000020C0F27A0010BD216801F03F022168D7
:102CA00023684902C3F3881105D4A1FB0001002366
:102CB000FDF786FA06E041F20020C0F27A004843B0
:102CC000B0FBF2F021680222C1F3014102EB4101A5
:102CD000B0FBF1F010BD0000002804BF01207047D8
:102CE0002DE9F04182B00446007843F60006C007A3
:102CF000C4F2020649D0B06800F00C00042809D1E3
:102D00003068800341D5606800283ED1012002B0C0
:102D1000BDE8F081B06800F00C00082802D17068AE
:102D20004002EDD465683068B5F5A02F05D0B5F543
:102D3000803F09D140F480300CE040F480203060C6
:102D4000306840F4803005E020F480303060306836
:102D500020F480203060FFF733F8002D054611D0B5
:102D60003068800311D4FFF72BF8401B6428F7D993
:102D700028E100BFFFF724F8401B64284FF0030050
:102D800000F2E08030688003F4D4207880071BD5FF
:102D9000B06810F00C0F09D0B06800F00C000828E3
:102DA00040F085807068400200F1818030688007C3
:102DB00003D5E068012840F09A803068216920F04E
:102DC000F80040EAC10030602078000734D4207851
:102DD000400746D4A5695DB3B06800F00C00082830
:102DE00040F09C80012D00F082807068E16900F461
:102DF00080028A427BD1216A00F03F028A4276D16A
:102E000047F6C071626A0140B1EB821F6FD1A16ABF
:102E10004FF6FF73C903994300F44032A1F58031A6
:102E20008A4264D1E16A00F07060B0EB016F5ED15C
:102E3000002002B0BDE8F081606900285BD000206E
:102E4000C4F247200121C0F8801EFEF7B9FF0546F5
:102E5000706F8007BBD4FEF7B3FF401B0228F7D981
:102E6000B0E0306C5FEAC0080AD400200190306CFA
:102E700040F080503064306C00F080500190019838
:102E800047F20007C4F200073868C00526D4386846
:102E900040F480703860FEF793FF05463868C0053F
:102EA0001CD4FEF78DFF401B0228F7D98AE0E068AA
:102EB000002840F20000C4F2472053D001210160F5
:102EC000FEF77EFF054600BF306880073FF575AF0F
:102ED000FEF776FF401B0228F6D973E0A568306F35
:102EE000052D51D0012D56D140F0010059E00120AF
:102EF00002B0BDE8F0810020C4F247200021C0F8F4
:102F0000801EFEF75DFF0546706F80077FF55FAF9F
:102F1000FEF756FF401B0228F6D953E00027C4F203
:102F2000472700203866FEF74BFF022D05460DD1DE
:102F3000306880015DD5FEF743FF401B02284FF04B
:102F40000300F5D902B0BDE8F08100BF3068800110
:102F50007FF56EAFFEF734FF401B02284FF00300F1
:102F6000F4D9EFE700210160FEF72AFF054600BF14
:102F7000306880077FF528AFFEF722FF401B02284C
:102F80004FF00300F4D9DDE740F004003067306F04
:102F900040F0010005E020F001003067306F20F0C4
:102FA00004003067FEF70CFF002D054641F288371C
:102FB00013D000BF306F800712D4FEF701FF401B13
:102FC000B842F7D9032002B0BDE8F081FEF7F8FE61
:102FD000401BB8424FF00300B4D8306F8007F5D4DF
:102FE000B8F1000F3FF5F6AE306C20F08050306441
:102FF000F0E604F11C052FCD084340EA8210D90306
:103000004FF6FF729143A1F5803140EA0560084315
:10301000706001203866FEF7D3FE044630688001F8
:103020003FF506AFFEF7CCFE001B02284FF0030071
:10303000F4D987E770B504460079012804BF002061
:1030400070BD012020716679012E1DD102206071B2
:10305000FEF7B6FE21684A68D20718D1054603E09C
:1030600021684868C00712D1FEF7AAFE401B03285A
:10307000F6D320684068C007F2D1012060710220B9
:10308000A0600020207170BD0420A06003E088686B
:10309000E0600120607100202071012E08BFE0680F
:1030A00070BD0000002804BF0120704710B54179B1
:1030B00029B900210171044600F00EF820460221D2
:1030C000417101680A6842F004020A6001214171FD
:1030D00000218160002010BD006840F60001C5F2AB
:1030E0000601884218BF704781B00020009043F667
:1030F0003400C4F20200016841F040010160006840
:1031000000F040000090009801B070477047000048
:10311000B0B582B001684A688B6803F04105012DA3
:1031200004D112F0400501D0016C05E09D0707D5E0
:1031300012F0800504D0416C02B0BDE8B0400847F1
:1031400013F4B07F18BF12F0200501D102B0B0BD5A
:103150005D0617D590F85150032D08D1002001903D
:10316000C868019088680190019802B0B0BD456DB3
:1031700045F00405456500250195CD6801958D68EC
:103180000195019D9D060CD5456D45F001054565F0
:10319000002501958D6801950D6825F040050D60AD
:1031A000019DDB0508D5436D43F00803436500230B
:1031B00001938B680193019B436D002BC6D04B6834
:1031C000920723F0E0034B604FF0010380F8513089
:1031D00025D04A6845F6812422F003024A60C16C7A
:1031E000C0F6000459B1054608460C65FEF74CFBD5
:1031F0000146284619B1416D41F040014165816C9D
:103200000029A3D00C6504460846FEF73DFB0028C4
:103210009CD0606D40F04000606502B0B0BD02B06F
:10322000BDE8B040FFF772BF70B528B1416A29B15F
:1032300000210161142106E0012070BD4168B1F553
:10324000827F02D01C21002242500026866290F824
:10325000511029B980F85060054600F03DF8284625
:10326000022180F8511090E82E0002F482720C685E
:1032700003F4044324F040040C601A4405F4006392
:1032800005691A4405F0020345691A4405F0010373
:103290008569C4691A4405F400731A4404F03803BC
:1032A000046A1A4404F08003846A1A4304F4005345
:1032B0001A430A60436A042202EA154203F010032B
:1032C0001A444A60CA6922F40062CA610121466553
:1032D00080F85110304670BD70B586B0044643F694
:1032E00000402168C4F20000002681420596CDE925
:1032F00003660296019601D006B070BD43F6300118
:103300000096C4F202010A6900F5E63042F4004278
:103310000A610A6902F400420092009A00960A6863
:1033200042F004020A60096801F00401009100996A
:103330004FF4A05101910221CDE90216032104911D
:103340000621059101A9FEF765FC40F2883546F299
:10335000B800C2F20005C4F2020040214FF48062BE
:10336000C5E900062846C5E90216C5E90426C5E9EF
:103370000666C5E90866FEF75DFB002818BFFEF784
:10338000E3F9332001210022A564AC63FFF75AFB67
:103390003320FFF745FB06B070BD00002DE9F0417A
:1033A00084B01D4616460F460446FEF709FD94F804
:1033B000511001290DD18046002F4FF0010018BF98
:1033C000002E02D104B0BDE8F08194F8500001282D
:1033D00003D1022004B0BDE8F081012084F8500040
:1033E000032084F85100002060652763A686E686E6
:1033F000A063A087E087A168C4E91000B1F5004F81
:1034000008D12068016821F040010160016841F4A1
:103410008041016020680168490603D4016841F0D9
:10342000400101606168731EE268B1FA81F1B3FA8C
:1034300083F349095B09B2F5006F41EA030124D126
:1034400031B137F8021BC1602763E08E0138E08696
:10345000E08E002847D06E1C0AE000BF216B31F8D7
:10346000022BC2602163E08E0138E086E08ED0B38B
:10347000206881688907F1D4FEF7A2FC002EF5D000
:10348000A0EB0800A842F1D323E039B139780173E9
:10349000206B01302063E08E0138E086E08E10B3AF
:1034A0006E1C0AE0216B09780173206B01302063E8
:1034B000E08E0138E086E08EA8B120688168890737
:1034C000F0D4FEF77DFC002EF5D0A0EB0800A8425A
:1034D000F1D3012084F85100002084F8500003202B
:1034E00004B0BDE8F0812046022101222B46CDF830
:1034F000008002F0CBFAE0B1606D40F02000606522
:1035000020206065A06838B9002002902068C1685A
:103510000291806802900298012084F851000020F6
:1035200084F85000606D002818BF012004B0BDE889
:10353000F08140F20400C2F20000006849F6817197
:10354000C1F25E61A0FB0101480D4FF47A7148435E
:1035500003906068B0F5827F0AD120468021002266
:103560002B46CDF8008002F091FA0028C4D1C9E7BB
:1035700003980028C6D0039801380390206880681B
:103580000006F5D4BEE700004EF21001CEF20001B5
:103590000A68042822F0040208BF04320A60704757
:1035A000411E0020B0EB116F1CBF012070474EF28E
:1035B0001002CEF2000251604EF62351CEF200010D
:1035C000F0230B7007219060116070477047000076
:1035D0007047000090F83C20012A04BF0220704789
:1035E000B0B501F108053CCDD1E900CE23F47C5300
:1035F00022F470521A432EF4F0431A432CF4E043A1
:103600001A4324F4C0431A432A43C96922F480426E
:10361000036811435964002180F83C100020B0BDBC
:1036200090F83C20012A4FF0020255D010B501233A
:1036300080F83C3080F83D200268D2F804E0D2F8EF
:1036400008C00C682EF07003234341F2FF74C4F2EB
:103650000004A24253600DDC40F2FF73C4F2000389
:103660009A4215DCB2F1804F29D040F20043C4F2F7
:10367000000322E040F2FF33C4F201039A4212DC5D
:1036800041F60003C4F200039A4218D0002312E06E
:1036900040F60003C4F200039A4210D040F6004303
:1036A000C4F2000309E044F20003C4F201039A42A9
:1036B00005D040F20043C4F201039A4204D14968A4
:1036C0002CF08003194391600121002280F83D1005
:1036D00080F83C20BDE8104010467047002804BF29
:1036E0000120704710B5044690F83D0028B900202D
:1036F00084F83C00204600F01FF8022084F83D00CA
:103700002068211D03F0F0FE012084F8460084F8B3
:103710003E0084F83F0084F8400084F8410084F8BB
:10372000420084F8430084F8440084F8450084F89B
:103730003D00002010BD000080B582B0006841F659
:10374000FF71C4F20001884221DC40F60041C4F25E
:10375000000188423CD041F60001C4F200018842D9
:1037600045D10020019043F64000C4F202000168F8
:10377000012241F0400101600068002100F040009A
:10378000019001982B20FFF75DF92B2046E042F2D3
:103790000001C4F2000188422BD00021C4F20101D3
:1037A000884224D10020019043F64000C4F2020078
:1037B0004168002241F0010141604068012100F0B0
:1037C0000100019001981920FFF73CF9192025E02C
:1037D0000020019043F64000C4F20200016841F06D
:1037E00008010160006800F008000190019802B033
:1037F00080BD0020019043F64000C4F20200016841
:10380000002241F4807101600068012100F48070A1
:10381000019001982D20FFF715F92D2002B0BDE889
:103820008040FFF7FDB8000090F83D1001291CBF53
:1038300001207047022180F83D10006841F2FF72BC
:10384000C168C4F20002904241F00101C1600DDC88
:1038500040F2FF71C4F20001884215DCB0F1804FE4
:1038600029D040F20041C4F2000122E040F2FF31D1
:10387000C4F20101884212DC41F60001C4F20001E9
:10388000884218D0002112E040F60001C4F2000185
:10389000884210D040F60041C4F2000109E044F231
:1038A0000001C4F20101884205D040F20041C4F297
:1038B0000101884206D1816801F00701062904BF91
:1038C00000207047016841F001010160002070474D
:1038D00090F83C20012A4FF002026ED080B50123FF
:1038E00080F83C3080F83D20D0F800C04FF6777269
:1038F000DCF8083023EA0202CCF808200B684F2BD2
:1039000028DC1F2B44DD202B45D0302B43D0402B0F
:1039100040F0AC80D1F804E0C968DCF82030DCF875
:10392000202022F00102CCF82020DCF8182022F020
:10393000F00242EA011123F00A0242EA0E02CCF838
:103940001810CCF82020DCF8081041F0470121F0D5
:10395000300127E06F2B32DDB3F5005F73D0B3F594
:10396000805F21D0702B40F08180D1E901E3C968EC
:10397000DCF8082043EA0E0322F47F4243EA0121E7
:103980001143CCF80810DCF8081041F0770109E089
:103990000BB1102B6AD1DCF8081021F0700119432B
:1039A00041F00701CCF808100022012180F83D10F9
:1039B000002180F83C10BDE8804010467047502B35
:1039C00021D0602B52D1D1F804E0C968DCF8203056
:1039D000DCF8202022F01002CCF82020DCF818209F
:1039E00022F4704242EA013123F0A00242EA0E12B0
:1039F000CCF81810CCF82020DCF8081041F0670152
:103A000021F01001CEE7D1F804E0C968DCF82030DD
:103A1000DCF8202022F00102CCF82020DCF818206D
:103A200022F0F00242EA011123F00A0242EA0E02F9
:103A3000CCF81810CCF82020DCF8081041F0570121
:103A400021F02001AEE7D1E901E3C968DCF80820E4
:103A500043EA0E0322F47F4243EA01211143CCF8EA
:103A60000810DCF8081041F480419BE701229CE734
:103A7000002804BF012070472DE9F047044690F864
:103A80003D000D4628B9002084F83C00204600F097
:103A900049F8022084F83D00206844F2070281685A
:103AA00091438160211D03F01FFD20684FF6FF78D0
:103AB00081688269D0F820C0D5E9003ED5E9026A64
:103AC00043EA0109AB6922EA080246EA03234FF6FA
:103AD000FC46B343D5E9076742EA0A0229691A435B
:103AE00042EA062242EA01112CF0AA026B6942EA7C
:103AF0000E0241EA073142EA0312C0F808908161E0
:103B00000262012084F8460084F83E0084F83F00F9
:103B100084F8420084F8430084F83D000020BDE8AA
:103B2000F087000080B586B0006840F60002C4F25D
:103B3000000200219042CDE90411CDE9021101916A
:103B400024D040F20041C4F20001884248D1002054
:103B500043F630010090C4F202010A6942F0020209
:103B60000A610A6902F002020092009A0090086855
:103B700040F0040008600868C02100F004000090D4
:103B8000009840F60000C4F202001FE043F6300047
:103B90000091C4F20200026942F00402026102696B
:103BA00002F004020092009A0091016841F00801BD
:103BB000016000684FF4405100F008000090009848
:103BC00040F60000C4F2020000F58060019102217D
:103BD00002910022059101A9CDE90322FEF71AF80E
:103BE00006B080BD80B590F83E2090F83F3090F848
:103BF00042E090F843C0042909D099B9012A4FF056
:103C0000010208BFBEF1010F22D0104680BD012B7A
:103C10004FF0010208BFBCF1010FF6D1022280F87B
:103C20003F2012E0012A4FF0010208BF012BECD126
:103C3000BEF1010FE9D1BCF1010FE6D1022280F8FB
:103C40003E2080F83F2080F8422080F8432004E0A6
:103C5000022280F83E2080F8422002680429136A7C
:103C600004D031B923F0010101230DE023F010014C
:103C700009E023F001011162116A41F001011162B2
:103C8000116A21F0100110231162116A19431162A7
:103C900000680022016841F001010160104680BD0A
:103CA000704700007047000070B504460068C568A2
:103CB0000669B10716D515F0020113D06FF00201A5
:103CC0000161012121778069800703D02046FFF739
:103CD000E9FF05E0204600F0EFF8204600F06AFA20
:103CE00000202077700718D515F0040015D0206843
:103CF0006FF00401016102212177806910F4407F97
:103D000003D02046FFF7CEFF05E0204600F0D4F8B0
:103D1000204600F04FFA00202077300717D515F025
:103D2000080014D020686FF0080101610421217798
:103D3000C069800703D02046FFF7B4FF05E02046A6
:103D400000F0BAF8204600F035FA00202077F0069F
:103D500018D515F0100015D020686FF01001016122
:103D600008212177C06910F4407F03D02046FFF777
:103D700099FF05E0204600F09FF8204600F01AFA6F
:103D800000202077F00718BF15F0010002D130069F
:103D900009D412E020686FF001010161204600F0B3
:103DA00027FC300609D515F0800006D020686FF09A
:103DB000800101612046FFF709FC700609D515F066
:103DC000400006D020686FF040010161204600F0FD
:103DD000EDFCB00658BF70BD15F0200008D021687A
:103DE0006FF0200220460A61BDE87040FFF7F0BB8B
:103DF00070BD000080B586B000680021B0F1804F32
:103E00000591CDE903110291019135D040F60041B1
:103E1000C4F2000188421DD00021C4F20101884291
:103E200047D10020009043F63000C4F20200016840
:103E300041F0100101600068012100F010000090C5
:103E400000984FF4007001900020C4F2020000F5C9
:103E5000805025E00020009043F63000C4F20200BC
:103E6000016841F0010101600068022100F00100D9
:103E70000090009801200FE043F630000091C4F25A
:103E80000200016841F0010101600068012100F0B9
:103E9000010000900098082001900020C4F2020068
:103EA000022202920022059101A9CDE90322FDF729
:103EB000B1FE06B080BD00007047000090F83C30B5
:103EC000012B04BF022070474FEAB2020123032AEC
:103ED00080F83C3000F2F8802DE9F043DFE802F092
:103EE00002AF3D7D036840F200461C6A1A6A24F066
:103EF000020422F001021A621A46D3F804C052F8F2
:103F000018EF8F6843F48065C4F20106B54244EAB5
:103F1000070405D1CF6824F00C0427F004073C43C4
:103F20000F68B54206D1D1E905582CF440762E43EE
:103F300046EA080C2EF073063743C3F804C09F61AD
:103F40004F6809695F631C629F6947F008079F61BA
:103F50009F6927F004079F61B0E0036840F20048C2
:103F60001C6A1A6A24F4007422F480721A621A46D7
:103F7000D3F804C052F81CEF8F6843F48065C4F294
:103F80000108454544EA072408D1CF6840F2FF46BE
:103F90003F0224F4406427EA06063443D1F8009037
:103FA000454506D1D1E905562CF440572E4347EA42
:103FB000061C2EF0730747EA0907C3F804C0DF6147
:103FC0004F680969DF631C62DF6947F00807DF613A
:103FD000DF6927F00407DF6170E0036840F2004505
:103FE000D3F820C01A6A43F4806722F480521A6220
:103FF0001A465C6852F81C8FD1F800E08E68C4F253
:104000000105AF4204D14D6924F4804444EA85148B
:104010002CF4005747EA063728F4E64646EA0E260F
:104020005C60DE614E6809691E641F62DF6947F4E7
:104030000067DF61DF6927F48067DF613DE00368C7
:1040400040F200481C6A1A6A24F0200422F0100290
:104050001A621A46D3F804C052F818EF8F6843F476
:104060008065C4F20108454544EA071407D1CF68CA
:104070006FF0400624F0C00406EA07163443D1F876
:104080000090454506D1D1E905562CF440672E43F2
:1040900047EA860C2EF4E64747EA0927C3F804C02E
:1040A0009F614F6809699F631C629F6947F40067BD
:1040B0009F619F6927F480679F6109021368194314
:1040C00000231160BDE8F043002180F83C10184641
:1040D00070470000002804BF0120704710B5044657
:1040E00090F83D0028B9002084F83C00204600F0FC
:1040F0001FF8022084F83D002068211D03F0F4F928
:10410000012084F8460084F83E0084F83F0084F8DB
:10411000400084F8410084F8420084F8430084F8A9
:10412000440084F8450084F83D00002010BD0000E4
:10413000F0B581B004460068B0F1804F01D001B005
:10414000F0BD002043F640010090C4F202010A686D
:1041500040F2E83542F001020A600968C2F2000547
:1041600001F001010091009946F2A001C4F20201A0
:104170004FF0C062402385E80E0005F10C014FF4BA
:10418000806C4FF4805E4FF480464FF4807781E876
:104190000150C5E908002846C5E90667FDF74AFC55
:1041A000002818BFFDF7D0FAA562AC632563AC63A5
:1041B00001B0F0BD7047000070470000412208299F
:1041C00008BF4022042908BF3F22002908BF3E2221
:1041D000825C012A1CBF01207047022241B10829DC
:1041E00009D0042914BF80F8412080F83F2004E062
:1041F00080F83E2001E080F84020006801F01F01B7
:104200000122036A02FA01F123EA01020262026A50
:104210000A4341F2FF71C4F20001884202620BDCE2
:1042200040F2FF71C4F20001884213DCB0F1804F0C
:1042300045D040F2004115E040F2FF32C4F20102E5
:10424000904214DC41F60003C4F20003984236D0D9
:10425000002314E040F60001C4F2000188422ED091
:1042600040F60041C4F20001884228D02EE044F21A
:104270000003C4F20103984221D040F20043C4F28B
:104280000103984222D1436C884243F400434364C3
:10429000C6DD904207DC41F60001C4F2000188420D
:1042A0000DD0002107E044F20001C4F20101884270
:1042B00005D040F20041C4F20101884206D1816874
:1042C00001F00701062904BF00207047016841F092
:1042D000010101600020704770B54126082908BF20
:1042E0004026042908BF3F26002908BF3E26865DD8
:1042F0004125022E04BF022070BD082908BF4025B9
:10430000042908BF3F25002908BF3E25465D012E30
:1043100040F0A0800546002A4FF0010018BF002B96
:1043200000D170BD59B1082928464FF002060BD0C4
:10433000042914BF80F8416080F83F6006E002263F
:10434000284685F83E6001E080F840604FEAB104FD
:10435000032C00F281800E46DFE804F00260224167
:10436000456A47F21D64C0F60004EC63456A47F2F3
:104370008564C0F600042C64456A47F2BD64016898
:10438000C0F60004EC640546406A01F1340C1146A5
:104390006246FDF7EFFB00285CD14FF4007060E04F
:1043A000C56A47F21D64C0F60004EC63C56A47F2B3
:1043B0008564C0F600042C64C56A47F2BD640168D8
:1043C000C0F60004EC640546C06A01F13C0C1146DD
:1043D0006246FDF7CFFBE8BB4FF4006041E0056BA0
:1043E00047F21D64C0F60004EC63056B47F2856478
:1043F000C0F600042C64056B47F2BD640168C0F68A
:104400000004EC640546006B01F1400C1146624665
:10441000FDF7B0FBF0B94FF4805022E0856A47F217
:104420001D64C0F60004EC63856A47F28564C0F63B
:1044300000042C64856A47F2BD640168C0F600047C
:10444000EC640546806A01F1380C11466246FDF7BE
:1044500091FB20B1012070BD0120002209E04FF442
:10446000806029462968CA681043C860002001227C
:104470003146002A3FF455AF2A6801F01F0101239D
:10448000166A03FA01F126EA01031362136A0B4369
:1044900041F2FF71C4F200018A4213620DDC40F266
:1044A000FF71C4F200018A4215DCB2F1804F45D0A1
:1044B00040F20041C4F200013EE040F2FF33C4F29A
:1044C00001039A4212DC41F60006C4F20006B24231
:1044D00034D0002612E040F60001C4F200018A4206
:1044E0002CD040F60041C4F2000125E044F2000661
:1044F000C4F20106B24221D040F20046C4F20106E5
:10450000B24221D1566C8A4246F400465664C6DD5A
:104510009A4207DC41F60001C4F200018A420DD044
:10452000002107E044F20001C4F201018A4205D0F3
:1045300040F20041C4F201018A4205D1916801F0C4
:104540000701062908BF70BD116841F00101116023
:1045500070BD000010B5026801F01F0E4FF0010C95
:10456000146A0CFA0EF324EA0303136240F20043C8
:10457000D2F820C042F48064C4F201039C42C2F825
:1045800020C00DD1136A41F21114234208D1136ADD
:1045900040F24444234203D1536C23F40043536458
:1045A000136A41F21114234204D1136A40F24444C5
:1045B000234212D0082916D0042909D000294FF02F
:1045C000010114BF80F8411080F83E10002010BD9A
:1045D000012180F83F10002010BD136823F0010373
:1045E00013600829E8D1012180F84010002010BD97
:1045F0002DE9F04381B02DED088B8AB0044640F2DE
:104600002C70C2F2000084423FD140F6FC45C2F259
:1046100000052846FDF79CF8284603F07DF801F0D8
:10462000A7FA40F69055C2F200052868022809D37F
:1046300040F6FC40C2F2000001F0EAFA03F0E0F8B4
:104640000020286040F68856C2F2000630680A282A
:1046500009D303F0E5F840F6FC40C2F2000001F097
:10466000C5FA0020306040F68C50C2F200000168AC
:10467000142924BF002101602968326801312960B2
:10468000511C02683160511C016040F27470C2F22A
:104690000000844279D140F69858C2F20008D8F858
:1046A0000000022804D303F05FFB0020C8F80000DC
:1046B00040F69C57C2F200073868322816D340F201
:1046C0007C64C2F200042046FEF7B4FC050F2046CD
:1046D000FEF7B0FC060F2046FEF7ACFC030F0020EF
:1046E00029463246002403F0C3FA3C6040F6945059
:1046F000C2F200000168642940F6FC41C2F20001E8
:1047000009D340F6A452C2F2000213684E68F36067
:10471000002313600360D8F800203B680132C8F81A
:1047200000205A1C03680D683A605A1C0260D5E9E3
:104730000060D5E90274FBF7F6FE804630468946F4
:10474000FBF7F1FE41EC180B3846FBF7ECFE41ECB1
:10475000190B2046FBF7E7FE41EC1A0B2869FBF723
:10476000E2FE41EC1B0B6869FBF7DDFE41EC100B30
:1047700040F6DC00C2F2000007A142464B468DEC39
:10478000088B8DED080B04F097FC0AB0BDEC088B8C
:1047900001B0BDE8F08300BF25662C25662C256698
:1047A0002C25662C25662C25660A00007047000023
:1047B00090F84230202B0AD194460A4600294FF047
:1047C000010118BFBCF1000F04D108467047022157
:1047D00008467047B0B582B001210163002522214F
:1047E00045638262A0F82CC0456480F84210C36B18
:1047F00047F6011E47F68114C0F6000EC0F600040D
:104800000168C3E90FE447F65D04C0F60004C3E99C
:1048100013450431044618466346FDF7ABF901958C
:10482000216820460A68019249680191019921692D
:1048300051B100BF016851E8031F026841F4807163
:1048400042E80313002BF5D1016851E8051F026807
:1048500041F0010142E80513002BF5D1016851E850
:10486000051F026841F0400142E80513002BF5D115
:10487000016B012914D10021009101680A6800929E
:1048800049680091009900BF016851E8031F026860
:1048900041F0100142E80313002BF5D1002100E0A4
:1048A000012102B0BDE8B040084670472DE9F04351
:1048B00083B0006844F20041C4F20001884262D033
:1048C00044F60001C4F2000188422DD041F20001FB
:1048D000C4F2010188421CBF03B0BDE8F08340F27E
:1048E0004840C2F2000000684068C0F18000C1B2D8
:1048F000012940F0AE8040F21400C2F200000078BE
:10490000A0F13003062B00F2A48040F21000002238
:10491000C2F20000DFE803F09C048D9189959900B4
:10492000026842F4004293E040F26850C2F2000094
:1049300000684068C0F18000C4B22B2C70D340F2F4
:104940001411B4F12B00C2F200014FD0002202E09A
:10495000013290424AD08B5C5A2BF9D18B185F7888
:10496000A52FF5D193F82A700D2FF1D193F82B30A4
:104970000A2BEDD140F6FC40C2F200000068012392
:1049800080F8283033E040F20850C2F2000000689E
:104990004068C0F18000C4B20A2CC0F08680B4F137
:1049A000090700F0828040F29400C2F20000451D29
:1049B0000FF20C1801AE0FF2101900BF15F8010C20
:1049C00055F8051C8DF80800019130464146FBF76B
:1049D0004CFC002842D030464946FBF746FC0028F4
:1049E0003ED0013F05F10105E8D15EE000226AB941
:1049F00008785A2814D14878A52811D191F82A00AE
:104A00000D280DD191F82B000A2809D140F6FC4061
:104A1000C2F200000068114402312822FBF701FCB9
:104A200040F21410C2F2000043E0026842F48052E7
:104A30000EE0026842F480420AE0026842F400524A
:104A400006E0026842F4006202E0026842F480621A
:104A5000026040F21400C2F200002BE07F2000E070
:104A6000802040F6FC41C2F2000149684FF47A769A
:104A70000A7A1043087228786A78AB78EF78704326
:104A8000642503EB830312FB05004E6800EB430033
:104A90003844801B4DF25002801A086040F6A45042
:104AA000C2F2000001680131016040F29400C2F2DC
:104AB00000002146FBF7CEFB03B0BDE8F08300BF4A
:104AC000244C494E45000000244C4F535400000034
:104AD00070470000B0B582B001680A68CC684B69C5
:104AE00002F02F05202D04F0200505D125B102B0DC
:104AF000BDE8B04002F074BF5FEA027C1EBF03F065
:104B0000010E04F4907313EB0E0340D1036BD50632
:104B100018D5012B16D114F0100313D000220192E6
:104B20000A6801924A680192019A4969490647D484
:104B3000818DC28DC38D002B18BF914240F0108132
:104B400002B0B0BD13062AD514F0800327D090F828
:104B50004120212AF4D18268B2F5805F03D1026935
:104B6000002A00F03081026A531C036212784A6006
:104B7000C28C013A1304C284E2D1C86820F08000DC
:104B8000C860C86840F04000C86002B0B0BDD1073E
:104B900018BF14F480715CD1510760D466E05206EE
:104BA000CED514F04002CBD0CA6822F04002CA60D1
:104BB000202180F8411002B0BDE8B04000F0E2BA18
:104BC000C16B0A68526893B2002BB9D0858DAB4295
:104BD000B6D2C285C969B1F5807F33D0016851E88A
:104BE000031F026821F4807142E80313002BF5D102
:104BF000016851E8051F026821F0010142E8051330
:104C0000002BF5D1016851E8051F026821F0400131
:104C100042E80513002BF5D1202180F84210002135
:104C2000016300BF016851E8031F026821F0100111
:104C300042E80313002BF5D1C16B04460846FCF78C
:104C4000E3FD204602214163818DC28D891A89B21C
:104C5000AFE0416C41F001014164510706D5BEF15E
:104C6000000F03D0416C41F002014164910706D569
:104C7000BEF1000F03D0416C41F004014164BCF16E
:104C8000000F06D55EEA050103D0416C41F0080132
:104C90004164416C00293FF453AF910604D51DB126
:104CA000044602F09DFE204601684969426C01F00D
:104CB000400102F0080289184BD000BF016851E89A
:104CC000031F026821F4907142E80313002BF5D111
:104CD000016851E8051F026821F0010142E805134F
:104CE000002BF5D1016B01290AD100BF016851E801
:104CF000031F026821F0100142E80313002BF5D1D5
:104D0000202180F8421000210163016849694906A9
:104D100054D500BF016851E8051F026821F0400129
:104D200042E80513002BF5D1C16B002946D047F6A8
:104D30005102C0F60002044608460A65FCF7A4FDCD
:104D400000283FF4FDAEE06B016D02B0BDE8B0405D
:104D500008470446FFF7BCFE0020606402B0B0BD07
:104D6000891A00BF026852E8032F036822F4907288
:104D700043E80325002DF5D1026852E8052F0368AA
:104D800022F0010243E80525002DF5D1202280F80C
:104D900042200022026300BF026852E8032F03682A
:104DA00022F0100243E80325002DF5D1022289B23A
:104DB000426302B0BDE8B040FFF778BD02B0BDE885
:104DC000B040FFF785BE026A32F8023B6FF35F2303
:104DD0004B600262CCE60000002804BF012070474F
:104DE00010B5044690F8410028B9002084F840002E
:104DF000204600F021F8242084F841002068C16892
:104E000021F40051C160204602F04AFE2068016989
:104E100021F490410161416921F02A014161C16899
:104E200041F40051C16000202021606484F84110E9
:104E300084F84210606310BD2DE9F04F87B004463E
:104E4000006844F20041C4F2000100268842CDE926
:104E50000566CDE90366029600F0F58044F6000190
:104E6000C4F20001884269D041F20001C4F201019C
:104E7000884240F03B8143F630000196C4F20200C4
:104E8000416946F2280841F0100141614169C4F2CC
:104E9000020801F01001019101990196016841F0A9
:104EA00001010160006802A900F001000190019871
:104EB0004FF4C06002900220CDE903060320059064
:104EC0000720069040F60040C4F20200A0F54060C2
:104ED000FCF7A0FE40F2484508F58360C2F20005E9
:104EE0004FF000674FF48069C5E900072846C5E91F
:104EF0000266C5E90496C5E90666C5E90866FCF7D9
:104F000099FD002818BFFCF71FFCE563AC6340F275
:104F1000A84508F59260C2F200054021C5E90007E6
:104F200005F1080080E842022846C5E90566C5E9A2
:104F300007666E62FCF77EFD25267DE0002743F6BE
:104F400030000197C4F20200016940F6004541F4C7
:104F5000802101610169C4F2020501F480210191FF
:104F600001990197016802AE41F0020101600168F8
:104F700046F2280801F002010191019901970168A8
:104F80004FF0020941F00801016000684FF0030A88
:104F900000F00800019001984FF4006002904FF07B
:104FA000070BA5F500603146C4F20208CDE903976E
:104FB000CDF814A0CDF818B0FCF72CFE4FF480709B
:104FC000CDE9020904A880E8800C28463146FCF7A8
:104FD00021FE40F26855C2F200054FF0006A4FF41E
:104FE00080694FF440362846C5E9008AC5E9027752
:104FF000C5E90497C5E90677C5E90867FCF71AFD16
:10500000002818BFFCF7A0FBE563AC6340F2C8556D
:1050100008F13000C2F200054021C5E9000A05F19F
:10502000080080E882022846C5E90577EF61C5E9F6
:105030000867FCF7FFFC272600284FF038074BD005
:10504000FCF782FB48E043F630000196C4F2020010
:10505000016941F400310161016901F400310191FC
:1050600001990196016841F008010160006802A9F8
:1050700000F0080001900198602002900220CDE924
:105080000306032005900720069040F60040C4F276
:105090000200FCF7BFFD46F22800C4F2020040F215
:1050A00008556030C2F200054FF000614FF4806295
:1050B00085E843002846C5E90362C5E90566C5E9F8
:1050C00007666E62FCF7B6FC00284FF026064FF02C
:1050D0003C0718BFFCF738FB304601210022E551A0
:1050E000AC63FDF7AFFC3046FDF79AFC07B0BDE8B6
:1050F000F08F00007047000070470000B0B590F8D6
:105100004140202C1CBF0220B0BD134600294FF0A7
:10511000010218BF002B01D11046B0BD002221248E
:1051200001628384C384426480F84140D0F838C06F
:1051300047F6991E47F6D915C0F6000EC0F60005D1
:105140000468CCE90FE547F65D05C0F60005CCE93B
:105150001352221D04466046FCF70CFD21682046D0
:105160006FF040020A6000BF016851E8051F026845
:1051700041F0800142E80513002BF5D100221046D2
:10518000B0BD00007047000070470000FEE700005F
:1051900080B582B0002043F630010190C4F20201D4
:1051A0000A6842F480020A600A6802F480020192EE
:1051B000019A00900868002240F400100860086816
:1051C000052100F40010009000980C20FDF73AFC37
:1051D0000C20FDF725FC0E2005210022FDF732FCF6
:1051E0000E20FDF71DFC102005210022FDF72AFCF2
:1051F0001020FDF715FC112005210022FDF722FCEF
:105200001120FDF70DFC2F2001210022FDF71AFCD3
:105210002F20FDF705FC3A2005210022FDF712FCA6
:105220003A20FDF7FDFB462005210022FDF70AFC90
:10523000462002B0BDE88040FDF7F2BB2DE9F04FFB
:1052400087B0002543F630000695CDE90455CDE939
:1052500002550195C4F20200016840F2004941F094
:10526000800101600168C4F2020901F0800101912E
:10527000019901950168A9F5806A41F00401016076
:105280000168002201F00401019101990195016872
:1052900041F001010160016801F0010101910199F2
:1052A0000195016841F010010160016801F01001F1
:1052B000019101990195016841F0020101600168C5
:1052C00001F00201019101990195016841F0080185
:1052D0000160006848F2060100F0080001900198A2
:1052E0005046FCF767FD09F5406B58464FF4C07116
:1052F0000022FCF75FFD09F5806630464FF410612F
:105300000022FCF757FD09F5006840460121012203
:105310000124FCF74FFD48464FF490710122FCF741
:1053200049FD0C2002AFCDE9020530463946049410
:10533000FCF770FC062002A931C15046394605959C
:10534000FCF768FC4FF4C07002A931C158463946D9
:105350000595FCF75FFC4FF47040CDE90205484627
:1053600039460494FCF756FC02204FF4807BCDE9CB
:10537000040530463946CDE902B4FCF74BFC4FF446
:105380000040CDE9020450463946CDE90445FCF71A
:1053900041FC4FF40060CDE9020430463946CDE9C6
:1053A0000445FCF737FC40463946CDE90244CDE9D7
:1053B0000445FCF72FFC2020CDE90204484639467D
:1053C000CDE90445FCF726FC1120CDE9030548464C
:1053D0003946CDF808B00595FCF71CFC07B0BDE8D0
:1053E000F08F000080B540F2286045F60041C2F21F
:1053F0000000C4F2000148F2A06200234FF4804C88
:10540000C0F2010280E80E00C0E9033CC0E90533A8
:10541000C0E90733FCF7DAFC002808BF80BDBDE80F
:105420008040FCF791B9000080B540F27C6040F606
:105430000001C2F20000C5F206010160FDF732FE74
:10544000002808BF80BDBDE88040FCF77DB90000A2
:1054500080B540F28C6043F6004CC2F20000C4F20A
:10546000000C4FF482724FF4004300214FF4007E91
:10547000C0E900C20A22C0E90231C0E90411C0E952
:1054800006E1C0E90811C0E90A12FDF7CDFE0028C7
:1054900008BF80BDBDE88040FCF756B980B584B038
:1054A00040F22C7041F600020021C2F20000C4F26A
:1054B0000002532340F2E73CCDE90211CDE900118F
:1054C000C0E90023C0E9021C01618161FEF706F911
:1054D000002818BFFCF738F94FF48050009040F2D4
:1054E0002C70C2F200006946FEF7F2F9002818BFDE
:1054F000FCF72AF904B080BD80B540F2747042F226
:105500000001C2F20000C4F200010023532241F264
:10551000873C80E80E1003618361FEF7DFF8002806
:1055200008BF80BDBDE88040FCF70EB910B596B04D
:1055300040F2E46000220021C2F20000C4F2010245
:1055400040F69F731591CDE91311CDE91111CDE905
:105550000F11CDE90D11CDE90B11CDE90911CDE9FF
:105560000711CDE90511CDE90311CDE90111C0E91C
:105570000021C0E90213C0E904118161FEF7AEF811
:10558000002818BFFCF7E0F84FF48050129040F26A
:10559000E460C2F2000012A9FEF79AF9002818BFD1
:1055A000FCF7D2F840F2E460C2F20000FEF792FD90
:1055B000002818BFFCF7C8F840F2E4600024C2F2EB
:1055C000000010A9CDE91044FEF72AF8002818BF02
:1055D000FCF7BAF86020CDE9090440F2E460C2F2B9
:1055E000000009A90022CDE90B44CDE90D440F9438
:1055F000FEF764FC002818BFFCF7A6F80020059011
:10560000CDE90300CDE901004FF40051089040F2CC
:10561000E4600691C2F2000001A9FDF7DBFF00285B
:1056200018BFFCF791F840F2E460C2F20000FEF708
:10563000E1FB16B010BD000010B58AB040F2BC709E
:105640000024C2F200004FF08041D2220994CDE93B
:105650000744CDE90544CDE90344CDE90144C0E95F
:105660000014C0E9024204618461FEF733FD0028A2
:1056700018BFFCF769F840F2BC70C2F2000008A93C
:10568000CDE90844FDF7CCFF002818BFFCF75CF813
:10569000602001900020CDE90200059040F2BC702E
:1056A000C2F2000001A90C22FEF708FC002818BF76
:1056B000FCF74AF840F2BC70C2F20000FEF79AFB19
:1056C0000AB010BDB0B58CB003AC20462421FAF767
:1056D000C1FD40F6040040F200410025C2F2000086
:1056E000C4F20001C0E9001501214FF6FF72CDE9B7
:1056F0000315CDE90515CDE909152146CDE900557C
:10570000C0E9025205618561CDE907550B95FEF7A9
:10571000AFF9002818BFFCF717F840F60400C2F2F2
:1057200000006946CDE90055FDF77AFF002818BF53
:10573000FCF70AF80CB0B0BDB0B58CB003AC204695
:105740002421FAF787FD40F64C0040F600010025C1
:10575000C2F20000C4F20001C0E9001501214FF6B9
:10576000FF72CDE90315CDE90515CDE909152146EF
:10577000CDE90055C0E9025205618561CDE90755C3
:105780000B95FEF775F9002818BFFBF7DDFF40F613
:105790004C00C2F200006946CDE90055FDF740FF1C
:1057A000002818BFFBF7D0FF0CB0B0BD10B58EB00D
:1057B00040F6940040F600420021C2F20000C4F21C
:1057C000000240F69F730D91CDE90B11CDE909114F
:1057D000CDE90711CDE90511CDE90311CDE901119D
:1057E000C0E90021C0E9021301618161FDF776FF84
:1057F000002818BFFBF7A8FF4FF480500A9040F62E
:105800009400C2F200000AA9FEF762F8002818BF4F
:10581000FBF79AFF40F69400C2F20000FEF75AFC34
:10582000002818BFFBF790FF40F694000024C2F256
:10583000000008A9CDE90844FDF7F2FE002818BFD2
:10584000FBF782FF6020CDE9010440F69400C2F22C
:10585000000001A9002203940594FEF72FFB002805
:1058600018BFFBF771FF40F69400C2F20000FEF78C
:10587000C1FA0EB010BD000080B540F6DC0041F268
:105880000001C2F20000C4F2010100234FF00C0C31
:105890004FF4E13280E80E00C0E90333C0E905C3EC
:1058A000C361FFF799FA002808BF80BDBDE88040BA
:1058B000FBF74ABF80B540F6241044F20041C2F223
:1058C0000000C4F2000100234FF00C0C4FF4E13251
:1058D00080E80E00C0E90333C0E905C3C361FFF7E8
:1058E0007BFA002808BF80BDBDE88040FBF72CBFD5
:1058F00080B540F66C1044F60001C2F20000C4F21C
:10590000000100234FF00C0C4FF4E12280E80E0060
:10591000C0E90333C0E905C3C361FFF75DFA00289E
:1059200008BF80BDBDE88040FBF70EBFFEE700006A
:10593000F0B581B04FF26105CFF6FF75A84240F691
:105940009F72C8BF05469542A8BF154631B30129CD
:1059500049D10024C4F202040F460646002820461E
:105960004FF0040109D40122FCF724FA2046022159
:105970000022FCF71FFA284608E00022FCF71AFA7A
:10598000204602210122FCF715FA684240F69401F4
:10599000C2F2000109684863304627BB002840F284
:1059A0000000C4F2020000F5805420464FF0800150
:1059B00009D40122FCF7FEF920464FF48071002241
:1059C000FCF7F8F909E00022FCF7F4F920464FF45F
:1059D00080710122FCF7EEF96D4240F2E460C2F200
:1059E000000000684563002001B0F0BD10B590B123
:1059F000022804D001281CBF012010BD06E040F29F
:105A0000E460C2F200000021FEF7D8FB40F69400EB
:105A1000C2F2000003E040F2E460C2F200000021A4
:105A20000024FEF7CBFB204610BD000010B590B15E
:105A3000022804D001281CBF012010BD06E040F25E
:105A4000E460C2F200000021FEF784FD40F69400FD
:105A5000C2F2000003E040F2E460C2F20000002164
:105A60000024FEF777FD204610BD0000FEE7000091
:105A70007047000040F28C60C2F20000FDF748BBA6
:105A8000806B0021C187C186FDF740BB2DE9F0473F
:105A900082B00A9C984615460E468146FCF790F95E
:105AA000201A00EB0804FCF78BF940F20401C2F263
:105AB00000010968C1F3CB3161430191D9F80010AD
:105AC00089683140891BB1FA81F14909A94203D1A2
:105AD000002002B0BDE8F087824608F1010709E026
