:020000040800F2
:10000000204D0020A1010008DD4800085F3C0008E9
:100010009147000873090008CD5D0008000000004A
:10002000000000000000000000000000354A000849
:100030001F0C000800000000DF480008414B0008CA
:10004000BB010008BB010008BB010008BB010008A0
:10005000BB010008BB010008BB010008BB01000890
:10006000BB010008BB010008BB010008BB01000880
:10007000FD0A0008BB010008090B0008BB010008CD
:10008000150B0008210B0008BB010008BB0100088C
:10009000BB010008BB010008BB010008BB01000850
:1000A000BB010008D5530008BB010008BB010008D4
:1000B000BB010008BB010008BB010008BB01000830
:1000C000BB010008BB010008BB010008BB01000820
:1000D000BB0100086D5D00088D5D0008AD5D000886
:1000E000BB010008BB010008BB010008E153000888
:1000F000BB010008ED530008BB0100082D0B0008F0
:10010000BB010008BB010008BB010008E148000872
:10011000BB010008BB010008BB010008BB010008CF
:10012000BB010008BB010008390B0008BB01000837
:10013000BB010008BB010008BB010008BB010008AF
:10014000BB010008BB010008BB010008BB0100089F
:10015000BB010008BB010008450B0008BB010008FB
:10016000BB010008BB010008BB010008BB0100087F
:10017000BB010008BB010008BB0100080000000033
:10018000BB010008BB010008DFF810D000F08EFBB7
:100190000048004779770008AFF30080204D002029
:1001A0000648804706480047FEE7FEE7FEE7FEE711
:1001B000FEE7FEE7FEE7FEE7FEE7FEE7D94B0008B5
:1001C000890100082DE9F05F0546002092469B4614
:1001D00088460646814640241BE02846414647465D
:1001E000224600F09CF953465A46C01A914110D35A
:1001F00011461846224600F083F92D1A67EB0108D4
:100200004F4622460120002100F07AF917EB000941
:100210004E41201EA4F10104DFDC484631462A4647
:100220004346BDE8F09F40EA01039B0703D009E085
:1002300008C9121F08C0042AFAD203E011F8013BD2
:1002400000F8013B521EF9D27047D2B201E000F82B
:10025000012B491EFBD270470022F6E710B513466A
:100260000A4604461946FFF7F0FF204610BD10B5B8
:10027000002200E0521C835C8C5CA34201D1002B65
:10028000F8D1D8B2E1B2401A10BD2DE9FE4F804638
:1002900081EA0300C00F0C46009021F0004123F0DA
:1002A0000045B8EB0200A94105D2404621469046E0
:1002B0001C460B46024623F00040104347D0270D52
:1002C000C7F30A00C3F30A510290401A0190402874
:1002D0006BDAC3F3130040F4801B0098924620B100
:1002E0000023D2EB030A63EB0B0B01985946C0F1D4
:1002F0004002504600F004F906460D465046594665
:10030000019A00F01CF910EB08006141002487EA13
:10031000115284EAE7731A4340D0009A62B3019AFB
:10032000012A4FEA075215DC001B61EB02014FF076
:10033000004202EA0752CDE90042001C41F580115B
:1003400032462B4600F053F903B0BDE8F08F40462B
:100350002146F9E7001B61EB0201001C41F5801307
:1003600000185B412018A2F5001747EB030140EA93
:10037000D570B6196D4111E06D084FEA360645EAB1
:10038000C0754FEA0752001B61EB0201001C41F5EA
:10039000801149084FEA30000019514132462B467E
:1003A00003B0BDE8F04F00F013B9009801224000FF
:1003B0000023D0EB020263EBE073009821464FEA82
:1003C000E074B8EB000061EB0401E9E783F000435F
:1003D0005BE781F0004158E70EB5C10F80EAE0709D
:1003E0000844CA07002140F233438DE80E000A4654
:1003F0000B4600F0FCF803B000BD0EB540F23341EF
:1004000002910021CDE900110A460B4600F0EFF8F9
:1004100003B000BDC1F30A5210B5C1F3130140F29D
:10042000FF3341F480119A4201DA002010BD40F2FE
:1004300033439A42A2F2334203DC524200F06FF897
:1004400010BD904010BD00F0004230F000400AD0D6
:10045000C10D01F56071C0F3160042EA0151C208F6
:1004600040071143704700200146704730B5041E15
:1004700071F1000404DB4FF00044404264EB0101E1
:10048000141E73F1000405DB1C464FF0004352427A
:1004900063EB0403994208BF904230BD01F0004372
:1004A00030B421F0004150EA010206D00A0DA2F555
:1004B0006072C1F31301002A02DC30BC00207047D7
:1004C000440F44EAC104C100E01830BC00EBC25044
:1004D00000F047B830B50B46014600202022012429
:1004E00009E021FA02F59D4205D303FA02F5491B02
:1004F00004FA02F52844151EA2F10102F1DC30BD18
:10050000202A04DB203A00FA02F1002070479140D3
:10051000C2F1200320FA03F3194390407047202AC8
:1005200004DB203A21FA02F00021704721FA02F39D
:10053000D040C2F120029140084319467047202A5A
:1005400006DBCB17203A41FA02F043EAE07306E0FB
:1005500041FA02F3D040C2F120029140084319460B
:1005600070470029A8BF7047401C490008BF20F011
:100570000100704710B4B0FA80FC00FA0CF050EAA9
:10058000010404BF10BC704749B1CCF1200421FA2A
:1005900004F411FA0CF118BF012121430843A3EB25
:1005A0000C01CB1D4FEA00614FEA102042BF002032
:1005B00010BC704700EBC35010440029A4BF10BC0E
:1005C0007047401C490008BF20F0010010BC704774
:1005D00010B5141E73F1000408DA401C41F100014B
:1005E00092185B411A4301D120F0010010BD2DE9A2
:1005F000F04D92469B4611B1B1FA81F202E0B0FA99
:1006000080F220329046FFF77BFF04460F4640EA17
:100610000A0041EA0B0153465A46084313D01146DB
:1006200053EA010019D0C8F140025046FFF777FFA6
:1006300005460E46504659464246FFF761FF0843BD
:1006400005D0012004E020463946BDE8F08D0020A9
:10065000054346EAE0762C4337430A986305E40AEB
:10066000A0EB08000022FD0A44EA47540A3002D5F4
:1006700000200146E9E7010510196941DDE9084557
:1006800000196941BDE8F04DA2E72DE9FE4F81EA6E
:10069000030404F0004421F0004100944FF0000BEB
:1006A00023F0004350EA01045ED052EA03045BD019
:1006B000C3F30A54C1F30A552C44A4F2F334019451
:1006C000A0FB0254C1F3130141F48011C3F31303DF
:1006D00043F4801301FB024400FB034E840A970A93
:1006E00044EA815447EA8357A4FB076802958D0AC0
:1006F00005FB07854FEA932C04FB0C542705029D4C
:100700004FEA065847EA1637B5EB08056EEB070CBB
:10071000870E920E47EA811742EA8312A7FB020175
:10072000B6EB0B0164EB00042B0D43EA0C335E18AF
:1007300044EB1C50DA465146E7FB0201C5F31304B3
:100740004FEA0B3343EA14534FEA0432019C43EA65
:100750000603A4F10C040294009CCDE900B4FFF759
:1007600046FF03B0BDE8F08F00200146F9E72DE910
:10077000F04D81EA030404F0004B21F000451446DB
:100780004FF0000A23F0004150EA050220D054EA5D
:1007900001021DD0C5F30A570246C5F31303C1F386
:1007A0001300C1F30A5640F4801543F48013A7EBFD
:1007B0000608101BD64608F2FD3873EB050002D37D
:1007C00008F1010801E092185B41B8F1000F03DA6B
:1007D00000200146BDE8F08D00204FF48011064650
:1007E00084460EE0171B73EB050705D3121B63EB62
:1007F000050306434CEA010C49084FEA3000921801
:100800005B4150EA0107EDD152EA030012D082EABF
:10081000040083EA0501084305D0101BAB4106D252
:100820000122002306E000224FF0004302E06FF0B7
:10083000010253101AEB06004CEB085110EB0A00B2
:1008400041EB0B01BDE8F04DFFF7C2BE70B521F0E2
:10085000004303430CD0C1F30A550024D5EB040533
:1008600064EB0403D617AD1AB34102DB0020014646
:1008700070BD201841EB025170BDC1F30A52C1F3A3
:10088000130140F2FF3341F480119A4202DA002052
:100890000146704740F233439A42A2F2334202DCEF
:1008A0005242FFF73CBEFFF72BBE0000064C074D3F
:1008B00006E0E06840F0010394E807009847103430
:1008C000AC42F6D3FFF764FCCCEB0008ECEB00087D
:1008D0002DE9F04D00231A461B1A8A4103DB002044
:1008E0000146BDE8F08DC1F30A52C1F3130141F492
:1008F00080154FF0000BD10702D100186D41521E38
:100900000027044640F2FF11384601EB620A3E46DA
:100910008046024600204FF48011FFF700FEC21906
:100920007141BB1846EB0100B4EB030C75EB000CF6
:1009300004D3E41A65EB000517460E46241908F1A6
:1009400001006D4180463428E3DDF91946EB0600CD
:10095000091BA84103D24FF0FF32134601E00022E9
:1009600013461BEB070046EB0A51BDE8F04DFFF7BD
:100970002FBEFEE710B52DED028B5649016056499A
:1009800041605449203981601031C1602C3141618E
:10099000514A083A0261A1F53E720A604269A1F526
:1009A00025715160426901F59671116142696431A6
:1009B00051614269643191614269A1F5967191601A
:1009C00040696439C16001F513746069006907F01A
:1009D000D3F8606900699FED418AF0EE483A9FEDD7
:1009E000403A826DF0EE042AB0EE482AF0EE481A42
:1009F000B0EE481AF0EE480AB3EE090A002190471B
:100A00006069406907F0B8F86069DFED388ADFEDAA
:100A1000353A4069B0EE483ADFED332A826DB0EEE8
:100A2000482AF0EE481AB0EE481AF0EE480AB0EE46
:100A3000680A002190476069806907F09DF8606945
:100A4000F0EE483AB3EE0E3A8069DFED292AB0EEB7
:100A5000482A826DF0EE481AB0EE481ADFED250AFA
:100A6000B0EE680A002190476069C06807F084F81A
:100A70006069F0EE483AB0EE483AC068F0EE482AB5
:100A8000B0EE482A826DF0EE481AB0EE481AF0EE49
:100A9000480AB0EE680A002190476069806807F054
:100AA0006BF86069F0EE483AB0EE483A8068F0EED4
:100AB000482AB0EE482A826DF0EE481AB0EE481A85
:100AC000F0EE480ABDEC028B0021BDE810409FED1E
:100AD0000A0A1047480B00203800002000000000E0
:100AE000CDCC4C3E0000C8420000344300F07945B4
:100AF00000C00F4500F0F94400004842014800F0F2
:100B00002FBB000084060020014800F029BB000034
:100B1000E4060020014800F023BB0000240600206A
:100B2000014800F01DBB000064030020014800F0F4
:100B300017BB00000C010020014800F011BB0000B1
:100B400064050020014800F00BBB0000C405002034
:100B50000168CAB2103A1823B2FBF3F2064B9B5C51
:100B6000C3656FF30901032A02D9091D816500E0FD
:100B70008165806D704700008685000810B50146CC
:100B800000208A6A8B694FF0C074002B0ED0B3F539
:100B9000005F1AD062B3012A2AD0022A28D0032A81
:100BA00003D1C96AC90100D5012010BD1AB1012ABB
:100BB00006D0022AF9D1C96AC901F6D5012010BDB3
:100BC000C96AA142FBD1012010BD52B1012A0AD04D
:100BD000022A06D0032AF7D1C96AA142F4D1012022
:100BE00010BD012010BDC96AC901FBD5012010BD8F
:100BF000012010BD30B50468256825F480252560E6
:100C0000046863608368402B04D0036899600068BF
:100C1000C26030BD03689A600068C16030BD704733
:100C200010B54FF40044204600F004F936280AD0ED
:100C30003621204600F022F9204600F0FBF8362845
:100C400003D0012010BD002010BD002010BDF8B55C
:100C5000064600246D46301980B200F0EBF82855A6
:100C6000641CE4B2042CF6D30098F8BD2DE9F041E1
:100C700002460E4600200024971908E00502381BA2
:100C8000401E80B200F0D6F82844641CE4B2B4429E
:100C9000F4D3BDE8F081000038B50020FFF7D7FF9E
:100CA000514C00909DED000A6069006980ED030AD7
:100CB0000420FFF7CCFF009060699DED000A0069F9
:100CC00080ED040A0820FFF7C2FF009060699DEDE7
:100CD000000A006980ED050A0C20FFF7B8FF0090BC
:100CE00060699DED000A406980ED030A1020FFF75E
:100CF000AEFF009060699DED000A406980ED040A36
:100D00001420FFF7A4FF009060699DED000A406980
:100D100080ED050A1820FFF79AFF009060699DEDAD
:100D2000000A806980ED030A1C20FFF790FF009005
:100D300060699DED000A806980ED040A2020FFF7BC
:100D400086FF009060699DED000A806980ED050ACC
:100D50002420FFF77CFF009060699DED000A806809
:100D600080ED030A2820FFF772FF009060699DED77
:100D7000000A806880ED040A2C20FFF768FF0090CD
:100D800060699DED000A806880ED050A3020FFF75C
:100D90005EFF009060699DED000AC06880ED030A67
:100DA0003420FFF754FF009060699DED000AC06891
:100DB00080ED040A3820FFF74AFF009060699DED3E
:100DC000000AC06880ED050A04213C20FFF74EFFB1
:100DD000616848604020FFF73AFF00909DED000AEF
:100DE00084ED060A38BD0000800B002073B505466F
:100DF000002401AE2819315D80B200F03FF8641C78
:100E0000E4B2042CF6D37CBD2DE9F04106460D4634
:100E10001746002409E0E00025FA00F0C1B23019BD
:100E200080B200F02BF8641CE4B2BC42F3D3BDE8FE
:100E3000F08100003EB5002102910191010A8DF878
:100E40000810FF21B0FBF1F201FB12008DF8090040
:100E50004FF48054022302AAA0210748009400F016
:100E600021FE012301AAA1210348009400F0CAFC3D
:100E70009DF804003EBD0000500000201CB500227B
:100E80000192020A8DF80420FF22B0FBF2F302FB6C
:100E900013008DF805008DF806104FF48050009077
:100EA000032301AAA021034800F0FCFD062006F060
:100EB0007DFB1CBD5000002072B6FEE701290DD15C
:100EC00013490278303A0868072A07D2DFE802F0AF
:100ED00004070B0F13171B0000200860704740F435
:100EE00000400860704740F480400860704740F45C
:100EF00000500860704740F480500860704740F42C
:100F000000600860704740F480600860704700002F
:100F10002C000020F0B400251D2A2DD300231D3AFB
:100F20000DE0CC5C5A2C09D1CC186678A52E05D1E1
:100F3000267F0D2E02D1647F0A2C04D05B1C9342C5
:100F4000EFD335B111E01D460C4B01221B689A7698
:100F5000F7E70A785A2A0FD14A78A52A0CD10A7FD6
:100F60000D2A09D14A7F0A2A06D129440068F0BC1B
:100F7000891C1A22FFF757B9F0BC7047800B00207C
:100F800030B51D4C2168496A1C4B494209B2598051
:100F90001B4D2A68526A12B21A8083681A80C3688D
:100FA00019808368DFED171ADFED170A93ED010A48
:100FB0009FED161A20EE212A00EE102AB8EEC00A84
:100FC00020EE200A00EE012A83ED012AC06890ED90
:100FD000010A60EE211A00EE101AB8EEC00A20EEE7
:100FE000200A40EE011AC0ED011A21680020486273
:100FF0002968486230BD0000FC0100202800002064
:1010000044020020295C0F3EF6285C3F0708E63BBF
:1010100002460021002003E0401CC0B2491CC9B2B6
:10102000535C002BF8D170477CB506460A2935D3AE
:101030000024A1F109050BE0321910680090107925
:101040008DF8040016A16846FFF711F910B1641C71
:10105000AC42F1D3AC4205D111A16846FFF707F9C4
:1010600000281BD130194179027A303901EB410354
:10107000C3EBC11102EBC10281793039642311FB4A
:1010800003F1C079303800EB800001EB400011180B
:10109000054840684268891A303901607CBD00000B
:1010A000244C494E45000000800B00202DE9F04102
:1010B0000446A76D00F0D4FA054694F835000026E2
:1010C000022806D08020606584F834600120BDE8E5
:1010D000F0812068016821F01601016020684169F3
:1010E00021F080014161206C08B9A06C20B120681A
:1010F000016821F0080101602068016821F0010108
:1011000001600BE000F0ACFA401B052806D9202056
:1011100034342062032060702670D8E720680068AD
:10112000C007EFD134343F2094F828108840B860CD
:101130000120607026700020C9E790F83510022960
:1011400003D08021416501207047052180F83510CA
:101150000068016821F00101016000207047000073
:101160002DE9F84304464FF00009CDF800906F4890
:101170004FF416510068B0FBF1F7A56D2E6894F896
:101180005C00082202FA00F1314210D020680168A8
:1011900049070CD5016821F00401016094F85C0056
:1011A00002FA00F1A960606D40F00100606594F8FA
:1011B0005C104FF0010808FA01F0304208D02168B5
:1011C0004969090604D5A860606D40F002006065B9
:1011D00094F85C1004208840304208D021680968E7
:1011E000890704D5A860606D40F00400606594F83C
:1011F0005C1010208840304220D02168096809071F
:101200001CD5A8602068016849030CD5006800035C
:1012100004D4216C91B1204688470FE0A16C69B1DC
:10122000204688470AE00168C90503D4016821F017
:1012300008010160216C09B12046884794F85C10D0
:101240002020884030424CD021680968C90648D522
:10125000A86094F8350005280BD020680168490380
:1012600030D50068000328D4616C51B3204688470C
:1012700037E02068016821F01601016020684169AB
:1012800021F080014161206C08B9A06C20B1206878
:10129000016821F00801016094F85C103F2088404B
:1012A000A86084F8358084F83490216D00293BD003
:1012B00001B02046BDE8F0430847E16B09B1204684
:1012C00088470EE00168C90507D4016821F01001C4
:1012D000016084F8358084F83490E16B09B12046D0
:1012E0008847606D00281FD0606DC00714D00520AE
:1012F00084F835002068016821F001010160009840
:10130000401C0090B84203D820680068C007F6D19E
:1013100084F8358084F83490E16C002904D001B061
:101320002046BDE8F0430847BDE8F8831C000020D4
:101330002DE9F041044600F093F905465CB1022026
:1013400084F83500002684F834602068016821F0B4
:10135000010101600DE00120BDE8F08100F080F99D
:10136000401B052805D920206065032084F835003E
:10137000F2E720680068C007F0D121680A682048B9
:101380000240D4E901031843D4E903352B43184341
:1013900063691843A3691843E3691843236A184330
:1013A0001043626A042A03D1D4E90B231A43104381
:1013B00008602068406920F00700656A29460543F7
:1013C000012704290DD1A06A0543E06A48B12046EF
:1013D000FFF7D4FB28B14020606584F83570012008
:1013E000BAE7206845612046FFF7B2FB94F85C201D
:1013F0003F2191408160666584F835700020ABE73D
:101400003F8010F02DE9F04104460025A66D94F8C8
:10141000340001280DD0012084F8340094F8357090
:101420000020012F07D084F8340002252846BDE8AB
:10143000F0810220FBE7022784F8357060652046C2
:10144000FFF7D8FB94F85C103F208840B06020681C
:10145000016841F016010160206C20B1206801682C
:1014600041F0080101602068016841F0010101605C
:10147000DCE700002DE9F84F0022DFF89C914FF0E7
:10148000010803274FF00F0C09F1040AA9F1040B1E
:1014900008FA02F50B682B40AB426ED10C7904F0D0
:1014A0000304012C01D0022C15D18668540007FAE0
:1014B00004FE26EA0E06D1F80CE00EFA04FE4EEA0F
:1014C000060EC0F808E04468AC430D79C5F300157A
:1014D0009540254345600C79E443A40708D0C568CE
:1014E000540007FA04F6B5438E68A6402E43C66042
:1014F0000C7904F00304022C11D1D40800EB84060B
:10150000356A5407E40E0CFA04FE25EA0E05D1F8FC
:1015100010E00EFA04FE4EEA050EC6F820E005685B
:10152000540007FA04F6B5430E7906F00306A64008
:101530002E4306604C6814F4403F67D0374C256852
:1015400045F480452560246804F480440094344CBC
:1015500022F003052E19D6F8085894074FEA147E96
:101560000CFA0EF4A5432F4CA04201D1002424E034
:101570002D4CA04202D101241FE047E02B4CA04299
:1015800001D1022419E02A4CA04201D1032414E025
:10159000284CA04201D104240FE0274CA04201D1E5
:1015A00005240AE0254CA04201D1062405E0244C84
:1015B000A04201D1072400E0082404FA0EF42C43D1
:1015C000C6F80848D9F800409C434D68ED0200D5A4
:1015D0001C43C9F80040DAF800409C434D68AD0256
:1015E00000D51C43CAF80040DBF800409C434D681E
:1015F000AD0300D51C43CBF80040074D083D2C68D7
:101600009C434E68F60300D51C432C60521C102AE4
:10161000FFF43EAFBDE8F88F083C0140443802407B
:101620000030014000000240000402400008024077
:10163000000C02400010024000140240001802405A
:10164000001C02400069084201D0012070470020C0
:101650007047002A01D08161704709048161704799
:1016600001488068704700001000002070B50446F3
:10167000002C04D094F83D00002510B106E00120B4
:1016800070BD84F83C50204600F0B0FA242084F865
:101690003D002068016821F00101016020680168B7
:1016A00041F4004101602068016821F400410160BB
:1016B00000F052FC4F4B6168994203D84E49884272
:1016C00003D304E04D49884201D2012070BD4C494A
:1016D000B0FBF1F12268566826F03F060E435660D3
:1016E00062689A4201D8491C07E04FF49672514350
:1016F0004FF47A72B1FBF2F1491C2268166A26F0A7
:101700003F06314311626168994210D84900401E7A
:10171000B0FBF1F2521CC2F30B02042A01D20420E6
:1017200022E0B0FBF1F0401CC0F30B001CE0A2680B
:10173000F2B301EBC10303EB0116431EB3FBF6F357
:101740005B1C43F480431B0549D092B301EBC102FB
:1017500002EB0111401EB0FBF1F0401CC0F30B0086
:1017600040F4804040F400402168CA694CF6FF73A1
:101770009A431043C861D4E9071001432068026806
:1017800022F0C00211430160D4E903010143206843
:10179000826848F2FF339A4311438160D4E905100F
:1017A00001432068C26822F0FF021143C16001E0DA
:1017B0000EE016E02068016841F001010160256437
:1017C000202084F83D00256384F83E50002070BD41
:1017D00001EB4106431EB3FBF6F35B1CB3E70120AC
:1017E000C2E701EB4101401EB0FBF1F0401CC0F329
:1017F0000B00B7E7A086010080841E0000093D00B1
:1018000040420F002DE9F84F04468A461746994694
:10181000DDF82880FFF724FF054694F83D002028D6
:1018200002D00220BDE8F88F192301229A492046F0
:10183000009502F03BFB08B10220F3E794F83C006E
:10184000012807D0012084F83C0020680168C907FE
:1018500002D005E00220E5E7016841F001010160E6
:101860002068016821F400610160222084F83D00B5
:10187000102084F83E00002626646762A4F82A90AF
:10188000608D20858548E0622B46424651462046C1
:1018900002F0FEF908B10120C4E7208D70B10128E3
:1018A00015D0022821D02068016841F480610160D0
:1018B0002068416980690090794FE1E020684169C2
:1018C00081690091016841F400710160F4E72068CA
:1018D000016821F48061016020684169816900919B
:1018E000016841F400710160E6E72068016821F4B5
:1018F000806101602068016841F400610160206836
:10190000416980690090D7E703287DD801280BD072
:1019100002281FD04346002239462046009502F097
:10192000C5FAE8B301207DE72A464146204602F089
:1019300077FB08B1012075E720680069616A0870CB
:10194000606A401C6062208D401E2085608D401EB4
:10195000608595E04346002239462046009502F016
:10196000A5FA08B101205DE72068016841F4007123
:10197000016020680069616A0870606A401C6062EA
:10198000218D491E2185618D491E61852168096966
:101990000170606A401C6062208D401E208500E05E
:1019A00003E0608D401E60856AE02068016821F4D4
:1019B0008061016020680069616A0870606A401C8B
:1019C0006062208D401E2085608D401E60854346EC
:1019D000002239462046009502F068FA08B101203D
:1019E00020E72068016841F4007101602068006907
:1019F000616A0870606A401C6062218D491E218501
:101A0000618D491E618500E00CE021680969017063
:101A1000606A401C6062208D401E2085608D401EE3
:101A200060852DE02A464146204602F0F9FA08B1C9
:101A30000120F7E620680069616A0870606A401C4E
:101A40006062208D401E81B22185608D401E6085C0
:101A500020684269D243520712D4032903D1016896
:101A600021F48061016020680069616A0870606A21
:101A7000401C6062208D401E2085608D401E608568
:101A8000208D00287FF440AF20203C346070A67089
:101A900026700020C6E60000020010000000FFFFD4
:101AA000040001002DE9F84F04468A461546994680
:101AB000DDF82880FFF7D4FD064694F83D00202885
:101AC00002D00220BDE8F88F1923012245492046A3
:101AD000009602F0EBF908B10220F3E794F83C001D
:101AE000012807D0012084F83C0020680168C9075C
:101AF00002D005E00220E5E7016841F00101016044
:101B00002068016821F400610160212084F83D0013
:101B1000102084F83E00002727646562A4F82A900C
:101B2000608D20853048E06233464246514620466B
:101B300002F038F908B10120C4E7206841698069E2
:101B400000903EE032464146204602F0A4FA48B1F9
:101B5000206C042804D12068016841F40071016000
:101B60000120AFE7606A216800780861656A6D1C32
:101B70006562608D401E6085208D401E80B220858C
:101B800022685169C94349070BD450B128781061C4
:101B9000606A401C6062608D401E6085208D401E22
:101BA000208532464146204602F054F948B1206C67
:101BB000042804D12068016841F40071016001200B
:101BC00080E7208D0028BDD11F3454F81F0C016818
:101BD00041F4007101602020A077E777677700204B
:101BE00070E70000020010000000FFFFF0B587B0B2
:101BF0000446142102A8FEF72FFB1D4920688842E5
:101C000033D11C48016841F004010160016801F012
:101C100004010191016841F001010160006800F0D8
:101C2000010001904FF400700290122703970124E5
:101C30000494032605960425069502A90E48FFF78D
:101C400019FC20020290039704940596069502A9B8
:101C50000A48FFF70FFC07481030016841F4000103
:101C60000160006800F40000019007B0F0BD0000C2
:101C7000005C004030380240000802400000024092
:101C8000024881680278114481607047100000208A
:101C900010B50B48016841F400710160016841F41E
:101CA00080610160016841F480710160032000F0EF
:101CB00095F8072000F006F800F026F8002010BD87
:101CC000003C024070B504460D4D4FF47A712878FF
:101CD000B1FBF0F00B490968B1FBF0F000F0FBFD3F
:101CE00008B1012070BD102C07D200222146501EE1
:101CF00000F054F86C60002070BD012070BD000041
:101D0000100000201C00002008B51C48016841F4A8
:101D100080410160006800F4804000901748001F77
:101D2000016841F080510160006800F0805000902F
:101D3000042000F053F8002201216FF00B0000F0A6
:101D40002DF8002201216FF00A0000F027F8002290
:101D500001216FF0090000F021F801210022881F05
:101D600000F01CF801210022481F00F017F80022A3
:101D70000121BDE80840C81E00F010B844380240F8
:101D8000002809DB00F01F0201219140400980007A
:101D900000F1E020C0F8001170470000F0B40D46DB
:101DA0000D4B1B68C3F30223C3F10704042C00D9B5
:101DB0000424191D072901D2002300E0DB1E01269F
:101DC00006FA04F1491E294099409E40761E1640AD
:101DD0003143F0BC04F078B80CED00E000F00701EE
:101DE000054A10684FF6FF03184040EA01200349F6
:101DF00008431060704700000CED00E00000FA0599
:101E00002DE9F04704460D46002C13D0DFF8289149
:101E1000D9F80000EFB200F00700A8420CD289F810
:101E20000070D9F8000000F00700A84204D001209B
:101E3000BDE8F0870120FBE72068404E810712D5FE
:101E4000400703D5306840F4E05030602078000748
:101E500003D5306840F4604030603068A16820F0FD
:101E6000F000084330602078C00731D03349606803
:101E70000839012808D002280BD0032809D00968A6
:101E800089070BD40120D3E70968890306D4012010
:101E9000CEE70968890101D40120C9E7316821F042
:101EA000030101433160FFF7DBFB804641F2883AD2
:101EB00007E0FFF7D5FBA0EB0800504501D9032050
:101EC000B6E73068616800F00C00B0EB810FF0D12C
:101ED000D9F8000000F00700A84209D989F800707D
:101EE000D9F8000000F00700A84201D001209FE7C8
:101EF0002078400705D53068E16820F4E0500843B9
:101F000030602078000706D53068216920F46040F1
:101F100040EAC100306000F03FF83168084AC1F380
:101F20000311515CC8400749086007480068FFF783
:101F3000C9FE00207CE70000003C02400838024057
:101F40008E8500081C000020140000200148006855
:101F5000704700001C00002000B5FFF7F7FF0449A0
:101F60000968044AC1F38221515CC84000BD0000E9
:101F7000083802409E85000800B5FFF7E7FF0449D6
:101F80000968044AC1F34231515CC84000BD0000F9
:101F9000083802409E85000810B51748006810F008
:101FA0000C01164816D04310042912D0082911D16B
:101FB000114C241F216801F03F02216849020AD513
:101FC0002068C0F38810A0FB03010023FEF7FAF895
:101FD00009E0184610BD21680023C1F38811A1FB58
:101FE0000001FEF7EFF82168C1F30141491C4900E7
:101FF000B0FBF1F010BD0000083802400024F400EE
:102000002DE9F84F0446002C13D02078DFF8A08388
:10201000C007A8F1040556D008F104000168C1F317
:10202000810101290CD00068C0F38100022803D08F
:102030000DE00120BDE8F88FD8F80000400206D579
:10204000286880033FD5606870BB0120F2E76068B4
:10205000B0F5803F10D0B0F5A02F12D0286820F442
:1020600080302860286820F4802028606068E0B113
:10207000FFF7F6FA064614E0286840F4803028603E
:10208000F4E7286840F480202860286840F4803015
:102090002860EBE7FFF7E4FA801B642801D90320EE
:1020A000C8E728688003F5D50DE0FFF7D9FA0646A2
:1020B00006E0FFF7D5FA801B642801D90320B9E7B1
:1020C00028688003F5D42078BA4F80074FF00009C4
:1020D00048D5B748001D016811F00C0F08D0006802
:1020E000C0F38100022813D1D8F8000040020FD4B9
:1020F0002868800704D5E068012801D0012099E70D
:102100002868216920F0F80040EAC100286029E031
:10211000E068B8B101203860FFF7A2FA064606E091
:10212000FFF79EFA801B022801D9032082E7286866
:102130008007F5D52868216920F0F80040EAC10041
:1021400028600FE0C7F80090FFF78AFA064606E01D
:10215000FFF786FA801B022801D903206AE7286866
:102160008007F5D42078000729D5DFF844A29248EB
:1021700061690AF1700A89B101210160FFF770FA03
:10218000064606E0FFF76CFA801B022801D90320FF
:1021900050E7DAF800008007F4D510E0C0F80090AE
:1021A000FFF75EFA064606E0FFF75AFA801B0228A0
:1021B00001D903203EE7DAF800008007F4D4207844
:1021C000400778D54FF0000A79483C300068C000DD
:1021D0000BD477483C30016841F0805101600068C1
:1021E00000F0805000904FF0010ADFF8D0B1DBF82A
:1021F0000000C00514D4DBF8000040F48070CBF878
:102200000000FFF72DFA064606E0FFF729FA801BCB
:10221000022801D903200DE7DBF80000C005F4D542
:10222000634EA0686C3601280FD0052812D03068A4
:1022300020F001003060306820F004003060A068B9
:10224000F8B1FFF70DFA834617E0306840F001005F
:102250003060F4E7306840F004003060306840F0EF
:1022600001003060EBE7FFF7FBF9A0EB0B0141F257
:102270008830814201D90320DCE630688007F2D53E
:1022800010E0FFF7EDF9834609E0FFF7E9F9A0EB6D
:102290000B0141F28830814201D90320CAE630683F
:1022A0008007F2D4BAF1010F05D141483C300168F2
:1022B00021F080510160A069C0B33D49091D096842
:1022C0004FF0FF36C1F38101022946D0022805D024
:1022D000C7F86090FFF7C4F904463AE0C7F8609089
:1022E000FFF7BEF9814607E0FFF7BAF9A0EB090056
:1022F000022801D903209DE628688001F4D4D4E99E
:1023000007010843616AA26A890106EB520241EAA9
:102310000241084394F82C1040EA0160C8F800001C
:1023200001203866FFF79CF9044607E03DE0FFF71F
:1023300097F9001B022801D903207BE62868800159
:10234000F5D532E0FFF78CF9001B022801D90320F4
:1023500070E628688001F5D427E0012823D0D8F85A
:102360000000E26900F4800191421AD1226A00F073
:102370003F01914215D147F6C071626A0140B1EB4D
:10238000821F0ED1A26A00F4403106EB5202B1EB7B
:10239000024F06D194F82C1000F07060B0EB016F82
:1023A00003D0012046E6012044E6002042E600007A
:1023B0000438024000004742800E4742007000404F
:1023C0002DE9F04704468A460027207901280ED0DF
:1023D0000126267160794FF00008012809D00420F9
:1023E000A060012784F804803846BDE8F087022009
:1023F000FBE74FF0020984F80590FFF731F9054635
:1024000010E0FFF72DF9401B02280BD92068406827
:10241000C043C00706D06671C4F8089084F80480F1
:102420000120E2E720684068C043C007E9D1206886
:102430008068E060CAF800006671D3E710B5044612
:1024400004F10C012046FFF7BBFF08B1002010BDCE
:10245000E06810BD70B50446002C03D060790025FB
:1024600010B105E0012070BD2571204600F00CF888
:10247000022060712068016841F0040101600120C0
:102480006071A560002070BD08B5006806498842EB
:1024900008D10648016841F040010160006800F081
:1024A0004000009008BD000000080650343802408B
:1024B0007047000038B50446206842688168C94307
:1024C0004B060AD5CB0708D1D3435B0605D4216C54
:1024D00001B02046BDE8304008478B0708D4D343FD
:1024E0001B0605D4616C01B02046BDE830400847AA
:1024F0008B0603D54B0601D5CB0551D4D3439B06A0
:102500004ED44B060AD494F85130032B49D0636D56
:1025100043F004036365C368836800938B0609D4A2
:10252000636D43F00103636583680093036823F0E0
:1025300040030360C80506D4606D40F00800606584
:10254000206880680090606D002829D0206841686C
:1025500021F0E0014160012084F85100900701D48E
:10256000D00722D02068416821F003014160114D5D
:10257000E06C40B10565E06CFEF7DFFD18B1606D01
:1025800040F040006065A06C002809D00565A06C93
:10259000FEF7D3FD002803D0606D40F04000606579
:1025A00038BDC1688068009038BD2046FFF780FFC5
:1025B00038BD0000ED48000870B50446002C09D075
:1025C000606A002540B125616561A56294F85100FB
:1025D00040B10CE0012070BD6068B0F5827FF4D09E
:1025E000E561F2E784F85050204600F045F80220FB
:1025F00084F851002068016821F040010160A08842
:10260000218900F4827001F404410843A18901F496
:1026100000610843217C01F002010843217D01F0A3
:1026200001010843218B01F400710843217F01F06F
:102630003801084394F8201001F080010843218DEF
:1026400001F40051084321680860A069042101EAEF
:10265000104094F8241001F01001084321684860EC
:102660002068C16921F40061C1616565012084F8B9
:102670005100002070BD000070B586B006461421E0
:1026800001A8FDF7E9FD2349306888423FD10025C4
:102690002148016841F400410160006800F40040F5
:1026A00000901D481038016841F004010160006885
:1026B00000F0040000904FF4A0500190022002901E
:1026C0000395032004900620059001A91348FEF706
:1026D000D1FE144C1248206065604020A060E56087
:1026E000000120616561A561E561256265622046A2
:1026F000FEF71EFE08B1FEF7DFFBB464A6630022FE
:1027000001213320FFF74AFB3320FFF739FB06B0E6
:1027100070BD0000003C004040380240000802400C
:10272000B86002400C0100202DE9F84F04468A46AB
:1027300017461D46FEF794FF064694F851000128FF
:1027400002D00220BDE8F88FBAF1000F23D0380084
:1027500021D094F8500001281FD04FF0010984F8CF
:102760005090032084F851004FF00008C4F85480C2
:10277000C4F830A0A786E786C4F83880A4F83C8067
:10278000A4F83E80C4F84480C4F84080A068B0F546
:10279000004F04D00DE00120D4E70220D2E72068EA
:1027A000016821F0400101602068016841F4804126
:1027B000016020680168490603D4016841F04001C6
:1027C0000160E068B0F5006F04D0606888B3012F45
:1027D00030D050E0606808B1012F20D1206B216813
:1027E0000088C860206B801C2063E08E401EE0865D
:1027F00015E020688168890709D5216B0988C160C7
:10280000206B801C2063E08E401EE08607E0FEF710
:1028100027FF801BA84201D3681C04D11DB1E08EA4
:102820000028E6D12AE084F8519084F850800320F3
:1028300088E7FFE7206B216800780873206B401C55
:102840002063E08E401EE08615E0206881688907DD
:1028500009D5216B09780173206B401C2063E08E41
:10286000401EE08607E0FEF7FBFE801BA84201D376
:10287000681C0ED16DB1E08E0028E6D132462946A3
:10288000204602F03BF808B120206065A06830B116
:1028900009E084F8519084F85080032052E72068C2
:1028A000C1688068009084F8519084F85080606D11
:1028B00008B1012046E7002044E74FF0E02104285A
:1028C00004D0086920F0040008617047086940F0EE
:1028D00004000861704710B5401EB0F1807F01D33D
:1028E000012010BD4FF0E02460610F21601703F05C
:1028F000EBFA0020A06107202061002010BD704786
:10290000704710B590F83C20012A22D0012280F8AF
:102910003C20CA6800238C6822F4407222434C6831
:1029200022F4806222430C6822F4006222430C6984
:1029300022F4805222434C6922F400522243C96996
:1029400022F480420A4301684A6480F83C30002047
:1029500010BD022010BD000070B590F83C20012A87
:1029600031D0012680F83C60022280F83D200268C8
:102970005468936824F070050C682C435460134C21
:102980000268A24214D0B2F1804F11D0104CA24282
:102990000ED0104CA2420BD00F4CA24208D00F4CCC
:1029A000A24205D00E4CA24202D00E4CA24204D14B
:1029B00023F080034968194391603C304670002140
:1029C0000170002070BD022070BD000000000140B9
:1029D0000004004000080040000C004000040140DA
:1029E000004001400018004010B50446002C03D000
:1029F00094F83D0010B107E0012010BD002084F8DC
:102A00003C00204600F016F8022084F83D00211D0D
:102A1000206802F0F1FC01203D3460726070A0700B
:102A2000E07020716071A071E07120722070002050
:102A300010BD000008B500682649884212D126481A
:102A4000016841F001010160006800F001000090A0
:102A5000002201211920FFF7A1F9BDE80840192043
:102A6000FFF78EB91C491D4A091F904208D108681A
:102A700040F008000860086800F00800009008BDF9
:102A8000174A904211D1086840F040000860086879
:102A900000F040000090012200212B20FFF77EF97A
:102AA000BDE808402B20FFF76BB90E4A9042E6D1F3
:102AB000086840F480700860086800F48070009036
:102AC000002201212D20FFF769F9BDE808402D20E3
:102AD000FFF756B90000014044380240000C0040A6
:102AE000001800400020004090F83D10012901D05E
:102AF00001207047022180F83D100168CA6842F049
:102B00000102CA6000681449884214D0B0F1804FB5
:102B100011D0124988420ED0114988420BD0114978
:102B2000884208D01049884205D01049884202D016
:102B30000F49884209D1816801F00701062908D0B0
:102B4000016841F00101016003E0016841F0010109
:102B500001600020704700000000014000040040B8
:102B600000080040000C004000040140004001400B
:102B70000018004070B50446002594F83C00012878
:102B800017D0012684F83C60022084F83D002068BC
:102B9000826822F0770222F47F428260086850281F
:102BA00038D00DDC202853D005DC90B3102811D18B
:102BB0004EE0022070BD30284AD040280AD13DE0C6
:102BC000602831D070280CD0B0F5805F03D0B0F50C
:102BD000005F12D001253C3466700020207028462A
:102BE00070BDCB68D1E90121206802F0F8FC2068B3
:102BF000816841F077018160EDE7CB68D1E901217F
:102C0000206802F0ECFC2068816841F4804181601A
:102C1000E1E71DE0CA684968206802F0C3FD502161
:102C2000206802F0E6FCD6E7CA684968206802F02E
:102C3000CAFD6021206802F0DCFCCCE7CA68496864
:102C4000206802F0AFFD4021206802F0D2FCC2E70C
:102C500022680146104602F0CCFCBCE72DE9F041A9
:102C600004460D46002C03D094F83D0018B108E04E
:102C70000120BDE8F081002084F83C00204600F0EF
:102C800047F8022084F83D002068816844F207027A
:102C900091438160211D206802F0AEFB273454F877
:102CA000270C81688269066A2B680B4340F2033166
:102CB0008A43AF69A96842EA0722114340F60C42F1
:102CC00091434FF2F0029143EF69EA6841EA07212C
:102CD0000A4329692F6A090141EA0731114326F0A5
:102CE000220222F088066A686D6946EA05152A43C1
:102CF000836054F8270C816154F8270C026201208C
:102D0000E077E0752076E0762077A0750020B0E7C8
:102D100030B587B00446142102A8FDF79DFA234977
:102D2000214D20680024214A10390223A8421BD1DA
:102D3000106840F002001060106800F0020001907E
:102D4000086840F004000860086800F00400019082
:102D5000C0200290039304940594069302A914489A
:102D6000FEF788FB07B030BD124DA842FAD11068BB
:102D700040F004001060106800F004000190086842
:102D800040F008000860086800F0080001904FF467
:102D900040500290039304940594069302A90648B8
:102DA000FEF768FBDEE70000000400404038024008
:102DB0000008024000080040000C024070B50446C4
:102DC00014F83E0F6278237965793E3C022600298B
:102DD00004D004290DD001281CD115E0012801D10F
:102DE000012B01D0012070BD84F83E6084F8426060
:102DF00018E0012A01D1012D01D0012070BD84F815
:102E00003F6084F843600DE0012A03D1012B01D11A
:102E1000012D01D0012070BD04F83E6F667026714F
:102E200066713E3C91B1042916D001220021206830
:102E300002F050FB01220421206802F04BFB2068C5
:102E4000016841F001010160002070BD01220021F4
:102E5000206802F03FFBF2E701220421206802F023
:102E600039FBECE7704770472DE9F04104462068D4
:102E7000C56806694FF00007B10714D5A90712D538
:102E8000F91E01610120207720688069800703D046
:102E90002046FFF7E8FF05E0204600F0D9F820467D
:102EA00000F09CF92777700717D5680715D52168BA
:102EB0006FF004000861022020772068806910F418
:102EC000407F03D02046FFF7CEFF05E0204600F00C
:102ED000BFF8204600F082F92777300716D528077B
:102EE00014D521686FF0080008610420207720685D
:102EF000C069800703D02046FFF7B5FF05E02046F4
:102F000000F0A6F8204600F069F92777F00617D5FB
:102F1000E80615D521686FF01000086108202077B9
:102F20002068C06910F4407F03D02046FFF79BFF64
:102F300005E0204600F08CF8204600F04FF9277796
:102F4000F00708D0E80706D021686FF0010008619B
:102F5000204600F0E7FA300608D5280606D5216895
:102F60006FF0800008612046FFF7C9FC700608D5A5
:102F7000680606D521686FF040000861204600F021
:102F800029FBB0060AD5A80608D521686FF02000F5
:102F900008612046BDE8F041FFF7B2BCBDE8F08112
:102FA00070B586B00446142101A8FDF755F92348F1
:102FB00021680022224B02240125814213D1186886
:102FC00040F010001860186800F0100000904815DC
:102FD0000190029403920492059501A91948FEF705
:102FE00049FA06B070BD1848B1F1804F13D0174EA2
:102FF000B142F6D1196841F001011960196801F078
:10300000010100910195029403920492059401A993
:10301000FEF730FAE5E7196841F001011960196817
:1030200001F00101009108210191029403920492A0
:10303000059501A9FEF71EFAD3E700000000014044
:10304000303802400010024000000240000C0040F6
:10305000704770B504460D46002694F83C000128E0
:103060000FD0012084F83C006AB1042A1FD0082A3E
:1030700032D00C2A44D00126002084F83C0030468F
:1030800070BD022070BD2946206802F0BBFA20689E
:10309000816941F0080181612068816921F00401A2
:1030A0008161206881692A6911438161E4E72946C9
:1030B000206802F0DBFA2068816941F400618161D7
:1030C0002068816921F480618161206881692A69B1
:1030D00041EA02218161CFE72946206802F000FB26
:1030E0002068C16941F00801C1612068C16921F00F
:1030F0000401C1612068C1692A691143C161BBE74C
:103100002946206802F024FB2068C16941F400616F
:10311000C1612068C16921F48061C1612068C16911
:103120002A6941EA0221C161A6E710B50446002CD4
:1031300003D094F83D0010B107E0012010BD00203D
:1031400084F83C00204600F015F8022084F83D0089
:10315000211D206802F050F901203D34607260703A
:10316000A070E07020716071A071E0712072207019
:10317000002010BD38B505462868B0F1804F26D133
:10318000002013490A6842F001020A60096801F050
:1031900001010091104C0F4921604FF0C061616046
:1031A0004021A160E060090121618900616189001D
:1031B000A1618911E161206260622046FEF7B8F8E2
:1031C00008B1FDF779FEAC62A5632C63A56338BD39
:1031D00040380240A06002406403002070477047FE
:1031E00010B50446002909D004290AD008290BD0BB
:1031F00094F8410001280AD0012010BD94F83E0047
:10320000F8E794F83F00F5E794F84000F2E7022071
:10321000A9B3042937D0082938D084F84100012205
:10322000206802F057F91E4920681E4A884201D0E2
:10323000904203D1436C43F40043436420688842C6
:1032400013D0B0F1804F10D0174988420DD01749E4
:1032500088420AD01649884207D0904205D01549C5
:10326000884202D01449884213D1816801F00701D5
:10327000062912D0016841F0010101600DE0FFE76D
:1032800084F83E00CBE784F83F00C8E784F84000AC
:10329000C5E7016841F001010160002010BD000098
:1032A000000001400004014000040040000800400C
:1032B000000C004000400140001800402DE9F041A2
:1032C0000D46044611460026002D13D0042D14D0BF
:1032D000082D15D094F84100022814D0ADB1042D6A
:1032E00016D0082D17D094F84100012816D00120DF
:1032F000BDE8F08194F83E00EEE794F83F00EBE77C
:1033000094F84000E8E70220F2E794F83E00ECE78A
:1033100094F83F00E9E794F84000E6E749B143B18B
:10332000022045B1042D09D0082D0AD084F84100AF
:1033300009E00120DCE784F83E0004E084F83F0067
:1033400001E084F840004E484E4A4F4F45B1042DED
:103350001CD0082D30D00C2D45D00126E6B38DE0D1
:10336000D4F824C0CCF83C00606A0264606AC76488
:103370002268606A3432FEF745F808B10120B7E7E9
:103380002068C16841F40071C160E7E7D4F828C043
:10339000CCF83C00A06A0264A06AC7642268A06AF4
:1033A0003832FEF72FF808B10120A1E72068C16884
:1033B00041F48061C160D1E7D4F82CC0CCF83C0066
:1033C000E06A0264E06AC7642268E06A3C32FEF7A1
:1033D00019F810B101208BE71BE02068C16841F4A7
:1033E0000061C160BAE7D4F830C0CCF83C00206B73
:1033F0000264206BC7642268206B4032FEF702F83B
:1034000008B1012074E72068C16841F48051C160AF
:10341000A4E701222946206802F05CF81B4A2068D4
:103420001B49904201D0884203D1436C43F40043CE
:1034300043642068904213D0B0F1804F10D0154AF9
:1034400090420DD0144A90420AD0144A904207D0BC
:10345000884205D01249884202D01249884209D1D7
:10346000816801F00701062908D0016841F00101D7
:10347000016003E0016841F001010160304637E777
:10348000EF5400084D5500088B550008000001401E
:10349000000401400004004000080040000C00400F
:1034A000004001400018004030B504460D4600229F
:1034B0002946206802F00EF8184A41F211112068DE
:1034C0008B10904202D0164A904209D1026A0A42F9
:1034D00006D1026A1A4203D1426C22F400424264CD
:1034E0002068026A0A4206D1016A194203D10168C2
:1034F00021F00101016001203DB1042D08D0082D0B
:1035000009D084F84100002030BD84F83E00FAE77D
:1035100084F83F00F7E784F84000F4E7000001403A
:10352000000401402DE9F041064626480025264CBE
:1035300086421FD12548FDF723FD244802F056F9A5
:1035400001F07AFA2068022805D3204801F0E4FA55
:1035500002F08EF9256060680A2805D31B4801F047
:10356000C9FA02F0C5F965602068401C20606068F7
:10357000401C606013484830864220D1A068022871
:1035800002D304F077F8A560E068322811D3104820
:10359000FEF754FF060F0E48FEF750FF070F0C48CA
:1035A000FEF74CFF010F33463A46002002F034FC90
:1035B000E560A068401CA060E068401CE060BDE8D9
:1035C000F0810000D402002000000020800B0020C9
:1035D000A4000020704738B5044694F84200202823
:1035E00001D0022038BD51B14AB101202063002032
:1035F0006063204602F040FB014611B105E0012066
:1036000038BD206B012802D00121084638BD206852
:1036100002684068009020680C3050E8002F42F0AB
:10362000100240E80023002BF5D1EEE710B500684A
:103630001E4988420FD11E4800684068C0F18000D2
:10364000C4B221461B48FDF739FC2146BDE81040B5
:103650001848FCF701BE1849884211D11748006884
:103660004068C0F18000C4B2124821468030FDF7A6
:10367000DBFC21460F48BDE810408030FCF7ECBD74
:103680000F49884210D10F4800684068C0F180009F
:10369000C4B222460C490D48FDF73CFC2146BDE86A
:1036A00010400948FCF7D8BD10BD000000100140D3
:1036B000640500209C0B00200044004024060020EC
:1036C00000480040840600209C0C0020800B002055
:1036D00070470000F8B5044622681068D168536945
:1036E00000F00F06002E08D1850606D58D0604D5FC
:1036F0002046BDE8F84002F0D0B90025002E66D083
:1037000003F0010601F49077374360D0C20705D07B
:10371000CA0503D5626C42F001026264420705D516
:10372000DA0703D0626C42F002026264820705D5B8
:10373000DA0703D0626C42F004026264020707D524
:1037400001F02002324303D0626C42F0080262644E
:10375000626C002A31D0800604D5880602D5204646
:1037600002F09BF920684069C0F38010616C090782
:1037700000D438B3204602F04EF920684069400674
:103780001CD52068143050E8001F21F0400140E8AB
:103790000012002AF5D1E06B60B159490165E06B78
:1037A000FDF7CBFC002808D0E06B016D01B0BDE84F
:1037B000F04008472046FFF78BFFF8BD2046FFF793
:1037C00087FFF8BD2046FFF783FF6564F8BD236BD4
:1037D000012B7DD1C3067BD5CB067FD51068506801
:1037E000009050694FF0200340064FF0020644D588
:1037F000E16B0868406880B20028E7D0A28D824261
:10380000E4D9E085C869B0F5807F2DD020680C3000
:1038100050E8001F21F4807140E80012002AF5D121
:103820002068143050E8001F21F0010140E8001228
:10383000002AF5D12068143050E8001F21F0400123
:1038400040E80012002AF5D184F842302563206850
:103850000C3050E8001F21F0100140E80012002A4F
:10386000F5D1E06BFDF722FC6663A08DE18D401A77
:1038700081B22046FFF7DAFEF8BDA08DE18D401A37
:1038800081B2E08D0028F7D00029F5D020680C30F7
:1038900050E8002F22F4907240E80027002FF5D165
:1038A0002068143050E8002F22F0010240E8002781
:1038B000002FF5D184F84230256320680C3050E8A1
:1038C000002F22F0100240E80023002BF5D100E089
:1038D00004E066632046FFF7A9FEF8BD020606D5A0
:1038E0000A0604D52046BDE8F84002F00FBA4006AB
:1038F000F3D54806F1D52046BDE8F84002F0B2B84D
:103900001959000870B50446002C04D094F8410001
:10391000002510B106E0012070BD84F8405020461B
:1039200000F024F8242084F841002068C16821F4C4
:103930000051C160204602F015F92068016921F4A8
:10394000904101612068416921F02A0141612068AC
:10395000C16841F40051C1606564202084F84100D1
:1039600084F842006563002070BD00002DE9F04F2F
:1039700087B00446142102A8FCF76EFCAC48AB4AA1
:103980002168002507154FF002084FF003094FF09A
:10399000070A4FF0400B4FF00066914270D1A449E6
:1039A00014310A6842F010020A60096801F010013F
:1039B0000191016841F001010160006800F001001F
:1039C00001904FF4C0600290CDF80C800495CDF8C2
:1039D0001490CDF818A002A99648FDF74BFDDFF82A
:1039E0005C829548C8F80000C8F80460C8F8085020
:1039F000C8F80C50C8F81070C8F81450C8F818501F
:103A0000C8F81C50C8F82050C8F824504046FDF7AC
:103A10008FFC08B1FDF750FAC4F83C80C8F8384074
:103A2000DFF81882844808F160087830C8F8000090
:103A3000C8F80460C8F808B0C8F80C50C8F810708E
:103A4000C8F81450C8F81850C8F81C50C8F82050CE
:103A5000C8F824504046FDF76BFC08B1FDF72CFA7E
:103A6000C4F83880C8F83840002201212520FEF72C
:103A700095F92520FEF784F907B0BDE8F08FFFE740
:103A80006B4A6F4B1032994248D1116841F40031B2
:103A90001160116801F400310191016841F00801E1
:103AA0000160006800F00800019060200290CDF8ED
:103AB0000C800495CDF81490CDF818A002A96148A7
:103AC000FDF7D8FCDFF874815F4808F1C008C8F83A
:103AD0000000C8F80460C8F80850C8F80C50C8F8CE
:103AE0001070C8F81450C8F81850C8F81C50C8F81E
:103AF0002050C8F824504046FDF71AFC08B1FDF7E5
:103B0000DBF9C4F83C80C8F83840002201212620A7
:103B1000FEF744F92620FEF733F9ADE74B4B994207
:103B2000AAD1116841F480211160116801F480214B
:103B30000191016841F002010160016801F0020198
:103B40000191016841F008010160006800F008007F
:103B50000190D8140290CDF80C800495CDF8149003
:103B6000CDF818A002A93A48FDF784FC4FF4807004
:103B70000290CDF80C800495CDF81490CDF818A0E3
:103B800002A93048FDF776FC2F48DFF8C88060387E
:103B9000C8F80000C8F80460C8F80850C8F80C500D
:103BA000C8F81070C8F81450C8F81850C8F81C505D
:103BB0004FF44039C8F82090C8F824504046FDF72B
:103BC000B7FB08B1FDF778F9C4F83C80C8F8384075
:103BD000DFF880801C4808F160083038C8F8000021
:103BE000C8F80460C8F808B0C8F80C50C8F81070DD
:103BF000C8F81450C8F81850C8F81C50C8F82090DD
:103C0000C8F824504046FDF793FB08B1FDF754F97E
:103C1000C4F83880C8F83840002201212720FEF778
:103C2000BDF82720FEF7ACF826E7000000100140A1
:103C30003038024000000240406402406405002029
:103C400000440040000C02408860024000480040F0
:103C50000004024084060020704770477047FEE76A
:103C600001684A69D24352050FD46FF480624A61F9
:103C7000002140F8301F202242738173026942F014
:103C800004020261017301207047002070470000A8
:103C90002DE9F84F04468B4692461D46E06A21689E
:103CA0000A6842F480620A60082808D0012806D019
:103CB00010F5803F03D0206B112806D00AE0206861
:103CC000016841F48071016004E02068016841F4FA
:103CD000807101604FF00118534600224146204692
:103CE000009500F0E3F84FF4007738B120680068E1
:103CF000C00500D527640320BDE8F88F2069DFF8F0
:103D0000A090B0F5804F10D021680BF44076F020E1
:103D100040EAD61008612B46524609F106012046BA
:103D200000F01AF940B10120E6E721680BF0FF002E
:103D300040F00100086128E021680BF0FF000861F5
:103D40002B4652464946204600F006F908B10120AC
:103D5000D2E72068416981690091016841F480716E
:103D600001605346002241462046009500F09EF82F
:103D700030B120680068C00500D527640320BBE788
:103D80002168F12040EAD61008612B465246494688
:103D9000204600F0E1F808B10120ADE70020ABE7D4
:103DA00002000100F8B504460D4617461E46E06ABB
:103DB000082808D0012806D010F5803F03D0206BDA
:103DC000122806D00AE02068016841F48071016081
:103DD00004E02068016841F4807101603B460022E4
:103DE0004FF001112046009600F060F840B12068C5
:103DF0000068C00502D54FF4007020640320F8BDB0
:103E00002069B0F5804F0FD005F44070F02141EAF1
:103E1000D0102168086133463A460D49204600F02B
:103E20009BF830B10120F8BD216805F0FE00086163
:103E300002E02168E8B20861054933463A46891F25
:103E4000204600F089F808B10120F8BD0020F8BD37
:103E50000800010070B504460D4616461FE02046D6
:103E6000FFF7FEFE08B1012070BD681C17D0FDF7FA
:103E7000F7FB801BA84200D88DB920684069C04379
:103E800040070CD5002044F8300F20216173A07347
:103E9000216941F0200121612073012070BD20685B
:103EA0004069C0434007DAD4002070BD2DE9F047D7
:103EB0000446DDF820900D4690461E46C5F30747A0
:103EC0002FE0701C2DD0FDF7CBFBA0EB0900B0421A
:103ED00000D836BB012F17D02068806925EA000082
:103EE0000004000C1BD0002040451AD1002044F8EB
:103EF000300F20216173A073216941F020012161FD
:103F000020730120BDE8F0872068406925EA0000A1
:103F10000004000C01D00020E6E70120E4E70120C6
:103F2000E2E7012F0BD02068806925EA0000000439
:103F3000000C0FD000204045C3D00020E2E72068ED
:103F4000406925EA00000004000C01D00020F2E7DF
:103F50000120F0E70120EEE72DE9F04704460D4689
:103F6000164698464FF000094FF0200AC5F3074760
:103F700043E020684069C043400517D420680168C9
:103F800041F40071016021686FF480604861C4F8F9
:103F9000309084F83DA084F83E90206C40F00400FE
:103FA000206484F83C900120BDE8F087701C24D088
:103FB000FDF756FBA0EB0800B04200D8EEB9012F88
:103FC00014D02068806925EA00000004000C14D099
:103FD000C4F8309084F83DA084F83E90206C40F006
:103FE0002000206484F83C900120DDE720684069CF
:103FF00025EA00000004000CEAD1012F08D0206857
:10400000806925EA00000004000CB2D10020CBE753
:104010002068406925EA00000004000CF6D0A8E7FB
:104020002DE9F04104460D46164600274FF02008C2
:104030002AE04069C043C0060FD421686FF0100029
:104040004861276384F83D8084F83E70206C2064CA
:1040500084F83C700120BDE8F081FDF701FB801B76
:10406000A84200D885B920684069C04340060BD5F6
:1040700044F8307F84F80D80A773206940F0200059
:10408000206127730120E6E720684169C94349069A
:10409000CFD40020DFE770B504460D4616461FE07A
:1040A0002046FFF7DDFD08B1012070BD681C17D068
:1040B000FDF7D6FA801BA84200D88DB92068406968
:1040C000C04300060CD5002044F8300F2021617356
:1040D000A073216941F0200121612073012070BD8E
:1040E00020684069C0430006DAD4002070BD00009B
:1040F00008B52548016841F480010160016801F4B8
:1041000080010091016841F400110160006800F431
:1041100000100090002205210C20FDF73FFE0C202E
:10412000FDF72EFE002205210E20FDF737FE0E20A2
:10413000FDF726FE002205211020FDF72FFE10209E
:10414000FDF71EFE002205211120FDF727FE11209C
:10415000FDF716FE002201212F20FDF71FFE2F2064
:10416000FDF70EFE002205213A20FDF717FE3A204A
:10417000FDF706FE002205214620FDF70FFEBDE8F3
:1041800008404620FDF7FCBD303802402DE9F04FD5
:1041900087B0142102A8FCF75FF800255948016890
:1041A00041F080010160016801F080010191016826
:1041B00041F004010160016801F00401019101680E
:1041C00041F001010160016801F001010191016804
:1041D00041F010010160016801F0100101910168D6
:1041E00041F002010160016801F0020101910168E2
:1041F00041F008010160006800F008000190424FA2
:10420000002248F206013846FDF723FA3F4E4FF4EC
:10421000C07B002259463046FDF71BFADFF8F080DC
:1042200000224FF410614046FDF713FADFF8E490E6
:10423000012211464846FDF70CFADFF8DCA0012206
:104240004FF490715046FDF704FA0C20029003954C
:104250000124049402A94046FDF70CF906200290BF
:1042600003940495059502A93846FDF703F9CDF8A6
:1042700008B003940495059502A93046FDF7FAF8B5
:104280004FF4704002900395049402A95046FDF744
:10429000F1F826020296039402200490059502A9E3
:1042A0004046FDF7E7F8E003029003940494059577
:1042B00002A93846FDF7DEF8E00202900394049468
:1042C000059502A94046FDF7D5F80294039404949D
:1042D000059502A94846FDF7CDF8202002900394E9
:1042E0000494059502A95046FDF7C4F802961120E2
:1042F00003900495059502A95046FDF7BBF807B059
:10430000BDE8F08F3038024000000240001002404B
:1043100000080240000C02400004024010B50D48A5
:104320000B4901600C49416000218160C1604FF47C
:104330008042026141618161C1610162FDF796F9CC
:10434000002803D0BDE81040FCF7B6BD10BD00004A
:10435000005C004050000020A086010010B5074915
:10436000054808600846FEF775F8002803D0BDE848
:104370001040FCF7A1BD10BD00080650A4000020AD
:1043800010B510480E4901604FF4827141604FF43E
:10439000004181600021C160016141614FF4007200
:1043A0008261C1610162416281620A21C162FEF7DC
:1043B00003F9002803D0BDE81040FCF77DBD10BD17
:1043C000003C0040B40000201FB500200090019088
:1043D000029003900F490E4A0A6053224A60886097
:1043E00040F2E732CA60086188610846FEF7FCFACD
:1043F00008B1FCF761FD4FF4805000906946054814
:10440000FEF7B8FB002801D0FCF756FD1FBD0000E9
:1044100000180040D402002010B50B480949016083
:10442000532141600021816041F28732C260016105
:104430008161FEF7D9FA002803D0BDE81040FCF7EF
:104440003BBD10BD002000401C03002010B596B0FD
:1044500000241294139414941594109411941C2114
:1044600009A8FBF7F9FE202101A8FBF7F5FE284873
:10447000264901604460846040F69F71C160046118
:1044800044618461FEF7B0FA08B1FCF715FD4FF402
:104490008050129012A91E48FEF76CFB08B1FCF781
:1044A0000BFD1B48FEF741FE08B1FCF705FD10941B
:1044B000119410A91648FEF74FFA08B1FCF7FCFC5E
:1044C000602009900A940B940C940D940E940F9410
:1044D000002209A90E48FEF7BCFD08B1FCF7ECFC70
:1044E000019402940394049405944FF400500690B0
:1044F000089401A90648FEF704FA08B1FCF7DCFCB1
:104500000348FEF74DFD16B010BD0000000001404D
:104510006C01002010B58AB00024089409941C2175
:1045200001A8FBF799FE15484FF0804101604460F7
:104530008460D221C16004618461FEF7F6FD08B198
:10454000FCF7BAFC0894099408A90C48FEF704FA91
:1045500008B1FCF7B1FC602001900294039405942B
:104560000C2201A90548FEF774FD08B1FCF7A4FC74
:104570000248FEF715FD0AB010BD0000B40100208E
:1045800010B58CB0242103A8FBF766FE002401942B
:104590000294144812490160446084604FF6FF7130
:1045A000C160046184610120039004940590069425
:1045B0000794089409900A940B9403A90948FEF7FC
:1045C0004DFB08B1FCF778FC0194029401A9054861
:1045D000FEF7C2F9002801D0FCF76EFC0CB010BD4C
:1045E00000040040FC01002010B58CB0242103A879
:1045F000FBF732FE00240194029414481249016032
:10460000446084604FF6FF71C160046184610120E1
:1046100003900494059006940794089409900A94D2
:104620000B9403A90948FEF719FB08B1FCF744FCF9
:104630000194029401A90548FEF78EF9002801D0E3
:10464000FCF73AFC0CB010BD00080040440200200A
:1046500010B58EB000240A940B940C940D94089419
:1046600009941C2101A8FBF7F7FD1E481C490160B5
:104670004460846040F69F71C16004618461FEF70C
:10468000B3F908B1FCF718FC4FF480500A900AA95E
:104690001448FEF76FFA08B1FCF70EFC1148FEF75C
:1046A00044FD08B1FCF708FC0894099408A90D48DA
:1046B000FEF752F908B1FCF7FFFB6020019002946D
:1046C00003940594002201A90648FEF7C2FC08B134
:1046D000FCF7F2FB0348FEF763FC0EB010BD0000D0
:1046E000000C00408C02002010B50C480A49016003
:1046F0004FF4E131416000218160C16001610C2211
:1047000042618161C161FFF7FDF8002803D0BDE877
:104710001040FCF7D1BB10BD001001408C040020FC
:1047200010B50C480A4901604FF4E13141600021A5
:104730008160C16001610C2242618161C161FFF74A
:10474000E1F8002803D0BDE81040FCF7B5BB10BD70
:1047500000440040D404002010B50C480A49016010
:104760004FF4E121416000218160C16001610C22B0
:1047700042618161C161FFF7C5F8002803D0BDE83F
:104780001040FCF799BB10BD004800401C050020FC
:10479000FEE700002DE9F04104460D46B4F57A6FBE
:1047A00002DB40F69F7403E014F57A6F00DC224CC4
:1047B000012D1DD1214F224E002C0CDB01220421A2
:1047C0003846FCF746FF002202213846FCF741FF3D
:1047D000306844630CE0002204213846FCF739FFBE
:1047E000012202213846FCF734FF316860424863F9
:1047F000F5B9144E144DB715002C0CDB01228021A5
:104800003046FCF726FF002239463046FCF721FFF0
:10481000286844630CE0002280213046FCF719FF31
:10482000012239463046FCF714FF2968604248638C
:104830000020BDE8F081000061F0FFFF00000240B1
:104840008C020020001002406C01002010B50028EE
:1048500005D0012809D002280DD0012010BD00216B
:104860000A48FEF7BDFC002010BD00210848FEF7F5
:10487000B7FC002010BD00210448FEF7B1FC002168
:104880000348FEF7ADFC002010BD00006C010020C5
:104890008C02002010B5002805D0012809D002287C
:1048A0000DD0012010BD00210A48FEF7FDFD0020BB
:1048B00010BD00210848FEF7F7FD002010BD0021C3
:1048C0000448FEF7F1FD00210348FEF7EDFD00204E
:1048D00010BD00006C0100208C020020FEE7704734
:1048E0000148FDF7E7BD0000B400002010B5806B63
:1048F0000021C187C186FDF7DBFD10BD7CB50446F4
:104900000E4615463346012202212046009500F04E
:1049100033F828B1606D40F02000606503207CBD55
:10492000134814490068B0FBF1F04FF47A71484322
:1049300001906068B0F5827F0DD13346002280215E
:104940002046009500F018F878B1606D40F0200026
:10495000606503207CBD019838B10198401E01902C
:1049600020688068C0430006F5D500207CBD0000AB
:104970001C00002000366E012DE9F84304460F4666
:1049800091461E46089DFCF76BFE401B351AFCF74E
:1049900067FE804626480068C0F3CB30684300902D
:1049A0003AE0701C38D0FCF75BFEA0EB0800A84290
:1049B00003D215B1009858B32BE02068416821F06C
:1049C000E00141606068B0F5827F0BD1A068B0F56E
:1049D000004F02D0B0F5806F04D12068016821F04B
:1049E00040010160A06AB0F5005F09D1206801684C
:1049F00021F4005101602068016841F40051016018
:104A0000012050346070002020700320BDE8F8833E
:104A100000250098401E00902068806837EA00005A
:104A200004D000204845BCD10020EFE70120F9E781
:104A30001C0000207047000010B52D4C0020A1681C
:104A4000C860E168C8606169A0684969C26891EDA1
:104A50000D0ABDEEC00A10EE101A511AC16061694C
:104A6000E0684969C26891ED0D0ABDEEC00A10EE1A
:104A7000101A511AC1606169A068C968C26891EDD5
:104A80000D0ABDEEC00A10EE101A511AC16061691C
:104A9000E068C968C26891ED0D0ABDEEC00A10EE6B
:104AA000101A1144C1606169A0688969C26891EDFA
:104AB0000D0ABDEEC00A10EE101A511AC1606169EC
:104AC000E0688969C26891ED0D0ABDEEC00A10EE7A
:104AD000101A511AC160A0680021C068FFF75AFE81
:104AE000E0680121C068BDE81040FFF753BE000038
:104AF000800B002010B50446206890ED000A606924
:104B00000069016E034888476069406980ED010AC9
:104B100010BD0000FC09002001684069DFED060AB5
:104B2000B1F90C10406900EE101A016EB8EEC00A1F
:104B3000024820EE200A08470C007A3D600A002057
:104B4000FDF79EB830B593B0302107A8FBF784FB82
:104B5000142102A8FBF780FB00251D48016841F0E5
:104B600080510160006800F0805001901948016890
:104B700041F480410160006800F480400190012010
:104B800007900004089002240D9480010E900420E8
:104B90000F90A820109011940720129007A8FDF7FD
:104BA0002FFA08B1FCF788F90F20029003940495BE
:104BB0004FF4A05005904FF480500690052102A8B4
:104BC000FDF71EF9002801D0FCF776F913B030BDCF
:104BD00040380240007000400248016841F4700112
:104BE0000160704788ED00E010B52A2000F064FAFB
:104BF000002000F047FA002000F044FA002000F006
:104C000041FAEF2000F03EFA2B2000F055FA002088
:104C100000F038FA002000F035FA002000F032FAF7
:104C2000EF2000F02FFABDE810402C2000F044BA2D
:104C3000F8B50446FFF7D8FF002000900122D1020A
:104C40000B48FCF706FD200A8DF800008DF80140A6
:104C500000244FF6FF764FF4614533460222694641
:104C60000448FDF761FD641CAC42F6D3F8BD0000BA
:104C700000080240B400002010B514460B4602465E
:104C800000F0D7F92046BDE8104000F031BA2DE918
:104C9000F05F81468B4692461C460FFA89F10FFA67
:104CA0008BF50FFA8AF620B20027B846D14513D10A
:104CB000234652465946484600F0BBF90025A4EB6E
:104CC0000B04641C04E00A9800F012FA6D1CADB2EB
:104CD000AC42F8DCBDE8F09FA34512D12346524612
:104CE0005946484600F0A5F90024AAEB09056D1CB9
:104CF00004E00A9800F0FCF9641CA4B2A542F8DCB8
:104D0000E8E7B14205DD0A46314616462A46054621
:104D10001046854204DD6A4215B2404200B20127C6
:104D2000421B731A9A4207DD0A4629461546324647
:104D3000064610464FF00108721A401B43000FFA56
:104D400083FA831A5B000FFA83FBC2EB40000FFA71
:104D500080F90C464FB1B8F1000F06D0604281B225
:104D6000A8B20A9AFFF788FF47E037B1684281B2DC
:104D7000A0B20A9AFFF780FF3FE0B8F1000F05D01C
:104D8000A1B2A8B20A9AFFF777FF36E0A9B2A0B2A3
:104D90000A9AFFF771FF30E0641C24B2B9F1000FEA
:104DA00004DA09EB0A000FFA80F905E06D1C2DB258
:104DB00009EB0B000FFA80F94FB1B8F1000F06D0E4
:104DC000604281B2A8B20A9AFFF756FF15E037B1E8
:104DD000684281B2A0B20A9AFFF74EFF0DE0B8F127
:104DE000000F05D0A1B2A8B20A9AFFF745FF04E070
:104DF000A9B2A0B20A9AFFF73FFFB442CCDB69E741
:104E00002DE9F8430746089C0D46904699464B46C7
:104E100042462946384600F00CF900200090012255
:104E2000D1020F48FCF715FC200A8DF800008DF820
:104E300001400024A9EB05056D1CA8EB0700401CF0
:104E40004FF6FF76454307E03346022269460548A0
:104E5000FDF76AFC641CA4B2A542F5DCBDE8F8834A
:104E600000080240B40000202DE9F8430646089CE3
:104E7000884617461D462B4632464146304600942A
:104E8000FFF705FF2B463A46414638460094FFF7A8
:104E9000FEFE43463A46414630460094FFF7F7FE91
:104EA0002B463A46294630460094FFF7F0FEBDE80F
:104EB000F88310B5642002F079FB142002F076FB31
:104EC0000A2002F073FB112000F0F6F80A2002F02D
:104ED0006DFB3A2000F0F0F8052000F0D3F8B22086
:104EE00000F0EAF80C2000F0CDF80C2000F0CAF831
:104EF000002000F0C7F8332000F0C4F8332000F0A1
:104F0000C1F8B72000F0D8F8352000F0BBF8BB207E
:104F100000F0D2F8322000F0B5F8C22000F0CCF852
:104F2000012000F0AFF8C32000F0C6F8152000F013
:104F3000A9F8C42000F0C0F8202000F0A3F8C62093
:104F400000F0BAF80F2000F09DF8D02000F0B4F87F
:104F5000A42000F097F8A12000F094F8E02000F0E1
:104F6000ABF8D02000F08EF8082000F08BF80E206F
:104F700000F088F8092000F085F8092000F082F898
:104F8000052000F07FF8312000F07CF8332000F09D
:104F900079F8482000F076F8172000F073F8142014
:104FA00000F070F8152000F06DF8312000F06AF87C
:104FB000342000F067F8E12000F07EF8D02000F007
:104FC00061F8082000F05EF80E2000F05BF8092080
:104FD00000F058F8092000F055F8152000F052F8BC
:104FE000312000F04FF8332000F04CF8482000F05A
:104FF00049F8172000F046F8142000F043F8152077
:1050000000F040F8312000F03DF8342000F03AF88C
:10501000362000F051F8702000F034F8212000F024
:105020004BF8292000F048F8BDE810400020FFF7B9
:10503000FFBD2DE9F04106460C4615461F462A20C5
:1050400000F03AF8002000F01DF8F0B200F01AF875
:10505000002000F017F8E8B200F014F82B2000F060
:105060002BF8002000F00EF8E0B200F00BF8002062
:1050700000F008F8F8B200F005F8BDE8F0412C2087
:1050800000F01AB801B50122D1020848FCF7E1FA94
:1050900000224FF400410648FCF7DBFA4FF6FF739D
:1050A000012269460348FDF73FFB08BD00080240A6
:1050B00000000240B400002001B500224FF400615E
:1050C0000848FCF7C6FA00224FF400410648FCF7F6
:1050D000C0FA4FF6FF73012269460448FDF724FB2E
:1050E00008BD00000008024000000240B40000209B
:1050F00038B504460020009000224FF400410A48D1
:10510000FCF7A7FA0122D1020848FCF7A2FA200A0C
:105110008DF800008DF801404FF6FF7302226946BA
:105120000348FDF701FB38BD0000024000080240C3
:10513000B40000202DE9F0418AB00646109D0F46CC
:1051400090461C4612AA02A8119900F093FE43460D
:1051500002AA39463046CDE9004500F0E7F80AB02A
:10516000BDE8F0812DE9F05F1E46DDE90A73A2F18A
:1051700020046A4A01F1010C4FF0FF3B012504EBCA
:10518000440A0BEBCC0802EB8A09002B18D0012B48
:1051900039D0022B5CD0032B78D01FFA88F3421D44
:1051A000FFF747FF4FF00008002405FA08FA39F826
:1051B000140010EA0A0F6AD03046FFF799FF9FE00B
:1051C0001FFA88F3421DFFF734FF4FF00008002458
:1051D00005FA08FA39F8140010EA0A0F03D030462D
:1051E000FFF786FF02E03846FFF782FF641CA4B297
:1051F000062CEFD308F101081FFA88F8B8F1080F60
:10520000E5D3BDE8F09F0BEB0C1293B2C21DFFF784
:1052100010FF4FF00008424800EB4419002439F811
:10522000180005FA04F1084203D03046FFF760FF8A
:1052300002E03846FFF75CFF641CA4B2082CEED3F2
:1052400008F101081FFA88F8B8F1100FE6D3D8E783
:105250000CEB4C020BEBC20293B200F10B02FFF716
:10526000E8FE4FF000082F4800EB4A1900245FEADF
:10527000C87001D0042C12D239F8180005FA04F1D4
:10528000084205D03046FFF733FF04E00FE034E07A
:105290003846FFF72DFF641CA4B2082CE7D308F1B1
:1052A00001081FFA88F8B8F1300FDFD3A9E70BEB3C
:1052B0004C1293B200F10F02FFF7BBFE4FF0000853
:1052C000194800EBC419002439F8180005FA04F154
:1052D000084203D03046FFF70BFF02E03846FFF7E5
:1052E00007FF641CA4B2082CEED308F101081FFAD2
:1052F00088F8B8F1400FE6D383E73846FFF7F8FEA9
:10530000641CA4B2062CFFF452AF08F101081FFA86
:1053100088F8B8F1080FFFF447AF72E7A6850008D8
:105320001A8A0008FA9500089AB900082DE9FC4786
:105330000546DDE90A600F4614469846002807D066
:10534000012817D0022826D0032811D181463DE03C
:105350004FF0000909E0CDE90069641C4346394675
:105360002846FFF7FFFEAD1DEDB22278002AF2D1EC
:10537000BDE8FC874FF0010909E0CDE90069641C34
:10538000434639462846FFF7EDFE0835EDB2227850
:10539000002AF2D1ECE74FF0020909E0CDE90069FB
:1053A000641C434639462846FFF7DCFE0C35EDB257
:1053B0002278002AF2D1DBE7CDE90069641C43467C
:1053C00039462846FFF7CEFE1035EDB22278002A86
:1053D000F2D1CDE70148FDF747BD00006C01002088
:1053E0000148FDF741BD0000D40200200148FDF74F
:1053F0003BBD00001C0300202DE9F04102682A4D4E
:105400002A4E2B4FDFF8ACC02B4B4FF08048A84200
:1054100009D0404507D0B04205D0B84203D060451E
:1054200001D0984203D122F070044A682243A84276
:105430001BD0404519D0B04217D0B84215D06045B6
:1054400013D0984211D01D4CA0420ED01C4CA0424B
:105450000BD01C4CA04208D01B4CA04205D01B4CCA
:10546000A04202D01A4CA04203D122F44074CA6870
:1054700022434C6922F08002224302608A68C262A1
:105480000A688262A84201D0984201D10969016389
:10549000012141610169C90703D0016921F00101BE
:1054A0000161BDE8F08100000000014000040040FF
:1054B00000080040000C0040000401400040014092
:1054C000004401400048014000180040001C00401A
:1054D0000020004010B501F01F0101238B40046A39
:1054E0009C430462036A8A401343036210BD10B5F3
:1054F000846B0121626A824205D12177C069F8B9C3
:1055000084F83E101CE0A26A824206D10222227771
:10551000C069A8B984F83F1012E0E26A824206D15D
:1055200004222277C06958B984F8401008E0226B41
:10553000824205D108222277C06908B984F8411057
:105540002046FDF74BFE0020207710BD10B5846B80
:10555000616A814202D10120207710E0A16A814274
:1055600002D1022020770AE0E16A814202D10420C0
:10557000207704E0216B814201D10820207720466A
:10558000FDF72DFE0020207710BD10B5846B0121A2
:10559000626A824203D1217784F83E1019E0A26A40
:1055A000824204D10220207784F83F1011E0E26AA1
:1055B000824204D10420207784F8401009E0226B55
:1055C000824204D10820207784F8411001E084F859
:1055D0003D102046FDF746FC0020207710BD10B599
:1055E000846824F47F4442EA03220A43224382600F
:1055F00010BD826822F070020A4342F00701816008
:1056000070470000F0B5056A026A22F001020262EA
:105610004368826922F0700222F003020C6814438E
:1056200025F002058A682A430E4E0F4FB04201D082
:10563000B84205D122F00805CA682A4322F00402C4
:10564000B04201D0B84207D123F4807323F4007331
:105650004D691D438B692B434360846149684163F5
:105660000262F0BD0000014000040140F0B5026A92
:10567000036A23F0100303624368846924F4E0445E
:1056800024F440740D6844EA052422F020028D6859
:1056900042EA0512104D114EA84201D0B04206D187
:1056A00022F08002CF6842EA071222F04002A842AC
:1056B00001D0B04209D123F4806323F400634D6923
:1056C00043EA85038D6943EA850343608461496841
:1056D00081630262F0BD000000000140000401404F
:1056E000F0B5026A036A23F4807303624368C469F5
:1056F00024F0700424F003050C682C4322F400729B
:105700008D6842EA0522104D104EA84201D0B042E9
:1057100006D122F40062CF6842EA072222F48062B6
:10572000A84201D0B04209D123F4805323F400539E
:105730004D6943EA05138D6943EA05134360C4616B
:105740004968C1630262F0BD0000014000040140ED
:1057500030B5036A026A22F4805202624268C46968
:1057600024F4E04424F440740D6844EA052423F44E
:1057700000538D6843EA0533084DA84202D0084D16
:10578000A84204D122F480424D6942EA8512426067
:10579000C46149680164036230BD0000000001403B
:1057A0000004014010B5036A046A24F00104046295
:1057B000846924F0F00444EA021423F00A020A4344
:1057C0008461026210BD10B5036A046A24F01004FB
:1057D0000462846924F4704444EA023223F0A00392
:1057E00043EA01118261016210BD0000816891ED00
:1057F000010AC168D1ED010A30EE200AF6EE000A76
:1058000020EE200A4169D0ED060A8969C1ED010A3E
:10581000134A9FED141A51684B0409D5436970EE81
:10582000810A9B69C3ED010A21F48041516012E0B5
:105830008B0409D5436970EEC10A9B69C3ED010A67
:1058400021F40051516006E029B94169DFED060AF3
:105850008969C1ED010A40698069016E0348084702
:1058600028000020CDCCCC3D00000000C40A002060
:1058700030B41B4B194AB2EE040A58695168C0682B
:10588000CC0409D5D0ED010A30EE800A80ED010A82
:1058900021F48050506010E00C0509D5D0ED010ACC
:1058A00030EEC00A80ED010A21F40060506004E08F
:1058B00019B99FED0C0A80ED010A1868DFED0A0A9C
:1058C000B0F9100000EE100A5869B8EEC00AC068BE
:1058D000016E30BC20EE200A044808472800002052
:1058E000800B0020000000000C007A3D34090020ED
:1058F00010B5084C606890ED000A6069B8EEC00A07
:105900008068016EA4F5F47088476069C06880ED16
:10591000010A10BD800B002010B5806B0021C185ED
:10592000C184FDF7D5FE10BD70B5846B2068406959
:10593000C0F3C01094F841100025212904D118B1FA
:10594000E584204600F09BF820684069C0F3801091
:1059500094F84210222904D118B1E585204600F0C0
:105960005AF8606C40F0100060642046FDF7B0FE0D
:1059700070BD10B50146886B096809684FF00003D7
:10598000C9052ED4C38501680C3151E8002F22F4DB
:10599000807241E80024002CF5D10168143151E8EF
:1059A000002F22F0010241E80024002CF5D101680B
:1059B000143151E8002F22F0400241E80024002C6D
:1059C000F5D1202180F84210016B012909D101682D
:1059D0000C3151E8002F22F0100241E80024002C85
:1059E000F5D14363016B012902D0FEF735F910BDF3
:1059F000818DFDF71BFE10BD10B5806B0121416349
:105A0000016B012902D0FEF728F910BD818D4908EC
:105A1000FDF70CFE10BD01680C3151E8002F22F497
:105A2000907241E80023002BF5D10168143151E850
:105A3000002F22F0010241E80023002BF5D1016B79
:105A4000012909D101680C3151E8002F22F0100220
:105A500041E80023002BF5D1202180F842100021DD
:105A60000163704710B50168CA6822F04002CA603D
:105A7000202180F84110FEF7F1F8002010BD0168E8
:105A80000C3151E8002F22F0C00241E80023002B26
:105A9000F5D1202180F84110704708B590F84210E8
:105AA000222901D0022008BD82684FF480539A4217
:105AB00001D1016921B1816A9A421DD052B10BE036
:105AC000816A02685268C2F308020A80816A891CEE
:105AD000816209E002697AB10268526802F07F02CD
