:020000040800F2
:10000000E8450020A1010008113900084932000824
:1000100029380008BD07000811470008000000004B
:100020000000000000000000000000009D3A0008F1
:10003000330900080000000015390008153B0008CE
:10004000BB010008BB010008BB010008BB010008A0
:10005000BB010008BB010008BB010008BB01000890
:10006000BB010008BB010008BB010008BB01000880
:10007000BB010008BB010008BB010008BB01000870
:10008000F9070008BB010008BB010008BB0100081C
:10009000BB010008BB010008BB010008BB01000850
:1000A000BB010008913E0008BB010008BB0100082D
:1000B000BB010008BB010008BB010008BB01000830
:1000C000BB010008BB010008BB010008BB01000820
:1000D000BB01000801470008BB010008BB01000884
:1000E000BB010008BB010008BB010008A13E0008DD
:1000F000BB010008B13E0008BB010008BB010008BD
:10010000BB010008BB010008BB0100081939000849
:10011000BB010008BB010008BB010008BB010008CF
:10012000BB010008BB01000809080008BB0100086A
:10013000BB010008BB010008BB010008BB010008AF
:10014000BB010008BB010008BB010008BB0100089F
:10015000BB010008BB01000819080008BB0100082A
:10016000BB010008BB010008BB010008BB0100087F
:10017000BB010008BB010008BB0100080000000033
:10018000BB010008BB010008DFF810D000F05EFAE8
:1001900000480047D1500008AFF30080E845002038
:1001A0000648804706480047FEE7FEE7FEE7FEE711
:1001B000FEE7FEE7FEE7FEE7FEE7FEE7D13B0008CD
:1001C000890100082DE9F05F0546002092469B4614
:1001D00088460646814640241BE02846414647465D
:1001E000224600F082F853465A46C01A914110D375
:1001F00011461846224600F069F82D1A67EB0108EF
:100200004F4622460120002100F060F817EB00095C
:100210004E41201EA4F10104DFDC484631462A4647
:100220004346BDE8F09FD2B201E000F8012B491E21
:10023000FBD270470022F6E710B513460A46044683
:100240001946FFF7F0FF204610BD00F0004230F0E5
:1002500000400AD0C10D01F56071C0F3160042EAFA
:100260000151C20840071143704700200146704702
:1002700030B5041E71F1000404DB4FF0004440422D
:1002800064EB0101141E73F1000405DB1C464FF002
:100290000043524263EB0403994208BF904230BDD1
:1002A00030B50B46014600202022012409E021FA46
:1002B00002F59D4205D303FA02F5491B04FA02F543
:1002C0002844151EA2F10102F1DC30BD202A04DB16
:1002D000203A00FA02F1002070479140C2F1200359
:1002E00020FA03F3194390407047202A04DB203A98
:1002F00021FA02F00021704721FA02F3D040C2F146
:10030000200291400843194670472DE9FE4F804670
:1003100081EA0300C00F0C46009021F0004123F059
:100320000045B8EB0200A94105D24046214690465F
:100330001C460B46024623F00040104347D0270DD1
:10034000C7F30A00C3F30A510290401A01904028F3
:100350006BDAC3F3130040F4801B0098924620B17F
:100360000023D2EB030A63EB0B0B01985946C0F153
:1003700040025046FFF7AAFF06460D465046594632
:10038000019A00F075F910EB08006141002487EA3A
:10039000115284EAE7731A4340D0009A62B3019A7B
:1003A000012A4FEA075215DC001B61EB02014FF0F6
:1003B000004202EA0752CDE90042001C41F58011DB
:1003C00032462B4600F075F903B0BDE8F08F404689
:1003D0002146F9E7001B61EB0201001C41F5801387
:1003E00000185B412018A2F5001747EB030140EA13
:1003F000D570B6196D4111E06D084FEA360645EA31
:10040000C0754FEA0752001B61EB0201001C41F569
:10041000801149084FEA30000019514132462B46FD
:1004200003B0BDE8F04F00F035B90098012240005C
:100430000023D0EB020263EBE073009821464FEA01
:10044000E074B8EB000061EB0401E9E783F00043DE
:100450005BE781F0004158E72DE9FE4F81EA030494
:1004600004F0004421F0004100944FF0000B23F011
:10047000004350EA01045ED052EA03045BD0C3F3A8
:100480000A54C1F30A552C44A4F2F3340194A0FB9E
:100490000254C1F3130141F48011C3F3130343F475
:1004A000801301FB024400FB034E840A970A44EACE
:1004B000815447EA8357A4FB076802958D0A05FB20
:1004C00007854FEA932C04FB0C542705029D4FEA45
:1004D000065847EA1637B5EB08056EEB070C870E92
:1004E000920E47EA811742EA8312A7FB0201B6EB9C
:1004F0000B0164EB00042B0D43EA0C335E1844EB54
:100500001C50DA465146E7FB0201C5F313044FEADB
:100510000B3343EA14534FEA0432019C43EA0603C7
:10052000A4F10C040294009CCDE900B400F0C1F8E1
:1005300003B0BDE8F08F00200146F9E72DE9F04D4A
:1005400081EA030404F0004B21F0004514464FF00B
:10055000000A23F0004150EA050220D054EA0102CB
:100560001DD0C5F30A570246C5F31303C1F31300A8
:10057000C1F30A5640F4801543F48013A7EB060834
:10058000101BD64608F2FD3873EB050002D308F1C4
:10059000010801E092185B41B8F1000F03DA002076
:1005A0000146BDE8F08D00204FF4801106468446D8
:1005B0000EE0171B73EB050705D3121B63EB050356
:1005C00006434CEA010C49084FEA300092185B419F
:1005D00050EA0107EDD152EA030012D082EA04008A
:1005E00083EA0501084305D0101BAB4106D2012266
:1005F000002306E000224FF0004302E06FF001020A
:1006000053101AEB06004CEB085110EB0A0041EBBB
:100610000B01BDE8F04D00F03DB8C1F30A52C1F343
:10062000130140F2FF3341F480119A4202DA0020B4
:100630000146704740F233439A42A2F2334202DC51
:100640005242FFF752BEFFF741BE0000064C074D75
:1006500006E0E06840F0010394E807009847103492
:10066000AC42F6D3FFF794FDAC540008CC5400081C
:10067000202A06DBCB17203A41FA02F043EAE07366
:1006800006E041FA02F3D040C2F120029140084353
:100690001946704710B5141E73F1000408DA401CA7
:1006A00041F1000192185B411A4301D120F0010091
:1006B00010BD2DE9F04D92469B4611B1B1FA81F281
:1006C00002E0B0FA80F220329046FFF7FFFD0446C8
:1006D0000F4640EA0A0041EA0B0153465A460843D6
:1006E00013D0114653EA010019D0C8F14002504618
:1006F000FFF7FBFD05460E46504659464246FFF7BA
:10070000E5FD084305D0012004E020463946BDE858
:10071000F08D0020054346EAE0762C4337430A98E3
:100720006305E40AA0EB08000022FD0A44EA4754EE
:100730000A3002D500200146E9E701051019694198
:10074000DDE9084500196941BDE8F04DA2E7F0B5C3
:100750000146002300245D1E48880F884E6826F855
:1007600017000888401C088008880E7AB04201D122
:1007700000200880002216E0486830F91200A042EC
:1007800003DD486830F9124007E0486830F912008C
:10079000A84202DA486830F91250486830F912006D
:1007A0000344501CC2B2087A9042E5DC181B461B79
:1007B000087A801E96FBF0F000B2F0BD00BFFEE7A5
:1007C0000749016007494160074981600749C160E5
:1007D0000749C26811600749C2685160704700004C
:1007E00018010020000100200C0100200000002062
:1007F000380000209C00002010B5024800F04CF9A1
:1008000010BD0000F001002010B5024800F044F9CE
:1008100010BD00001005002010B5024800F03CF9A2
:1008200010BD00007005002001460878103818231C
:10083000B0FBF3F20848805CC865032A05D9086854
:100840006FF30900001D886503E008686FF3090075
:100850008865886D704700008C54000801460020B0
:100860008A6A8B69CBB932B1012A0DD0022A03D032
:10087000032A10D10EE000BFCB6A03F08073B3F1FE
:10088000807F00D1012007E0CB6AB3F1C07F00D1A7
:10089000012001E000E000BF34E08B69B3F5005FA8
:1008A0001AD132B1012A07D0022A03D0032A11D16A
:1008B0000AE000BF01200EE0CB6A03F08073B3F1C1
:1008C000807F00D1012006E0CB6AB3F1C07F00D168
:1008D000012000E000BF15E032B1012A05D0022A54
:1008E00004D0032A0CD103E000BF00BF012008E0C0
:1008F000CB6A03F08073B3F1807F00D1012000E068
:1009000000BF00BF704730B50468246824F4802419
:1009100005682C60046863608468402C04D1046816
:10092000A2600468E16003E00468A1600468E2601A
:1009300030BD704772B600BFFEE7000070B50446D8
:10094000002600251A480068406A05B2684205B2D0
:1009500018480068406A06B217484680FFF7F7FE5D
:10096000064616484580FFF7F2FE05466068068099
:10097000A068058000EE106AB8EEC00ADFED100A2C
:1009800020EE200A606880ED010A00EE105AB8EEF1
:10099000C00ADFED0B0A20EE200AA06880ED010AF4
:1009A000002003490968486202490968486270BD2D
:1009B00098020020E00200200C0000201800002017
:1009C0000708E63B70B50446A56D00F045FB0646FA
:1009D00094F83500022808D08020606500BF002010
:1009E00084F8340000BF012070BD2068006820F04A
:1009F0001600216808602068406920F080002168A6
:100A00004861206C08B9A06C28B12068006820F00B
:100A10000800216808602068006820F00100216853
:100A2000086010E000F018FB801B05280BD920207F
:100A30006065032084F8350000BF002084F834008E
:100A400000BF0320D0E72068006800F00100002804
:100A5000E8D194F85C103F208840A860012084F819
:100A6000350000BF002084F8340000BF00BFBBE7A2
:100A7000014691F83500022803D080204865012006
:100A80007047052081F835000868006820F00100F3
:100A90000A6810600020F3E7F8B5044600200090D3
:100AA0008C4800684FF41651B0FBF1F7A56D2E6825
:100AB00094F85C1008208840304098B120680068A5
:100AC00000F0040070B12068006820F00400216884
:100AD000086094F85C1008208840A860606D40F0C1
:100AE0000100606594F85C1001208840304068B1D6
:100AF0002068406900F0800040B194F85C1001204B
:100B00008840A860606D40F00200606594F85C1059
:100B100004208840304068B12068006800F002007E
:100B200040B194F85C1004208840A860606D40F0EB
:100B30000400606594F85C1010208840304078B361
:100B40002068006800F0080050B394F85C10102092
:100B50008840A8602068006800F4802080B1206888
:100B6000006800F4002028B9206CC8B12046216C30
:100B7000884715E0A06C98B12046A16C88470FE02B
:100B80002068006800F4807028B92068006820F0B0
:100B9000080021680860206C10B12046216C88474D
:100BA00094F85C10202088403040002865D02068F0
:100BB000006800F0100000285FD094F85C1020203E
:100BC0008840A86094F83500052828D1206800687E
:100BD00020F01600216808602068406920F080003D
:100BE00021684861206C08B9A06C28B120680068B1
:100BF00020F008002168086094F85C103F208840CD
:100C0000A860012084F8350000BF002084F834007B
:100C100000BF206D10B12046216D8847F8BD2068C7
:100C2000006800F4802080B12068006800F4002093
:100C300028B9606C10B12046616C88471DE0E06BFC
:100C4000D8B12046E16B884717E02068006800F4BF
:100C5000807068B92068006820F010002168086082
:100C6000012084F8350000BF002084F8340000BF64
:100C7000E06B10B12046E16B8847606D38B3606D62
:100C800000F00100F0B1052084F83500206800680C
:100C900020F001002168086000BF0098401C00900F
:100CA000B84200D905E02068006800F00100002883
:100CB000F3D100BF012084F8350000BF002084F884
:100CC000340000BFE06C10B12046E16C884700BFE3
:100CD000A4E70000300000202DE9F0410446002583
:100CE00000F0BAF9074614B90120BDE8F081606A46
:100CF00000B100BF022084F8350000BF002084F856
:100D0000340000BF2068006820F0010021680860FE
:100D10000AE000F0A1F9C01B052805D92020606574
:100D2000032084F83500E0E72068006800F0010047
:100D30000028EED12068056821480540D4E901016A
:100D40000843E16808432169084361690843A169D0
:100D50000843E1690843216A08430543606A04289F
:100D600003D1D4E90B0108430543206805602068DE
:100D7000456925F00705606A0543606A04280DD1BE
:100D8000A06A0543E06A48B12046FFF767FD28B135
:100D900040206065012084F83500A6E720684561A1
:100DA0002046FFF741FD064694F85C103F2088403E
:100DB000B06000206065012084F83500002094E7D1
:100DC0003F8010F02DE9F04704460D4616461F46B9
:100DD0004FF00008D4F8589000BF94F83400012870
:100DE00002D10220BDE8F087012084F8340000BF62
:100DF00094F83500012825D1022084F83500002020
:100E000060653B46324629462046FFF77CFD94F854
:100E10005C103F208840C9F808002068006840F056
:100E2000160021680860206C28B12068006840F036
:100E30000800216808602068006840F0010021680F
:100E4000086006E000BF002084F8340000BF4FF0C7
:100E500002084046C6E70000F8B502460B460025EA
:100E6000002400200021D6E0012606FA01F51E68C4
:100E700006EA0504AC4274D11E7906F00306012E81
:100E800004D01E7906F00306022E13D190684F009D
:100E90000326BE40B0434F00DE68BE403043906042
:100EA000506801268E40B0431E79C6F300168E406E
:100EB000304350601E7906F00306032E09D0D06837
:100EC0004F000326BE40B0434F009E68BE403043F3
:100ED000D0601E7906F00306022E13D1CF0802F16E
:100EE000200656F827004E07F70E0F26BE40B043E7
:100EF0004F07FF0E1E69BE403043CF0802F12006A7
:100F000046F8270010684F000326BE40B0431E7904
:100F100006F003064F00BE40304310605E6806F4E2
:100F20004036002E76D000BF002600963C4E366834
:100F300046F480463A4F3E603E46366806F48046A8
:100F4000009600BF00BF374E8F0856F827008E0767
:100F5000370F0F26BE40B043334EB24202D10026B7
:100F600024E057E0314EB24201D101261EE0304E5E
:100F7000B24201D1022619E02E4EB24201D103261F
:100F800014E02D4EB24201D104260FE02B4EB242A6
:100F900001D105260AE02A4EB24201D1062605E01B
:100FA000284EB24201D1072600E008268F073F0FE6
:100FB000BE4030431B4E8F0846F82700224E306853
:100FC000A0435E6806F4801606B120431E4E3060D2
:100FD000361D3068A0435E6806F4001606B1204353
:100FE000194E361D3060184E361F3068A0435E68BB
:100FF00006F4003606B12043134E361F3060361F0C
:101000003068A0435E6806F4803606B120430E4E79
:10101000083E3060491C1029FFF426AFF8BD0000DF
:1010200044380240083801400000024000040240F9
:1010300000080240000C0240001002400014024070
:1010400000180240001C0240083C01400AB18161C6
:1010500001E00B048361704701480068704700009D
:101060002400002070B504460CB9012070BD94F82E
:101070003D0028B9002084F83C00204600F0DAF852
:10108000242084F83D002068006820F001002168D9
:1010900008602068006840F400402168086020680B
:1010A000006820F400402168086000F0EBFA054673
:1010B0005C496068884206D85B48854201D20120BD
:1010C00007E0002005E05948854201D2012000E0F8
:1010D0000020012800D1C9E75548B5FBF0F620688B
:1010E000406820F03F003043216848604D49606807
:1010F000884201D8701C07E04FF4967070434FF49B
:101100007A71B0FBF1F0401C2168096A21F03F01BF
:1011100008432168086243496068884214D8681E01
:1011200061684900B0FBF1F0401CC0F30B000428DB
:1011300001D204203DE0681E61684900B0FBF1F077
:10114000401CC0F30B0034E0A06838B9681E616829
:1011500001EB4101B0FBF1F0401C0AE0681E616840
:1011600001EBC10202EB0111B0FBF1F0401C40F4B5
:101170008040C0F30B0008B901201AE0A06848B90C
:10118000681E616801EB4101B0FBF1F0401CC0F347
:101190000B000CE0681E616801EBC10202EB01115B
:1011A000B0FBF1F0401CC0F30B0040F4804040F471
:1011B00000402168C9694CF6FF72914308432168D9
:1011C000C861D4E9070108432168096821F0C0011A
:1011D000084321680860D4E903100843216889683E
:1011E00048F2FF329143084321688860D4E9050141
:1011F00008432168C96821F0FF0108432168C860DD
:101200002068006840F00100216808600020206428
:10121000202084F83D000020206384F83E0000BFB9
:1012200024E70000A086010080841E0000093D0024
:1012300040420F0010B586B00446142101A8FEF705
:10124000F9FF2A49206888424DD100BF0020009054
:101250002748006840F004002549086008460068F7
:1012600000F00400009000BF00BF00BF002000900D
:101270000846006840F0010008600846006800F079
:101280000100009000BF00BF48150190122002909D
:1012900000200390032004900420059001A9154824
:1012A000FFF7DAFD4FF480700190122002900020C9
:1012B0000390032004900420059001A90E48FFF735
:1012C000CBFD00BF0020009009481030006840F4BA
:1012D00000000749103108600846006800F400006B
:1012E000009000BF00BF06B010BD0000005C0040D1
:1012F0003038024000080240000002400348006805
:101300000349097808440149086070472400002017
:101310002C00002010B50D48006840F400700B4907
:1013200008600846006840F480600860084600686D
:1013300040F480700860032000F0C8F80F2000F02F
:1013400007F800F02BF8002010BD0000003C024020
:1013500070B504460E4800784FF47A71B1FBF0F096
:101360000C490968B1FBF0F5284600F0C6FE08B14B
:10137000012070BD102C07D200222146501E00F023
:1013800067F80548046001E00120F2E70020F0E77B
:101390002C000020300000202800002008B500BFED
:1013A000002000901F48006840F480401D490860FC
:1013B0000846006800F48040009000BF00BF00BFF6
:1013C00000200090081F006840F08050091F08604E
:1013D0000846006800F08050009000BF00BF002267
:1013E00001216FF00B0000F033F8002201216FF0B3
:1013F0000A0000F02DF8002201216FF0090000F032
:1014000027F800220121881F00F022F80022012184
:10141000481F00F01DF800220121C81E00F018F836
:1014200008BD0000443802400146084600280DDB94
:1014300000BF00BF00F01F0301229A4043099B0038
:1014400003F1E023C3F8002100BF00BF00BF7047D5
:101450002DE9F05F80460D461646002703F074F92B
:10146000074639462A46334601F00700C0F1070A0D
:10147000BAF1040F02D94FF0040A01E0C0F1070AE3
:10148000D14600F1040ABAF1070F02D24FF0000A68
:1014900001E0A0F1030AD4464FF0010A0AFA09FA62
:1014A000AAF1010A0AEA020A0AFA0CFA4FF0010B41
:1014B0000BFA0CFBABF1010B0BEA030B4AEA0B0432
:1014C0002146404603F048F9BDE8F09F00BF00F018
:1014D0000702064B19684FF6FF031940044B0B43F4
:1014E00043EA0221014B196000BF70470CED00E098
:1014F0000000FA0570B504460D460CB9012070BD18
:101500005848006800F00700A84209D255490D70FC
:101510000846006800F00700A84201D00120EEE76D
:10152000207800F0020002281DD1207800F004008D
:10153000042805D14C48006840F4E0504A4908604E
:10154000207800F00800082805D14748006840F4DA
:101550006040454908604448006820F0F000A168F8
:10156000084341490860207800F00100A8B3606892
:10157000012807D13C4808380068C0F34040B8B99A
:101580000120BCE76068022802D06068032807D108
:10159000354808380068C0F3406048B90120AEE71C
:1015A000314808380068C0F3400008B90120A6E7B8
:1015B0002D48006820F00300616808432A4908604C
:1015C000FFF74AFD064609E0FFF746FD801B41F2A2
:1015D0008831884202D9032091E707E02248006859
:1015E00000F00C006168B0EB810FEDD11D48006880
:1015F00000F00700A84209D91A490D700846006892
:1016000000F00700A84201D0012078E7207800F020
:101610000400042807D11448006820F4E050E16871
:10162000084311490860207800F00800082808D114
:101630000D48006820F46040216940EAC1000A4971
:10164000086000F03FF808490968C1F30311074A30
:10165000515CC8400649086006480068FFF778FEFC
:1016600000204CE7003C0240083802409454000837
:10167000300000202800002001480068704700006A
:101680003000002000B5FFF7F7FF04490968C1F3F7
:101690008221034A515CC84000BD00000838024066
:1016A000A454000800B5FFF7E7FF04490968C1F337
:1016B0004231034A515CC84000BD00000838024076
:1016C000A45400082DE9F047002400250026A14677
:1016D0002548006800F00C0020B1042805D0082837
:1016E0003AD105E0DFF8849039E0DFF8849036E005
:1016F0001D48001F006800F03F041B48001F0068E1
:1017000000F4800078B11A481749091F0968C1F32D
:101710008811A0FB01700146224600233846FEF7DF
:1017200051FD05460EE011480F49091F0968C1F334
:101730008811A0FB01700146224600233846FEF7BF
:1017400041FD05460848001F0068C0F30140401CE9
:101750004600B5FBF6F902E0DFF8109000BF00BFCD
:101760004846BDE8F0870000083802400024F40035
:1017700000127A00F8B504460CB90120F8BD2078B3
:1017800000F00100002874D0F948006800F00C0057
:1017900004280DD0F648006800F00C00082813D18A
:1017A000F348001F006800F48000B0F5800F0BD1F3
:1017B000EF4808380068C0F34040002859D06068FE
:1017C000002856D10120D9E700BF6068B0F5803FFE
:1017D00008D1E7480838006840F48030E449083907
:1017E00008601EE06068B0F5A02F0DD1E048083811
:1017F000006840F48020DE49083908600846006827
:1018000040F4803008600CE0D9480838006820F4C3
:101810008030D749083908600846006820F48020E5
:10182000086000BF606890B1FFF716FC054606E04F
:10183000FFF712FC401B642801D903209EE7CC4827
:1018400008380068C0F340400028F1D011E0FFF7ED
:1018500003FC054606E0FFF7FFFB401B642801D9A7
:1018600003208BE7C24808380068C0F340400028D6
:10187000F1D1207800F0020002285FD1BC48006856
:1018800000F00C0058B1BA48006800F00C000828BD
:101890001CD1B748001F006800F48000B0B9B448FC
:1018A00008380068C0F3400020B1E068012801D08A
:1018B000012063E7AE480838006820F0F80021698D
:1018C00040EAC100AA490839086037E0E06800B37F
:1018D0000120A8490860FFF7BFFB054606E0FFF7B7
:1018E000BBFB401B022801D9032047E7A04808386A
:1018F0000068C0F340000028F1D09D480838006817
:1019000020F0F800216940EAC100994908390860CF
:1019100014E0002097490860FFF79EFB054606E0AB
:10192000FFF79AFB401B022801D9032026E79048C5
:1019300008380068C0F340000028F1D1207800F09A
:10194000080008282CD16069A8B101208A490860E4
:10195000FFF782FB054606E0FFF77EFB401B0228EF
:1019600001D903200AE782486C300068C0F34000C8
:101970000028F1D014E000207F490860FFF76CFBDD
:10198000054606E0FFF768FB401B022801D903204B
:10199000F4E677486C300068C0F340000028F1D1CD
:1019A000207800F00400042870D1002770483830F7
:1019B000006800F0805090B900BF002000906C4893
:1019C0003830006840F08050694938310860084676
:1019D000006800F08050009000BF00BF01276748FA
:1019E000006800F48070B0B96448006840F480700A
:1019F00062490860FFF730FB054606E0FFF72CFB65
:101A0000401B022801D90320B8E65C48006800F4B6
:101A100080700028F2D000BFA068012808D1544887
:101A20006830006840F001005149683108601DE0ED
:101A3000A06805280DD14E486830006840F00400C9
:101A40004B49683108600846006840F001000860B2
:101A50000CE047486830006820F0010044496831D4
:101A600008600846006820F00400086000BFA06815
:101A7000A8B1FFF7F1FA054609E0FFF7EDFA401BC0
:101A800041F28831884202D9032077E626E03848BF
:101A900068300068C0F340000028EED013E0FFF784
:101AA000DBFA054608E0FFF7D7FA401B41F2883120
:101AB000884201D9032061E62D4868300068C0F3F0
:101AC00040000028EFD1012F07D1294838300068A5
:101AD00020F0805026493831086000BFA0690028F6
:101AE00045D02348006800F00C0008285DD0A069AC
:101AF000022845D100201F490866FFF7ADFA0546C8
:101B000006E0FFF7A9FA401B022801D9032035E6B9
:101B1000174808380068C0F340600028F1D1D4E9C4
:101B200007010843616A40EA81110122A06AC2EB01
:101B3000500041EA00412C20005D41EA00600C4960
:101B4000091F086001200B490866FFF785FA054662
:101B500006E0FFF781FA401B022801D903200DE6B9
:101B6000034808380068C0F340600028F1D049E01D
:101B70000838024000004742800E47420070004093
:101B8000002021490866FFF767FA054606E0FFF7DF
:101B900063FA401B022801D90320EFE51B480068C7
:101BA000C0F340600028F2D12CE0A069012800D1E8
:101BB000E4E51648001D0668A069012820D006F457
:101BC0008001E06981421BD106F03F01206A814219
:101BD00016D147F6C0703040616AB0EB811F0FD15B
:101BE00006F440310122A06AC2EB5000B1EB004F75
:101BF00006D106F070612C20005DB1EB006F01D0C2
:101C00000120BBE50020B9E5000047420038024052
:101C100070470000F8B5044620684668206885686B
:101C2000C5F3801048B905F0010030B1C6F380104B
:101C300018B12046216C8847F8BDC5F3400030B18B
:101C4000C6F3C01018B12046616C8847F4E7C5F3AD
:101C5000401030B9C5F3801018B9C5F30020002832
:101C60007CD0C6F3401000287DD0C5F38010F0B1C1
:101C700094F8510003280ED0606D40F004006065B8
:101C800000BF002000902068C06800902068806835
:101C9000009000BF0BE000BF002000902068C068EB
:101CA000009020688068009000BF00BFC4E7C5F3C3
:101CB000401088B1606D40F00100606500BF0020F9
:101CC00000902068806800902068006820F0400044
:101CD0002168086000BF00BFC5F3002058B1606DE7
:101CE00040F00800606500BF002000902068806818
:101CF000009000BF00BF606D78B32068406820F09E
:101D0000E00021684860012084F8510006F00200DC
:101D1000022802D006F0010008B32068406820F0D5
:101D2000030021684860E06C50B11048E16C086520
:101D3000E06CFEF79DFE18B1606D40F040006065FC
:101D4000A06C50B10948A16C0865A06CFEF790FE2C
:101D500018B1606D40F04000606503E003E020468C
:101D6000FFF756FF68E700BF66E700002939000863
:101D700010B504460CB9012010BD606A38B960681E
:101D8000B0F5827F00D105E00021E16102E0002191
:101D9000216161610021A16294F8510028B90020FD
:101DA00084F85000204600F047F8022084F85100E3
:101DB0002068006820F0400021680860A08800F4D6
:101DC0008270218901F404410843A18901F4006172
:101DD0000843217C01F002010843217D01F001014B
:101DE0000843218B01F400710843217F01F0380181
:101DF00008432021095D01F080010843218D01F491
:101E000000510843216808600421A06901EA1040DC
:101E100094F8241001F010010843216848602068FC
:101E2000C06920F400602168C8610020606501205D
:101E300084F8510000209FE710B586B004461421B5
:101E400001A8FEF7F7F92E492068884255D100BF56
:101E5000002000902B48006840F4004029490860A9
:101E60000846006800F40040009000BF00BF00BFBB
:101E70000020009023481038006840F004002149F9
:101E8000103908600846006800F00400009000BFA8
:101E900000BF4FF4A0500190022002900020039058
:101EA000032004900620059001A91748FEF7D4FFEF
:101EB0001648174908600020486040211448816096
:101EC0000021C1604FF480610161002141618161A5
:101ED000C16101624162FEF7FFFE08B1FEF72AFD13
:101EE00000BF0B48A064846300BF0022012133209F
:101EF000FFF7AEFA3320FFF797FA06B010BD0000E7
:101F0000003C004040380240000802408860024027
:101F1000F00100202DE9F84304460F4616461D4601
:101F2000FFF79AF88046B14694F85100012802D094
:101F30000220BDE8F88307B10EB90120F9E700BF20
:101F400094F85000012801D10220F2E7012084F822
:101F5000500000BF032084F8510000206065276313
:101F6000A686E686A063A087E08760642064A068F8
:101F7000B0F5004F0BD12068006820F040002168C8
:101F800008602068006840F480402168086020688C
:101F9000006800F04000402805D02068006840F04C
:101FA000400021680860E068B0F5006F37D16068D4
:101FB00010B1B9F1010F09D1206B00882168C86008
:101FC000206B801C2063E08E401EE08623E02068AA
:101FD000806800F0020002280AD1206B0088216886
:101FE000C860206B801C2063E08E401EE08612E0FB
:101FF000FFF732F8A0EB0800A84201D3681C00B933
:102000004DB9012084F8510000BF002084F8500031
:1020100000BF03208DE7E08E0028D8D136E060684D
:1020200010B1B9F1010F09D1206B00782168087354
:10203000206B401C2063E08E401EE08623E0206879
:10204000806800F0020002280AD1206B0078216825
:102050000873206B401C2063E08E401EE08612E077
:10206000FEF7FAFFA0EB0800A84201D3681C00B9F4
:102070004DB9012084F8510000BF002084F85000C1
:1020800000BF032055E7E08E0028D8D142462946FC
:10209000204601F053FC08B120206065A06850B9CB
:1020A00000BF002000902068C06800902068806811
:1020B000009000BF00BF012084F8510000BF002045
:1020C00084F8500000BF606D08B1012031E70020A6
:1020D0002FE7042808D14FF0E021096941F00401FD
:1020E0004FF0E022116107E04FF0E021096921F093
:1020F00004014FF0E0221161704770B50446254697
:10210000681EB0F1807F01D301200FE0681E4FF000
:10211000E02148610F214FF0FF3002F01DFB00204D
:102120004FF0E021886107200861002070BD7047F2
:10213000704710B50346002200BF93F83C00012809
:1021400001D1022010BD012083F83C0000BF22F025
:10215000FF00CC6840EA040222F440708C6840EA38
:10216000040222F480604C6840EA040222F4006019
:102170000C6840EA040222F480500C6940EA040230
:1021800022F400504C6940EA040222F48040CC69F9
:1021900040EA04021868426400BF002083F83C0053
:1021A00000BF00BFCEE7000030B502460B4600BFBF
:1021B00092F83C00012801D1022030BD012082F8B4
:1021C0003C0000BF022082F83D001068446810689F
:1021D000816824F070041868044310684460184D46
:1021E0001068A8421BD01068B0F1804F17D0154D71
:1021F0001068A84213D0144D1068A8420FD0134D98
:102200001068A8420BD0124D1068A84207D0114D9B
:102210001068A84203D0104D1068A84205D121F0E3
:1022200080015868014310688160012082F83D00F8
:1022300000BF002082F83C0000BF00BFBDE70000E7
:10224000000001400004004000080040000C004075
:1022500000040140004001400018004010B5044651
:102260000CB9012010BD94F83D0028B9002084F875
:102270003C00204600F026F8022084F83D00211D95
:10228000206801F01DFE012084F8460000BF84F89C
:102290003E0001213F2001554020015541200155BC
:1022A00000BF00BF012084F84200432001554420B4
:1022B00001554520015500BF012084F83D00002054
:1022C000D0E7000038B5044638492068884218D164
:1022D00000BF002000903648006840F001003449FB
:1022E00008600846006800F00100009000BF00BFD1
:1022F000002201211920FFF7ABF81920FFF794F80D
:1023000052E02C492068884211D100BF0020009083
:102310002748001F006840F008002549091F086091
:102320000846006800F00800009000BF3CE0224929
:10233000206888421AD100BF002000901C48001F6E
:10234000006840F040001A49091F0860084600680C
:1023500000F04000009000BF00BF002211462B207B
:10236000FFF776F82B20FFF75FF81DE01349206890
:10237000884219D100BF002000900D48001F00685E
:1023800040F480700A49091F08600846006800F49C
:102390008070009000BF00BF002201212D20FFF7B8
:1023A00057F82D20FFF740F838BD0000000001402D
:1023B00044380240000C004000180040002000405B
:1023C000014691F83D00012801D00120704702200C
:1023D00081F83D000868C06840F001000B68D860D3
:1023E0001A4B086898421BD00868B0F1804F17D08C
:1023F000174B0868984213D0164B086898420FD0C4
:10240000154B086898420BD0144B0868984207D0C7
:10241000134B0868984203D0124B086898420CD1BD
:102420000868806800F00702062A0CD00868006877
:1024300040F001000B68186005E00868006840F093
:1024400001000B6818600020C0E700000000014098
:102450000004004000080040000C0040000401405F
:1024600000400140001800402DE9F04104460D46AF
:10247000002700BF94F83C00012802D10220BDE8EB
:10248000F081012084F83C0000BF022084F83D0068
:102490002068866826F0770626F47F4620688660E6
:1024A0002868502833D00CDC202850D004DC0028C9
:1024B0004BD0102851D149E0302849D040284CD188
:1024C00039E060282DD0702807D0B0F5805F03D0A8
:1024D000B0F5005F41D10DE041E0D5E902136A6833
:1024E000206801F072FD2068866846F07706206853
:1024F000866034E0D5E902136A68206801F065FD62
:102500002068806840F480402168886027E0EA689D
:102510006968206801F04AFE5021206801F060FDE2
:102520001DE0EA686968206801F053FE60212068B8
:1025300001F056FD13E0EA686968206801F036FE94
:102540004021206801F04CFD09E000BF00BF00BF42
:102550002968206801F044FD01E0012700BF00BFA9
:10256000012084F83D0000BF002084F83C0000BF3B
:10257000384684E72DE9F04104460D4614B90120A0
:10258000BDE8F08194F83D0028B9002084F83C00B3
:10259000204600F053F8022084F83D00206880684F
:1025A00044F20701884321688860211D206801F0FA
:1025B00087FC2068D0F80880206886692068076A50
:1025C000286840EA080840F203308643A969A868F1
:1025D00040EA0120064340F60C4086434FF2F000EB
:1025E0008643E969E86840EA01200643286900015A
:1025F000296A40EA0130064327F0220727F08807BE
:102600006969686840EA011007432068C0F80880DB
:102610002068866120680762012084F8460084F8FB
:102620003E0001213F200155012084F84200432053
:102630000155012084F83D000020A1E710B586B0C7
:102640000446142101A8FDF7F5FD354920688842AC
:102650002FD100BF002000903248006840F00200F7
:10266000304908600846006800F00200009000BF92
:1026700000BF00BF002000902A481038006840F0DA
:1026800004002849103908600846006800F004007A
:10269000009000BF00BFC0200190022002900020E7
:1026A000039004900220059001A91F48FEF7D4FB77
:1026B00033E01E49206888422FD100BF00200090DF
:1026C0001848006840F00400164908600846006891
:1026D00000F00400009000BF00BF00BF0020009089
:1026E00010481038006840F008000E4910390860A2
:1026F0000846006800F00800009000BF00BF4FF4DB
:10270000405001900220029000200390049002208B
:10271000059001A90648FEF79FFB06B010BD00001A
:102720000004004040380240000802400008004019
:10273000000C02402DE9F04304460D4694F83E603B
:102740003F20075D94F84280432010F804906DB953
:10275000012E02D1B8F1010F02D00120BDE8F083B3
:10276000022084F83E0084F8420025E0042D0CD1BC
:10277000012F02D1B9F1010F01D00120EEE70221B2
:102780003F2001554320015516E0012E07D1012FAE
:1027900005D1B8F1010F02D1B9F1010F01D001202B
:1027A000DCE7022084F83E0002213F200155022090
:1027B00084F842004320015515B1042D0CD105E0E9
:1027C00001220021206801F0EFFB10E0012204212A
:1027D000206801F0E9FB0AE001220021206801F0F5
:1027E000E3FB01220421206801F0DEFB00BF00BFF3
:1027F0002068006840F00100216808600020ADE713
:10280000704770B504462068C5682068066906F000
:102810000200022819D105F00200022815D1401F3C
:1028200021680861012020772068806900F003009A
:1028300018B12046FFF7E4FF05E0204600F0EEF86F
:10284000204600F0A2F90020207706F004000428BA
:1028500019D105F00400042815D1C043216808618E
:10286000022020772068806900F4407018B120466B
:10287000FFF7C6FF05E0204600F0D0F8204600F044
:1028800084F90020207706F00800082819D105F007
:102890000800082815D1C04321680861042020776A
:1028A0002068C06900F0030018B12046FFF7A8FFB8
:1028B00005E0204600F0B2F8204600F066F900205E
:1028C000207706F01000102819D105F0100010280C
:1028D00015D1C04321680861082020772068C069AD
:1028E00000F4407018B12046FFF78AFF05E020464B
:1028F00000F094F8204600F048F90020207706F018
:10290000010048B105F0010030B16FF0010021680D
:102910000861204600F0C0F906F08000802809D147
:1029200005F08000802805D1C04321680861204659
:10293000FFF7FDFB06F04000402809D105F04000FC
:10294000402805D1C04321680861204600F0F0F915
:1029500006F02000202809D105F02000202805D10C
:10296000C043216808612046FFF7E2FB70BD00000C
:1029700010B586B00446142101A8FDF75BFC22497E
:10298000206888421DD100BF002000901F480068C9
:1029900040F010001D4908600846006800F0100073
:1029A000009000BF00BF4815019002200290002057
:1029B000039004900120059001A91548FEF74CFAF8
:1029C00020E01449206888421CD100BF00200090FC
:1029D0000E48006840F001000C4908600846006895
:1029E00000F00100009000BF00BF01200190022014
:1029F00002900020039004900220059001A906484F
:102A0000FEF72AFA06B010BD00000140303802403F
:102A100000100240000C00400000024070472DE909
:102A2000F04104460D461646002700BF94F83C00CE
:102A3000012802D10220BDE8F081012084F83C0089
:102A400000BF36B1042E1BD0082E31D00C2E5ED123
:102A500045E02946206801F0CDFA2068806940F001
:102A60000800216888612068806920F004002168DE
:102A7000886120688069296908432168886148E085
:102A80002946206801F0EEFA2068806940F4006071
:102A9000216888612068806920F4806021688861ED
:102AA00020688069296940EA01202168886130E056
:102AB0002946206801F014FB2068C06940F0080036
:102AC0002168C8612068C06920F004002168C861DD
:102AD0002068C069296908432168C86119E029464E
:102AE000206801F039FB2068C06940F4006021686B
:102AF000C8612068C06920F480602168C8612068CE
:102B0000C069296940EA01202168C86101E0012704
:102B100000BF00BF00BF002084F83C0000BF384663
:102B200089E710B504460CB9012010BD94F83D00AA
:102B300028B9002084F83C00204600F025F8022047
:102B400084F83D00211D206801F0BAF9012084F8C5
:102B5000460000BF84F83E0001213F20015540207F
:102B600001554120015500BF00BF012084F84200FB
:102B700043200155442001554520015500BF012047
:102B800084F83D000020D0E77047704770B50446D8
:102B90000D4615B994F83E000BE0042D02D13F20FC
:102BA000005D06E0082D02D14020005D01E04120DB
:102BB000005D012801D0012070BD1DB9022084F8FC
:102BC0003E000EE0042D03D102213F20015508E014
:102BD000082D03D102214020015502E002214120AD
:102BE000015501222946206801F0DEF923492068B9
:102BF000884203D022492068884201D1012000E0A8
:102C0000002028B12068406C40F4004021684864EE
:102C10001A49206888421BD02068B0F1804F17D035
:102C200018492068884213D01749206888420FD07D
:102C30001649206888420BD011492068884207D085
:102C400013492068884203D01249206888420CD179
:102C50002068806800F00706062E0CD02068006807
:102C600040F001002168086005E02068006840F03D
:102C700001002168086000209EE70000000001407C
:102C8000000401400004004000080040000C004027
:102C9000004001400018004010B52DED048B82B0BB
:102CA00004461C48844210D11B48FDF747FE1A48D1
:102CB00000F0F6FE19480088401C184908800846B4
:102CC0000088022801D100200880154884421DD1C7
:102CD0001148806890ED010A10EE101A0846FDF7C1
:102CE000B4FA41EC180B0C48406890ED010A10EE64
:102CF000101A0846FDF7A9FA41EC190B8DED008B6F
:102D000053EC192B07A1094802F0A4FB02B0BDEC5B
:102D1000048B10BD70030020340100200800002047
:102D2000B803002025662C25660A0000C804002090
:102D300070477047704700002DE9F84F044620683F
:102D400005682068C668206847694FF00009CA46D0
:102D500005F00F09B9F1000F0AD105F0200038B1D4
:102D600006F0200020B1204601F005FBBDE8F88FF9
:102D7000B9F1000F7CD007F0010018B906F490708B
:102D8000002875D005F0010030B106F4807018B14C
:102D9000606C40F00100606405F0040030B107F0A1
:102DA000010018B1606C40F00200606405F00200A0
:102DB00030B107F0010018B1606C40F004006064AD
:102DC00005F0080048B106F0200010B907F0010036
:102DD00018B1606C40F008006064606C002846D058
:102DE00005F0200028B106F0200010B1204601F0C7
:102DF000C2FA20684069C0F3801A606C00F00800D5
:102E000010B9BAF1000F2DD0204601F05BFA20680E
:102E1000406900F04000402820D100BF00BF216879
:102E2000143151E8001F21F040002168143141E8BD
:102E30000002002AF3D100BFE06B50B17748E16B8C
:102E40000865E06BFDF714FE88B1E06B016D884703
:102E50000DE02046FFF76EFF09E009E02046FFF78E
:102E600069FF04E02046FFF765FF002060647DE70E
:102E7000206B012878D105F01000002874D006F0EE
:102E800010000028FAD000BF0020009020680068E1
:102E9000009020684068009000BF00BF2068406933
:102EA00000F04000402860D1E06B006840681FFAE5
:102EB00080F8B8F1000F56D0A08D404553DDA4F83E
:102EC0002E80E06BC069B0F5807F43D000BF00BFAB
:102ED00021680C3151E8001F21F4807021680C3109
:102EE00041E80002002AF3D100BF00BF00BF216803
:102EF000143151E8001F21F001002168143141E82C
:102F00000002002AF3D100BF00BF00BF21681431C6
:102F100051E8001F21F040002168143141E800020F
:102F2000002AF3D100BF202084F842000020206353
:102F300000BF00BF21680C3151E8001F21F01000D4
:102F400021680C3141E80002002AF3D100BFE06B98
:102F5000FDF738FD02206063A08DE28D801A81B2FA
:102F60002046FFF7E6FE01E742E0A08DE18D401A22
:102F70001FFA80F8E08DD0B3B8F1000F37D000BF52
:102F800000BF21680C3151E8001F21F490702168C6
:102F90000C3141E80002002AF3D100BF00BF00BF9E
:102FA0002168143151E8001F21F00100216814311B
:102FB00041E80002002AF3D100BF202084F842003B
:102FC0000020206300BF00BF21680C3151E8001FC2
:102FD00021F0100021680C3141E80002002AF3D1F1
:102FE00000BF0220606341462046FFF7A2FEBDE617
:102FF00005F0800030B106F0800018B1204601F0E5
:103000004FFBB3E605F0400030B106F0400018B1C8
:10301000204601F08DF9A9E600BFA7E6FB410008B4
:1030200010B504460CB9012010BDA06900B100E044
:1030300000BF94F8410028B9002084F840002046E1
:1030400000F02AF8242084F841002068C06820F4A9
:1030500000502168C860204601F00CFA2068006921
:1030600020F49040216808612068406920F02A001F
:10307000216848612068C06840F400502168C86039
:1030800000206064202084F8410084F84200002081
:10309000606300BFC8E7000010B586B00446142185
:1030A00001A8FDF7C7F83D492068884274D100BFE8
:1030B000002000903A48006840F01000384908604D
:1030C0000846006800F01000009000BF00BF00BF7D
:1030D0000020009032481438006840F00100304968
:1030E000143908600846006800F00100009000BF35
:1030F00000BF4FF4C06001900220029000200390B6
:10310000032004900720059001A92648FDF7A4FE9E
:103110002548264908604FF0006048600021234898
:103120008160C1604FF48061016100214161816172
:10313000C16101624162FDF7CFFD08B1FDF7FAFB05
:1031400000BF1A48E063846300BF1748783018490D
:1031500008604FF000604860402115488160002100
:10316000C1604FF480610161002141618161C161F1
:1031700001624162FDF7B0FD08B1FDF7DBFB00BF66
:103180000B48A063846300BF002201212520FEF7C5
:103190005FF92520FEF748F906B010BD0010014088
:1031A0004438024000000240406402401005002004
:1031B0007005002070470000F7B50446154694F8E6
:1031C0004100202836D1019800B10DB90120FEBD83
:1031D00001982062A584E58400206064212084F8A1
:1031E00041001548A16BC8631448A16B08641448DA
:1031F000A16BC8640020A16B086501AE23681A1D8D
:1032000031682B46A06BFDF7DDFD6FF040002168B3
:10321000086000BF00BF2168143151E8001F41F071
:1032200080002168143141E80002002AF3D100BF78
:103230000020CCE70220CAE75F420008B74200083E
:103240000F4200087047704700BFFEE708B500BF97
:10325000002000901A48006840F480001849086077
:103260000846006800F48000009000BF00BF00BF67
:10327000002000900846006840F4001008600846EE
:10328000006800F40010009000BF00BF0022012180
:103290001020FEF7DDF81020FEF7C6F8002201210D
:1032A0003A20FEF7D5F83A20FEF7BEF800220121B9
:1032B0004620FEF7CDF84620FEF7B6F808BD000020
:1032C0003038024000B587B0142102A8FCF7B2FFE5
:1032D00000BF002001906348006840F08000614911
:1032E00008600846006800F08000019000BF00BF41
:1032F00000BF002001900846006840F0010008600F
:103300000846006800F00100019000BF00BF00BF48
:10331000002001900846006840F010000860084650
:10332000006800F01000019000BF00BF00BF002047
:1033300001900846006840F00800086008460068F0
:1033400000F00800019000BF00BF00BF0020019006
:103350000846006840F0040008600846006800F075
:103360000400019000BF00BF00BF0020019008468C
:10337000006840F0020008600846006800F00200A3
:10338000019000BF00BF002248F206013648FDF759
:103390005DFE00224FF4C0713448FDF757FE002255
:1033A0004FF400613248FDF751FE012211463148C9
:1033B000FDF74CFE01224FF490712F48FDF746FEB9
:1033C000062002900120039000200490059002A99D
:1033D0002548FDF741FD4FF4C07002900120039095
:1033E00000200490059002A92048FDF735FD4FF418
:1033F000004002900120039004900020059002A953
:103400001948FDF729FD4FF4006002900120039058
:1034100004900020059002A91548FDF71DFD01202C
:103420000290039004900020059002A91148FDF736
:1034300013FD2020029001200390049000200590AD
:1034400002A90D48FDF708FD4FF48070029011208D
:10345000039000200490059002A90748FDF7FCFCAA
:1034600007B000BD303802400000024000100240AA
:1034700000080240000C02400004024010B50B4856
:103480000B4908600B484860002109488160C16011
:103490004FF480410161002141618161C16101629C
:1034A000FDF7E0FD08B1FDF745FA10BD005C0040F6
:1034B00044010020A086010010B50F480F490860A4
:1034C0004FF4827048604FF400410C488160002145
:1034D000C160016141614FF4007181611021C161DE
:1034E00000210162416281620A21C162FEF740FC53
:1034F00008B1FDF71FFA10BD003C00409801002004
:103500001FB5002000900190029003900E480F49D3
:1035100008605320486000210C48816040F2E73188
:10352000C160002101618161FEF798FE08B1FDF7DD
:1035300001FA4FF48050009069460448FEF794FF6A
:1035400008B1FDF7F7F91FBD001800407003002017
:1035500010B50A480A49086053204860002108480D
:10356000816041F28731C160002101618161FEF714
:1035700075FE08B1FDF7DEF910BD00000020004027
:10358000B803002000B595B0002011901290139060
:1035900014900F9010901C2108A8FCF74BFE2021DE
:1035A0006846FCF747FE2A482A49086053204860CD
:1035B0000021284881606321C160002101614161CF
:1035C0008161FEF74BFE08B1FDF7B4F94FF480506E
:1035D000119011A91F48FEF747FF08B1FDF7AAF99E
:1035E0001C48FFF79EFA08B1FDF7A4F900200F90E0
:1035F00010900FA91748FEF7D7FD08B1FDF79AF90B
:1036000060200890002009900A900B900C900D907B
:103610000E90002208A90F48FFF701FA08B1FDF744
:1036200089F90020009001900290039004904FF4DB
:10363000005005900020079069460648FEF779FD86
:1036400008B1FDF777F90348FFF792F915B000BD0F
:10365000000001405002002000B58BB0242102A8D8
:10366000FCF7E8FD00200090019018481849086018
:10367000002048600021164881604FF6FF71C1604C
:1036800000210161802181610120029000200390CE
:1036900001200490002005900690079001200890DA
:1036A000002009900A9002A90948FEF763FF08B1BB
:1036B000FDF740F900200090019069460448FEF7AC
:1036C00073FD08B1FDF736F90BB000BD00040040F2
:1036D0009802002000B58BB0242102A8FCF7AAFDB7
:1036E00000200090019018481849086000204860A8
:1036F0000021164881604FF6FF71C1600021016111
:10370000802181610120029000200390012004901B
:103710000020059006900790012008900020099055
:103720000A9002A90948FEF725FF08B1FDF702F942
:1037300000200090019069460448FEF735FD08B16D
:10374000FDF7F8F80BB000BD00080040E0020020D3
:1037500000B58DB0002009900A900B900C90079056
:1037600008901C216846FCF765FD1F481F4908604A
:103770005320486000211D4881606321C160002101
:1037800001618161FEF76AFD08B1FDF7D3F84FF4DE
:103790008050099009A91548FEF766FE08B1FDF7AB
:1037A000C9F81248FFF7BDF908B1FDF7C3F80020CA
:1037B0000790089007A90D48FEF7F6FC08B1FDF741
:1037C000B9F860200090002001900290049000223F
:1037D00069460648FFF723F908B1FDF7ABF803483F
:1037E000FFF7C6F80DB000BD000C00402803002014
:1037F00010B50B480B4908604FF4E13048600021D8
:1038000008488160C16001610C2141610021816132
:10381000C161FFF705FC08B1FDF78CF810BD000091
:1038200000100140C804002000BFFEE770B5044648
:103830000D46012D1DD1002C0DDB012204211E4857
:10384000FDF704FC002202211B48FDF7FFFB1B488B
:10385000006844630DE0002204211748FDF7F6FBE1
:10386000012202211448FDF7F1FB60421349096867
:103870004863F5B9002C0EDB012280211048FDF7CA
:10388000E5FB00224FF480710D48FDF7DFFB0D488A
:10389000006844630DE0002280210948FDF7D6FB53
:1038A000012211020648FDF7D1FB60420549096873
:1038B0004863002070BD0000000002402803002083
:1038C000001002405002002010B504462CB900211F
:1038D0000D48FFF75BF9002010BD012C05D1002138
:1038E0000A48FFF753F90020F6E7022C09D100211E
:1038F0000548FFF74BF900210448FFF747F900207E
:10390000EAE70120E8E70000500200202803002039
:1039100000BFFEE77047000010B50248FEF77AF9D5
:1039200010BD00009801002070B50546AC6B00206A
:10393000E087E0862046FEF76BF970BD7CB5044653
:103940000E4615463346012202212046009500F01E
:1039500039F828B1606D40F02000606503207CBD1F
:10396000164800681821B0FBF1F01549B0FBF1F0E2
:103970004FF47A71484301906068B0F5827F0DD1B1
:103980003346002280212046009500F01BF898B1B4
:10399000606D40F0200060650320E0E700BF019803
:1039A00000B908E00198401E019020688068C0F3CB
:1039B000C0100028F3D100BF0020D0E73000002065
:1039C00040420F002DE9F84F04460D4690461E4632
:1039D000DDF82890FDF740FBA0EB0900371AFDF752
:1039E0003BFB82462C480068C0F3CB307843009004
:1039F00045E0701C002842D0FDF72EFBA0EB0A002A
:103A0000B84200D2A7BB2068406820F0E0002168DF
:103A100048606068B0F5827F0DD1A068B0F5004FB6
:103A200003D0A068B0F5806F05D12068006820F051
:103A3000400021680860A06AB0F5005F0DD100BFAA
:103A40002068006820F40050216808602068006841
:103A500040F400502168086000BF012084F8510044
:103A600000BF002084F8500000BF0320BDE8F88F9D
:103A7000FFE7009800B900270098401E00902068DA
:103A800080682840A84201D1012000E00020404584
:103A9000AFD10020EAE700003000002070470000AE
:103AA00010B504466068007A012814D16068D0ED32
:103AB000010AB0EE600AE0680068016E13488847AA
:103AC000E168096891ED0D0ABDEEC00A10EE100A1A
:103AD0000021FFF7ABFEA068007A012814D1A0688E
:103AE000D0ED010AB0EE600AE0684068016E084857
:103AF0008847E168496891ED0D0ABDEEC00A10EEF5
:103B0000100A0121FFF792FE10BD000038000020CE
:103B10009C00002010B5FDF7F1FB10BD00B593B07F
:103B2000302107A8FCF786FB142102A8FCF782FBD2
:103B300000BF002001902448006840F080502249D6
:103B400008600846006800F08050019000BF00BF88
:103B500000BF002001901D48006840F480401B49D0
:103B600008600846006800F48040019000BF00BF74
:103B7000012007900004089002200D9041050E914D
:103B800004210F91A8211091022111910421129179
:103B900007A8FDF7EFFD08B1FCF7CCFE0F2002905F
:103BA00002200390002004904FF4A05005904FF4A1
:103BB00080500690052102A8FDF79CFC08B1FCF797
:103BC000B9FE13B000BD0000403802400070004054
:103BD0000348006840F47000014908607047000025
:103BE00088ED00E010B52A2000F036F9002000F042
:103BF00019F9002000F016F9002000F013F9EF2069
:103C000000F010F92B2000F027F9002000F00AF94D
:103C1000002000F007F9002000F004F9EF2000F088
:103C200001F92C2000F018F910BD000038B5044649
:103C3000FFF7D8FF002000900122D1020B48FDF7CA
:103C400005FA20128DF80000E0B28DF80100002581
:103C500007E04FF6FF73022269460548FEF75AF95E
:103C60006D1CB5F5614FF4D338BD0000000802406B
:103C70009801002010B5642001F0ECF9142001F047
:103C8000E9F90A2001F0E6F9112000F0E5F80A2030
:103C900001F0E0F93A2000F0DFF8052000F0C2F86A
:103CA000B22000F0D9F80C2000F0BCF80C2000F095
:103CB000B9F8002000F0B6F8332000F0B3F8332054
:103CC00000F0B0F8B72000F0C7F8352000F0AAF8EF
:103CD000BB2000F0C1F8322000F0A4F8C22000F0B0
:103CE000BBF8012000F09EF8C32000F0B5F81520C5
:103CF00000F098F8C42000F0AFF8202000F092F80F
:103D0000C62000F0A9F80F2000F08CF8D02000F0B9
:103D1000A3F8A42000F086F8A12000F083F8E020AA
:103D200000F09AF8D02000F07DF8082000F07AF832
:103D30000E2000F077F8092000F074F8092000F058
:103D400071F8052000F06EF8312000F06BF8332098
:103D500000F068F8482000F065F8172000F062F8DD
:103D6000142000F05FF8152000F05CF8312000F01E
:103D700059F8342000F056F8E12000F06DF8D0201A
:103D800000F050F8082000F04DF80E2000F04AF83E
:103D9000092000F047F8092000F044F8152000F051
:103DA00041F8312000F03EF8332000F03BF8482085
:103DB00000F038F8172000F035F8142000F032F841
:103DC000152000F02FF8312000F02CF8342000F0FE
:103DD00029F8362000F040F8022030B1012808D040
:103DE00002280AD0032810D10BE0C02000F01AF8F6
:103DF0000BE0002000F016F807E0702000F012F849
:103E000003E0A02000F00EF800BF00BF212000F06A
:103E100023F8292000F020F84FF6FF70FFF706FF87
:103E200010BD000001B50122D1020848FDF70EF9CE
:103E300000224FF400410648FDF708F94FF6FF73E2
:103E4000012269460348FEF765F808BD00080240F4
:103E5000000002409801002001B500224FF40061EB
:103E60000848FDF7F3F800224FF400410648FDF73B
:103E7000EDF84FF6FF73012269460448FEF74AF851
:103E800008BD000000080240000002409801002028
:103E900010B50248FEF7B5FC10BD0000500200202E
:103EA00010B50248FEF7ADFC10BD00007003002005
:103EB00010B50248FEF7A5FC10BD0000B8030020B5
:103EC00010B502682D4B98420ED0B0F1804F0BD048
:103ED0002B4B984208D02B4B984205D02A4B984246
:103EE00002D02A4B984203D122F070024B681A4349
:103EF000224B984220D0B0F1804F1DD0204B9842E9
:103F00001AD0204B984217D01F4B984214D01F4B09
:103F1000984211D01E4B98420ED01E4B98420BD0A7
:103F20001D4B984208D01D4B984205D01C4B98421F
:103F300002D01C4B984203D122F44072CB681A4342
:103F400022F080034C6943EA040202608B68C3627A
:103F50000B688362094B984202D00C4B984201D106
:103F60000B69036301234361036903F001031BB180
:103F7000036923F00103036110BD0000000001404C
:103F80000004004000080040000C00400004014014
:103F9000004001400044014000480140001800403A
:103FA000001C00400020004030B501F01F05012436
:103FB00004FA05F3046A9C430462046A01F01F05D5
:103FC00002FA05F52C43046230BD30B50C46816819
:103FD00021F47F4142EA032525432943816030BD16
:103FE0000A46816821F0700142F00703194381609D
:103FF0007047000030B5026A056A25F001050562C8
:104000004368846924F0700424F003040D682C4391
:1040100022F002028D682A43104DA84200D103E02D
:104020000F4DA84206D100BF22F00802CD682A43F6
:1040300022F00402094DA84202D0094DA84207D13E
:1040400023F4807323F400734D692B438D692B4354
:10405000436084614D684563026230BD00000140E9
:104060000004014030B5026A056A25F010050562BA
:104070004368846924F4E04424F440740D6844EAFD
:10408000052422F020028D6842EA0512124DA84252
:1040900000D103E0114DA84207D100BF22F08002F9
:1040A000CD6842EA051222F040020B4DA84202D030
:1040B0000A4DA84209D123F4806323F400634D69BB
:1040C00043EA85038D6943EA8503436084614D6853
:1040D0008563026230BD0000000001400004014021
:1040E00030B5026A056A25F4807505624368C469C3
:1040F00024F0700424F003040D682C4322F40072B1
:104100008D6842EA0522124DA84200D103E0114D0C
:10411000A84207D100BF22F40062CD6842EA05221E
:1041200022F480620A4DA84202D00A4DA84209D169
:1041300023F4805323F400534D6943EA05138D693A
:1041400043EA05134360C4614D68C563026230BD34
:10415000000001400004014030B5036A056A25F4FF
:10416000805505624468C26922F4E04222F440723C
:104170000D6842EA052223F400538D6843EA0533B3
:10418000084DA84202D0084DA84204D124F480442E
:104190004D6944EA85144460C2614D680564036258
:1041A00030BD0000000001400004014030B50B4666
:1041B0001446026A056A25F001050562816921F04D
:1041C000F00141EA041122F00A021A4381610262FD
:1041D00030BD30B50B461446026A056A25F010055D
:1041E0000562816921F4704141EA043122F0A002A4
:1041F00042EA03128161026230BD70B50546AC6BC4
:104200000020E085E0842046FEF794FD70BD70B587
:1042100006460025B46B20684069C0F3C01594F8C9
:104220004100212805D125B10020E084204600F07E
:104230008FF820684069C0F3801594F84200222866
:1042400005D125B10020E085204600F03BF8606CE8
:1042500040F0100060642046FEF76CFD70BD70B544
:104260000546AC6B2868006800F48070F8B900203F
:10427000E08400BF00BF2168143151E8001F21F025
:1042800080002168143141E80002002AF3D100BF08
:1042900000BF00BF21680C3151E8001F41F0400011
:1042A00021680C3141E80002002AF3D102E02046E7
:1042B000FEF7C8FF70BD70B50446A56B2846FEF733
:1042C000C2FF70BD00BF00BF02680C3252E8002F71
:1042D00022F4907102680C3242E80013002BF3D1F3
:1042E00000BF00BF00BF0268143252E8002F22F066
:1042F00001010268143242E80013002BF3D100BF21
:10430000016B01290ED100BF00BF02680C3252E8D8
:10431000002F22F0100102680C3242E80013002B3B
:10432000F3D100BF202180F84210002101637047C3
:1043300010B504462068C06820F040002168C860BD
:10434000202084F841002046FEF77CFF002010BDAD
:1043500000BF00BF02680C3252E8002F22F0C001FB
:1043600002680C3242E80013002BF3D100BF202179
:1043700080F841107047F8B5044694F842002228AE
:1043800075D1A068B0F5805F0CD1206950B90025C7
:10439000A66A20684068C0F308003080A06A801CCC
:1043A000A06215E0A56A0026A068B0F5805F03D082
:1043B000A06828B9206918B920684068287004E00E
:1043C0002068406800F07F002870A06A401CA0624E
:1043D000E08D401E80B2E085002846D12068C0688C
:1043E00020F020002168C8602068C06820F4807038
:1043F0002168C8602068406920F001002168486198
:10440000202084F8420000206063206B012826D120
:104410000020206300BF00BF21680C3151E8001F5D
:1044200021F0100021680C3141E80002002AF3D18C
:1044300000BF2068006800F0100010280AD100BFFB
:10444000002000902068006800902068406800907C
:1044500000BF00BFA18D2046FEF76BFC02E02046A6
:10446000FEF7A8FE0020F8BD01E00020FBE70220D7
:10447000F9E700002DE9F84F04462068006920F4B0
:104480004050E1680843216808612169A068084339
:1044900061690843E169084300902068C06849F2F7
:1044A0000C618843009908432168C860206840690E
:1044B00020F44070A169084321684861764920686A
:1044C000884203D075492068884203D1FDF7EAF895
:1044D000814602E0FDF7D6F88146E069B0F5004F6D
:1044E0006CD102206168A0FB015003461920A9FB92
:1044F000007001462A463846FBF764FE6421B0FB93
:10450000F1F04FEA001A02206168A0FB01510B464E
:104510001920A9FB00712A463846FBF753FE834653
:1045200002206168A0FB015003461920A9FB00711D
:104530002A463846FBF746FE6421B0FBF1F000EB5B
:10454000C00101EB0010ABEB8000322101EBC00099
:104550006421B0FBF1F000F0F8000AEB400A022001
:104560006168A0FB015003461920A9FB00700146B9
:104570002A463846FBF726FE834602206168A0FBE8
:10458000015003461920A9FB00712A463846FBF763
:1045900019FE6421B0FBF1F000EBC00101EB00104B
:1045A000ABEB8000322101EBC0006421B0FBF1F0E5
:1045B00000F007005044216888606AE004206168C8
:1045C000A0FB015003461920A9FB007001462A46B2
:1045D0003846FBF7F7FD824604206168A0FB0150D6
:1045E00003461920A9FB007001462A463846FBF70E
:1045F000E9FD6421B0FBF1F000EBC00101EB00101C
:10460000AAEB8000322101EB00106421B0FBF1F035
:1046100000F0F00A04206168A0FB01700346192035
:10462000A9FB00513A462846FBF7CCFD6421B0FBBC
:10463000F1F00AEB001A04206168A0FB01510B465F
:104640001920A9FB00712A463846FBF7BBFD8346BB
:1046500004206168A0FB015003461920A9FB0070EB
:1046600001462A463846FBF7ADFD6421B0FBF1F068
:1046700000EBC00101EB0010ABEB8000322101EB3D
:1046800000106421B0FBF1F000F00F0050442168ED
:104690008860BDE8F88F0000001001400014014060
:1046A000014691F84100212828D18868B0F5805F43
:1046B0000BD1086948B90A6A1088C0F308000B6872
:1046C0005860086A801C086205E00B6A581C086282
:1046D00018780B685860C88C401E80B2C88458B9DE
:1046E0000868C06820F080000B68D8600868C0685F
:1046F00040F040000B68D860002070470220FCE7C3
:1047000010B50248FEF718FB10BD0000C8040020D9
:1047100000BFFEE77CB50C001D461646014601D0E1
:10472000601E00E00020CDE90010064B6A462946D5
:10473000304600F0F7F8002C02D0009A00211170EA
:104740007CBD00002B50000802480068C0F3022026
:10475000704700000CED00E010B5002804DB0A07EC
:10476000130E054A135406E00A07140E034A00F01C
:104770000F031B1FD45410BD00E400E018ED00E04F
:1047800002E008C8121F08C1002AFAD1704770471A
:10479000002001E001C1121F002AFBD17047000078
:1047A0002DE9FF5F82B00021DDE90430020DDDF864
:1047B00040B0034318D044F61050A2F2FF324243F7
:1047C0001514119801281FD0A5EB0B00401C5FEABF
:1047D000000A4FF000064E4FDFF83891B0465046C1
:1047E00015D5CAF1000413E0119801244AA3012849
:1047F00001D16FEA0B010298119AC0E90031C0E9BA
:10480000024206B0BDE8F09FCBF10000DFE70446AE
:104810000021404A491842EB0450CDE9001012E053
:10482000E00707D032463B4640464946FBF714FEB8
:104830008046894632463B4610461946FBF70CFE39
:1048400006460F466410002CEAD1DDE90401DDE9DB
:104850000023BAF1000F06DAFBF7FEFD42464B4695
:10486000FBF7FAFD05E0FBF769FE42464B46FBF716
:1048700065FE04460E460022284BFBF7F9FC03D8E0
:104880004FF0FF30014607E00022254B204631461D
:10489000FBF73BFDFBF7C1FE102409E0002C0ADB0F
:1048A0000A220023FBF78EFC039B30321A55641E4C
:1048B00050EA0102F2D1641C039AC4F111031444BA
:1048C000119A012A03D0012208430DD10AE00843BE
:1048D00004D000204FF0110B119072E7A3EB0B05F1
:1048E0006D1E0DE05B4504DD4FF0000205F1010592
:1048F00004E003DA4FF00002A5F10105002AECD034
:1049000002981199C0E90231C0E9004579E7000039
:10491000000014400000F03F300000000000F043B1
:104920000000E03F2DE9FF4F95B09A4688460646C5
:104930000025EEE1252877D100242746F94A0121F8
:10494000039400E0044316F8013F203B01FA03F012
:104950001042F7D130782A2811D06FF02F03307829
:10496000A0F13002092A16D8039A44F0020402EB9F
:10497000820203EB42021044761C0390EFE758F8E2
:10498000042B0392002A03DA504244F400540390AB
:1049900044F00204761C30782E2816D116F8010F48
:1049A00044F004042A280DD06FF02F023078A0F1D3
:1049B0003003092B09D807EB870302EB4303C71821
:1049C000761CF3E758F8047B761C30786C280FD0FF
:1049D00006DC4C2817D068280DD06A2814D104E0D2
:1049E000742810D07A280FD10DE044F400140AE0A6
:1049F00044F4801401E044F440147278824202D1FD
:104A000004F58014761C761C307866280BD013DCF5
:104A1000582877D009DC002875D04528F6D04628DC
:104A2000F4D047281AD193E118E0632835D06428E0
:104A300079D0652812D18BE1702873D008DC672803
:104A4000F1D069286FD06E280DD06F2806D1ACE068
:104A500073282CD0752874D0782853D052461799D3
:104A600090476D1C54E1C4F30250022809D003287A
:104A70000DD0D8F8001004280DD00D6008F10408FE
:104A800046E1D8F80010EA17C1E90052F6E7D8F875
:104A900000100D80F2E70D70F0E718F8041B8DF898
:104AA000001000208DF80100EB46012003E058F8CB
:104AB00004BB4FF0FF3061074FF0000102D40DE05E
:104AC00009F101018946B9420FDA8145F8DB1BF88B
:104AD00009100029F4D108E009F101018946814259
:104AE000FADB1BF809100029F6D103985346A0EB16
:104AF000090721463846179A00F080FA284400EB4F
:104B0000090507E044E008E10DE01BF8010B5246FF
:104B100017999047B9F10109F7D253462146384613
:104B2000179AF2E039E00A21C4F302524FF0000B69
:104B30000091022A06D058F8040BC117032A09D0A5
:104B40000AE023E008F1070020F00702F2E8020182
:104B5000904605E000B2C117042A01D140B2C11746
:104B6000002906DA0A460021404261EB02012D22AB
:104B700002E0220504D52B228DF80420012203E057
:104B8000E20701D02022F7E7914657E00A2100E032
:104B900010214FF0000B00910BE010214FF0000BA3
:104BA00044F004040827009103E008204FF0000BB4
:104BB0000090C4F30252022A05D058F8040B0021D9
:104BC000032A08D008E008F1070020F00702F2E805
:104BD0000201904603E080B2042A00D1C0B24FF037
:104BE000000922072AD53278702A07D0DDF800C0E4
:104BF0008CF0100C5CEA0B0C05D00EE040228DF816
:104C00000420012208E050EA010306D030238DF889
:104C100004308DF8052002229146009B83F00803A2
:104C200053EA0B030AD150EA010201D1620705D50C
:104C300030228DF804204FF001097F1E3278582A67
:104C400004D039A20C920CAA02920BE03BA2F9E725
:104C50005B46009AFBF7B6FA0C9B9B5C029A521ECD
:104C60000292137050EA0102F2D1029804A9081AC4
:104C700000F1200B600702D524F4803400E0012706
:104C80005F4502DDA7EB0B0000E0002000EB0B010D
:104C9000009003984944401A0390E00306D4534619
:104CA0002146179A039800F0A9F90544002706E069
:104CB00001A85246C05D179990476D1C7F1C4F4557
:104CC000F6DBE0030CD553462146179A039800F013
:104CD00095F9054404E030205246179990476D1C21
:104CE0000099481E00900029F5DC08E0029802991E
:104CF00052460078491C0291179990476D1CBBF1F0
:104D00000001ABF1010BF1DC5BE100F065F905445A
:104D1000761C307800287FF40DAE19B02846BDE827
:104D2000F08F000009280100303132333435363736
:104D300038396162636465660000000030313233E7
:104D40003435363738394142434445460000000087
:104D5000600700D4062708F1070020F00700F0E8FC
:104D60000223804603F0004C5FEA0C0001D097A0BC
:104D700009E0200501D596A005E0E00701D095A047
:104D800001E0AFF24C001390307823F00043652827
:104D90000CD006DC452809D046281DD047287FD1F5
:104DA0003BE0662818D067287AD136E00021112F21
:104DB00001DB112000E0781CCDE9000104A90CA85A
:104DC000FFF7EEFCDDE90D010C9A4FF0000B07F147
:104DD0000109109200914EE04FF000400097CDE99C
:104DE000011004A90CA8FFF7DBFCDDE90D020C9B08
:104DF0000F994FF0000B91461093009211B9791C56
:104E000000EB0109B7EB090003D4C0F1FF3B07F148
:104E10000109A9EB0700019042E0012F00DA012708
:104E20000021112F01DD112000E03846CDE90001FD
:104E300004A90CA8FFF7B4FCDDE90D010C9A009160
:104E40004FF0000BB946109221070FD4009A4A4543
:104E500003DA914601E0A9F10109B9F1010F05DD7D
:104E6000109AA9F10101515C3029F4D0B84202DA5C
:104E700010F1040F03DA0121CDE9011010E0002840
:104E800003DC8344A9EB000102E0411C494500DD3D
:104E90008946A0EB0B00401C01904FF000400290AF
:104EA000200705D40198484502DB4FF0FF30019000
:104EB00000208DF84B0002980DF14B07B0F1004F28
:104EC00025D002200C902B200D90029800280CDA9F
:104ED000404202902D200D9007E00A210298FBF736
:104EE000DFF93031029007F8011D0C99481E0C9033
:104EF0000029F2DC02980028EFD1791E0D98087085
:104F0000307800F0200040F0450007F8020D11A8AD
:104F1000C01BC01D02901398007800B1012000EB67
:104F20000901019801EBE071029801440398401ACD
:104F3000401E0390E00306D453462146179A039877
:104F400000F05CF805441398007818B152461799A0
:104F500090476D1CE00323D553462146179A0398CA
:104F600000F04CF805441BE0BBF1000F07DB009894
:104F7000584504DD1098179910F80B0001E01799B7
:104F800030205246904701980BF1010B401E05F16D
:104F90000105019004D12E205246179990476D1CAF
:104FA000B9F10001A9F10109DEDC05E017F8010BF8
:104FB0005246179990476D1C0299481E029000298D
:104FC000F4DC53462146179A03989EE62D00000014
:104FD0002B000000200000002DE9F04104460025D0
:104FE0001E461746880404D405E039462020B04701
:104FF0006D1C641EF9D52846BDE8F0812DE9F0410D
:10500000044600251E469046C80301D5302700E01F
:105010002027880404D505E041463846B0476D1C7A
:10502000641EF9D52846BDE8F0814A68002A06D0FA
:105030000A68531C0B6010704868401E4860704737
:1050400010B504460420FDF744F80148046010BD83
:105050003400002070B504461E2094FBF0F594FB4C
:10506000F0F100FB114604E047F2305000F00CF87C
:105070006D1E002DF8D12EB14FF47A7106FB01F0B0
:1050800000F002F870BD000070B5034600224FF03A
:10509000E02675690D4E366803FB06F44FF0E026F6
:1050A000B16910E04FF0E026B06988420BD0884229
:1050B00002D20E1A324402E02E1A0E443244014645
:1050C000A24200D300E0EDE700BF70BD3400002035
:1050D000FCF720F9FEF722FDFEF7F4F8FEF7B6F82C
:1050E000FEF786FBFEF74EFAFEF7E6F9FEF7C6F985
:1050F000FEF7F0FAFEF72CFBFEF7AEFAFEF700FA29
:10510000FEF726FAA820FFF79BFFFEF7B3FD3C2130
:105110003E48FDF70FFB3C213D48FDF70BFB3B48AC
:10512000FDF74EF93A48FDF74BF93A48FDF748F9D3
:105130003948FDF745F93948FBF742FB3749C9685B
:10514000086800F04FF93549C96808683349C968EB
:105150000968DFED332AB1EE0A2ADFED321A9FED3E
:10516000321AF7EE000A9FED2E0A32231A468C6D92
:105170000121A0472949C968486800F033F9274947
:10518000C96848682549C9684968DFED252AB1EE34
:105190000A2ADFED241A9FED241AF7EE000A9FED8C
:1051A000200A32231A468C6D0121A04701201B4999
:1051B000496808721949896808720220FEF784FB61
:1051C00023E04FF4FA60FFF745FF9FED180A1348FC
:1051D000C068006880ED010A9FED140A0F48C0689E
:1051E000406880ED010A4FF4FA60FFF733FF9FED4E
:1051F0000E0A0A48C068006880ED010A9FED0A0A9D
:105200000648C068406880ED010ADAE7980200208D
:10521000E002002070030020B803002034010020C9
:105220000000000000001643CDCCCC3D3333333FAB
:1052300010B52DED068B0446B0EE408A607800284C
:105240006CD084ED068A94ED080A84ED090A94ED89
:10525000070A84ED080A94ED0D0A84ED0E0A94ED18
:10526000010AD4ED060A30EE600A84ED070A94EDD7
:10527000110A10EE101A0846FAF7E7FF41EC190B75
:1052800094ED070A10EE101A0846FAF7DEFF21F037
:10529000004153EC192BFAF7EBFF7DD22078E0BBED
:1052A00094ED030AD4ED070A20EE200A84ED0A0AE1
:1052B00094ED0B0AD4ED040A94ED071A00EE810A6E
:1052C00084ED0B0A94ED070AD4ED080A30EE600A6B
:1052D000D4ED050A20EE200A84ED0C0A94ED0B0AA9
:1052E000D4ED100AB4EEE00AF1EE10FA03DD94ED0D
:1052F000100A84ED0B0A94ED0B0AD4ED100AF1EEBE
:10530000600AB4EEE00AF1EE10FA05D294ED100A4C
:10531000B1EE400A84ED0B0A01E00DE05DE094ED92
:105320000A0AD4ED0B0A30EE200AD4ED0C0A30EE56
:10533000200A84ED0D0A4BE02078012848D194ED35
:10534000070AD4ED080A30EE600AD4ED030A20EE15
:10535000200A84ED0A0A94ED040AD4ED070A20EE2F
:10536000200A84ED0B0A94ED070AD4ED080AB0EE8A
:10537000001A01EE600AD4ED090A30EE200AD4EDDD
:10538000050A20EE200A84ED0C0A94ED0A0AD4EDF9
:105390000B0A30EE200A00E00AE0D4ED0C0A30EEF1
:1053A000200AD4ED0D0A30EE200A84ED0D0A0FE03C
:1053B0009FED0B0A84ED0D0A9FED090A84ED0A0AA0
:1053C0009FED070A84ED0B0A9FED050A84ED0C0A98
:1053D00094ED0D0ABDEC068B10BD9FED010AF9E7B7
:1053E00000000000044981650449C1650449016663
:1053F0000121417070470000055400084554000821
:10540000315200080170C0ED120A80ED110A03EE5E
:10541000103AB8EE433A80ED103A03EE102AB8EE97
:10542000433A80ED0F3A80ED011AC0ED031A80ED8A
:10543000042AC0ED052A9FED023A80ED0D3A70472F
:105440000000000080ED030AC0ED040A80ED051A9B
:10545000704700000FB438B5054606A80090C82173
:105460000948009B059AFFF755F904460020009073
:10547000C82C00D9C824A2B203492846FDF79CFED7
:1054800038BC5DF814FB0000000400200006101674
:1054900000061016000000000000000001020304D6
:1054A000060708090000000001020304CC540008AC
:1054B0000000002038000000804700080455000864
:1054C00038000020B04500009047000800000000B0
:1054D000000000000000000000000000D0050020D7
:1054E0000500000000000000DA05002005000000B3
:1054F0000000000010000000010000000024F40083
:0455000000000000A7
:040000050800018965
:00000001FF
